:020000040800F2
:1000000000060020B91E00089D1E00089F1E000863
:10001000A11E0008A31E0008A51E00080000000085
:10002000000000000000000000000000A71E000803
:10003000A91E000800000000AB1E0008ED1E00080D
:10004000F11E0008F51E0008F91E0008FD1E00083C
:10005000011F0008051F0008091F00080D1F0008E8
:10006000111F0008151F0008191F00081D1F000898
:10007000211F0008251F0008291F00082D1F000848
:10008000311F0008351F0008391F00083D1F0008F8
:10009000411F0008451F0008491F00084D1F0008A8
:1000A000511F0008551F0008591F00085D1F000858
:1000B000611F0008651F0008691F00086D1F000808
:1000C000711F0008751F0008791F00087D1F0008B8
:1000D000811F0008851F0008891F00088D1F000868
:1000E000911F0008951F0008991F00089D1F000818
:1000F000A11F0008A51F000800000000000000006C
:100100000000000000000000A91F0008AD1F00084B
:100110000000000000000000AD1E0008B11F000834
:10012000B51F0008B91F0008BD1F0008C11F000847
:10013000C51F0008C91F0008CD1F0008D11F0008F7
:10014000D51F0008000000000000000000000000B3
:10015000000000000000000000000000000000009F
:100160000000000000000000D91F0008DD1F00088B
:10017000E11F000800000000E51F0008000000006B
:1001800000000000E91F000838B5040001D101207B
:1001900032BD00F031F818B900F02AF800F0BAFBCF
:1001A0000FE00068C16841F00101C160816801F0A1
:1001B0000701062903D0016841F001010160002018
:1001C000704702206870211D206800F0E0F90120CE
:1001D0006870002032BD38B5040001D1012032BD65
:1001E00000F00AF818B900F003F800F03DFCE8E769
:1001F000002129702046704704F13C05687870475B
:10020000F8B504000E4601D10120F2BDFFF7F4FF5E
:1002100018B9FFF7EDFF00F099FB02206870216824
:10022000DFF834038A6802408A60211D206800F0EC
:10023000AEF92268DFF8241393689069176A0140C9
:10024000B0680843B16940EA0120DFF814130140A7
:10025000F0680843F16940EA0121306941EA001081
:10026000316A40EA013C7068716927F0AA070743C8
:100270003068034347EA011793602168C1F818C04A
:1002800001212068076269700020F2BD000010B5EE
:100290000446206801698A0715D5C1688A0712D506
:1002A0006FF00201016101222277806910F0030FD3
:1002B000204602D000F0D9FB03E000F0D7FB00F0AD
:1002C00087F800202077206801694A0715D5C168A2
:1002D0004A0712D56FF0040101610222227780697A
:1002E00010F4407F204602D000F0BFFB03E000F096
:1002F000BDFB00F06DF800202077206801690A0737
:1003000015D5C1680A0712D56FF0080101610422F2
:100310002277C06910F0030F204602D000F0A5FB41
:1003200003E000F0A3FB00F053F8002020772068E2
:100330000169CA0615D5C168CA0612D56FF0100149
:10034000016108222277C06910F4407F204602D064
:1003500000F08BFB03E000F089FB00F039F800208F
:10036000207720680169CA0708D5C168CA0705D582
:100370006FF001010161204600F0C5FD20680169B0
:100380000A0608D5C1680A0605D56FF0800101612B
:10039000204600F0F3FD206801694A0608D5C168CF
:1003A0004A0605D56FF040010161204600F0E7FDE7
:1003B000206801698A060AD5C1688A0607D56FF0E8
:1003C000200101612046BDE8104000F0D9BD10BDFC
:1003D000204600F0D6BD70B500F063F801D10220D0
:1003E00070BD00F06BF832B1042A17D0082A28D06B
:1003F0000C2A39D04AE03068294600F014F93068F8
:10040000816941F0080100F048F821F004018161A0
:1004100031688A69286902438A6137E03068294671
:1004200000F032F93068816941F4006100F035F87C
:1004300021F4806100F031F82A6941EA02218161EA
:1004400024E03068294600F046F93068C16941F07F
:10045000080100F01EF821F00401C1613168CA6989
:1004600028690243CA6111E03068294600F04AF960
:100470003068C16941F4006100F00BF821F480613B
:1004800000F007F82A6941EA0221C16100F010F882
:1004900070BDC1613068C169704781613068816930
:1004A0007047064606F13C040D4620780128704747
:1004B0000120607000212170002070470120207011
:1004C00002216170704738B500F055F801D1022063
:1004D00032BD0120207002226270DFF858022A68C3
:1004E0009368034093600868020018BF10282DD05D
:1004F000202818BF302829D0402823D0502816D0D3
:10050000602818D0702803D0B0F5005F07D021E034
:1005100000F02CF82868816841F0770105E000F0D0
:1005200025F82868816841F48041816012E000F07C
:1005300019F850210BE0CA684968286800F01FF9D3
:10054000602104E000F00EF8402100E00146286838
:1005500000F027F915E00000F8BFFFFFFCFCFFFFEB
:100560000303FFFFCA6849682868F9E0CB684A6856
:10057000896828681DE1054605F13C0420780128BA
:1005800070470120607000212170002032BD2DE9EC
:10059000F041DFF8A4810668684B694C694D6A4FE9
:1005A000DFF8A8C1DFF8A8E1B0F1804F18BF4045DF
:1005B00004D070451CBF6045B8420CD14A6826F093
:1005C00070061643B0F1804F18BF404513D07045F8
:1005D00018BF60450FD05F4A90421CBF5E4A9042F0
:1005E00009D05E4A904218BFA84204D0A0421CBF66
:1005F0009842B84203D1CA6826F4407616434A6945
:1006000026F0800616430660A8428E68C6621CBFAC
:10061000A04298420A68826201D1096901630122FD
:100620004261BDE8F081F0B5026ADFF818C1444FBD
:10063000520852000262066A446885690B688A683B
:1006400025F0730526F002061D4316433B4B60451B
:100650001CBFB842984209D1CA6826F00806164362
:10066000604518BFB84226F0040601D0984205D173
:100670004B698A6924F440741C43144344608561C7
:10068000496841630662F0BD70B5026A2D4E22F0E2
:1006900010020262B042056A436884690A6824F461
:1006A000E64444EA02248A6825F0200545EA02155A
:1006B0001FBF234A9042214EB04206D14E698A693B
:1006C00023F48063164343EA8603436084614968E8
:1006D0008163056270BD70B5026A22F480720262A5
:1006E000036A4468C5690A688E68446025F073052A
:1006F0001543C56123F400734968C16343EA0623C7
:10070000036270BD30B5026A22F480520262026A4E
:100710004368C4690D6824F4E64444EA05248D68FE
:100720004360C46122F400524968016442EA053220
:10073000026230BD8800FFFF000400400048014015
:100740000044014000400140005C0140000C0040BA
:100750000008004000180040001C0040002000403D
:1007600010B5036A046A64086400046223F00A0393
:10077000846924F0F00444EA0214846123E010B593
:10078000036A23F0100303628369046A23F470434D
:1007900043EA023324F0A004836144EA01140462B2
:1007A00010BD826822F07002114341F007018160A0
:1007B000704710B5846824F47F442143114341EA13
:1007C0000321816010BD1943016210BD9A4881B0B8
:1007D000016841F001010160026802F0010200922B
:1007E0000099426842F080524260406800F08050B8
:1007F0000090009801B0704738B586B0044601A853
:10080000142100F0BFFB24688C4DAC4221D18C48F0
:10081000816841F000718160816801F00071009190
:100820000099026842F4802202604FF4407100682F
:1008300000F48020009002220098824801910292E8
:1008400000210391032209210591049201A900F0DE
:100850009DFB07B030BD10B586B000F0B6F8226839
:100860007A4B784876499A4217D14A6842F08072AA
:100870004A604A6802F0807200F03FF843F40013C7
:100880000B600722096801F4001100F02CF84FF406
:10089000407000F021F86E481AE06E4B9A4219D170
:1008A0004A6842F080624A604A6802F0806200F062
:1008B00024F843F480130B604FF44042096801F4BC
:1008C000801100F010F84FF4807000F005F86248D5
:1008D00000F05CFB06B010BD0321009001910022E6
:1008E000029269467047059103230599009201938E
:1008F00000220292694600F049BB0592059A0B68F6
:1009000043F480230B600C6804F480240594059A5A
:100910000B68704781B000684B49B0F1804F07D138
:10092000086840F001000860096801F0010109E071
:100930004A4A904208D1086840F0080008600968F7
:1009400001F008010091009801B0704710B586B021
:1009500000F03BF82068424C3949A04214D1886825
:1009600040F002008860886800F002000590059859
:100970000A6842F400320A6000F051F8502100F099
:1009800054F84FF0904019E0364A90421BD18868E5
:1009900040F004008860886800F004000590059825
:1009A0000A6842F480220A600222096801F4802168
:1009B0000591C0210598234800F038F802210491E0
:1009C000694600F0E3FA06B010BD044668461421FB
:1009D00000F0D8BA10B586B0FFF7F7FF20681849C5
:1009E000B0F1804F06D100F016F80C2100F01DF890
:1009F000012108E0194A90420BD100F00CF80321C4
:100A000000F013F8022104914FF09040694600F085
:100A1000BDFA06B010BD086840F40030086002223C
:100A2000096801F400310591704705980091019221
:100A300000210291039170471810024000640040A9
:100A400014100240000400481C10024000600140E5
:100A50000010004800680140000C0048000C0040F5
:100A6000000400400008004070477047704730B4F1
:100A7000002513E050F8042BD30744BFA9F101036C
:100A80009A18091F042942F8045BFAD213468C070E
:100A900044BF15809B1CC90748BF1D7050F8041B3C
:100AA0000029E7D130BC70472DE9F8418DB000F046
:100AB0004FFB00F07EF900F0C5F9DFF87444DFF871
:100AC0007404206009214FF08070E06061604FF491
:100AD00080106061002201204FF44021E076A26086
:100AE00021612283A276A283204600F043FB08B155
:100AF00000F010FAFF2200920020012105900691DB
:100B0000079101900490012208926946204600F066
:100B1000A8FB08B100F0FEF9204600F003FC08B184
:100B200000F0F8F904F59475DFF80C042860002152
:100B30006960A960E9602961284600F091FC08B16C
:100B400000F0E8F9DFF8F40368640021A964E964BF
:100B50002965696504F5B67000F082FC08B100F003
:100B6000D9F909A8102100F00DFA0FF2F0301C217C
:100B7000D0E90067CDE9006702A800F003FA4FF062
:100B80008040A0620A2100202063A06320644FF40B
:100B9000E1556163E56204F12800FFF7F5FA08B159
:100BA00000F0B8F94FF48056099609A904F128001D
:100BB000FFF789FC08B100F0ADF904F12800FFF758
:100BC0000AFB08B100F0A6F900F0E2F804F12800F1
:100BD00000F0E2F808B100F09DF9602100220291D6
:100BE00003920492069202A9082204F12800FFF75A
:100BF000F2FB08B100F08EF90C2202A904F12800E2
:100C0000FFF7E9FB08B100F085F904F12800FFF7D0
:100C1000E1FE02A8242100F0B5F90FF24830C849DE
:100C2000D0E900230020A166E066A067CDE900239B
:100C3000002101202167C4F8801000F0B0F84FF4C3
:100C40007A58C4F8748002A904F16800FFF7D8FA52
:100C500008B100F05FF900F09BF804F1680000F0C3
:100C60009BF808B100F056F902A8242100F08AF997
:100C70000FF2F82204F1A807D2E90001CDE9000142
:100C8000B04A3A6000207860386100210120B960E4
:100C9000B96100F084F8C7F80C8002A93846FFF764
:100CA000AFFA08B100F036F900F072F8384600F0FB
:100CB00073F808B100F02EF909A8102100F062F9CC
:100CC000ACA2D2E90001CDE9000102A81C2100F08C
:100CD00059F99D4838647D640A200021F864B9649C
:100CE0003965B96504F1E8052846FFF74DFA08B102
:100CF00000F010F9099609A92846FFF7E4FB08B1AE
:100D000000F008F92846FFF766FA08B100F002F98A
:100D100000F03EF8284600F03FF808B100F0FAF87D
:100D200060210291002203920492069202A92846B1
:100D3000FFF751FB08B100F0EDF8042202A92846A4
:100D4000FFF749FB08B100F0E5F82846FFF742FE3F
:100D500000F0E8F84FF4FA7000F0D0FB0F21002209
:100D60000291059204928DF81C200220112122226A
:100D700006908DF800108DF8012001AB6A4602A99B
:100D8000204600F008FB0028E2D000F0C3F8DFE7BF
:100D90000021009101917047694600F0C3BB0290A9
:100DA00003910490059106910791089009910A9189
:100DB000704780B59AB005A8282100F0E3F868468E
:100DC000142100F0DFF80FA82C2100F0DBF84FF41D
:100DD00080310022069107920D9101200590099023
:100DE00002224FF4E0110C920E9105A800F0DAFBFC
:100DF00008B100F08FF8022101910F204FF48061BB
:100E0000009000220391029204920221684600F0B1
:100E100050FD08B100F07EF84FF400614FF0284219
:100E20000F9117920FA800F035FE08B100F072F88C
:100E30004FF4007000F0E4FE4FF4006000F0E0FEBC
:100E40001BB000BD38B586B001A8142100F09AF897
:100E50003E483F4D046844F40024046001683D4C62
:100E600001F4002100910099026842F480020260BE
:100E7000036803F4800300F03AF842F400320260A1
:100E8000036803F4003300F032F842F48022026079
:100E9000036803F4802300F02AF842F40012026091
:100EA000036803F4001300F022F842F48012026099
:100EB0000022006800F4801000904FF40051009868
:100EC000284600F02CF900223021204600F027F9B6
:100ED0004FF4005100F00FF8284600F057F8302189
:100EE00000F009F8204600F051F807B030BD00933B
:100EF0000099026870470191012200210391049139
:100F0000029201A9704700681349884208BF00F0A7
:100F10008DBE704780B500F005F8BDE80240642042
:100F200000F0ECBA4FF40051094800F0FDB80000A1
:100F30001000002000640040006001400068014093
:100F40000004004000080040000C00401410024063
:100F500000080048000400480010004000000000A5
:100F60000000000000000000000000000000000081
:100F70000000000000000000000000007047704703
:100F800070477047002200F059BE00002DE9F84F6D
:100F90004FF00009674A0F234FF0010805460E463F
:100FA00035E0654FBD4214BF052704278F40274316
:100FB0004EF82C706FEA000C60490C680CEA040EC5
:100FC0007468E70348BF40EA0E0EC1F800E04C68C1
:100FD0000CEA040E7468A70348BF40EA0E0EC1F87D
:100FE00004E08C680CEA040E7468E70248BF40EA2B
:100FF0000E0EC1F808E0CC680CEA040E7468A40276
:1010000048BF40EA0E0EC1F80CE009F10109316851
:1010100031FA09F000F0818008FA09FC1CEA0100AD
:10102000F3D07468022C18BF122C4FEA890112D138
:101030004FEAD90405EB840E01F01C07DEF82040CE
:10104000D6F810B003FA07FA24EA0A040BFA07F7F5
:101050003C43CEF820404FEA490E03242F6896F80F
:1010600004A004FA0EF4E4430AF0030A27400AFA43
:101070000EFA4AEA07072F607768012F18BF022F80
:1010800003D0112F18BF122F13D1AF68D6F80CA0C0
:1010900027400AFA0EFA4AEA0707AF606F6827EAA4
:1010A0000C0C7768C7F3001707FA09F747EA0C0733
:1010B0006F60EF683C40B76807FA0EF73C43EC609E
:1010C0007468E400A1D51468DFF874E044F001040A
:1010D00014604FEA990C146804F00104009401F0C4
:1010E0000C01009C5EF82C7003FA01F427EA04045A
:1010F000B5F1904F08BF00270ED0124FBD4208BF78
:10110000012709D0104FBD4208BF022704D00F4F5E
:10111000BD427FF446AF032748E7BDE8F18F0AB12F
:10112000816170478162704742690A4218BF0904B1
:10113000816170471810024000100048000401400F
:10114000080001400004004800080048000C004866
:1011500080B50748016841F010010160032000F0EC
:1011600094FD002000F0D0FDFFF730FB002002BD11
:101170000020024038B504001ED094F8200010B9B9
:101180002046FFF739FB2068016821F00201016069
:1011900000F0F6FD0546206841688A074ED500F04C
:1011A000EFFD401B0B28F6D304E000F0E9FD401BE7
:1011B0000B2846D300F0DCF8012032BD016821F095
:1011C00080010160607E00F048F80CBF41F04001F2
:1011D00021F040010160A07E00F03FF80CBF41F01B
:1011E000200121F020010160E07E00F036F80CBF04
:1011F00021F0100141F010010160207F00F02DF876
:101200000CBF41F0080121F008010160607F00F08F
:1012100024F80CBF41F0040121F004010160A26830
:10122000E0682169024360690A43616802432068FB
:10123000491E0A43C26100216162A1E000F0A5F8E5
:10124000054620684168CA07AFD5217E0129B5D17E
:10125000026842F080020260B4E701282068016859
:101260007047F0B5066890F82020012A18BF022ABE
:101270004BD106F500720124106840F001001060A7
:1012800006F511750B7DD06903F01F0304FA03F313
:10129000DC432040D06106F51076C86958B9D068A3
:1012A0002040D060CF6800F034F80F68C7EA004CE7
:1012B000486945F830C0C86901280BD1D068184387
:1012C000D0600F6800F025F8CE684F69C6EA00408C
:1012D00045F837008869002850680CBF2040184343
:1012E000506008690028506907BF044054611843E2
:1012F0005061086A012802D1D0690343D3610020FC
:101300001168490849001160F0BD416A41F480212B
:10131000A3E04868D1F814C0C0EA074746F83C701B
:101320008868704738B5044694F82000012816D123
:10133000022184F8201020680268520852000260DE
:1013400000F01EFD054620684168C8070DD500F075
:1013500017FD401B0B28F6D300F00AF803E0606A83
:1013600040F400206062012032BD0020606232BD86
:10137000606A40F400306062052184F820107047F4
:10138000012084F82000002032BD016841F00101F5
:10139000016000F0F5BCF0B590F820400568AD683C
:1013A000012C18BF022C55D115F0E05F4ED0C5F3CB
:1013B0000164032C03D3416A41F400014DE001258F
:1013C000A5401D6024010368CE6803F5C0758B68D5
:1013D0001BB90B6846EA435603E04F6843EAC7036C
:1013E0001E432E5105680B6905F5C2763351097D00
:1013F000012906D1036803F5C2710D5945F48075C2
:101400000D519379D17955791B0443EA0163117920
:1014100043EA0523056825440B43C5F88C319378CE
:10142000D17855781B0443EA01631178026843EAD6
:10143000052322440B43C2F88831006800F5C070D0
:10144000015941F0010101510020F0BD416A41F410
:10145000001102E0416A41F4802141620120F0BDA7
:1014600038B5040001D1012032BD0020A061E06147
:10147000002101202062606204F13C050020A0628E
:10148000E1624FF4005020636163A163696020460C
:10149000FFF7E1F92168086820F4E05008600A6865
:1014A0006368E06803431A430A604A6822F0807266
:1014B0004A604A68A06802434A60DFF83C100A6844
:1014C000206902F4407282420AD00A6822F4407213
:1014D0000A600B68206903430B60022000F00EF8DD
:1014E0002068416841F00101416081680A04FCD430
:1014F00001202870002032BD0060014038B504464C
:1015000000F03EFC14F1010F054602D004480178BA
:10151000641800F035FC401BA042FAD331BD00BF77
:101520000000002070B500F13C031A78012A01D1B7
:10153000022070BD01221A7002245C7005686E687A
:10154000AC680A6826F0700616436E600268B2F155
:10155000804F1CBF0D4882420DD00D4DAA421CBFCA
:101560000C48824207D00C4DAA421FBF0B48824252
:101570000B4DAA4204D1486824F0800404439460CF
:10158000012159700020187070BD00000004004057
:1015900000080040000C00400018004000400140DE
:1015A000005C01402DE9F843040019D02078DFF8F1
:1015B0009454C10716D5686800F00C0004280AD0BE
:1015C000686800F00C00082802BF686800F48030EA
:1015D000B0F5803F3FD100F0E7F918B1606800280E
:1015E00000F0FE802078DFF86C64810719D5686808
:1015F00010F00C0F07D0686800F00C0008286AD1C2
:101600006868C10367D400F0D3F91CBF20690128C2
:1016100040F0E6802968606921F0F80141EAC001E4
:1016200029602178080740F1DD80A069DFF82814DF
:1016300000286ED001220A6000F0A2FB0746686A0B
:1016400000F0B7F940F0CE8000F09AFBC01B0228F2
:10165000F5D9032022E16068B0F5803F04D1286805
:1016600040F48030286014E008B928680AE0B0F53A
:10167000A02F286806D140F480202860296841F412
:10168000803105E020F480302860296821F4802131
:101690002960E86AA168000941EA0010E862606810
:1016A00060B100F06DFB064600F07EF9002899D18C
:1016B00000F066FB801B6528F6D3CAE700F060FBEC
:1016C000064600F071F900288CD000F059FB801B11
:1016D0006528F6D3BDE7206970B10121316000F0C3
:1016E0004FFB074600F064F940F0A78000F048FB8C
:1016F000C01B0228F6D9ACE7306000F041FB07467A
:1017000000F056F98DD000F03BFBC01B0228F7D942
:101710009FE7086000F034FB0746686A00F049F96B
:1017200060D000F02DFBC01B0228F6D991E708B964
:10173000286A09E00528286A06D140F004002862DA
:10174000286A40F0010005E0400840002862286A4D
:1017500020F00400286241F28938E06868B100F0A6
:101760000FFB8146286A00F024F973D100F008FBD2
:10177000A0EB09004045F5D36BE700F001FB814683
:10178000286A00F016F965D000F0FAFAA0EB09001B
:101790004045F5D35DE700F0F3FAC01B02286AD993
:1017A00057E700F0EDFA001B022873D951E700F06B
:1017B0007CF8044600F074F86FD000F0E1FA001BEA
:1017C0000228F7D945E701280AD06868226A00F4A0
:1017D0008031914202BF00F47010616A88425CD08F
:1017E00001205BE02078410739D5E8690027C10076
:1017F00009D4E86940F08050E8610127E86900F009
:10180000805000900098DFF85482D8F80000C1059D
:101810001BD4D8F8000040F48070C8F8000000F035
:10182000AFFA8146D8F80000C1050ED400F0A8FA3E
:10183000A0EB09006528F5D30BE72868616920F063
:10184000F80040EAC1002860EBE6E06801287FF478
:101850006EAF75E71FB1E86920F08050E861E0697C
:10186000D8B1696801F00C010829ACD002289ED1DA
:1018700000F01BF8074600F013F88CD16A68606A24
:10188000216A22F4741202430A436A60012000F0C4
:101890000DF8044600F004F883D00020BDE8F28380
:1018A0002868C0F34060002870470020306600F0D0
:1018B00067BA2DE9F0410400884669D0684E306867
:1018C00000F00700404502D200F064F860D12078B3
:1018D0005C4D810705D56A68A06822F0F0020243DA
:1018E0006A602178C8074BD56168012902D100F0F0
:1018F0005BF804E00229286803D1C0F3406018B9FE
:1019000046E000F056F843D06868800841EA80015C
:10191000696000F035FA07466868616800F00C00FD
:10192000B0EB810F2CD000F02BFAC01B41F28931B3
:101930008842F1D3032021E02078410705D56A6869
:10194000E06822F4E06202436A602178080706D565
:101950006968206921F4605141EAC001696000F0C2
:101960002DF86A683F49384BC2F30312895CC840BE
:1019700018603748006800F0C7F90020BDE8F08122
:10198000306800F007008045D6D200F003F8D3D0CD
:101990000120F3E73168C90848EAC10131603068C5
:1019A00000F00700404570472868C0F3404070478A
:1019B0002868C0F3400000287047000010B52A498D
:1019C0000A6802F00C00082814D100BF29A3C2F352
:1019D0008340D203185C896A09D500BF29A41B4B38
:1019E00001F00F01625CB3FBF2F2504310BD1F49DE
:1019F000484310BD154810BD13481B4A00681368C2
:101A00001B49C3F30222FFE7895CC840704710B549
:101A10000F220260144A136803F003034360146842
:101A200004F0F0048460136803F4E063C360126898
:101A3000D20802F4E06202610948026802F007027B
:101A40000A6010BD001002400C00002000127A0055
:101A50000800002000004242800442420070004022
:101A600000200240A81D00080410024000093D00AB
:101A7000E41E000802030405060708090A0B0C0D02
:101A80000E0F10100102030405060708090A0B0CCB
:101A90000D0E0F102DE9FC410546DFF8586128684E
:101AA000C10353D5B0690024C10009D4B06940F026
:101AB0008050B0610124B06900F08050009000981F
:101AC000DFF834713868C10519D4386840F4807083
:101AD000386000F055F980463868C1050FD400F031
:101AE0004FF9A0EB08006528F6D3032080E000F052
:101AF00047F9C01B41F28931884217D3F5E7F069F5
:101B000010F440701EBF696801F44071884212D021
:101B10003A49F06901220A60002320F440700B600A
:101B2000F061C00707D500F02BF90746F069C0F354
:101B300040000028DBD0F169686821F4407101435E
:101B4000F1611CB1B06920F08050B0612878C10704
:101B500005D5F26AA868920840EA8202F262297802
:101B6000880705D5F16AE86821F440310143F16244
:101B70002978480705D5F16A286921F440210143F5
:101B8000F1622978880605D5F16A686921F01001AB
:101B90000143F1622968880305D53168A86A21F4F8
:101BA0008001014331602978480605D5F16AA869AA
:101BB00021F020010143F1622978080605D531683A
:101BC000E86921F44041014331602968080505D5E1
:101BD0003168286A21F0784101433160296848055D
:101BE00005D5F16A686A21F040010143F1620020E5
:101BF000BDE8F681041002400070004040044242FB
:101C0000094981B00A6842F080520A60096801F00F
:101C100080510091009903490A681043086001B09F
:101C200070470000007000401C10024002484168EC
:101C300002788A18426070470000002000B500BF9B
:101C4000130096469446103928BFA0E80C50FAD8E5
:101C50005FEA417C28BF0CC048BF40F8042BC9078D
:101C600028BF20F8022B48BF00F8012B00BD000060
:101C70000901020002D41F48815470471E4B02F034
:101C80000F021A4402F8041C70471C4B19684FF6E7
:101C9000FF020002114000F4E060084318490843C5
:101CA0001860704738B5154B1C68C4F30223C3F1A4
:101CB0000704052C28BF04241D1D072D34BF002355
:101CC000DB1E012505FA04F4641E2140994005FA43
:101CD00003F35B1E1A401143BDE83440C8E701001E
:101CE00007D4012200F01F01064B8A40400943F847
:101CF0002020704700E400E018ED00E00CED00E06B
:101D00000000FA0500E100E018B5014687B00022A6
:101D10003620FFF7C7FF3620FFF7E1FF1448154CC8
:101D2000016841F01001016001A9006800F0100095
:101D30000090009802A8FFF76AFEFFF75DFE0E49CB
:101D4000216040F2E73240000C49E260B0FBF1F064
:101D5000401E606000222261A2602046FEF714FA55
:101D600018B92046FEF71DFA00E0012008B010BDAA
:101D70001C100240C00100200010004040420F0033
:101D800001484068704700BF000000200448054A31
:101D9000016841F4700101604FF00060106070470D
:101DA00088ED00E008ED00E0000000000000000009
:101DB000010203040607080930B450F8041B79B186
:101DC0000268436802440830DC0744BFA9F10104FB
:101DD000E31852F8045B43F8045B091FF9D1ECE700
:101DE00030BC704710B5074979441831064C7C4423
:101DF000163404E00A68081D114488470146A142D0
:101E0000F8D110BD2C0000004C0000004EF68851A7
:101E1000CEF20001086840F470000860BFF34F8FF5
:101E2000BFF36F8F4FF00070E1EE100A70470000B3
:101E30003FECFFFFF0010000100000200000000058
:101E400079FFFFFF1000000080000000000000206C
:101E50000000000000F00DF8002801D0FFF7C2FFDD
:101E6000AFF300800020AFF30080FEF71DFE00F00E
:101E700002F80120704700F001B80000074638461C
:101E800000F002F8FBE7000080B5AFF30080024AE3
:101E900011001820ABBEFBE7260002007047FEE7EA
:101EA000FEE7FEE7FEE77047704770470148FEF720
:101EB000EEB90000C00100200148804701480047FA
:101EC0008D1D0008D91E0008010000000000000060
:101ED0001000000000127A00AFF30080FFF796FFB9
:101EE000FFF7B8FF0000000001020304FFF7FEBF88
:101EF000FFF7FEBFFFF7FEBFFFF7FEBFFFF7FEBF16
:101F0000FFF7FEBFFFF7FEBFFFF7FEBFFFF7FEBF05
:101F1000FFF7FEBFFFF7FEBFFFF7FEBFFFF7FEBFF5
:101F2000FFF7FEBFFFF7FEBFFFF7FEBFFFF7FEBFE5
:101F3000FFF7FEBFFFF7FEBFFFF7FEBFFFF7FEBFD5
:101F4000FFF7FEBFFFF7FEBFFFF7FEBFFFF7FEBFC5
:101F5000FFF7FEBFFFF7FEBFFFF7FEBFFFF7FEBFB5
:101F6000FFF7FEBFFFF7FEBFFFF7FEBFFFF7FEBFA5
:101F7000FFF7FEBFFFF7FEBFFFF7FEBFFFF7FEBF95
:101F8000FFF7FEBFFFF7FEBFFFF7FEBFFFF7FEBF85
:101F9000FFF7FEBFFFF7FEBFFFF7FEBFFFF7FEBF75
:101FA000FFF7FEBFFFF7FEBFFFF7FEBFFFF7FEBF65
:101FB000FFF7FEBFFFF7FEBFFFF7FEBFFFF7FEBF55
:101FC000FFF7FEBFFFF7FEBFFFF7FEBFFFF7FEBF45
:101FD000FFF7FEBFFFF7FEBFFFF7FEBFFFF7FEBF35
:0C1FE000FFF7FEBFFFF7FEBFFFF7FEBFDC
:0400000508001ED9F8
:00000001FF
