:020000040800F2
:10000000787B0020CDAB00082DAA00082FAA00089D
:1000100031AA000833AA000835AA00080000000031
:10002000000000000000000000000000BD490008C2
:1000300037AA000800000000654900084948000888
:100040007DAC000881AC000885AC000889AC0008D4
:100050008DAC000891AC000895AC000899AC000884
:100060009DAC0008A1AC0008A5AC0008A9AC000834
:10007000ADAC0008B1AC0008B5AC0008B9AC0008E4
:10008000BDAC0008C1AC0008C5AC0008C9AC000894
:1000900039AA0008CDAC0008D1AC0008D5AC0008E6
:1000A000D9AC0008DDAC0008E1AC0008E5AC000804
:1000B000E9AC0008EDAC0008F1AC0008F5AC0008B4
:1000C000F9AC0008FDAC000801AD000805AD000862
:1000D00009AD00080DAD000811AD000815AD000810
:1000E00019AD00081DAD000821AD000825AD0008C0
:1000F00029AD00082DAD0008000000000000000040
:10010000000000000000000031AD000835AD00081F
:1001100000000000000000003FAA000839AD000800
:100120003DAD000841AD000845AA000845AD0008F6
:1001300049AD00084DAD000851AD000855AD0008AF
:1001400059AD0008000000000000000000000000A1
:10015000000000000000000000000000000000009F
:1001600000000000000000005DAD00084BAA000880
:1001700061AD00080000000065AD0008000000004F
:100180000000000069AD00082DE9F04F0FF2A41C3B
:10019000A1B0DCE90089CDE900892A9DDFF8109C37
:1001A000049100248DF843500D944FF0FF3882469F
:1001B00016461F460FE0B3462C461BF8011B049859
:1001C000D0470028049000F0A2800D98401C641EC7
:1001D0000D90F2D176193078252808D1002100221F
:1001E0000791089209910A920B910C920DE06A46D0
:1001F0004146304601F033F8050001D10D98A1E0E9
:10020000D9D50125E6E741F0010116F8010F2028B4
:10021000F9D023280CD02B2804D02D2805D0302845
:1002200009D076E041F00201EFE741F00401ECE78C
:1002300041F00801E9E741F01001E6E70F9209E01B
:100240000F98484505DA00EB800402EB4402303A8F
:100250000F92761C3278A2F130000A28F0D3307861
:100260002E2818BFCDF8388022D116F8010F2A2881
:1002700007D138683860761C50F8042B38600E922D
:1002800016E02D280CBF761C002000220E920AE0FA
:1002900040B90E9A4A4505DA02EB820403EB4403A7
:1002A000303B0E93761C3378A3F130020A2AEFD349
:1002B000ADF8401021A0317800F0E2FF08B116F847
:1002C000010B8DF842009DF84200682804D1307877
:1002D00068280AD1622105E06C2804BF30786C28B8
:1002E00003D171218DF84210761C12A806903A466F
:1002F00016F8013B02A9504600F064F838B912AA7A
:1003000002A9504600F0CAF900287FF564AF4046C4
:1003100018E02A2892D13A683A6052F8040B3A6001
:1003200000280F9003D540420F9041F00401761C45
:1003300095E700000000000000000000686A6C748F
:100340007A4C000021B0BDE8F08F622820D06828E8
:1003500011D06A2803D06C2827D0712825D10868CD
:10036000C01D20F007000860D0E9002308300860B5
:10037000194610467047002A0A680A60106803D0C0
:10038000121D0A6000B217E0121D0A6080B217E069
:10039000002A0A680A60106803D0121D0A6040B281
:1003A0000AE0121D0A60C0B20AE0002A0A680A6068
:1003B000106803D0121D0A60C1177047121D0A6031
:1003C000002170477CB50D4611461C462E69B4F1DC
:1003D000250200F051811C3A00F08680121F022A8B
:1003E00040F282800E3A00F00B81521F5AD0093A37
:1003F0007AD0921E16D0521E35D0521E022A73D9C0
:10040000121F30D0521F00F09A80521E4AD0521E46
:1004100000F0E480D21E00F00181921E42D0D21E74
:1004200040D02FE195F83A406C2C09D06869421C05
:100430006A610A680A6052F8043B0A6033542BE18F
:100440000A680A6052F8043B0A6000930022019295
:100450004FF0FF332B636A46294600F09AF90028D3
:1004600040F11A8105E195F83A000122FFF76DFF8E
:10047000C5E900010023994204DA6869411C6961F9
:100480002D220DE0288F810704D56869411C696120
:100490002B2205E0C00722D56869411C6961202232
:1004A00032541CE095F83A000022FFF74EFFC5E9F0
:1004B000000195F83800010711D5D5E90023002087
:1004C000834208BF82420AD044F02000782806D137
:1004D000686930213154401C421C6A613454214601
:1004E00068693044E86087E00868C01D20F00700B4
:1004F0000860D0E9002308300860C5E90023D5E989
:100500000001C80F04D06869411C69612D220DE00B
:10051000288F810704D56869411C69612B2205E099
:10052000C00704D56869411C69612022325468699A
:100530003044E8602146284600F03AFAACE005F184
:100540003A02507820B14FF0FF340FF6343074E0A7
:100550001078622808D0682824D06A2812D06C2825
:100560002ED071280ED02BE00A680A6052F8040BD6
:100570000A6020B94FF0FF340FF61C305DE0E96AE5
:10058000017089E00A680A6052F8040B0A6020B919
:100590004FF0FF340FF600304FE0EA6AD317C0E99E
:1005A000002379E00A680A6052F8040B0A6020B957
:1005B0004FF0FF340FF6E0203FE0E96A01806BE086
:1005C0000A680A6052F8040B0A6020B94FF0FF3441
:1005D0000FF6C42031E0E96A01605DE00A680A6054
:1005E00052F8040B0A60002120F0000221F0FF33D2
:1005F000C5E90023EE607821284600F02DF94BE094
:100600006C2285F83A200B680B6053F8042B0B60C2
:1006100052BB4FF0FF340FF6B4200EE095F83A20AD
:100620006C2AF0D00868086050F8044B0860EC6051
:100630003CB94FF0FF340FF6782000F049FE201A45
:1006400076BD2E6B002E04D5204600F061FE0446D8
:1006500008E032460021204600F088FE002814BF42
:10066000041B3446AC6117E0294600F092F80028DC
:1006700012D54FF0FF3076BD6869411C69612522B3
:10068000325409E06969481C6861252272542100CE
:1006900002D0431C6B613454002076BD2DE9F0413B
:1006A0000E4605469046726B7069316AB46A121A3A
:1006B000B069521A716A121AF069521A121A96F82F
:1006C0003800141B41070DD4002C0BDD2746B06801
:1006D0002021A8470028B06057D0F06A401C7F1E38
:1006E000F062F4D1736942463146284600F0B0FC0E
:1006F00000284AD1376A002F0ADDB0683021A847A8
:100700000028B06041D0F06A401C7F1EF062F4D136
:10071000B369F2683146284600F09AFCA8BB776AB4
:10072000002F09DDB0683021A847B06068B3F06AD7
:10073000401C7F1EF062F5D1F068B169F369421880
:100740003146284600F084FCF8B9B76A002F09DD6D
:10075000B0683021A847B060B8B1F06A401C7F1E75
:10076000F062F5D196F8380041070BD5002C09DD71
:10077000B0682021A847B06038B1F06A401C641E00
:10078000F062F5D10020BDE8F0814FF0FF30BDE808
:10079000F0812DE9F8470D46A3B02F6B002F0646D8
:1007A000904648BF6FF000470FF63C1400F00AFE79
:1007B000D4E90023696B4018CDE90123812828BFC3
:1007C0004FF0FF3042D20024002F33DDD8F8001064
:1007D00001AA684600F04BFD8146B9F1000F38D4FC
:1007E000D8F8000010B9B9F1010932D44F4521DB26
:1007F0006869484481280AD30021696303AA29460D
:100800003046FFF74BFF040014D40020686103ABAF
:10081000D5F814A04A46694603EB0A0000F0E6FD4D
:10082000CA44C5F814A058F8040B002818BFA7EB59
:100830000907C9D14CB903AA29463046FFF72EFF54
:10084000044614B9002068616863204624B0BDE8FE
:10085000F0874FF0FF34F8E72DE9FC4707468C4658
:100860003E69BCF16F0F08BF082405D04CF0200092
:10087000782814BF0A2410243C25D7E90023BCF1B2
:10088000640F18BFBCF1690F9046994606D100214C
:100890008B4203DAD8F1000869EB49094FF0000AEE
:1008A000D14508BFD0451FD1386BE8B9082C4BD1D2
:1008B00097F83800010747D530203B2586F83B00E4
:1008C00042E000280ED597F8380000F014001028F8
:1008D00008D17B6B7969386A5B1A1B1A9A1A002A4D
:1008E000C8BF3A62BDE8F3878DF800C0404649466C
:1008F0002246E31700F0D2FD3032D0B26D1E3A2806
:10090000019504DB9DF80000A0F151018A18725591
:10091000404649462246E31700F0C0FD894680461E
:10092000D14508BFD04503D0F86871198842DDD39E
:10093000082C09D197F83800010705D5705D3028DB
:1009400002D06D1E30207055C5F13C02BA6171199C
:10095000F960386B8242B4DA821A3A624FF6EF706D
:10096000398F01403987BDE8F3872DE9D04306462A
:100970000F4614464FF00008DFF8389412E0E00705
:1009800007D542464B463046394600F09FFE0646A4
:100990000F464046494642464B4600F097FE6410DB
:1009A00080468946002CEAD130463946BDE8D083DE
:1009B0002DE9F34F054641F020048DB0D5E90089BB
:1009C000612C02AE09D0286B002848BF062003D452
:1009D00008BF672C01D101202863D5E90023580006
:1009E0004015401C0ED119030CD00320A8619DF8BE
:1009F000381061391A2902D20FF2F46111E00FF2B6
:100A0000F4610EE059004915491C0FD118030DD1AE
:100A10000320A8619DF8381061391A2914D30FF208
:100A2000DC61E868032200F0E1FCD3E1194621F023
:100A30000043B3F5801F10460DD20027BB4208BF0C
:100A4000BA42019703D111E00FF2AC61E9E701AAC4
:100A500000F00EFF0AE0DFF8607307EB1352DFF8D7
:100A60005C3301921940DFF858331943C5E900019E
:100A7000612C0ED1E86830210170821CEA609DF87B
:100A8000381061290CBF7821582141706869801C99
:100A90006861D5E900AB2BF0004300202AF000028A
:100AA000834204BF8242002300F05B81612C40F04E
:100AB000AA80286B002847BF21210091401C00908C
:100AC000009F7F1C404649460022002300F008FF9B
:100AD000D94601998DF8082038BF89F00049091FCF
:100AE000002FD04601910DF1090040F34981B3492F
:100AF000DFF8D0B20C91064640464946002200235A
:100B000000F006FF80F03B814800400D00F11C0220
:100B100011D0002A0FDD40F2FF70824205DB09F0A0
:100B2000004040EA0B01002013E00C98014041EA2C
:100B3000025140460DE029F00043002028F0000259
:100B4000834208BF82420FBF40461C22404600F04D
:100B5000F7FE8046894600F091FFFF1F002F0446F4
:100B600009DD00F0A9FF02460B464046494600F069
:100B7000B5FF80468946F01D072104E004F00F020E
:100B800000F8012D2411002C01DD491EF6D5491E67
:100B90005CBF002200F8012DF9D5ECE000201946D9
:100BA00002AA0A4400E05B1E12F80149491E844271
:100BB000F9D00F2804D10DF10900425C521C4254B7
:100BC000002904D50198001D02AE5B1C0190591E3E
:100BD00012D49DF838007218A0F13A07147804F185
:100BE00030085FFA88F43A2CA8BFB844491E02F8CE
:100BF0000189F3D58DF83800286B002840F1B080CA
:100C0000591E2963ACE0404649460022002300F00B
:100C100067FE019938BF89F0004947F29750414378
:100C2000694A91FBF2F20192D2F1070204DD4046DB
:100C30004946FFF79AFE0AE0524200206349FFF757
:100C400094FE02460B464046494600F0B9FF8046F6
:100C5000662C286BDFF878B106BF019F0A3706279C
:100C60003F18142FC8BF142730208DF8080089467C
:100C70000DF1090000E03046002F34DD0646404605
:100C8000494601F0C1F801460A4606F1080304206E
:100C90000A26B2FBF6F606EB860EA2EB4E023032C7
:100CA00003F8012C0A22B6FBF2F202EB820EA6EB4D
:100CB0004E063036401E03F8026DE9D1083F002F82
:100CC00003F10806D7DD084601F0B2F802460B46EC
:100CD0004046494600F002FF00225B4600F0F6FC69
:100CE00080468946CBE70DF10901401A0DF109064E
:100CF00004E00199491E401E0191761C317830298B
:100D0000F7D0662C02D10199491C03E0652C0CBF79
:100D1000012100212B6BCB189842B8BF431E002B3A
:100D20001ED4834204DAF05C3528A8BF392000DAEB
:100D300030201946721E02EB010800E05B1E18F815
:100D40000199491E8145F9D0392802D1705C401CB7
:100D50007054002904D50198401C16465B1C019074
:100D6000019800B200901BB29DF838103246284618
:100D700000F034F82EE0C61D002F3FF7BDAE304620
:100D80000DF10901401A009903468842C8BF0B467D
:100D9000002B0DF109063FF52FAF8342BFF6FEAEE3
:100DA0000DF10900C15C07297FF7F8AE0F20F6E6C8
:100DB000CBCCCC0C0000244002FCFFFFFFFF0F80D7
:100DC0000000E03F0000F07FA08601000000F03F3F
:100DD00084D797410FB0BDE8F08F00002DE9F847A8
:100DE00083B006468A461746984600F042FAB8F1A4
:100DF000000F406A356B90F8009002DC4FF001085C
:100E0000BFA74AF02000BDF93040662808BF641C27
:100E100015D0672840F0848014F1040FC0F286805A
:100E2000AC4280F2838096F83800641C010702D43B
:100E3000A845B8BF454620B22D1A48BF00250FFA75
:100E400084FAF068B169BAF1000F25DC4A1C30233E
:100E50004354002D03DC96F83800010703D5F068F1
:100E600000F80290521C15EB0A0FB8BF6C4220B27A
:100E7000441941424445B8BFA046B26171620FFABD
:100E800088F5F561F068B3692A463946184400F0E0
:100E9000ADFA641BB462C4E022B29045084417DA8C
:100EA0004246394600F0A2FAB0694044B061AAEB6C
:100EB0000801002D716203DC96F838100A0705D589
:100EC000F16801F80090F069401CF061B562A8E09B
:100ED000394600F08BFAB069002D5044A8EB0408A5
:100EE00003DC96F838100A0703D5F16801F8009082
:100EF000401CB0610FFA88F08542F368B069B8BF52
:100F0000A8460FFA88F207EB0A01184400F06EFABF
:100F1000B1690FFA88F00144B161281A706280E06B
:100F2000BAF1610F14D14FF0700A16E0A84504DA47
:100F300096F838100A0758BF45466D1E48BF002571
:100F4000BAF1670F14BF4FF0450A4FF0650A04E08D
:100F5000BAF1410F08BF4FF0500AB169F368481C5D
:100F6000B061002D17F8012B5A5403DC96F83810A5
:100F70000A071BD5F168431CB36101F80090002DEE
:100F800014DDA8F101080FFA88F039468542F768A8
:100F9000B8BFA8460FFA88F2F81800F027FAB0692F
:100FA0000FFA88F108446D1AB0617562F068B16992
:100FB0000844002C80F800A003D42B224270811C2E
:100FC00003E02D2141706442811C00206A460AE042
:100FD00023460A2493FBF4F404EB8405A3EB4503B6
:100FE00002F8013B401C24B2002CF1DC012806DC95
:100FF0004AF02002652A04BF302201F8012B48B9CB
:10100000302001F8010B07E0401E1DF8003030339E
:1010100001F8013B0028F7DCF268B0691044091AB6
:10102000F16196F8380000F0140010280DD17269B3
:10103000B169706A8A18F1698218B06A8A188218D0
:10104000706B8242BCBF821A326204B0BDE8F08786
:10105000F8B505460E4617461C46002074B117F831
:10106000011BB068A847B06030B1F06A401CF06264
:101070000020641EF3D1F2BD4FF0FF30F2BD00003E
:101080007072696E74665F733A20256E20646973AE
:10109000616C6C6F776564007072696E74663A207B
:1010A00062616420256E20617267756D656E7400E3
:1010B0007072696E74665F733A2062616420257392
:1010C00020617267756D656E740000007072696EE4
:1010D00074665F733A2062616420256C73206172CC
:1010E00067756D656E740000000000000000000070
:1010F0006E616E004E414E00696E6600494E4600BC
:101100003000F0B40246106895681318506803EB7D
:101110005004C0071DD54D441BE013F8017B05F8B2
:10112000017B491EF9D1A0B1B60813F8011B06F0E6
:101130000306032E08BF13F8016B01EB0621494299
:10114000801C294405D011F8016B05F8016B401E85
:10115000F9D1A3420ED013F8016B16F0030104BFBE
:1011600013F8011BC91C30090F28DAD113F8010B41
:101170000F30D6E7F0BC02F10C007047613807E091
:1011800005E0A0F161011A2901D201207047413820
:101190001A288041C00F7047A0F10901052901D329
:1011A000202801D10120704700207047A0F14101A3
:1011B0001A2938BF203070472F48704770B45368E1
:1011C000D418042B09DA41B1057804F8015B10F852
:1011D000016B16B15B1C491EF3E7536070BC70478E
:1011E00038B514461D4661B1FFF7E8FF61686A6BC8
:1011F000204690476FF00102811A02D0491E01D0AB
:1012000001E024E026E00021616032BD38B50446EB
:10121000084611001D4615D02A46FFF7CFFF696822
:10122000049B1CB95A6B2846904704E00A469B6B06
:101230002946204698476FF00102811A02D0491EC4
:1012400001D001E003E005E00021696032BD6FF0EC
:10125000010032BD4FF0FF3032BDDA6B1047064B54
:10126000BEE71CB5044C0094FFF7D0FF16BD024B3F
:10127000F3E7024870470000C40100208C01002001
:101280000278C9B28A421AB11CBF10F8012FF9E7DF
:1012900018BF0020704730B4002513E050F8042B2D
:1012A000D30744BFA9F101039A18091F042942F882
:1012B000045BFAD213468C0744BF15809B1CC907F8
:1012C00048BF1D7050F8041B0029E7D130BC70479F
:1012D00080B500B906A005490B681BB12222002188
:1012E000984701E000F0B1FD222002BD7077002098
:1012F000636F6E73747261696E742068616E646C82
:1013000065723A20626164206D6573736167650080
:1013100000F10103810704D010F8011B820781B19D
:10132000FAD10268A2F10131914311F0803104BF7A
:1013300050F8042FF6E709BAB1FA81F100EBD100B9
:10134000401CC01A7047B1F5807F02D34FF0FF30C8
:1013500070470170012070470A780260087800E049
:101360000078401E8041C043C00F7047C9B2830758
:1013700006D0521E22D310F8013B9942F7D11FE04C
:10138000083A13D302F1040241EA012141EA014182
:1013900050F8043B121F21BF4B40A3F1013C2CEA43
:1013A000030C1CF0803FF3D0C9B2001F083210F8C4
:1013B000013B521E28BF91EA030FF8D818BF012045
:1013C000401E704780B5FFF7F7FE006C02BD036852
:1013D0001AB95A1E026008467047197811B94FF0C1
:1013E000FF307047591C01601878704762B38B0753
:1013F00008D0521E11F8013B00F8013B00F0248098
:101400008B07F6D1830740F0208000BF103A07D346
:1014100030B4B1E83810103AA0E83810F9D230BC36
:10142000530724BFB1E80810A0E8081044BF51F8E2
:10143000043B40F8043BD20724BF31F8022B20F8CC
:10144000022B44BF0B7803707047121F17D35B0049
:1014500009D151F8043B20F8023B1B0C121F20F865
:10146000023BF6D20BE051F8043B00F8013B1B0AAB
:1014700020F8023B1B0C121F00F8013BF3D238BFCF
:10148000121D521E24BF11F8013B00F8013BF8D891
:1014900070470268531C036011707047BBBBE1B119
:1014A000B2F5803F80F07E80022A1ED98C46B1FBC7
:1014B000F2F102FB11C31B0443EA1043B3FBF2FC3D
:1014C00002FB1C3380B240EA0343B3FBF2F002FBA1
:1014D000103240EA0C4000237047022A05D98446A6
:1014E000B0FBF2F002FB10C270474AB105D100F028
:1014F000010249085FEA300070470022002370476C
:1015000000F0A6BC0B0002000021002070479042B2
:1015100071EB030CF6D3B3F5803F2FD2F0B5B3FADD
:1015200083F7B1FA81F4A7F10F0E3D1B5340CEF1C2
:10153000200602FA0EF2F3415340B5F10F0746D8E8
:101540000F3C2C444140C4F12006A040F1414140F1
:10155000B1FBF3F603FB1611A2FB0645001BA941E4
:1015600002D2761E8018594180EA010221FA0EF358
:1015700062FA0EF200215A403046F0BD30B4B1FBA1
:10158000F3FC03FB1C11A2FB0C45001BA94103D279
:10159000ACF1010C8018594130BC02460B46604644
:1015A00000217047B2F1807F65D3F0B5B2FA82F7BF
:1015B000B1FA81F4C7F10F063D1B22FA06F307F1D9
:1015C000110EF24120355A40B5F10F07B8D941400C
:1015D000C4F12006A040F1414140B1FBF3FC03FB04
:1015E0001C11A2FB0C45001BA94103D2BCF1010C4C
:1015F000801859410F2F12D30F3FC90341EA5041C0
:10160000B1FBF3F603FB1611A2FB0645D4EBC03089
:10161000A94102D2761E8018594146EACC3C07B354
:101620004140C7F12006B840F1414140B1FBF3F61B
:1016300003FB1611A2FB0645001BA94102D2761E30
:101640008018594180EA010221FA0EF3C7F1200403
:1016500062FA0EF20CFA07F05A402CFA04F1304309
:10166000F0BD80EA010221FA0EF3002162FA0EF2C7
:1016700060465A40F0BD8C46B1FBF2F102FB11C34B
:101680001B0243EA1063B3FBF2FC02FB1C331B0298
:101690004CEA002043EA1063B3FBF2FC02FB1C336C
:1016A0001B024CEA002043EA1063B3FBF2FC02FB8E
:1016B0001C331B024CEA002043EA1063B3FBF2FC2C
:1016C00002FB1C324CEA002000237047B0B581EACF
:1016D000030C0CF0004C40F2FF7515EA11541DBFCD
:1016E00015EA1357AC42AF4239E0E41923EA4553F7
:1016F00043F48013C90241F0004141EA505EC70241
:101700001100A7FB020200284FF00000EEFB0120B1
:101710004FF00001E3FB072118BF42F0010240181F
:1017200000214941E3FB0E01A4F580640F0302D2BE
:1017300052004041494154F101046CDD470872F107
:10174000004250F1000051EB0451A1F580115CBF43
:1017500041EA0C01B0BD4CEA05510020B0BD05EADC
:101760001357AC4214BFAF4241E050EA410E1CBFD8
:1017700052EA430E02E061460020B0BD24423C44E0
:101780001BD15FEA070EF6D0090302BF0146002015
:10179000AEF1140EB1FA81F7AEEB070401FA07FEC1
:1017A0000C37C7F1200100FA07F7C8404EEA000ED7
:1017B00023EA455343F48013A2E733F00043B3FA1E
:1017C00083F704BFB2FA82FE77440B3FE41BB7F104
:1017D000200E2FBF02FA0EF3BB40C7F1200E22FAF3
:1017E0000EFE38BF43EA0E03BA40641C82E750EA9B
:1017F000410E14BF52EA430E6FF000014FF4001780
:1018000017EB430F8ABF194617EB410FB5E74CEAB8
:1018100005510020B0BDD4F10104B4F120070FDA66
:10182000C4F12007520828BF42F0010210FA07F560
:1018300001FA07F7E1BF2A43E0403843E1400FE0F7
:10184000352C98DCC7F1200452EA400220FA07F256
:1018500018BF42F0010231FA07F0A1400A4300210B
:1018600072F1004250F1000051EB0C01B0BD3F009D
:1018700010B5144600F002F8226010BDC1F30A53FF
:1018800043B14A0012F5001F28D2A3F2FE32A1EBA9
:101890000251704750EA410C20D001F0004C31EA6F
:1018A0000C01B1FA81F204BFB0FA80F3D2180B3AFE
:1018B000B2F120032CBF00FA03F1914041EA0C0180
:1018C0003EBFC2F1200C20FA0CF319439040524263
:1018D00040F2FD33D21A01EB0351704700227047EA
:1018E0004FF4001C1CEB410F94BF1CEB430F09E0AD
:1018F00041EA030C50EA4C0C52EA0C0C03D2994218
:1019000008BF9042704714BF8B428242704700006C
:101910004FF4001C1CEB410F94BF1CEB430F09E07C
:1019200041EA030C50EA4C0C52EA0C0C03D28B42F5
:1019300008BF8242704714BF99429042704700002E
:10194000124254D440F2FF7C1CEA11530FD063457D
:1019500031D09B1863453CBF01EB0251704701F049
:10196000004141EA0C510020AFF30080704750EA7B
:10197000410320D001F0004C91EA0C011CD0B1FAD7
:1019800081F30B3B9A420DD9D21A994051EA0C01CE
:10199000C3F1200C20FA0CFC61449840531C40F227
:1019A000FF7CD7E7914041EA0C01C2F1200C20FAFC
:1019B0000CF3194390407047B0FA80F31533202B95
:1019C000E0D3202AEED3203A203B9A4209D9D21AFA
:1019D00000FA03F141EA0C010020531C40F2FF7CA5
:1019E000B8E700FA02F141EA0C01002070475242C8
:1019F00040F2FF7C1CEA11530DD06345DBD0B2EB03
:101A0000030C3CBFA1EB025170470CF1010221EA2B
:101A1000035141F4801150EA410CCCD001F0004C4C
:101A2000352A27DC30B481EA0C01B2F1200309DA4F
:101A3000C2F12003044601FA03F5D0402843D14007
:101A40009C400CE0C3F12002450020FA03F418BFCB
:101A500044F0010421FA03F091400C43002174F199
:101A6000004550F1000051EB0C01244230BC7FF4E2
:101A70007BAF70476146002076E70000C1F30A5350
:101A800040F2FE329B1A14DDD3F120034FEAE172DB
:101A900008DDC90241EA505141F00040D8408018A9
:101AA0005040704703F2E13010B1D24382F0004061
:101AB0007047002070470000C11768B14840401AC5
:101AC000B0FA80F29040D21CC907C2F5846241EAA4
:101AD000025202EBD02140057047000070B44FF075
:101AE000004591EA030F40F1BD816B40841A71EB10
:101AF000030603D2001BB141121973414FF4001CBD
:101B00001CEB410F34BF7CEB430442E00C0DA4EB13
:101B10001356352E4FDC45EAC323DB0A45EAC121C3
:101B2000C912B6F120050DDD63FA05F6EB4086EA31
:101B30000305124218BF45F00105C01851F100011C
:101B40000CD213E062FA06F5F2405540F3415A40D8
:101B5000B340F3405A408018594107D349085FEA1F
:101B600030005FEA350528BF45F0010501F5801119
:101B7000420875F1004250F1000041EB04514E0063
:101B800016F5001F70BC38BF70470020090D09050D
:101B900070471CEB410F10D252EA43060BD0BCEB4E
:101BA000410F05D80C0DAB43661E342EB6DD02E0A6
:101BB000AB438018594170BC704770BC704700003F
:101BC000F0B540F2FF7581EA030C0CF0004C15EA09
:101BD00011541DBF15EA1357AC42AF42E5E0BC41BA
:101BE000C1F31301C3F31303801A994143F4801323
:101BF00004D2641E4000494180185941C90241EA9B
:101C00005051B1FBF3F603FB1611A2FB0675D7EB9F
:101C1000C020A94102D2761E80185941C90241EA6A
:101C20005051B1FBF3FE03FB1E11A2FB0E75D7EB67
:101C3000C020A94103D2AEF1010E8018594189029A
:101C400041EA9051760546EA8E2EB1FBF3F603FB8E
:101C50001611A2FB0675D7EB8020A94102D2761E91
:101C600080185941C90241EA50514EEA060EB1FBB3
:101C7000F3F603FB1611A2FB0675D7EBC020A941B2
:101C800002D2761E80185941C90241EA5051B1FB77
:101C9000F3F703FB1711A2FB0735D3EBC020A941D3
:101CA00067F100070CBF004247F0010766F3D52734
:101CB0004FEA1E31B80814F5806412DDBD0775F1D6
:101CC000004250EB0E5051EB045111F5801F5CBFE8
:101CD00041EA0C01F0BD4CF07F6141F0E041002091
:101CE000F0BDBD076D0840EA0E5041F48011D4F1FB
:101CF0000104B4F120060ADAC4F120060200E04033
:101D000001FA06F3E1401843B24015430EE0342CCB
:101D100013DCC6F1200445EA40056D0820FA06F2FE
:101D2000154321FA06F0A1400D43002175F1004250
:101D300050F1000051EB0C01F0BD00205FEA0C01F6
:101D4000F0BDCFB992185B41B3FA83F704BFB2FA82
:101D500082F6BF190B3FB7F120062FBF02FA06F338
:101D6000BB40C7F1200622FA06F638BF3343BA401B
:101D70001CB1E419641E33E77F4231F00041B1FA2F
:101D800081F404BFB0FA80F6A4190B3CB4F120062C
:101D90002FBF00FA06F1A140C4F1200620FA06F692
:101DA00038BF3143A0403C1B1AE7AC421ABF05EADA
:101DB0001357AF4212E050EA41061CBF52EA4306F5
:101DC000BFE750EA4107304661461CBF41EA055172
:101DD000F0BD52EA430C08BFC143F0BD00204FF4F0
:101DE000001616EB410F98BF16EB430F08BF16EB1A
:101DF000410F24BFC14305E016EB430F0CBF614602
:101E00004CEA0551F0BD0000400D491840EA812020
:101E10000CD2490DA1F58061491C40F0004005DB62
:101E2000D1F11F0154BFC840C01770470020704750
:101E3000014648B1B0FA80F18840C91CC1F58461FF
:101E4000090501EBD02140057047012000F0C0B822
:101E50007047000070B44FF0004591EA030F7FF522
:101E600045AE6B40841A71EB030604D26E40001B32
:101E7000B141121973414FF4001C1CEB410F34BFE8
:101E80007CEB430683E00C0DA4EB1356362E00F3D7
:101E90007C80012E45EAC32341DC43EA525312BF42
:101EA000D20292025B08240545EAC12141EA505161
:101EB000D2EBC020994125D407D1B0FA80F610FAB0
:101EC00006F162D00020203608E0B1FA81F6B14078
:101ED000C6F1200220FA02F21143B0404FEAF47436
:101EE000B4EB465434F001064FEA74040AD8D6F530
:101EF0000016760D04F00044F04061FA06F25040FE
:101F0000F1404840C00A40EA415021F0004128BF5A
:101F10005FEA500550F1000044EBD12135E0DB0AC7
:101F200045EAC121C90AB6F120050EDD42EA0242A6
:101F3000120CC5F1200603FA06F6EB4042EA06054C
:101F40006D42984161F100010DE062FA06F5F24040
:101F5000554063FA06FC82EA0C02F3405A406D4297
:101F6000904161EB030111F4801F05D1641E6205ED
:101F700002D06D004041494121F48011430875F1C0
:101F8000004350F1000041EB045170BC70471CEB62
:101F9000410F15D223F0004352EA43060BD04FEA1B
:101FA0004C0CBCEB410F04D80C0D661E342EB7DD73
:101FB000EBE7801A994150EA410608BF0021E4E7A7
:101FC00008BF1CEB430F28BF6FF00001DDE70000E6
:101FD00080B5AFF30080024A11001820ABBEFBE7CA
:101FE0002600020003460846C1680269491C521EC9
:101FF000002A0261C16003D4006801220021184751
:102000004FF0FF307047034608461146C268521E23
:1020100011F1010FC26002D000680022184770471A
:102020002DE9F04F0FF2E41E8BB0DEE90067CDE939
:10203000016703914FF0FF381C68149DDFF8C891C9
:1020400004948DF82B5000240694059204464646CD
:1020500009E0002E9DF82A0048BF002600B1761C3A
:1020600005994A1C05920021009101AB0599424651
:102070006846FFF7F6F80028074605DC0598017862
:102080004F1EBF41FF43FF0F009800F007FF00F015
:1020900023FF28B30698401C0690012203980021D4
:1020A000A047824600F018FF0028F3D10699491E88
:1020B0001AF1010F00F0A280069100220398514608
:1020C000A04705980099C0192529059027D10078C7
:1020D0002A282AD10598401C059010F8011D25E0FA
:1020E0000098DDF814A025280CBFA7F1010BBB4612
:1020F000BBF1010BE5D40698401C06900122039821
:102100000021A0471AF8011B8842F1D0024603A91A
:102110002046FFF778FF0020B0426EDA6CE00098AE
:102120000028A0D1B04268DA66E000218DF82810BE
:10213000002108910AE00898484505DA00EB800381
:1021400001EB430130390891501C0590059A117834
:10215000A1F130000A28EED3CDF824802DA011780B
:10216000FFF78EF820B10598401C0590401E0078BE
:102170008DF829009DF82900682805D1059908786F
:1021800068280CD1622206E06C2802BF0599087805
:102190006C2804D17122491C8DF8292005910598DD
:1021A00001780FF61840FFF76BF8A8B90698401CA5
:1021B0000690012203980021A047074600F08CFEFC
:1021C0000028F3D10698401E17F1010F069003D0A6
:1021D000039800223946A04703A9204600F021F8C1
:1021E00000283FF736AF25B110F1230F01D140464B
:1021F00014E0002E48BF064630460FE03046002867
:102200000691FAD5F3E70000CBCCCC0C000000001F
:1022100000000000686A6C747A4C00000BB0BDE8E6
:10222000F08F70B505460C460020A368A0771E7895
:10223000253E6ED01C3E25D0361F022E22D90E3EE2
:1022400063D0761F1AD0F61E7CD0B61F1AD0B61EE9
:1022500012D0761E12D0761E022E13D9361F0DD044
:10226000761F13D0761E012E08D9361F4FD0B61E0A
:1022700004D0F61E02D070BD002265E02846BDE8FD
:102280007040E5E12846BDE87040F3E2207F002879
:1022900049D1607F622808D068281CD06A280ED0F7
:1022A0006C2821D071280AD01EE06168616051F865
:1022B000040B616000281DD0E168017033E06168A3
:1022C000616051F8040B6160002813D0E268D317F5
:1022D000C0E9002327E06168616051F8040B616088
:1022E00040B1E16801801EE06168616051F8040B53
:1022F000616038B90FF6CC20FEF7EAFF4FF0FF34EB
:10230000201A70BDE16801600DE06C206077012249
:102310001AE0E068401CE060012220680021A84724
:102320000646252E01D1012070BD324621462846A1
:10233000FFF769FE16F1010F02D14FF0FF3070BDBB
:10234000002070BD4FF0FF322846BDE8704021E00C
:10235000C9B208E003789942A4BF90F802C08C4546
:1023600014DAC01CD21E032A09D343782D2BF1D0D6
:1023700010F801CB8C4518BF521EF4D106E03AB1DB
:1023800010F8013B8B4218BF521EF8D10120704754
:10239000002070472DE9F84F8AB00D4600260796B9
:1023A0008246697F05926C290CBF4FF0010BB34642
:1023B0000FF62C22D2E90001059ACDE90301002A8B
:1023C00029D5A868411CA960084601785E2903BF89
:1023D000401CA86010F8014D0024D5F8088098F83A
:1023E00000005D280CBF08F1010040465D21FEF7AA
:1023F00047FF002800F01581A0EB08010091A860BC
:102400000098032807DB821E2D2108F10100FEF74A
:10241000ADFF00B101266869002805DC0598002899
:1024200014BF6FF0004001202861287FB8B96868A8
:102430006860BBF1000F016808D0001D6860019161
:1024400069B94FF0FF340FF6A01018E0001D686066
:10245000029121B94FF0FF340FF6B4100FE0287F3E
:10246000B0B9E87FA0B16968696051F8040B696090
:10247000B0F1004F07D34FF0FF340FF6B810FEF75E
:1024800027FF201ACAE6A969884288BF0846A861C2
:10249000089409960027DDF81490029C079ECDF859
:1024A00014B0CDF81880DDF804B007E004F8018B13
:1024B0000120A877A969491EA96102262969491E38
:1024C0002961E868401C002900F1B780E86001221A
:1024D00028680021D047804618F1010F19D15346D2
:1024E000DDF814A0424629461846FFF78CFDB9F1E5
:1024F000000F03D0F0B2022800F08F80F0B2022863
:1025000000F09980F0075AD418F1010F40F089804B
:1025100055E0B9F1000F02DD00F0DEFC10E01FD540
:102520000998002808980ED10028009A069841467C
:1025300004D1FEF71BFF0028D1D011E0FEF716FFF3
:102540000028CCD10CE00028009A0698414603D11F
:10255000FFF7FEFE20B9C2E7FFF7FAFE0028BED162
:10256000059850B9287F0028A7D1A86900289DD1D7
:102570005346DDF814A00126B4E702A801460790EF
:1025800001F807807F1C03AB3A4601A8FEF769FEFD
:10259000811C02291CD8DFE801F002061500042F77
:1025A00046F001068AD3002F4EDD0798EA687F1EA9
:1025B000521EC15DEA6000222868D047F3E74FF061
:1025C000FF302BE6019919B902A8FEF7A1FE401CC5
:1025D00010F1030F08BF0020064608E00798EA68DC
:1025E0007F1E521EC15DEA6000222868D047BE42AD
:1025F000F4DB287F58B9A86908B901265EE701987D
:102600004BF8040B0121A977A869401EA861022696
:102610006869401E6861002750E7287F58B9A8699B
:1026200008B90020FAE5BAF1000F19BF0020CBF875
:102630000000002121700120F0E55346DDF814A0D0
:10264000E8604FF0FF384DE7F6B2002EB7D0E8E76C
:102650002DE9F8450D4688B0804668690028D8BF46
:102660006FF000402861EA464046FFF7BBFC2B288C
:1026700018BF2D2807D18DF8000029464046FFF7E6
:10268000B1FC0DF1010AA96809780022642914BF80
:1026900075290A240DD0692908BF002409D06F29A3
:1026A00008BF082405D070291ABF41F020017829FD
:1026B0001024302817D129464046FFF793FC40F0FC
:1026C00020010126C9B278290AD1002C18BF102C8C
:1026D00013D129464046FFF785FC102400260CE064
:1026E0005CB9082409E004B90A24564601461AE0F8
:1026F000286801220021C0470126302840F0AB8025
:10270000E8682969401C491E00292961E860EFD565
:102710004FF0FF300122A2E0E96001222868002189
:10272000C0470146012211F1010F00F09C80C8B2A0
:102730006128A8BFA1F157030ADA4128A8BFA1F177
:10274000370305DA30380A2834BFA1F13003FF23FC
:10275000DBB2E0B2834280F086800DF11F0086423A
:1027600038BF06F8011BE9682869491C401E00288B
:102770002861D1D54046E9604FF0FF380127424635
:102780002946FFF740FC3FB96E450ABF18F1010F1B
:1027900000204FF0FF306AE000213170287F0028D0
:1027A00057D1A8680078642818BF692811D122463B
:1027B000684600F0E7FB6B7F0122622BAA771ED0F0
:1027C000682B2FD06A2B23D06C2B33D0712B1FD0CA
:1027D00030E02246684600F08BFC0122AB68AA7705
:1027E0001A78702A26D06A7F622A08D0682A19D0FF
:1027F0006A2A0DD06C2A1DD0712A09D01AE06B68A4
:102800006B6053F8042B6B60002A19D0107020E025
:102810006B686B6053F8042B6B60002A10D0C2E920
:10282000000116E06B686B6053F8042B6B603AB1E3
:1028300010800EE06B686B6053F8042B6B603AB944
:102840000FF21060FEF744FD4FF0FF35281A0EE03E
:10285000106001200BE0324611003FF446AF3021FA
:102860000AF8011B41E740468846174687E709B04A
:10287000BDE8F0852DE9F84F0E4692B07169002948
:10288000D8BF6FF00041316181463146FFF7AAFBA6
:1028900000272B2818BF2D280DF10C0807D18DF823
:1028A0000C0031464846FFF79DFB0DF10D080A214B
:1028B00030288DF80010BA461BD131464846FFF744
:1028C00091FB40F02001C9B2782903D04FF0010AF2
:1028D0005146CAE0302088F8000088F801104846C8
:1028E0003146FFF77FFB102108F102088DF8001038
:1028F000EEE740F02001CAB26E2A52D18DF800A056
:102900006E2108F8011B48463146FFF76BFB044671
:1029100044F02000C0B2612840F02482612108F810
:10292000011B48463146FFF75DFB044644F020009A
:10293000C0B26E2840F0168231464846FFF752FB7F
:102940000246282A00F0D48131464846FFF75BFB57
:102950006E2008F8010B002188F80010307F002855
:1029600040F0C4819DF800000B280B4680F277816F
:102970003A4603A800F08CFD98E14FF0FF35284659
:1029800000F09EFE00282C4640F0B281303D0A2D1A
:10299000C0F0AE815F2C00F0AB81292C40F0E281C9
:1029A000D6E7C9B2692940F0B8818DF800A008F8CF
:1029B000011B48463146FFF715FB044644F0200052
:1029C000C0B26E2840F0CE816E2108F8011B484647
:1029D0003146FFF707FB044644F02000C0B26628EA
:1029E00040F0C08131464846FFF7FCFA40F0200134
:1029F000C9B2692906D0024631464846FFF703FBB3
:102A00006620A6E731464846FFF7ECFA044640F058
:102A10002000C0B26E2840F0A58131464846FFF73D
:102A2000E1FA044640F02000C0B2692840F09A81E3
:102A300031464846FFF7D6FA044640F02000C0B2BF
:102A4000742840F08F8131464846FFF7CBFA0446A0
:102A500040F02000C0B2792840F08481662078E7F9
:102A6000306801220021C8470121302840F04F8101
:102A70003169491E3161F068401C0029F060EFD5D2
:102A80004FF0FF304FF0010A44E1F160012230685D
:102A90000021A847012210F1010F00F04481C3B2C8
:102AA000612BA8BFA0F157010ADA412BA8BFA0F102
:102AB000370105DA303B0A2B34BFA0F13001FF218A
:102AC0009DF80030C9B2994280F02D81242CBABF04
:102AD0000BF8010B641C09F101093069401E3061DB
:102AE000F168491C0028D0D502950196F1600120BB
:102AF0004F464FF0FF358DF80100FEF7BAFB406AF4
:102B000001788D4206D10BF8015B01990298FFF71D
:102B100069FA054634BBDDF80890019E9DF8012056
:102B200006E0F160012230680021C8470546012215
:102B3000302D40F0FF803069401E30617F1EF1680B
:102B4000491C0028EDD5CDF808900196F1600120D0
:102B50004FF0FF358DF80100002F03D530200BF822
:102B6000010B7F1C2846DDF80890019E9DF800505F
:102B70009DF8011005E0F060012230680021C8478F
:102B8000012110F1010F00F0DB80C3B2612BA8BF5F
:102B9000A0F157020ADA412BA8BFA0F1370205DAEB
:102BA000303B0A2B34BFA0F13002FF22D2B2AA423E
:102BB00080F0C680242CBCBF0BF8010B641C31696B
:102BC000491E3161F068401C0029D4D58DF80050B1
:102BD000D846F0604FF0FF344FF0010AB7E070289C
:102BE00040F0C08008F8014B31464846FFF7FAF93B
:102BF0002B2818BF2D2805D108F8010B314648466F
:102C0000FFF7F0F9002104E0306801220021C847F5
:102C10000121302840F0B8803169491E3161F068E7
:102C2000401C0029F060EFD54FF0FF300121ADE0EE
:102C3000284612E0BBF1080FBCBF04F8010B0BF1F2
:102C4000010B3169491E3161F068401C0029F060B8
:102C5000EED4306801220021C84701219EE0002205
:102C600003A800F015FC0B465A00520D02EB870436
:102C700011D0002C0FDD40F2FF72944206DB4C4B6A
:102C800001F0004040EA030100200FE06FF31E5303
:102C900043EA04510AE021F00043002520F000023D
:102CA000AB420EBFAA42BA00FEF74AFE0122B2773B
:102CB000727F6C2A18BF4C2A08D17368736053F86E
:102CC000042B736042B1C2E900010FE072687260C8
:102CD00052F8044B726034B966A0FEF7F9FA4FF06F
:102CE000FF34201A66E000F0F5FC2060012061E06E
:102CF0003169491E3161F068401C0029F0603FF5E0
:102D00003CAE306801220021C847054637E65FEA3D
:102D1000010A02D0302108F8011B4D460024C346A9
:102D2000B9465246B7E60295019605464F468DF8DC
:102D30000120E2E6CDF8089001968DF801200BE71E
:102D40005FEA010AD84604468DF800500AD09DF883
:102D5000001044F020000A29C0B27FF440AF65287B
:102D60003FF440AF224631464846FFF74CF9BAF1EE
:102D7000000F7FF4F0AD03A880450ABF14F1010FE6
:102D800000204FF0FF3015E00A0002D0302208F892
:102D9000012B4FF0000B4FF0FF354446A0F13002FD
:102DA0000A2AFFF447AFA04604468A46DAE7000045
:102DB0000000F07F13B0BDE8F08F000063436E5B4E
:102DC000000000007363616E665F733A20626164A5
:102DD00020256E20617267756D656E7400000000BD
:102DE00000000000000000007363616E665F733ACC
:102DF0002062616420256C632C20256C732C206F6D
:102E00007220256C5B20617267756D656E740000C1
:102E10007363616E665F733A206261642025632C80
:102E20002025732C206F7220255B20617267756DE1
:102E3000656E74007363616E665F733A20626164ED
:102E40002025632C2025732C206F7220255B207396
:102E5000697A65007363616E665F733A20626164CC
:102E600020696E746567657220617267756D656E45
:102E7000740000007363616E665F733A2062616480
:102E800020666C6F6174696E672D706F696E742057
:102E9000617267756D656E740000000000B50146D3
:102EA00011F1010F83B00AD009A0D0E90023CDE9C8
:102EB0000123684601AAFEF7DAF9012803D04FF092
:102EC000FF3003B000BD9DF8000003B000BD00005E
:102ED000000000000000000010B50446FEF76CF989
:102EE00001462046096ABDE8104008472DE9F8432D
:102EF0000D00804691461E4608BF6D46444600E0E0
:102F0000641C2078FFF7E8FF0028F9D120782D28ED
:102F100016BF2B2814F8017B2B2733464A46294637
:102F2000204600F033F82A68944205D1C5F80080A5
:102F300000200021BDE8F4832B2F05D14FF0004382
:102F4000994209D2BDE8F4832D2FFBD1B1F1004F96
:102F500012D301D801280FD3AFF300800EB10120A6
:102F600030602D2F19BF4FF0FF306FF0004100206F
:102F70004FF00041BDE8F483404261EB4101BDE800
:102F8000F483000000BF0023B0E700002DE9FC4FF0
:102F900085B00D4617460BB100221A600290044618
:102FA00000E0641C2078FFF797FF0028F9D1207813
:102FB0002D2818BF2B2807BF14F8010B8DF800002F
:102FC0002B218DF80010002F019503D4012F01D083
:102FD000252F04DB002D56D00298286053E0002FE7
:102FE0000ADD102F04BF2078302802BF607840F03F
:102FF000200078280ED10AE02078302818BF0A2750
:1030000008D1607840F02000782802D11027A41C55
:1030100000E00827049400E0641C20783028FBD0EE
:10302000002603944FEA060833A0B246C1460025A5
:103030008DF801004FEAE77B10E09DF80150451B39
:10304000A7FB060107FB0A11B046EDB20BFB061108
:103050000023D146461941EB030A641C207800F096
:103060006DFB00BF24A301463A461846FEF77EF9E1
:103070000028E2D10499A1423A4607D1019810B143
:10308000019902980860002000212DE024A1039BF3
:10309000895CE31A591A00291AD40FDC0021701B2D
:1030A0006AEB01018A4509D301D8864206D3D317BA
:1030B000FEF7F4F9494508BF404509D0AFF3008059
:1030C000069808B1012101604FF0FF36B24606E0D4
:1030D0009DF800002D2802D176426AEB4A0A019839
:1030E00000B104603046514607B0BDE8F08F0000E3
:1030F00000BF00234AE70000303132333435363721
:1031000038396162636465666768696A6B6C6D6EA5
:103110006F707172737475767778797A0000000039
:1031200000004129211C1917161514131212111130
:10313000111010100F0F0F0F0E0E0E0E0E0E0E0DA3
:103140000D0D0D0D0D0000002DE9B04C41EC100BE4
:103150002DED028B43EC182B53EC102B23F0004188
:10316000B1F5801F82B00DD20022914208BF90427B
:10317000009216D06A4651EC100BFEF779FB41EC39
:10318000100B0EE0DFF8A844DFF8A87404EB115030
:1031900000903B40DFF8A004924643EA000B4BEC62
:1031A00010AB53EC102B51EC180BFEF78FFA41ECDF
:1031B000100B4800009A400D1218C8B1002A17DD04
:1031C00040F2FF70824209DB9FEDAD1B53EC112BE7
:1031D00001F000410B4343EC102B19E06FF31E513B
:1031E00041EA025155EC104B0D4645EC104B0FE0F7
:1031F00051EC100B21F000410022914208BF904297
:1032000006D0009A51EC100BFEF79AFB41EC100B24
:1032100064E000002DE9B04C41EC100B2DED028B69
:1032200043EC182B53EC102B23F00041B1F5801F19
:1032300082B00DD20022914208BF9042009216D077
:103240006A4651EC100BFEF713FB41EC100B0EE03D
:10325000DFF8DC43DFF8DC7304EB115000903B40F7
:10326000DFF8D403924643EA000B4BEC10AB51EC71
:10327000100B53EC182BFEF7A3FC41EC100B48008D
:10328000009A400D1218C8B1002A17DD40F2FF70F5
:10329000824209DB9FED7A1B53EC112B01F00041B8
:1032A0000B4343EC102B19E06FF31E5141EA02511E
:1032B00055EC104B0D4645EC104B0FE051EC100B4C
:1032C00021F000410022914208BF904206D0009AAE
:1032D00051EC100BFEF734FB41EC100B02B051EC3B
:1032E000100BBDEC028BBDE8B08C00002DE9F04462
:1032F0002DED028B002A41EC180B1D4600F0B98021
:1033000021F000474FF0000A20F00006574508BFA3
:10331000564500F0AE8048004015401C02D109031C
:1033200000F0A780002A9FED580B16D552420FF2ED
:10333000483708261446002C18BF002E54D0E0074A
:1033400007D5D7E9002351EC100BFEF7BFF941EC8C
:10335000100B64080837761EEDE773DD0FF218379F
:1033600008261446E00707D5D7E9002351EC100BD7
:10337000FEF7ACF941EC100B64100837761E002CF8
:1033800001DD002EEED153EC102B51EC180BFFF7A2
:10339000DBFE21F0004320F00002534508BF5245F8
:1033A00041EC180B4ED048004015401C01D10903D8
:1033B00048D0002C46DDA14AA14B51EC180BFFF779
:1033C000C3FE20F0000231F0004308BF524541EC3B
:1033D000180B37D048004015401C01D1090331D0EB
:1033E000641E002CE7DC2DE053EC102B51EC180B85
:1033F000FFF710FF21F0004320F00002534508BF03
:10340000524541EC180B1DD048004015401C01D11D
:10341000090317D0B4B18B4A934B51EC180BFFF74B
:1034200093FE20F0000231F0004308BF524541EC0A
:10343000180B07D048004015401C01D1090301D0EA
:10344000641EE8D151EC180B21F0004320F000027B
:10345000534508BF524505D048004015401C08D1CF
:10346000090306D1AFF300801DB1286840F00100C8
:10347000286051EC180BBDEC028BBDE8F084000015
:10348000000000000000F07F000000000000F03F9E
:103490002DE9F14D81B05FEA03082DED028B84B078
:1034A0001CBF0020C8F80000079D0C46934607A8E3
:1034B00000F04EF9C11020F00800012801F0010AC7
:1034C00030D10220009001AB07992246284600F037
:1034D000D1F9040008BF9FED650B1ED00298FEF7DE
:1034E000EBFA022C41EC100B17DB03AF661E9FEDCD
:1034F000568B51EC100B53EC182BFEF7E7F80446F3
:1035000057F8040B0D46FEF7D7FA22462B46FEF776
:10351000A1FC761E41EC100BEBD10198434600EB69
:103520000B0262E0022867D1009001AB07992246A6
:10353000284600F081FA040008BF9FED4C0B1ED016
:103540000298FEF7B9FA022C41EC100B17DB03AF1F
:10355000661E9FED3F8B51EC100B53EC182BFEF7C2
:10356000B5F8044657F8040B0D46FEF7A5FA2246B7
:103570002B46FEF76FFC761E41EC100BEBD151ECA5
:10358000100B019C4800400D04EB000219D0002AEA
:1035900017DD40F2FF70824209DB9FED2F1B53ECD9
:1035A000112B01F000410B4343EC102B1BE06FF398
:1035B0001E5141EA025155EC104B0D4645EC104BA3
:1035C00011E051EC100B20F0000221F0004300202C
:1035D000834208BF824206D0224651EC100BFEF710
:1035E000AFF941EC100B43465A4651EC100BFFF774
:1035F0007DFE41EC100B0AE0032808BF9FED160B7F
:1036000005D004280CBF9FED160B9FED180BBAF1E7
:10361000000F05D051EC100B81F0004141EC100B74
:1036200004B051EC100BBDEC028BBDE8FC8D00002A
:1036300002FCFFFFFFFF0F800000E03F3CBF737FF5
:10364000DD4F1575436FAC640000000065CDCD41C2
:10365000000000000000B041000000000000F07F0A
:10366000FFFFFFFFFFFFFF7F2806C80A00000000E2
:1036700000000000000000000000000000002440E6
:103680000000000000005940000000000088C34016
:103690000000000084D797410080E03779C34143A0
:1036A000176E05B5B5B89346F5F93FE9034F384DA8
:1036B000321D30F94877825A3CBF737FDD4F157554
:1036C00010B50446FDF778FD014620460969BDE8BE
:1036D0001040084701F000428B1AA3F16051B1F588
:1036E000801F0ADBB1F17F6F1FD242EAC102C10025
:1036F00071F1004142EB507070470B15C3F10903A3
:10370000212B10D2890241EA9051800201284941BF
:1037100041F0004121FA03F0C3F12003994071F117
:10372000004150417047100070476FF0000013EBEC
:10373000103F5CBF000E42EAC050704710B504460F
:10374000FDF73AFD01462046896ABDE8104008476A
:103750002DE9F84305460C462E68002700E0761C4C
:103760003078FFF7B9FB0028F9D130782D280CBF4D
:1037700008272B2800D1761C307840F020016E29D4
:1037800027D1707840F02000612802BFB07840F067
:1037900020006E2802D02E68002746E0F61CB046B6
:1037A000042798F8000028283FD118F8019F4846C0
:1037B000FFF786FF0028F8D1A9F130000A28F4D3DA
:1037C00098F800005F28F0D029282ED108F10106D2
:1037D0002BE069292CD1707840F020006E2802BFC0
:1037E000B07840F02000662802D02E6800271CE048
:1037F00016F8030F40F02000692802BF707840F0EF
:1038000020006E2847F003070FD1B07840F0200069
:10381000692802BFF07840F02000742805D1307983
:1038200040F02000792808BF761DF4B126601CE026
:10383000302802BF707840F02000782813D1B01CE7
:1038400001782E2908BF401C0078A0F161010629EB
:1038500021BFA0F14102062A30380A2803D2B61C43
:1038600047F0020701E047F001072E603846BDE847
:10387000F28300002DE9F14F8CB09246169A02EBCC
:10388000C20200202D2AC8BF2D221860834658602E
:10389000002501E0491C01250C78302CFAD00024C9
:1038A0001F460B78A3F130060A2E80F097809442D1
:1038B00007DB3B685B1C3B600B78302B05D001209D
:1038C00003E0303B0DF80430641C491C0125E8E797
:1038D0003868401E3860761C012530783028F7D0D3
:1038E0003078A0F130010A2980F08780444507DA5A
:1038F00030380DF80400641C3A68521E3A6003E048
:10390000302818BF4FF00109761C0125E8E70DF1BA
:10391000FF32115D49B93A68521C3A60641E002CAE
:10392000F5DC04BF8DF800B0012400284BD009233A
:1039300094FBF3F3C4F1090103EBC3035918092203
:1039400091FBF2F202EBC202DC468A1A18BF4FF07A
:10395000010B5A468B46A4455BDA09219BFBF1F12A
:103960001DF80C3001EBC101BBEB01011DBF57F885
:10397000221001EB810103EB4103521C47F8223076
:103980000BF1010B0CF1010CE5E700240025DFF839
:10399000A4C0314608E0654504DA05EB850402EB76
:1039A0004405303D491C01240A78A2F130060A2E54
:1039B000F1D30E46BEF12D0F396808BF6D426D1868
:1039C0003D6004B91E46BAF1000F03D000B90C9E49
:1039D000CAF8006058460DB0BDE8F08F0E4690461C
:1039E0008146FDF746FC406A31780278914208BF73
:1039F000761C002C7FF474AF6FE75FEA090128465C
:103A00008DD00DF1FF3111F80820521C01F808206B
:103A100085E79346327842F02002652AD3D13346B7
:103A200016F8011F2B2916BF2D2916F801EB4FF0B0
:103A30002B0EAAE700E1F5052DE9FD4E8BB0002421
:103A4000DDF858901C60C9EBC909B9F1230FC8BF54
:103A50004FF023095C60A24602E0491C4FF0010AC6
:103A600008783028F9D000BF0FF2B81573A2A3462A
:103A70000A9509920F461E46397816222846FDF708
:103A800075FC002800F09A80D94503DA3068401CA4
:103A9000306007E00A9A0999801A085C0DF80B005B
:103AA0000BF1010B7F1C4FF0010AE5E73068401E67
:103AB00030607F1C4FF0010A38783028F6D0397812
:103AC00016222846FDF752FC002800F08480D945D4
:103AD0000ADB00BF59A1401B085C0DF80B000BF17D
:103AE000010B3168491E31607F1C4FF0010AE6E787
:103AF0000DF1FF335A5C4AB933685B1C3360491ED1
:103B00000029F5DC04BF8DF80040012132689200E5
:103B1000BAF1000F326046D04FF0070C91FBFCFC6D
:103B2000C1F10705CCEBCC0C6544072295FBF2F202
:103B30000023C2EBC202AA1A18BF0124A4468B427A
:103B40005CDA072295FBF2F21DF80340C2EBC202D9
:103B5000AA1A1ABF56F82C2004EB02140CF1010C1F
:103B600046F82C406D1C5B1CE9E7002300252C481F
:103B7000394608E0854204DA05EB850307EB430587
:103B8000303D491C01230F78A7F13009B9F10A0F24
:103B9000F0D30F46BCF12D0F316808BF6D426D1890
:103BA000356003B917460C9921B1BAF1000F08BF6F
:103BB0000B9F0F6020460EB0BDE8F08EFDF759FB5D
:103BC000406A39780278914208BF7F1CBBF1000F30
:103BD0007FF475AF70E75946894591DA1DF80920E1
:103BE000072A06DD0DF1FF3111F80920521C01F8FA
:103BF000092049463268521C326081E7397841F029
:103C0000200170296446CED13A4617F8011F2B29AE
:103C100016BF2D2917F801CB4FF02B0CA5E700009C
:103C200000E1F505303132333435363738396162E9
:103C30006364656641424344454600000001020357
:103C40000405060708090A0B0C0D0E0F0A0B0C0DD4
:103C50000E0F0000F0B585B050260B9D25B986F3F8
:103C6000118800F099FAFEE70C9C24B986F31188BC
:103C700000F092FAFEE75C270097009F5C2F04D0CB
:103C800086F3118800F088FAFEE70A9E2563002774
:103C9000022584F859500397029404AD01950096CB
:103CA00000F034F8204600F077F8049805B0F0BD35
:103CB0002DE9F8430646174684B088469946B80071
:103CC00000F0E6FB05001CD05C2000F0E1FB0400E6
:103CD00014D00D990C982563002284F85920039282
:103CE0000191009002944B463A464146304600F01E
:103CF0000DF8204600F050F8012004E0284600F0BE
:103D00004FFC4FF0FF3005B0BDE8F0832DE9F047E0
:103D10000A9D81460C461746286B9846A522B90095
:103D200000F08EFC296B01EB8702171FFF08FF00D4
:103D30000021625C6B1883F83420605C10B1491C70
:103D40001029F6D3089E002085F84300062E099C12
:103D500088BF062605F14C0AEE62CAF80400CAF8CC
:103D60000060281D00F096FC05F1180000F092FCA0
:103D70002D61C6F10706AE616D620020CAF8080029
:103D80008AF80C0042464946384600F0BFFC2860DD
:103D900004B12560BDE8F0872DE9F04100F096F808
:103DA000DFF86455DFF86485E86C401CE86414268D
:103DB000A86A28BBAC62E86C012829D1002706FB61
:103DC00007F0404400F059FC7F1C072FF7D305F1A2
:103DD000740000F052FC05F18807384600F04DFCF5
:103DE000284600F04AFC05F1140000F046FC05F1FD
:103DF000380000F042FC05F17400E8622F6307E030
:103E0000A86D28B9E06AA96ACA6A904228BFAC6264
:103E1000A86E401CA866606400F07AFA4643211D33
:103E200008EB060000F039FC00F0FDFCA86D30B195
:103E300000F0B7F903D200F0E3FA00F0ADF9BDE805
:103E4000F08180B588B1DFF8C024116F21B100F096
:103E500040F800F0A1F9FEE7116F491C116700213D
:103E600000F0D6FA00F06EF808B900F090F901BD44
:103E700070B5050004D100F02CF800F08DF9FEE7D4
:103E8000DFF88464B06A854201D1002070BD00F083
:103E9000B1FC6C6900F0C7FCF06A84421CBF316B56
:103EA0008C4207D006F138018C4205D1A86A08B9C6
:103EB000032070BD022070BD06F11400844218BFBB
:103EC000002C01D1042070BD012070BD044600F01B
:103ED00091BC502080F311887047000080B586B0F7
:103EE00000210591049103AA04A905A800F0EAFCA9
:103EF0000598049902900022009201910023039AF0
:103F00000BA10FF2A920FFF7A5FE70B1FFF7E1FFAB
:103F100000F042F9DFF858054FF0FF31C166012289
:103F200082650021016500F013FC07B000BD0000B0
:103F300049444C4500000000DFF83405016F491C7E
:103F40000167704770B5DFF8C063306F002400254B
:103F500020B900F044F800F01FF9FEE700F04AFC39
:103F6000306F401E3067306F002836D1F06CD8B902
:103F700033E0F068C46800F036F800F0C2F9E06A97
:103F8000716DDFF88834012282401143716514227B
:103F90005043211D184400F080FBE06AB16ACA6AF0
:103FA000904224BF0121316630680028E1D10CB174
:103FB00000F09AF9F46D3CB100F062F808B101200C
:103FC0003066641EF8D1F565306E30B1DFF8A414A8
:103FD0004FF08050012500F0DEF800F00ABA5021C1
:103FE00081F31188704704F1180000F07CBB2DE9C3
:103FF000F047DFF814738046386F401C386700259F
:10400000F86C07248142164632D3641E1420DFF870
:10401000FC3360434FF02409191809FB05F0012215
:1040200000F02CF84519002CEFD1F96A09FB05F0D6
:1040300000F023F800EB050A396B09FB0AF000F0E9
:104040001CF8824409FB0AF0042207F1140100F075
:1040500015F8824409FB0AF3032207F1380108EB43
:10406000030000F0FEF800EB0A050EB100203060FE
:10407000FFF768FF2846BDE8F08702224044F0E0E1
:104080002DE9F843DFF88072386F002600284ED102
:104090003C6D641C3C6510D1F86A006820B1FFF7E4
:1040A0009EFF00F079F8FEE7F86A396BF962386331
:1040B000786E401C786600F017F9F86EDFF84C93C4
:1040C00084424FF0140825D31AE0281D00F00BFBA2
:1040D000A86A18B105F1180000F005FBE86A796DCF
:1040E000012282401143796508FB00F0291D4844F4
:1040F00000F0D3FAE86AB96ACA6A904228BF01267A
:10410000F86A006880B1F86AC168CD68686884425E
:10411000DBD2F866B86AC06A08FB00F059F80010F4
:10412000022907D3012605E04FF0FF30F1E7F86DD3
:10413000401CF865386E00B101265EE1DFF8C82149
:10414000106F10B101211166704710661421506D77
:10415000B0FA80F3C3F11F034B43DFF8B012C85825
:1041600038B9502181F31188BFF34F8FBFF36F8FA0
:10417000FEE7C81800F108034168496841609942A8
:1041800004BF496841604068C16891627047DFF8C8
:10419000E4124FF080500860BFF34F8FBFF36F8F72
:1041A0007047A86AC16AE06A8142704770B5574C8F
:1041B000DFF8BC5211E000F01DFB286AC668301D14
:1041C00000F091FAE86C401EE864686B401E68637A
:1041D00000F029FB304600F070F8686B0028EAD147
:1041E00021680229F9D3FFF7D2FFF6E770B5050081
:1041F0000E46454808BF856A356005F1340114460E
:104200007160EA6A3261296BF1616A6CB260002206
:10421000E96C7161052BB26111D0816A8D4208BFD2
:10422000327310D0032B33730DD1016F491C01671A
:10423000A86A08B102213173FFF784FE03E0284623
:10424000FFF716FE30734CB10021286B00E0491CCB
:1042500010F8012BA52AFAD0890800E0002131844A
:1042600070BD2DE9F8430D460446286890460027A6
:10427000C8B100F01BF804BF406868606868C66891
:1042800000F014F804BF406868606868D0F80C90CB
:10429000242078432118434601224846FFF7A6FF11
:1042A0007F1CB145ECD13846BDE8F28368684068B0
:1042B000686005F108018842704710B5044694F81B
:1042C000590040B9206B00F06BF92046BDE8104062
:1042D00000F066B910BD0128F7D00228FAD0FFF728
:1042E000F8FDFFF759FFFEE70749C86A006810B9F3
:1042F0004FF0FF3203E0C86AC268D0684268CA66FD
:104300007047201D00F0EFB9847500202076002052
:104310000122E06A696D82401143696570470000BF
:104320002DE9FF410646002030702427DFF84001C8
:10433000C16C0391C06C784300F0AAF8040056D019
:1043400003990FF23C180022FFF751FE0390002161
:10435000029120E03154401C0F28FBD3002131543E
:1043600006440299029A794360187A438168019160
:10437000A1182A46088C00903046029979432144BE
:104380000B69414600F0A8FA3046FCF7C1FF06442D
:104390000298401C029002980399884221D2029808
:1043A00078432044017B04290ED8DFE801F003059F
:1043B00007090B00582508E0522506E0422504E0D5
:1043C000532502E0442500E000250298784320446C
:1043D0004168304600F0A0FA3046FCF799FF2021F2
:1043E000BAE7204604B0BDE8F04100F0D9B8BDE816
:1043F000FF8100F018FA284670BD3046BDE8F28310
:104400001C4A4FF080511160704700002076002058
:10441000F8B5174D2F6D0C46A96A0646081D00F029
:1044200062F930B9A86A696DC06A0122824091437D
:10443000696516F1010F05D124B1A86A011D05F1C6
:10444000380019E0A86AF6194660BE42A86A05D28B
:10445000011D286BBDE8F44000F02CB9011DE86A8D
:1044600000F028F9E86E864238BFEE66F1BD000024
:104470008475002004ED00E0BDE8F44000F00DB9C3
:104480000925630925750925750925750D0A00009B
:104490002DE9F8430446FFF74FFD684FB8684FF029
:1044A0000009002500BB07F1180307F1180113F0FC
:1044B000070F44F620600A4604D0CA1DD208D20075
:1044C000801A081880180838C008C0003A607D605B
:1044D000B86045600560831A5360106050683861A9
:1044E000F8604FF0004078614FF05008786904425E
:1044F00033D194B3083414F0070F1FBF04F1080040
:1045000004F00704041B14F0070F02D000F041F878
:10451000FEE714B3F868A0421FD33E6839467068BE
:10452000A04223D2306800281CBF31460646F6D18F
:104530001CE0301D02517460084600F05BF87168A1
:10454000F8683A69401AF860904238BF3861786973
:1045500001437160356009F00705FFF7F3FC15B101
:1045600000F017F8FEE74846BDE8F283B8688642D7
:10457000F3D00A683068086002F108097268121BFB
:10458000112ADCD3311911F00700D2D000F001F864
:10459000FEE788F31188BFF34F8FBFF36F8F70472B
:1045A000002800D1704738B5A0F10804234D616898
:1045B0006A695023114202D100F015F8FEE7206825
:1045C00010B100F010F8FEE791436160FFF7B4FC12
:1045D000E96860684118E960204600F00BF8BDE822
:1045E0003140FFF7AFBC83F31188BFF34F8FBFF3A8
:1045F0006F8F704730B511490A4600E01A461368BC
:104600008342FBD35368D418844203D14068C31853
:104610005360104643681468C518A54208D18968DC
:104620008C4204D06168CB184360246800E00C46DB
:104630000460824218BF106030BD00000C020020F0
:1046400062F30F2262F31F4200B500BF13009646CB
:104650009446103928BFA0E80C50FAD85FEA417C94
:1046600028BF0CC048BF40F8042BC90728BF20F85A
:10467000022B48BF00F8012B00BD4FF0FF3200F1C4
:10468000080182604160C16000F1080202610021FE
:104690000160704700210161704710B542684A60AF
:1046A00093688B6094686160916008610168491C3F
:1046B000016010BD30B50A6812F1010F08BF03692F
:1046C00007D000F1080300E023465C682568AA4291
:1046D000FAD25A684A6091608B605960086101683B
:1046E000491C016030BD4368016982689A60836833
:1046F00042685A604A68824204BF83684B60002265
:1047000002610868401E086008687047490810B5D3
:104710004900A0F120034FF0807499611A60DC61B8
:104720006FF002020FF20D01596140F8242D20387C
:1047300010BD00004E494A68502012F1010F80F36D
:104740001188BFF34F8FBFF36F8F00D0FEE7FEE7F6
:104750007CB5484A484B10685021984202D100F07D
:1047600095F8FEE71068454B984202D100F08EF8AC
:10477000FEE7434B1C780194FF251D7007251E782A
:104780003B4C8DF800609DF80000A56000F05000E3
:10479000207006E0401EA0609DF8000040008DF8EB
:1047A0000000A0689DF800502E06F3D4C0F1070564
:1047B000042D02D000F06AF8FEE7000200F4E06089
:1047C000A06001981870116A41F470011162106ABA
:1047D00040F07040106200F061F80020606000F06E
:1047E0000BF92848016841F04041016000F0F4F8FD
:1047F000002076BD502080F31188BFF34F8FBFF3A8
:104800006F8F1B494A68521C012A4A600AD11E490F
:104810000A68130606D080F31188BFF34F8FBFF3E9
:104820006F8FFEE770471249486838B9502080F30F
:104830001188BFF34F8FBFF36F8FFEE7401E4860B4
:1048400008BF80F31188704780B5502080F311882D
:10485000BFF34F8FBFF36F8FFFF712FC18B10A49F8
:104860004FF080500860002282F3118801BD0000E3
:104870000000002000ED00E071C20F4170C20F4146
:1048800000E400E034EF00E004ED00E081F3118883
:10489000BFF34F8FBFF36F8F704700000748084B7F
:1048A0000021016081604FF47A721968B1FBF2F265
:1048B000521E426007210160704700BF10E000E017
:1048C00018000020034B036003F15C0008608021A6
:1048D00011607047E46C00200CB430B583B00A4618
:1048E00006A90291044600250194009502AB01A996
:1048F000084878441E30FBF747FC019A15700028E1
:104900004EBF04460198041B204603B030BC5DF83E
:104910000CFB00BF7FCBFFFF5FEA000C80EA0103C6
:104920009B0715D1830706D011F8013B00F8013B26
:10493000B3B18307F8D10A68B2F1013323EA020365
:1049400013F0803F02BF40F8042B51F8042FF3E727
:1049500011F8013B00F8013B13B111F8013BF9E7F5
:1049600060467047EFF30980BFF36F8F264B1A68DC
:104970001EF0100F08BF20ED108A20E9F04F1060E4
:1049800009B44FF0500080F31188BFF34F8FBFF38D
:104990006F8FFFF7D3FB4FF0000080F3118809BC45
:1049A00019680868B0E8F04F1EF0100F08BFB0ECAF
:1049B000108A80F30988BFF36F8F7047124B196814
:1049C0000868B0E8F04F80F30988BFF36F8F4FF0AD
:1049D000000080F3118870470C480068006880F37D
:1049E00008884FF0000080F3148862B661B6BFF308
:1049F0004F8FBFF36F8F00DFDFF81400016841F4C1
:104A00007001016070470000AC75002008ED00E007
:104A100088ED00E0463100004632000046330000D9
:104A20004634000046350000463600004637000098
:104A3000463800004639000046313000463131002A
:104A4000463132000AEFBFBDEFBFBDEFBFBDEFBFC4
:104A5000BDEFBFBDEFBFBDEFBFBD0A0AEFBFBDEFEA
:104A6000BFBDEFBFBDEFBFBDEFBFBDEFBFBDEFBF70
:104A7000BD20EFBFBDEFBFBDEFBFBDEFBFBDEFBFFF
:104A8000BDEFBFBD20EFBFBDEFBFBDEFBFBDEFBFEF
:104A9000BDEFBFBDEFBFBD3A0A202E2E2E202D2028
:104AA000EFBFBDEFBFBD20EFBFBDEFBFBDEFBFBDCF
:104AB000EFBFBDEFBFBD20EFBFBDEFBFBDEFBFBDBF
:104AC000EFBFBDEFBFBDEFBFBDEFBFBDEFBFBDEFE0
:104AD000BFBDEFBFBD20EFBFBDEFBFBDEFBFBDEF9F
:104AE000BFBDEFBFBDEFBFBD20EFBFBDEFBFBDEF8F
:104AF000BFBDEFBFBD20EFBFBDEFBFBDEFBFBDEF7F
:104B0000BFBD20EFBFBDEFBFBD20EFBFBDEFBFBD3D
:104B1000EFBFBDEFBFBDEFBFBDEFBFBDEFBFBDEF8F
:104B2000BFBDEFBFBDEFBFBDEFBFBDEFBFBDEFBFAF
:104B3000BD20EFBFBDEFBFBDEFBFBDEFBFBD20EFDD
:104B4000BFBDEFBFBDEFBFBDEFBFBDEFBFBDEFBF8F
:104B5000BD2E0A2028772C20752C20782C20792C2B
:104B600020752C207A29202D20EFBFBDEFBFBDEF8F
:104B7000BFBDEFBFBDEFBFBD20EFBFBDEFBFBDEFFE
:104B8000BFBDEFBFBD20EFBFBDEFBFBDEFBFBDEFEE
:104B9000BFBDEFBFBDEFBFBD20EFBFBDEFBFBDEFDE
:104BA000BFBDEFBFBD20EFBFBDEFBFBD20EFBFBD9D
:104BB000EFBFBDEFBFBDEFBFBDEFBFBDEFBFBDEFEF
:104BC000BFBDEFBFBDEFBFBDEFBFBDEFBFBDEFBF0F
:104BD000BDEFBFBD20EFBFBD0A0920EFBFBDEFBFD6
:104BE000BDEFBFBDEFBFBDEFBFBDEFBFBDEFBFBDF1
:104BF00020EFBFBDEFBFBDEFBFBDEFBFBDEFBFBD7E
:104C0000EFBFBDEFBFBD20EFBFBDEFBFBDEFBFBD6D
:104C1000EFBFBDEFBFBD20EFBFBDEFBFBDEFBFBD5D
:104C2000EFBFBDEFBFBDEFBFBDEFBFBD20EFBFBD4D
:104C3000EFBFBDEFBFBDEFBFBDEFBFBDEFBFBDEF6E
:104C4000BFBDEFBFBDEFBFBDEFBFBD20EFBFBDEF2D
:104C5000BFBDEFBFBD20EFBFBDEFBFBDEFBFBDEF1D
:104C6000BFBDEFBFBDEFBFBD2E0A207B787D202DDD
:104C700020EFBFBD20EFBFBDEFBFBDEFBFBDEFBF9A
:104C8000BDEFBFBDEFBFBDEFBFBDEFBFBD20EFBFED
:104C9000BDEFBFBDEFBFBDEFBFBDEFBFBDEFBFBD40
:104CA000EFBFBD20EFBFBDEFBFBDEFBFBDEFBFBDCD
:104CB000EFBFBDEFBFBDEFBFBDEFBFBDEFBFBDEFEE
:104CC000BFBDEFBFBD20EFBFBDEFBFBDEFBFBDEFAD
:104CD000BFBDEFBFBDEFBFBDEFBFBDEFBFBDEFBFFE
:104CE000BDEFBFBDEFBFBDEFBFBDEFBFBDEFBFBDF0
:104CF00020EFBFBDEFBFBDEFBFBDEFBFBDEFBFBD7D
:104D0000EFBFBDEFBFBDEFBFBDEFBFBD2E0A205B44
:104D1000782E2E585D202D20EFBFBD20EFBFBDEFB8
:104D2000BFBDEFBFBDEFBFBDEFBFBDEFBFBDEFBFAD
:104D3000BDEFBFBDEFBFBDEFBFBDEFBFBDEFBFBD9F
:104D4000EFBFBD20EFBFBDEFBFBDEFBFBDEFBFBD2C
:104D5000EFBFBDEFBFBDEFBFBD20EFBFBDEFBFBD1C
:104D6000EFBFBDEFBFBDEFBFBDEFBFBDEFBFBDEF3D
:104D7000BFBDEFBFBDEFBFBDEFBFBD20EFBFBDEFFC
:104D8000BFBDEFBFBDEFBFBDEFBFBDEFBFBDEFBF4D
:104D9000BDEFBFBD20EFBFBDEFBFBDEFBFBDEFBFDC
:104DA000BDEFBFBDEFBFBDEFBFBDEFBFBDEFBFBD2F
:104DB000EFBFBD20EFBFBDEFBFBDEFBFBDEFBFBDBC
:104DC000EFBFBDEFBFBDEFBFBDEFBFBD20EFBFBDAC
:104DD000EFBFBDEFBFBD20EFBFBDEFBFBDEFBFBD9C
:104DE000EFBFBDEFBFBD2C0A0920EFBFBDEFBFBDB8
:104DF000EFBFBDEFBFBDEFBFBDEFBFBDEFBFBDEFAD
:104E0000BFBDEFBFBDEFBFBDEFBFBDEFBFBDEFBFCC
:104E1000BDEFBFBD20EFBFBD20EFBFBDEFBFBDEFFA
:104E2000BFBDEFBFBDEFBFBDEFBFBDEFBFBD20EF4B
:104E3000BFBDEFBFBD20EFBFBDEFBFBDEFBFBDEF3B
:104E4000BFBD20EFBFBDEFBFBDEFBFBDEFBFBDEF2B
:104E5000BFBD2E0A0AEFBFBDEFBFBDEFBFBDEFBFA5
:104E6000BDEFBFBDEFBFBDEFBFBD3A0A0000000000
:104E70000D1B5B303B33316D496E76616C6964208C
:104E80006B6579776F7264211B5B306D0A000000DF
:104E9000144A0008000000000000000000000000AC
:104EA0000000000000000000000000000000000002
:104EB00000000000000000000000000000000000F2
:104EC00000000000000000000000000000000000E2
:104ED00000000000184A0008000000000000000068
:104EE00000000000000000000000000000000000C2
:104EF00000000000000000000000000000000000B2
:104F000000000000000000000000000000000000A1
:104F100000000000000000001C4A00080000000023
:104F20000000000000000000000000000000000081
:104F30000000000000000000000000000000000071
:104F40000000000000000000000000000000000061
:104F5000000000000000000000000000204A0008DF
:104F60000000000000000000000000000000000041
:104F70000000000000000000000000000000000031
:104F80000000000000000000000000000000000021
:104F90000000000000000000000000000000000011
:104FA000244A00080000000000000000000000008B
:104FB00000000000000000000000000000000000F1
:104FC00000000000000000000000000000000000E1
:104FD00000000000000000000000000000000000D1
:104FE00000000000284A0008000000000000000047
:104FF00000000000000000000000000000000000B1
:1050000000000000000000000000000000000000A0
:105010000000000000000000000000000000000090
:1050200000000000000000002C4A00080000000002
:105030000000000000000000000000000000000070
:105040000000000000000000000000000000000060
:105050000000000000000000000000000000000050
:10506000000000000000000000000000304A0008BE
:105070000000000000000000000000000000000030
:105080000000000000000000000000000000000020
:105090000000000000000000000000000000000010
:1050A0000000000000000000000000000000000000
:1050B000344A00080000000000000000000000006A
:1050C00000000000000000000000000000000000E0
:1050D00000000000000000000000000000000000D0
:1050E00000000000000000000000000000000000C0
:1050F00000000000384A0008000000000000000026
:10510000000000000000000000000000000000009F
:10511000000000000000000000000000000000008F
:10512000000000000000000000000000000000007F
:1051300000000000000000003C4A000800000000E1
:10514000000000000000000000000000000000005F
:10515000000000000000000000000000000000004F
:10516000000000000000000000000000000000003F
:10517000000000000000000000000000404A00089D
:10518000000000000000000000000000000000001F
:10519000000000000000000000000000000000000F
:1051A00000000000000000000000000000000000FF
:1051B00000000000000000000000000000000000EF
:1051C0002DE9F04F95B000F0BBFB00F0BEFA01A84E
:1051D000142100F0C7FBDFF8C046DFF8C096206856
:1051E00040F4002020604FF48016216801F4002173
:1051F00000910098216841F480012160226802F446
:10520000800200F09EFA41F400312160226802F42D
:10521000003200F096FA41F480212160226802F405
:10522000802200F08EFA41F400112160226802F41D
:10523000001200F086FA41F4801121604FF46041C1
:10524000226802F48012009200220098484600F082
:1052500056FC4FF460410191012200210391049119
:10526000029201A9484600F081FB206840F002004C
:10527000206000222168DFF8284601F00201009139
:10528000052100983A2000F06DFC3A2000F087FCE0
:10529000092161604FF44021DFF808062060216198
:1052A0004FF080700022E0600121A2602283A2768C
:1052B000E176A2836661204600F086FC08B100F02A
:1052C000CEFA0020059006900122029003900490EF
:1052D000079208926946204600F0EDFC08B100F004
:1052E000BEFA204600F048FD08B100F0B8FA0221ED
:1052F000204600F061FE08B100F0B1FA00F01DFA9E
:1053000004F14005DFF8A005286400216964A96460
:10531000E9642965E96604F18007384600F056FF24
:1053200008B100F09CFA0021384601F010F808B1ED
:1053300000F095FA0021384601F029F808B100F094
:105340008EFA0021384601F012F808B100F087FA11
:10535000DFF8588500224146384600F0D7FF08B1F3
:1053600000F07DFA4FF0406100910196002102911A
:1053700003916A46384600F075FF08B100F06FFAF5
:1053800000224146384600F093FF08B100F067FA6A
:1053900000F0D3F904F1C406DFF8140530600021F1
:1053A0007160B160F1603161F162304600F00EFF72
:1053B00008B100F054FA0021304600F0E8FF08B1CF
:1053C00000F04DFA0021304600F0D1FF08B100F0A6
:1053D00046FADFF8E0A400225146304600F096FF7E
:1053E00008B100F03CFA4FF0806100914FF4E00208
:1053F00001920021029103916A46304600F032FF8B
:1054000008B100F02CFA00225146304600F050FF5F
:1054100008B100F024FA09A800F090F90FF2AC42AC
:1054200004F5847BD2E90001CDE9000102A81C212A
:1054300000F098FA4FF0804070640021B1640020C1
:10544000F0644FF461517065F0653165584601F0C4
:10545000C7F808B100F003FA4FF48050099009A989
:10546000584601F0E5FA08B100F0F9F9584601F0A4
:10547000EEF808B100F0F3F90021009101915846CF
:10548000694601F063FC08B100F0E9F960210022EF
:1054900002910392022104220491069202A9082299
:1054A000584601F04DFA08B100F0D9F90C2202A9D2
:1054B000584601F045FA08B100F0D1F9584601F01C
:1054C000A9FD02A8242100F04DFA0FF2084204F5CC
:1054D000A478D2E90001CDE90001DFF8DC23C8F8A7
:1054E00000200020C8F8040000214FF4FA40C8F85A
:1054F0000810C8F80C00C8F8101000200121C8F8E6
:10550000180002910390049105900690079008916D
:1055100009900A9002A9404601F000F908B100F094
:105520009EF90021009101914046694601F00EFC70
:1055300008B100F094F903A8242100F013FA0FF247
:105540009C32DE4BD2E90001CDE9010100220021AD
:10555000C8F84810C8F850100120012103910591A6
:10556000C8F8440005210791C8F858200121099185
:105570000492069208920A924FF6FF700521C8F82D
:105580004C000B9104F5C472C8F84030009203A996
:10559000104601F0C3F808B100F061F90021019153
:1055A000029101A9009801F0D1FB08B100F057F970
:1055B0000AA800F0C3F80FF22C3204F5E477D2E920
:1055C0000001CDE9010103A81C2100F0CBF9BC4882
:1055D000386000217960B9604FF46150F86039613A
:1055E000B961384600F0FCFF08B100F038F94FF41B
:1055F00080500A900AA9384601F01AFA08B100F062
:105600002EF9384601F023F808B100F028F90021FE
:1056100001910291384601A901F098FB08B100F010
:105620001EF96021002203910492022104220591B7
:10563000079203A90022384601F082F908B100F070
:105640000EF9042203A9384601F07AF908B100F0F6
:1056500006F9384601F0DEFC082060630C210020CA
:105660002870E063C4F830B04FF40040A163C4F880
:105670002890A085EF600421296100204FF480412B
:10568000298168612877A861A8844FF47A51A962BA
:10569000C5F80490C5F8208004F1600001F017FD02
:1056A000A98C286A01F081F800982863002146F24D
:1056B000A810A863A98604F1700001F008FDA98E66
:1056C000286B01F072F83E64C7F844A000217D48C1
:1056D000B864F964304600F083FE386C4FF47A7198
:1056E00000F09EFE08B100F0BAF8386C00F0CFFE72
:1056F00008B100F0B4F80EA87CA11C22FBF786FECE
:1057000000210EA801F0FBFC38651C220DF11C00E5
:105710007DA1FBF77BFE002107A801F0F0FC786576
:105720001C2268467FA1FBF771FE0021684601F04C
:10573000E6FCB86501F0DEFCFEE76846102100F0EB
:1057400011B9009200982168704780B59AB005A8F9
:10575000282100F007F96846142100F003F90FA88A
:105760002C2100F0FFF84FF48031002206910792BF
:105770000D9101200590099002224FF4E0110C9246
:105780000E9105A801F0F2FC08B100F068F80221C2
:1057900001910F204FF4806100900022039102924A
:1057A00004920221684601F068FE08B100F057F843
:1057B0004FF402300F9000214FF0284219911792B8
:1057C0000FA801F04BFF08B100F049F84FF400704A
:1057D00001F0FAFF4FF4006001F0F6FF1BB000BDCE
:1057E00018B589B06B4602AA002100F069FB08B128
:1057F00000F035F800F04AF800F045F800F047F8FE
:1058000000F041F800F043F800F03DF800F03FF8F8
:1058100000F039F800F03BF800F035F800F037F808
:105820000AB010BD80B501F0E5FF012001F096FC43
:10583000FBE780B502F0A2F8FCE780B54FF4005119
:10584000164800F061F94FF4FA7001F087FCF5E7B3
:1058500000681D49884208BF02F0F4B8704710B5CF
:1058600000F014F800F00FF800F011F800F00BF859
:1058700000F00DF800F007F82046BDE810404FF4A6
:10588000005100F041B9642002F0E4B8034C4FF439
:105890000051204600F038B91410024000080048BA
:1058A000406F0020006400400060014010000400D0
:1058B000006801404000060000040040000800406D
:1058C000000C00403CCE613A001000400000000097
:1058D00000000000000000000000000000000000C8
:1058E00000000000000000000000000088AB00087D
:1058F00025580008000000000000000080000000A3
:10590000000000000000000094AB000833580008BD
:10591000FEFF000000000000D007000000000000B3
:10592000000000009CAB00083B580008FFFF00008F
:1059300000000000800000000000000000000000E7
:1059400080B50748016841F010010160032000F0B4
:10595000FCF8002002F092F801F038FA002002BDB5
:10596000002002400022FEF76FBE00002DE9F84F34
:105970004FF00009674A0F234FF0010805460E4615
:1059800035E0654FBD4214BF052704278F402743EC
:105990004EF82C706FEA000C60490C680CEA040E9B
:1059A0007468E70348BF40EA0E0EC1F800E04C6897
:1059B0000CEA040E7468A70348BF40EA0E0EC1F853
:1059C00004E08C680CEA040E7468E70248BF40EA01
:1059D0000E0EC1F808E0CC680CEA040E7468A4024C
:1059E00048BF40EA0E0EC1F80CE009F10109316828
:1059F00031FA09F000F0818008FA09FC1CEA010084
:105A0000F3D07468022C18BF122C4FEA890112D10E
:105A10004FEAD90405EB840E01F01C07DEF82040A4
:105A2000D6F810B003FA07FA24EA0A040BFA07F7CB
:105A30003C43CEF820404FEA490E03242F6896F8E5
:105A400004A004FA0EF4E4430AF0030A27400AFA19
:105A50000EFA4AEA07072F607768012F18BF022F56
:105A600003D0112F18BF122F13D1AF68D6F80CA096
:105A700027400AFA0EFA4AEA0707AF606F6827EA7A
:105A80000C0C7768C7F3001707FA09F747EA0C0709
:105A90006F60EF683C40B76807FA0EF73C43EC6074
:105AA0007468E400A1D51468DFF874E044F00104E0
:105AB00014604FEA990C146804F00104009401F09A
:105AC0000C01009C5EF82C7003FA01F427EA040430
:105AD000B5F1904F08BF00270ED0124FBD4208BF4E
