:020000040800F2
:10000000A07E00205DE9000809E300080BE300087A
:100010000DE300080FE3000811E3000800000000F2
:10002000000000000000000000000000AD19000802
:1000300013E300080000000055190008DD16000851
:10004000A5EB0008A9EB0008ADEB0008B1EB000838
:10005000B5EB0008B9EB0008BDEB0008C1EB0008E8
:10006000C5EB0008C9EB0008CDEB0008D1EB000898
:10007000D5EB0008D9EB0008DDEB0008E1EB000848
:10008000E5EB0008E9EB0008EDEB0008F1EB0008F8
:1000900015E30008F5EB0008F9EB0008FDEB00089C
:1000A00001EC000805EC00081FE3000829E3000844
:1000B00009EC00080DEC000811EC000815EC000834
:1000C00019EC00081DEC000821EC000825EC0008E4
:1000D00029EC00082DEC000831EC000835EC000894
:1000E00039EC00083DEC000841EC000845EC000844
:1000F00049EC00084DEC0008000000000000000082
:10010000000000000000000051EC000855EC000861
:10011000000000000000000033E300083DE3000899
:1001200059EC00085DEC000847E3000861EC0008AA
:1001300065EC000869EC00086DEC000871EC000843
:1001400075EC000800000000000000000000000046
:10015000000000000000000000000000000000009F
:10016000000000000000000079EC000851E30008E6
:100170007DEC00080000000081EC00080000000099
:100180000000000085EC00082DE9F04F85B0060066
:100190000F0090469946DDF838A00F9C109D002C6A
:1001A00007D1502080F31188BFF34F8FBFF36F8FBB
:1001B000FEE7002D07D1502080F31188BFF34F8F49
:1001C000BFF36F8FFEE7602000900098602807D093
:1001D000502080F31188BFF34F8FBFF36F8FFEE77E
:1001E000002D19D0002C17D0AB46CBF830400220A0
:1001F0008BF85D0000200390CDF808B004A80190B2
:10020000CDF800A04B4642463900300000F047F8D8
:10021000584600F0B7F801E000200490049805B0BB
:10022000BDE8F08F2DE9F84F84B006000F0090462E
:100230009946DDF838A0DDF83CB0404680B2800039
:1002400000F0D2FF0500002D0BD0602000F0CCFFA5
:100250000400002C01D0256304E0280001F054F8CC
:1002600000E00024002C15D0002084F85D00002060
:1002700003900294CDF804B0CDF800A04B4642465E
:1002800092B23900300000F00AF8200000F07AF84D
:10029000012001E05FF0FF3005B0BDE8F08F2DE9EF
:1002A000F14F82B00D0016001F00DDF830800D9C6C
:1002B000DDF83890B00000905FF0A50BD9F830A0C1
:1002C0005A460099504601F0C9F8D9F8300000EBC1
:1002D0008600B0F1040A5FEADA0A5FEACA0A1AF095
:1002E0000700002807D0502080F31188BFF34F8FFC
:1002F000BFF36F8FFEE75FF0000BBBF1100F0CD266
:1003000015F80B0009EB0B0181F8340015F80B0010
:10031000002802D01BF1010BEFE7002089F8430011
:10032000B8F1070F01D306208046C9F82C80C9F820
:100330004C800020C9F8500019F1040001F0D0F8F9
:1003400019F1180001F0CCF8C9F81090D8F10700A5
:10035000C9F81800C9F824900020C9F854000020FA
:10036000C9F85800002089F85C003A00029950460C
:1003700001F0F4F8C9F80000002C01D0C4F8009096
:10038000BDE8F78F38B5040001F078F9DFF868159B
:100390000868401C0860DFF864552868002806D10A
:1003A0002C60086801280DD100F066FB0AE0DFF838
:1003B00050050068002805D1E06A2968C96A8842AA
:1003C00000D32C60DFF83C050168491C016000681F
:1003D0006064DFF834150A680123E06A83401A4339
:1003E0000A60211DDFF8A425E36A1420434302EBD1
:1003F000030001F078F801F05BF9DFF8040500680C
:1004000000280DD02868C06AE16A884208D25FF0EF
:100410008050DFF858160860BFF34F8FBFF36F8F1F
:1004200031BD38B505000024002D15D0DFF8780562
:100430000068002807D0502080F31188BFF34F8F49
:10044000BFF36F8FFEE700F099F80021280000F05D
:1004500065FE00F099F80400002C08D15FF0805090
:10046000DFF808160860BFF34F8FBFF36F8F31BD01
:1004700070B506003500002D07D1502080F311889B
:10048000BFF34F8FBFF36F8FFEE7DFF87004006894
:10049000854201D1002025E001F0F0F868690400F0
:1004A00001F006F9DFF89C050068844204D0DFF80B
:1004B000C0050068844201D1022013E0DFF8B405D2
:1004C000844206D1A86A002801D103200AE0022054
:1004D00008E0DFF8BC04844201D0002C01D10420E4
:1004E00000E00120C0B270BD10B586B000200490BD
:1004F0000020039005AA03A904A801F031F9DFF850
:100500003049049802900398019000200090002345
:10051000059ADFF820190FF23150FFF735FE206001
:100520002068002801D0012400E00024012C18D10B
:10053000502080F31188BFF34F8FBFF36F8F5FF0B0
:10054000FF30DFF8F41808600120DFF8B41308600A
:100550000020DFF8D41A086001F052F901F027F802
:100560000AE014F1010F07D1502080F31188BFF386
:100570004F8FBFF36F8FFEE706B010BDDFF8280482
:100580000168491C01607047F8B500250026DFF8B6
:1005900018442068002807D1502080F31188BFF349
:1005A0004F8FBFF36F8FFEE701F068F82068401EA1
:1005B00020602068002857D1DFF83C03006800283D
:1005C00052D0DFF868180868002827D0C868C068CB
:1005D000050015F1180000F0ADFF281D00F0AAFF7E
:1005E000DFF824130A680123E86A83401A430A608B
:1005F000291DDFF89823EB6A1420434302EB030024
:1006000000F071FFE86ADFF8F4120968C96A8842ED
:10061000D7D30120DFF8E01A0860D2E7002D01D01F
:1006200000F029FBDFF804793C68002C0CD000F0C6
:1006300077F8002803D00120DFF8BC1A0860641E98
:10064000002CF4D100203860DFF8AC0A00680028E4
:100650000AD0012006005FF08050DFF81014086017
:10066000BFF34F8FBFF36F8F01F022F83000F2BD60
:100670002DE9F24F0600150000270724FFF77EFF43
:1006800000989D490968884245D3641E5FF024089C
:100690000122BE48142101FB04F1014408FB07F0CC
:1006A000304400F081FAC0190700002CEDD102227D
:1006B000DFF89003016808FB07F0304400F074FA9B
:1006C000814619EB07090222DFF8A403016808FB41
:1006D00009F0304400F068FA82461AEB090A042255
:1006E000DFF8AC1208FB0AF0304400F05DFA8346F4
:1006F0001BEB0A0B0322DFF87C1308FB0BF806EB5D
:10070000080000F051FA10EB0B000700002D02D09A
:1007100001F07CF82860FFF737FF3800BDE8F28F62
:100720002DE9F0410027DFF88002006800286ED133
:10073000DFF8F4080468641C0460002C1CD1DFF8A6
:10074000041308680068002807D0502080F311883F
:10075000BFF34F8FBFF36F8FFEE7D1F80080DFF854
:10076000100302680A60C0F80080DFF8940901688D
:10077000491C016000F07FFADFF8BC86D8F8000061
:10078000844238D3DFF8BC1208680068002804D11E
:100790005FF0FF30C8F800002DE00868C068C0684E
:1007A000050068680600B44202D2C8F8006022E082
:1007B000281D00F0BFFEA86A002803D015F118001C
:1007C00000F0B8FE50490A680123E86A83401A43E2
:1007D0000A60291D6D4AEB6A1420434302EB0300B3
:1007E00000F081FEE86A45490968C96A8842C9D3B0
:1007F00001200700C6E7414800686449C26A142026
:1008000042438858022807D30120070004E0DFF89C
:100810001C070168491C0160DFF8DC08006800283B
:1008200001D0012007003800BDE8F08110B55E4816
:100830000068002804D00120DFF8BC18086040E000
:100840000020DFF8B4180860DFF8B84800F0DEFFD9
:100850002060DFF8B41808682268904207D2274861
:100860000268536D2068C31808681B1A5365206816
:10087000086025480068B0FA80F1D1F11F01142208
:10088000424B02FB01F01858002807D1502080F39A
:100890001188BFF34F8FBFF36F8FFEE702FB01F2AA
:1008A00003EB0200426852684260426810F108039C
:1008B0009A4202D14268526842604068C0680F4A5A
:1008C000106010BD38B504000D00002C07D1502079
:1008D00080F31188BFF34F8FBFF36F8FFEE7DFF810
:1008E0003008006810F11801200000F008FE012116
:1008F000280000F013FC31BD607A0020507A0020FF
:100900006C7A00207C7A0020687A002038B50500D7
:10091000E868C468002C07D1502080F31188BFF329
:100920004F8FBFF36F8FFEE714F1180000F002FE47
:100930001D480068002814D1201D00F0FBFDDFF8E1
:10094000D4170A680123E06A83401A430A60211D14
:100950000E4AE36A1420434302EB030000F0C3FD98
:1009600005E014F11801DFF8C40400F0BCFDDFF865
:10097000A0070068C06AE16A884205D2012001210F
:10098000DFF88827116000E0002032BDC07400202D
:10099000C4790020DFF8681709680160DFF85C1788
:1009A0000968416070470000887A00202DE9F04115
:1009B00004000D00002C07D1502080F31188BFF3F4
:1009C0004F8FBFF36F8FFEE7002D07D1502080F3CC
:1009D0001188BFF34F8FBFF36F8FFEE700F04EFE1D
:1009E000DFF8440606686768F71B286810F1010FF6
:1009F00002D15FF000081BE0DFF8040700682168FF
:100A0000884205D06068864202D35FF001080FE09B
:100A10002868874208D22868C01B28602000FFF79A
:100A2000B9FF5FF0000803E0002028605FF00108D4
:100A300000F03EFE4046BDE8F0810120DFF8CC1614
:100A400008607047547A002010B5040000F03FF8A9
:100A5000DFF8C40600680228F8D35FF080508F49A1
:100A60000860BFF34F8FBFF36F8FEFE704ED00E037
:100A7000587A0020D879002070B50024072C09D2BC
:100A8000DFF89406142101FB04F1084400F019FD7D
:100A9000641CF3E7DFF80857280000F012FDDFF8C8
:100AA0000467300000F00DFDDFF8800300F009FD61
:100AB000DFF8F40600F005FDDFF8F00600F001FDB8
:100AC000DFF8EC060560DFF8EC06066070BD38B5AF
:100AD000DFF8E4562868002817D000F0CFFDDFF8D3
:100AE000C806C068C0680400201D00F023FDDFF8C0
:100AF000CC060168491E01602868401E286000F08D
:100B0000D7FD200000F095F8E2E731BD2DE9F04176
:100B100004000E0015001F00002C04D1DFF8A00611
:100B2000D0F8008000E0A046C6F8008018F134003C
:100B30007060D8F82C003061D8F83000F061D8F837
:100B40004400B060D8F84C007061D8F85400B0612F
:100B50003800C0B2052817D0DFF864060068804569
:100B600002D10020307313E037733800C0B203287D
:100B70000ED1FFF703FDD8F82800002801D002208D
:100B80003073FFF701FD03E04046FFF771FC30735F
:100B9000002D05D0D8F8300000F040F8308401E096
:100BA00000203084BDE8F0812DE9F84304000D00F9
:100BB00016005FF00009286800282CD02800416842
:100BC00049684160416810F10802914202D14168D0
:100BD000496841604068C0688046280041684968AB
:100BE0004160416810F10802914202D141684968B0
:100BF00041604068C06807003300DBB20122242056
:100C000000FB09F004EB00013800FFF77FFF19F14A
:100C100001094745E1D14846BDE8F28301000020C3
:100C20000A78A52A02D1491C401CF9E7800880B245
:100C3000704710B5040094F85D00002806D1206BC1
:100C400000F062FB200000F05FFB13E094F85D0011
:100C5000012803D1200000F057FB0BE094F85D0061
:100C6000022807D0502080F31188BFF34F8FBFF3C5
:100C70006F8FFEE710BDDFF8382510680068002888
:100C800004D15FF0FF306C4A106006E01068C06865
:100C9000C06801004868684A1060704704ED00E0D1
:100CA000DFF820050068002801D1012007E0DFF807
:100CB00018050068002801D1022000E000207047DC
:100CC0002DE9F843040025000026002C52D0DFF85F
:100CD0004094E86AD9F80010C96A884242D2A869EB
:100CE000002805D4D9F80000C06AD0F10700A86137
:100CF000DFF824745FF014086869E96A08FB01F101
:100D00003944884227D1281D00F014FC00280DD159
:100D1000E86A08FB00F03858002807D1DFF8AC1467
:100D20000A680123E86A83409A430A60D9F8000000
:100D3000C06AE862DFF894140A680123E86A834015
:100D40001A430A60291DE86A08FB00F807EB08004F
:100D500000F0C9FB03E0D9F80000C06AE862012096
:100D6000060007E0E86CD9F80010C96A884201D291
:100D7000012006003000BDE8F28370B504002500B4
:100D80000026002C50D0DFF888030068854207D089
:100D9000502080F31188BFF34F8FBFF36F8FFEE7B2
:100DA000286D002807D1502080F31188BFF34F8FA2
:100DB000BFF36F8FFEE7286D401E2865E86AE96C77
:100DC000884231D0286D00282ED1281D00F0B2FBBA
:100DD00000280FD1DFF8F813EA6A1420424388583C
:100DE000002807D1DFF82C130A680123E86A834042
:100DF0009A430A60E86CE862E86AD0F10700A861EB
:100E0000DFF810130A680123E86A83401A430A6076
:100E1000291DDFF8BC23EB6A1420434302EB0300D7
:100E200000F061FB01200600300070BDB0790020A9
:100E3000847A002040EB0008807A00202DE9F84FEA
:100E400004000F00A0465FF00109002C6BD0D8F819
:100E50005000002807D1502080F31188BFF34F8F36
:100E6000BFF36F8FFEE7D8F84C00B84201D23E00C6
:100E700002E0D8F84C000600D8F82C00B04252D05E
:100E8000D8F8500048454ED1DFF88402006880450C
:100E900007D1502080F31188BFF34F8FBFF36F8FBE
:100EA000FEE7D8F82C000500C8F82C60D8F8180028
:100EB000002803D4D6F10700C8F81800DFF858A2BC
:100EC0005FF0140BD8F814000BFB05F15144884275
:100ED00029D118F1040000F02DFB002810D1D8F81A
:100EE0002C000BFB00F05AF80000002808D1DFF8B6
:100EF000DC120A680123D8F82C0083409A430A6068
:100F0000DFF8C8120A680123D8F82C0083401A437E
:100F10000A6018F10401D8F82C000BFB00FB0AEB67
:100F20000B0000F0E0FABDE8F18F0000707A0020BD
:100F300038B504000D002900200000F06DFC2000F1
:100F400000F090FC0F2803D220212154401CF9E727
:100F500000212154204432BD2DE9FF41050000202D
:100F60002870DFF85802016803912427006878434D
:100F700000F03AF90400002C53D00022039920001D
:100F8000FFF776FB039000200290029803998842B5
:100F900044D2029878432044007B002806D00228DF
:100FA0000AD006D304280DD009D30EE0582006003D
:100FB0000DE0522006000AE04220060007E0532020
:100FC000060004E04420060001E00020060002982C
:100FD0007843204441682800FFF7AAFF8046029822
:100FE00002997843204480680190794304EB010022
:100FF000008C009002987843204403693200D2B2FA
:10100000DFF8D011404600F085FC404600F02AFC95
:10101000404405000298401C0290B6E7200000F012
:1010200073F9BDE8FF810000647A00202DE9FF41DB
:10103000060000203070DFF8840101680291242747
:101040000068784300F0D0F80500002D45D001AAD3
:1010500002992800FFF70CFB029001986421B0FB75
:10106000F1F001900198002834D000200090009801
:10107000029988422ED200987843284480690199C9
:10108000B0FBF1F004000098784328444168300038
:10109000FFF74EFF8046002C0AD0230000987843CB
:1010A00028448269DFF83011404600F033FC08E044
:1010B0000098784328448269DFF82011404600F008
:1010C00029FC404600F0CEFB08EB00060098401CCF
:1010D0000090CCE7280000F017F9BDE8FF81DFF8A9
:1010E000E0100868002803D00868026D521C0265F1
:1010F0000868704700000000747A0020647A0020BD
:10110000787A0020907A00208C7A0020747A00206F
:10111000507A0020687A0020C07400202DE9F04148
:1011200005000C002E480768DFF89480D8F800000E
:10113000001D00F0FFF9002808D1D8F8000023496D
:101140000A680123C06A83409A430A6015F1010FBF
:1011500008D1002C06D0D8F80000011D134800F07B
:10116000C2F91AE0E8190600D8F800004660BE424D
:1011700007D2D8F80000011D0E48006800F0BFF942
:101180000BE0D8F80000011D0948006800F0B7F92D
:10119000144801688E4200D20660BDE8F08100006C
:1011A000887900209C790020C4790020D87900201B
:1011B000547A0020587A00205C7A0020607A00205F
:1011C000507A00206C7A0020887A0020687A00200B
:1011D000C07400203CE9000808EA000814EA00088E
:1011E000647A0020807A00202DE9F84F04005FF037
:1011F0000008FFF7C3F9DFF84892D9F8000000288B
:1012000001D100F0BBF8DFF83CA2DAF8000004429C
:1012100069D1002C15D08C480068041914F0070F10
:101220000FD014F1080014F00704041B14F0070F8A
:1012300007D0502080F31188BFF34F8FBFF36F8F1B
:10124000FEE7002C4FD0DFF804B2DBF80000A0422C
:1012500049D37F480600006805006868A04205D2AF
:101260002868002802D02E002D68F6E7D9F8000083
:10127000854238D07448316802681144884629682C
:101280003160006840006968091B884215D205EB8F
:101290000400070017F00700002807D0502080F353
:1012A0001188BFF34F8FBFF36F8FFEE76868001B95
:1012B00078606C60380000F092F8DBF80010686825
:1012C000091ACBF800106348DBF80010026891425D
:1012D00002D2DBF8001001606968DAF8000001430F
:1012E000696000202860FFF74FF918F00700002818
:1012F00007D0502080F31188BFF34F8FBFF36F8F5B
:10130000FEE74046BDE8F28F70B504002600002CD1
:1013100033D04D480068404206443500494968686A
:101320000A68104207D1502080F31188BFF34F8F15
:10133000BFF36F8FFEE72868002807D0502080F3A6
:101340001188BFF34F8FBFF36F8FFEE768680A689D
:10135000104212D0286800280FD16A6808688243BA
:101360006A60FFF70BF939490A68686882180A60F1
:10137000280000F034F8FFF707F970BD70B44FF49F
:10138000A0423548010011F0070F04D0C91DC9085B
:10139000C900521A82180B002D48036000244460D3
:1013A000D41829480068241AE408E400244D2C606D
:1013B00000202E68706000202E6830601800261A09
:1013C00046602D6805604568224E356045681F4EB1
:1013D00035605FF000451B4E356070BC704730B41F
:1013E0001B4A1168814201D21268FAE71400516861
:1013F0002144814204D153684168CB1853601000E6
:101400000300416819441568A94210D10C491468B9
:101410000D68AC4208D04468116849680C194460F2
:1014200011680968016004E00968016001E0116861
:101430000160824200D0106030BC704700000000A4
:10144000287A0020347A0020A0EB00082C7A0020B3
:101450001C7A0020307A00200002002062F30F2264
:1014600062F31F42401810F0030308D0C91A1FD3BB
:10147000DB0748BF00F8012D28BF20F8022D13001C
:1014800030B414461546103928BF20E93C00FAD87C
:10149000490728BF20E90C0048BF40F8042D890007
:1014A00028BF20F8022D48BF00F8012D30BC70473E
:1014B000C91818BF00F8012DCB0728BF00F8012D6F
:1014C000704710F1080141605FF0FF31816010F159
:1014D0000801C16010F1080101610021016070473D
:1014E00000210161704742684A6093688B6093688D
:1014F00059609160086103685B1C0360704710B419
:101500000B6813F1010F01D1026907E010F1080225
:1015100054682468A34201D35268F9E754684C60C8
:101520004C68A1608A60516008610468641C0460B2
:1015300010BC7047010008698A684B689A604A6865
:101540008B685A6042688A4201D18A6842600022F0
:101550000A610268521E026000687047001F5FF057
:1015600080730360001F4B085B000360001F0FF2D5
:101570001503036014380260001F7FF0020303604C
:10158000203870475F48006810F1010F07D05020E5
:1015900080F31188BFF34F8FBFF36F8FFEE75020AA
:1015A00080F31188BFF34F8FBFF36F8FFEE7E0B575
:1015B00055480168554A914207D1502080F311885F
:1015C000BFF34F8FBFF36F8FFEE70068504988422B
:1015D00007D1502080F31188BFF34F8FBFF36F8F77
:1015E000FEE74C4801780191FF21017001788DF8E8
:1015F00000109DF8001011F05001474A1170474942
:1016000007220A609DF80020120608D50A68521EBB
:101610000A609DF8002052008DF80020F2E70A6869
:10162000D2F10702042A07D0502181F31188BFF3B9
:101630004F8FBFF36F8FFEE70A6812020A600A68D5
:1016400012F4E0620A60019901703548016851F4B2
:1016500070010160016851F07041016000F066F8AE
:1016600000202849086000F0BFF92E48016851F0B9
:101670004041016000F0A8F900200EBD502080F329
:101680001188BFF34F8FBFF36F8F1E490A68521C3A
:101690000A60096801290AD123490968090606D0A8
:1016A00080F31188BFF34F8FBFF36F8FFEE7704752
:1016B00014490868002807D1502080F31188BFF32F
:1016C0004F8FBFF36F8FFEE70868401E0860086801
:1016D000002802D1002080F31188704780B5502087
:1016E00080F31188BFF34F8FBFF36F8FFFF718F8A8
:1016F000002803D05FF080500B490860002080F381
:10170000118801BD0000002000ED00E071C20F4112
:1017100070C20F4100E400E0997A0020487A00206E
:1017200020ED00E034EF00E004ED00E00848002187
:1017300001600021074A1160074909684FF47A7275
:10174000B1FBF2F1491E054A1160072101607047A3
:1017500010E000E018E000E00800002014E000E0E5
:101760001E4B03601E4B0B6080231360704710B547
:101770000400012000F0EAF91A49086000F04EFD6B
:101780000A20FEF74EFEF9E738B50400FFF776FFB2
:10179000154D164800F05EFDE884280000F07AFD43
:1017A000134895F830100176E96A416100F0EAFDCE
:1017B000104D114800F04EFDE884280000F06AFD4D
:1017C0000E4895F830100176E96A416100F0DAFDC3
:1017D000FFF76EFF0120FEF724FED7E74C750020CF
:1017E000C0700020247A0020B8780020FC79002006
:1017F0006C790020F0780020EC79002050790020EE
:101800000020014908607047447A002001480068C0
:10181000704700BF447A00205FEA000C80EA0103B1
:101820009B0715D1830706D011F8013B00F8013B57
:10183000B3B18307F8D10A68B2F1013323EA020396
:1018400013F0803F02BF40F8042B51F8042FF3E758
:1018500011F8013B00F8013B13B111F8013BF9E726
:101860006046704700F10103810704D010F8011BA6
:10187000820781B1FAD10268A2F10131914311F0DE
:10188000803104BF50F8042FF6E709BAB1FA81F1AC
:1018900000EBD100401CC01A7047F0B4024610683B
:1018A00095681318506803EB5004C0071DD54D44CC
:1018B0001BE013F8017B05F8017B491EF9D1A0B1AB
:1018C000B60813F8011B06F00306032E08BF13F831
:1018D000016B01EB06214942801C294405D011F817
:1018E000016B05F8016B401EF9D1A3420ED013F82D
:1018F000016B16F0030104BF13F8011BC91C30096A
:101900000F28DAD113F8010B0F30D6E7F0BC02F143
:101910000C0070470CB430B583B00A4606A902919A
:10192000044600250194009502AB01A908487844BB
:101930001E3000F0FFFD019A157000284EBF0446CE
:101940000198041B204603B030BC5DF80CFB00BFBF
:10195000C31D0000EFF30980BFF36F8F264B1A6899
:101960001EF0100F08BF20ED108A20E9F04F106024
:1019700009B44FF0500080F31188BFF34F8FBFF3CD
:101980006F8FFEF753FF4FF0000080F3118809BC02
:1019900019680868B0E8F04F1EF0100F08BFB0ECEF
:1019A000108A80F30988BFF36F8F7047124B196854
:1019B0000868B0E8F04F80F30988BFF36F8F4FF0ED
:1019C000000080F3118870470C480068006880F3BD
:1019D00008884FF0000080F3148862B661B6BFF348
:1019E0004F8FBFF36F8F00DFDFF81400016841F401
:1019F0007001016070470000507A002008ED00E09F
:101A000088ED00E070B506000C003500002D07D110
:101A1000502080F31188BFF34F8FBFF36F8FFEE725
:101A2000FFF72CFE2968EA6B286C424301EB0200A9
:101A300068600020A8632868A8602968EA6B521EC5
:101A4000286C424301EB0200E8605FF0FF3085F84C
:101A5000440085F84500002C12D12869002817D0D1
:101A600015F11000FEF752FF002811D05FF08050F2
:101A7000DFF840140860BFF34F8FBFF36F8F07E0AC
:101A800015F11000FFF71DFD15F12400FFF719FDFA
:101A9000FFF70EFE012070BD2DE9F84304000D0094
:101AA0001700002C07D1502080F31188BFF34F8F0F
:101AB000BFF36F8FFEE7002D02D15FF0000901E058
:101AC00005FB04F919F15000FFF78EFB0600002E0C
:101AD0000DD016F150008046002086F84600009692
:101AE0003B00DBB242462900200000F003F8300042
:101AF000BDE8F2832DE9F04105000C0016001F003F
:101B0000DDF81880002C02D1C8F8008001E0C8F888
:101B10000060C8F83C50C8F8404001214046FFF73B
:101B200071FF88F84C70BDE8F08110B50400002CFE
:101B30000BD000206060002020600020E0600023C7
:101B400000220021200000F011F810BDF8B50400BB
:101B5000012600272200D2B239003000FFF79CFF97
:101B600005002800FFF7E1FF2800F2BD2DE9F7434B
:101B700080460D00994600244646002E07D150208D
:101B800080F31188BFF34F8FBFF36F8FFEE7002DF7
:101B900002D1306C002801D1012000E00020C0B249
:101BA000002807D1502080F31188BFF34F8FBFF377
:101BB0006F8FFEE7B9F1020F02D1F06B012801D15E
:101BC000012000E00020C0B2002807D1502080F39F
:101BD0001188BFF34F8FBFF36F8FFEE7FFF760F8F9
:101BE000002802D10298002801D1012000E0002045
:101BF000C0B2002807D1502080F31188BFF34F8F67
:101C0000BFF36F8FFEE7FFF739FDB06BF16B8842D2
:101C100002D3B9F1020F27D14A462900300000F063
:101C200056F90700706A00280FD016F12400FEF75D
:101C30006DFE002814D05FF08050DFF87812086045
:101C4000BFF34F8FBFF36F8F0AE0002F08D05FF014
:101C50008050DFF860120860BFF34F8FBFF36F8FC3
:101C6000FFF726FD012052E00298002803D1FFF77C
:101C70001FFD00204BE0002C04D16846FEF78AFED1
:101C800001200400FFF714FDFEF778FCFFF7F6FCD7
:101C900096F9440010F1010F02D1002086F84400AB
:101CA00096F9450010F1010F02D1002086F8450099
:101CB000FFF7FEFC02A96846FEF778FE002820D157
:101CC000300000F097F9002815D0029916F11000A5
:101CD000FEF7F8FD300000F048F9FEF755FC00284B
:101CE00091D15FF08050DFF8CC110860BFF34F8FC7
:101CF000BFF36F8F87E7300000F037F9FEF744FC41
:101D000081E7300000F031F9FEF73EFC0020BDE82D
:101D1000FE832DE9F34182B080460024474600252A
:101D2000002F07D1502080F31188BFF34F8FBFF3EE
:101D30006F8FFEE7386C002807D0502080F31188A1
:101D4000BFF34F8FBFF36F8FFEE7FEF7A9FF0028A9
:101D500002D10398002801D1012000E00020C0B288
:101D6000002807D1502080F31188BFF34F8FBFF3B5
:101D70006F8FFEE7FFF782FCBE6B002E1CD0701E3B
:101D8000B8633868002802D1FFF7A9F9786038698C
:101D900000280DD017F11000FEF7B8FD002807D07D
:101DA0005FF0805043490860BFF34F8FBFF36F8FE0
:101DB000FFF77EFC01207AE0039800280DD1002D6A
:101DC00007D0502080F31188BFF34F8FBFF36F8F80
:101DD000FEE7FFF76DFC002069E0002C04D16846A7
:101DE000FEF7D8FD01200400FFF762FCFEF7C6FBFA
:101DF000FFF744FC97F9440010F1010F02D10020D5
:101E000087F8440097F9450010F1010F02D1002036
:101E100087F84500FFF74CFC03A96846FEF7C6FDAE
:101E200000282AD1380000F0D7F800281FD03868E1
:101E3000002807D1FFF722FC7868FEF741FF050074
:101E4000FFF736FC039917F12400FEF73BFD38003D
:101E500000F08BF8FEF798FB00288BD15FF08050E4
:101E600014490860BFF34F8FBFF36F8F82E73800CC
:101E700000F07BF8FEF788FB7CE7380000F075F88F
:101E8000FEF782FB380000F0A7F800283FF472AF9D
:101E9000002D0BD0FFF7F2FB380000F00DF8060024
:101EA00031007868FEF7CAFFFFF702FC002004B09B
:101EB000BDE8F08104ED00E00100486A002804D08C
:101EC000086B0068D0F1070000E0002070472DE9A2
:101ED000F84F06000F0014005FF00008B56B306C7F
:101EE000002809D1306800283AD17068FEF745FF14
:101EF00080460020706033E0002C14D1D6F840906A
:101F0000BA46D6F808B04A465146584601F0E2FAB9
:101F1000B068316C0844B060B068716888421FD303
:101F20003068B0601CE0D6F84090BA46D6F80CB0E5
:101F30004A465146584601F0CDFAF068316C4942A4
:101F40000844F060F0683168884204D27068316CEF
:101F500049420844F060022C02D1002D00D06D1ED1
:101F6000681CB0634046BDE8F28FF8B50400FFF787
:101F700085FB94F94550280040B201280CDB606ACB
:101F8000002809D014F12400FEF7C0FC002801D07D
:101F9000FEF753FD6D1EEEE75FF0FF3684F84560F7
:101FA000FFF786FBFFF76AFB94F94470380040B2F4
:101FB00001280CDB2069002809D014F11000FEF77D
:101FC000A5FC002801D0FEF738FD7F1EEEE784F85F
:101FD0004460FFF76DFBF1BD38B50400FFF74EFB21
:101FE000A06B002801D1012500E00025FFF760FB70
:101FF000280032BD38B50400FFF740FBA06BE16B51
:10200000884201D1012500E00025FFF751FB28009F
:1020100032BD30B4002513E050F8042BD30744BF81
:10202000A9F101039A18091F042942F8045BFAD2A6
:1020300013468C0744BF15809B1CC90748BF1D7001
:1020400050F8041B0029E7D130BC704770B5764CBE
:10205000764D774E33002A002100764801F08DFA44
:1020600033002A002100744801F087FA70BD10B5D2
:102070000400002C07D014F1010F01D1002004004E
:102080002000FEF7CEF910BD38B5040000258DF80C
:10209000004000208DF801006846FFF7E3FB0100D7
:1020A00089B2684601F0CFFA05002800C0B20028C6
:1020B00000D0F1E731BD0EB42DE9F04304005F4DCF
:1020C00064212868FFF725FE07AEDFF8748132002F
:1020D0002100404601F0D8FA0700002F06D5DFF8AE
:1020E00064810421404601F0AEFA1CE040F2014058
:1020F000874206D3DFF850810421404601F0A3FA5D
:1021000011E05FF00009B9450DDA18F809000A2856
:1021100002D10D20FFF7B8FF18F80900FFF7B4FF50
:1021200019F10109EFE70023002200212868FFF7D9
:102130001DFD3800BDE8F0035DF810FBF0B40200AF
:102140000024002304258C421AD2404E180080B28D
:10215000305C002809D0180080B2305C107000207C
:102160001F00BFB2F05501200BE05B1C641C18007F
:102170002E0080B2B6B2B042E5D100200300E2E703
:102180000020F0BC70470EB42DE9F84105002B4E3D
:1021900064213068FFF7BDFD00245FF0FF31684621
:1021A000FFF7CCFF9DF800000D2803D09DF800003C
:1021B0000A2817D10023002200213068FFF7D6FC3F
:1021C0002348002101550DF11C084246290001F069
:1021D00075FA07000023002200213068FFF7C6FCD3
:1021E000380017E09DF80000FFF74EFF9DF8000053
:1021F000082809D1002C06D0641E2020FFF744FFD8
:102200000820FFF741FFC8E79DF800001049085576
:10221000641CC2E7BDE8F2015DF810FB80B505481B
:1022200001F05CFAFBE70000FCE800088CE600081F
:1022300059CE000800520020D0570020247A0020F8
:10224000A05D002084E4000808E40008A0610020EC
:102250007876002002007FF00E03106800680068A6
:10226000000910F00100107310680068406A91685E
:10227000401A00B27047010088680A68126850620C
:1022800008680068406A8A68904201D1002000E036
:102290000120704770B52DED028B0600706B006851
:1022A000406AB084B08C002864D0B6F92810B6F922
:1022B0002600091AB161316AB28CB06900FB0211C3
:1022C0003162B169F069091A00EE101AB8EEC00A5D
:1022D000B08C00EE900AF8EE600A80EE208A0020B2
:1022E00086F83000B06901F019FA04000D00306A78
:1022F00001F014FAD6E9022301F022FA22002B00A1
:1023000001F0F0FA04000D0018EE100A01F0A8FB2D
:10231000D6E9042301F014FA22002B0001F0E2FABE
:10232000D6E9002301F00CFA01F0BEFBF06296ED55
:102330000B0AB5EE400AF1EE10FA0AD5012086F834
:10234000300096ED0B0AFFEE000A20EE200A86ED23
:102350000B0A96ED0B0ADFED090AB4EE600AF1EE06
:1023600010FA01DB0648F062B069F0610020716B81
:1023700009684862BDEC028B70BD00BF0100C84215
:102380000000C84210B52DED028B040094ED050A43
:10239000DFED5E0AB4EE600AF1EE10FA01DB012017
:1023A00000E0002094ED050AB5EE400AF1EE10FAC7
:1023B00001D5012100E00021C0B2C9B208430028C4
:1023C00040F0A0800122A188206801F085FCE1682E
:1023D000A06801F042FD2169A06801F03EFDA068FF
:1023E00090ED030AB8EE400AD4ED050A20EE200A6B
:1023F000DFED470A80EE200ABCEEC08A207E00286E
:102400003CD0E068002805D118EE100AA1680968E0
:10241000486316E0E068042805D118EE100AA168A8
:10242000096888630DE0E068082805D118EE100AF5
:10243000A1680968C86304E018EE100AA168096879
:1024400008642069002804D10020A1680968486355
:1024500050E02069042804D10020A168096888633D
:1024600048E02069082804D10020A1680968C863F1
:1024700040E00020A168096808643BE0E0680028AB
:1024800004D10020A1680968486313E0E0680428CB
:1024900004D10020A168096888630BE0E06808287F
:1024A00004D10020A1680968C86303E00020A16886
:1024B000096808642069002805D118EE100AA1688F
:1024C0000968486316E02069042805D118EE100A4F
:1024D000A168096888630DE02069082805D118EE15
:1024E000100AA1680968C86304E018EE100AA16820
:1024F00009680864E168A06801F07EFC2169A068B1
:1025000001F07AFCBDEC028B10BD00000100C84256
:102510000000C84210B504000022A188206801F024
:10252000DBFBE168A06801F098FC2169A06801F07C
:1025300094FC10BD2DE9F04F0FF2A41CA1B0DCE912
:102540000089CDE900892A9DDFF8109C04910024C0
:102550008DF843500D944FF0FF38824616461F46C3
:102560000FE0B3462C461BF8011B0498D047002807
:10257000049000F0A2800D98401C641E0D90F2D1D2
:1025800076193078252808D1002100220791089279
:1025900009910A920B910C920DE06A464146304631
:1025A00002F099F8050001D10D98A1E0D9D50125D7
:1025B000E6E741F0010116F8010F2028F9D02328A1
:1025C0000CD02B2804D02D2805D0302809D076E057
:1025D00041F00201EFE741F00401ECE741F00801AE
:1025E000E9E741F01001E6E70F9209E00F9848454E
:1025F00005DA00EB800402EB4402303A0F92761CBD
:102600003278A2F130000A28F0D330782E2818BF93
:10261000CDF8388022D116F8010F2A2807D1386862
:102620003860761C50F8042B38600E9216E02D2886
:102630000CBF761C002000220E920AE040B90E9AD0
:102640004A4505DA02EB820403EB4403303B0E9368
:10265000761C3378A3F130020A2AEFD3ADF840108C
:1026600021A0317802F048F808B116F8010B8DF876
:1026700042009DF84200682804D1307868280AD1C9
:10268000622105E06C2804BF30786C2803D17121E9
:102690008DF84210761C12A806903A4616F8013BB7
:1026A00002A9504600F064F838B912AA02A95046AF
:1026B00000F0CAF900287FF564AF404618E02A28E8
:1026C00092D13A683A6052F8040B3A6000280F90B1
:1026D00003D540420F9041F00401761C95E70000BD
:1026E0000000000000000000686A6C747A4C000072
:1026F00021B0BDE8F08F622820D0682811D06A2868
:1027000003D06C2827D0712825D10868C01D20F07F
:1027100007000860D0E90023083008601946104619
:102720007047002A0A680A60106803D0121D0A6008
:1027300000B217E0121D0A6080B217E0002A0A6892
:102740000A60106803D0121D0A6040B20AE0121D30
:102750000A60C0B20AE0002A0A680A60106803D062
:10276000121D0A60C1177047121D0A6000217047D0
:102770007CB50D4611461C462E69B4F1250200F0C9
:1027800051811C3A00F08680121F022A40F282809A
:102790000E3A00F00B81521F5AD0093A7AD0921E9D
:1027A00016D0521E35D0521E022A73D9121F30D0B5
:1027B000521F00F09A80521E4AD0521E00F0E48050
:1027C000D21E00F00181921E42D0D21E40D02FE1D5
:1027D00095F83A406C2C09D06869421C6A610A6815
:1027E0000A6052F8043B0A6033542BE10A680A601D
:1027F00052F8043B0A600093002201924FF0FF332D
:102800002B636A46294600F09AF9002840F11A81A4
:1028100005E195F83A000122FFF76DFFC5E90001D7
:102820000023994204DA6869411C69612D220DE098
:10283000288F810704D56869411C69612B2205E056
:10284000C00722D56869411C6961202232541CE00E
:1028500095F83A000022FFF74EFFC5E9000195F810
:102860003800010711D5D5E900230020834208BFB5
:1028700082420AD044F02000782806D168693021CD
:102880003154401C421C6A6134542146686930440A
:10289000E86087E00868C01D20F007000860D0E904
:1028A000002308300860C5E90023D5E90001C80FFE
:1028B00004D06869411C69612D220DE0288F8107D1
:1028C00004D56869411C69612B2205E0C00704D565
:1028D0006869411C69612022325468693044E860AB
:1028E0002146284600F03AFAACE005F13A02507869
:1028F00020B14FF0FF340FF6343074E010786228C6
:1029000008D0682824D06A2812D06C282ED07128CC
:102910000ED02BE00A680A6052F8040B0A6020B956
:102920004FF0FF340FF61C305DE0E96A017089E07A
:102930000A680A6052F8040B0A6020B94FF0FF34AD
:102940000FF600304FE0EA6AD317C0E9002379E0C0
:102950000A680A6052F8040B0A6020B94FF0FF348D
:102960000FF6E0203FE0E96A01806BE00A680A6048
:1029700052F8040B0A6020B94FF0FF340FF6C42060
:1029800031E0E96A01605DE00A680A6052F8040B10
:102990000A60002120F0000221F0FF33C5E9002386
:1029A000EE607821284600F02DF94BE06C2285F886
:1029B0003A200B680B6053F8042B0B6052BB4FF0AE
:1029C000FF340FF6B4200EE095F83A206C2AF0D0D0
:1029D0000868086050F8044B0860EC603CB94FF0A0
:1029E000FF340FF6782001F093FE201A76BD2E6B8F
:1029F000002E04D52046FEF735FF044608E0324697
:102A00000021204601F0A4FE002814BF041B344618
:102A1000AC6117E0294600F092F8002812D54FF07B
:102A2000FF3076BD6869411C69612522325409E096
:102A30006969481C686125227254210002D0431C38
:102A40006B613454002076BD2DE9F0410E460546F9
:102A50009046726B7069316AB46A121AB069521A80
:102A6000716A121AF069521A121A96F83800141B79
:102A700041070DD4002C0BDD2746B0682021A84764
:102A80000028B06057D0F06A401C7F1EF062F4D17D
:102A9000736942463146284600F0B0FC00284AD10E
:102AA000376A002F0ADDB0683021A8470028B060DF
:102AB00041D0F06A401C7F1EF062F4D1B369F26825
:102AC0003146284600F09AFCA8BB776A002F09DD42
:102AD000B0683021A847B06068B3F06A401C7F1E20
:102AE000F062F5D1F068B169F369421831462846C1
:102AF00000F084FCF8B9B76A002F09DDB068302116
:102B0000A847B060B8B1F06A401C7F1EF062F5D1F2
:102B100096F8380041070BD5002C09DDB06820215C
:102B2000A847B06038B1F06A401C641EF062F5D16D
:102B30000020BDE8F0814FF0FF30BDE8F0812DE9C5
:102B4000F8470D46A3B02F6B002F0646904648BFAE
:102B50006FF000470FF63C1401F026FED4E9002385
:102B6000696B4018CDE90123812828BF4FF0FF3061
:102B700042D20024002F33DDD8F8001001AA6846A5
:102B800001F0B1FD8146B9F1000F38D4D8F800004A
:102B900010B9B9F1010932D44F4521DB68694844C5
:102BA00081280AD30021696303AA29463046FFF72A
:102BB0004BFF040014D40020686103ABD5F814A0C7
:102BC0004A46694603EB0A0000F084FCCA44C5F893
:102BD00014A058F8040B002818BFA7EB0907C9D1A7
:102BE0004CB903AA29463046FFF72EFF044614B914
:102BF000002068616863204624B0BDE8F0874FF08C
:102C0000FF34F8E72DE9FC4707468C463E69BCF1E6
:102C10006F0F08BF082405D04CF02000782814BF9F
:102C20000A2410243C25D7E90023BCF1640F18BF07
:102C3000BCF1690F9046994606D100218B4203DA18
:102C4000D8F1000869EB49094FF0000AD14508BFE7
:102C5000D0451FD1386BE8B9082C4BD197F8380014
:102C6000010747D530203B2586F83B0042E000288D
:102C70000ED597F8380000F01400102808D17B6BAF
:102C80007969386A5B1A1B1A9A1A002AC8BF3A6215
:102C9000BDE8F3878DF800C0404649462246E31759
:102CA00001F088FD3032D0B26D1E3A28019504DB68
:102CB0009DF80000A0F151018A187255404649461E
:102CC0002246E31701F076FD89468046D14508BFCC
:102CD000D04503D0F86871198842DDD3082C09D19A
:102CE00097F83800010705D5705D302802D06D1EB9
:102CF00030207055C5F13C02BA617119F960386B2A
:102D00008242B4DA821A3A624FF6EF70398F01408C
:102D10003987BDE8F3872DE9D04306460F461446B0
:102D20004FF00008DFF8389412E0E00707D542467C
:102D30004B463046394600F003FD06460F464046F6
:102D4000494642464B4600F0FBFC641080468946EB
:102D5000002CEAD130463946BDE8D0832DE9F34F47
:102D6000054641F020048DB0D5E90089612C02AE02
:102D700009D0286B002848BF062003D408BF672C61
:102D800001D101202863D5E9002358004015401CDB
:102D90000ED119030CD00320A8619DF838106139B9
:102DA0001A2902D20FF2F46111E00FF2F4610EE081
:102DB00059004915491C0FD118030DD10320A861F2
:102DC0009DF8381061391A2914D30FF2DC61E868D4
:102DD000032200F07FFBD3E1194621F00043B3F555
:102DE000801F10460DD20027BB4208BFBA42019790
:102DF00003D111E00FF2AC61E9E701AA01F0F2FDA5
:102E00000AE0DFF8607307EB1352DFF85C330192DE
:102E10001940DFF858331943C5E90001612C0ED180
:102E2000E86830210170821CEA609DF83810612941
:102E30000CBF7821582141706869801C6861D5E910
:102E400000AB2BF0004300202AF00002834204BFB5
:102E50008242002300F05B81612C40F0AA80286B45
:102E6000002847BF21210091401C0090009F7F1C3B
:102E7000404649460022002301F0ECFDD946019965
:102E80008DF8082038BF89F00049091F002FD0466F
:102E900001910DF1090040F34981B349DFF8D0B247
:102EA0000C910646404649460022002301F0EAFD07
:102EB00080F03B814800400D00F11C0211D0002A37
:102EC0000FDD40F2FF70824205DB09F0004040EA6E
:102ED0000B01002013E00C98014041EA02514046EA
:102EE0000DE029F00043002028F00002834208BFD3
:102EF00082420FBF40461C22404601F0DBFD804667
:102F0000894601F075FEFF1F002F044609DD00F021
:102F100005FC02460B464046494601F087FE8046C6
:102F20008946F01D072104E004F00F0200F8012D8E
:102F30002411002C01DD491EF6D5491E5CBF00227C
:102F400000F8012DF9D5ECE00020194602AA0A4448
:102F500000E05B1E12F80149491E8442F9D00F2897
:102F600004D10DF10900425C521C4254002904D5E1
:102F70000198001D02AE5B1C0190591E12D49DF8F1
:102F800038007218A0F13A07147804F130085FFA9B
:102F900088F43A2CA8BFB844491E02F80189F3D539
:102FA0008DF83800286B002840F1B080591E296345
:102FB000ACE0404649460022002301F04BFD019958
:102FC00038BF89F0004947F297504143694A91FB65
:102FD000F2F20192D2F1070204DD40464946FFF7C2
:102FE0009AFE0AE0524200206349FFF794FE02462F
:102FF0000B464046494601F08BFE8046662C286B06
:10300000DFF878B106BF019F0A3706273F18142F53
:10301000C8BF142730208DF8080089460DF109003B
:1030200000E03046002F34DD06464046494601F0B8
:1030300093FF01460A4606F1080304200A26B2FB64
:10304000F6F606EB860EA2EB4E02303203F8012CA8
:103050000A22B6FBF2F202EB820EA6EB4E063036E7
:10306000401E03F8026DE9D1083F002F03F1080666
:10307000D7DD084601F084FF02460B46404649462C
:1030800001F0D4FD00225B4600F05AFB80468946E1
:10309000CBE70DF10901401A0DF1090604E0019991
:1030A000491E401E0191761C31783029F7D0662CDC
:1030B00002D10199491C03E0652C0CBF01210021BC
:1030C0002B6BCB189842B8BF431E002B1ED48342F3
:1030D00004DAF05C3528A8BF392000DA3020194620
:1030E000721E02EB010800E05B1E18F80199491EF0
:1030F0008145F9D0392802D1705C401C70540029F8
:1031000004D50198401C16465B1C0190019800B242
:1031100000901BB29DF838103246284600F034F873
:103120002EE0C61D002F3FF7BDAE30460DF1090160
:10313000401A009903468842C8BF0B46002B0DF188
:1031400009063FF52FAF8342BFF6FEAE0DF1090031
:10315000C15C07297FF7F8AE0F20F6E6CBCCCC0C8C
:103160000000244002FCFFFFFFFF0F800000E03F53
:103170000000F07FA08601000000F03F84D7974157
:103180000FB0BDE8F08F00002DE9F84783B0064688
:103190008A461746984601F0A8FAB8F1000F406A2F
:1031A000356B90F8009002DC4FF00108BFA74AF0A1
:1031B0002000BDF93040662808BF641C15D0672880
:1031C00040F0848014F1040FC0F28680AC4280F29B
:1031D000838096F83800641C010702D4A845B8BF64
:1031E000454620B22D1A48BF00250FFA84FAF06830
:1031F000B169BAF1000F25DC4A1C30234354002D7D
:1032000003DC96F83800010703D5F06800F8029057
:10321000521C15EB0A0FB8BF6C4220B24419414250
:103220004445B8BFA046B26171620FFA88F5F561F6
:10323000F068B3692A463946184400F04BF9641B1C
:10324000B462C4E022B29045084417DA42463946D7
:1032500000F040F9B0694044B061AAEB0801002DCC
:10326000716203DC96F838100A0705D5F16801F899
:103270000090F069401CF061B562A8E0394600F0AA
:1032800029F9B069002D5044A8EB040803DC96F836
:1032900038100A0703D5F16801F80090401CB061AE
:1032A0000FFA88F08542F368B069B8BFA8460FFAF4
:1032B00088F207EB0A01184400F00CF9B1690FFA23
:1032C00088F00144B161281A706280E0BAF1610FA0
:1032D00014D14FF0700A16E0A84504DA96F83810B9
:1032E0000A0758BF45466D1E48BF0025BAF1670F53
:1032F00014BF4FF0450A4FF0650A04E0BAF1410FE0
:1033000008BF4FF0500AB169F368481CB061002D46
:1033100017F8012B5A5403DC96F838100A071BD50E
:10332000F168431CB36101F80090002D14DDA8F191
:1033300001080FFA88F039468542F768B8BFA846F9
:103340000FFA88F2F81800F0C5F8B0690FFA88F1A2
:1033500008446D1AB0617562F068B1690844002CC8
:1033600080F800A003D42B224270811C03E02D21A1
:1033700041706442811C00206A460AE023460A2408
:1033800093FBF4F404EB8405A3EB450302F8013B43
:10339000401C24B2002CF1DC012806DC4AF020029B
:1033A000652A04BF302201F8012B48B9302001F80A
:1033B000010B07E0401E1DF80030303301F8013BDF
:1033C0000028F7DCF268B0691044091AF16196F838
:1033D000380000F0140010280DD17269B169706ACC
:1033E0008A18F1698218B06A8A188218706B824252
:1033F000BCBF821A326204B0BDE8F087F8B505465A
:103400000E4617461C46002074B117F8011BB06821
:10341000A847B06030B1F06A401CF0620020641E22
:10342000F3D1F2BD4FF0FF30F2BD00007072696E53
:1034300074665F733A20256E20646973616C6C6FEB
:10344000776564007072696E74663A206261642008
:10345000256E20617267756D656E74007072696E9D
:1034600074665F733A20626164202573206172671D
:10347000756D656E740000007072696E74665F73BE
:103480003A2062616420256C7320617267756D65F6
:103490006E74000000000000000000006E616E000D
:1034A0004E414E00696E6600494E46003000B1F54F
:1034B000807F02D34FF0FF307047017001207047CA
:1034C0000A780260087800E00078401E8041C0431E
:1034D000C00F704762B38B0708D0521E11F8013B32
:1034E00000F8013B00F024808B07F6D1830740F001
:1034F000208000BF103A07D330B4B1E83810103A3A
:10350000A0E83810F9D230BC530724BFB1E8081046
:10351000A0E8081044BF51F8043B40F8043BD20730
:1035200024BF31F8022B20F8022B44BF0B78037024
:103530007047121F17D35B0009D151F8043B20F8E4
:10354000023B1B0C121F20F8023BF6D20BE051F895
:10355000043B00F8013B1B0A20F8023B1B0C121F26
:1035600000F8013BF3D238BF121D521E24BF11F8E0
:10357000013B00F8013BF8D87047F8B504000D0096
:1035800016001F00200001F008FD290014F501704D
:1035900001F009FD290014F5A76001F00AFDC4F847
:1035A000C455C4F8C865C4F8CC752000F2BD0368E2
:1035B0001AB95A1E026008467047197811B94FF0BF
:1035C000FF307047591C01601878704710B52B4CBC
:1035D00000222B49200001F097FE2A49200001F02B
:1035E000A0FE002010BD0020704703001800C0B2EC
:1035F000002810D001280FD002280ED003280DD0AB
:1036000004280CD020280BD021280AD0222809D049
:10361000232808D008E007E006E005E004E003E026
:1036200002E001E000E0FFE70020704770B5040011
:103630000D00124E2100300001F073FE300001F049
:1036400098FE002070BD2DE9F04104000D00002619
:103650000A4FD7F8B882D8F81402002801D0012008
:1036600009E02A0092B22100380001F04DFE380036
:1036700001F05EFEC0B2BDE8F0810000706900207C
:1036800088650020A061002037B5044600250A4661
:103690000194009502AB01A9074878441A30FEF75F
:1036A00049FF019A157000284EBF04460198041B7B
:1036B000204603B030BD00BF5B00000005B581B0FF
:1036C000002000900A4602AB01A903487844083064
:1036D00001F08CFE03B000BDD7FEFFFF38B505003A
:1036E000202205F2845115F5A76002F0BDFD04000B
:1036F000002C07D105F28451280002F0F9FD0400E6
:10370000002C05D0220005F28451280003F0C4F8F3
:1037100031BD0268531C036011707047C11768B156
:103720004840401AB0FA80F29040D21CC907C2F556
:10373000846241EA025202EBD021400570473F000B
:10374000B0B581EA030C0CF0004C40F2FF7515EAAD
:1037500011541DBF15EA1357AC42AF4239E0E419CA
:1037600023EA455343F48013C90241F0004141EA82
:10377000505EC7021100A7FB020200284FF00000B4
:10378000EEFB01204FF00001E3FB072118BF42F0E0
:103790000102401800214941E3FB0E01A4F58064B9
:1037A0000F0302D252004041494154F101046CDD43
:1037B000470872F1004250F1000051EB0451A1F5AD
:1037C00080115CBF41EA0C01B0BD4CEA05510020FC
:1037D000B0BD05EA1357AC4214BFAF4241E050EA16
:1037E000410E1CBF52EA430E02E061460020B0BD0C
:1037F00024423C441BD15FEA070EF6D0090302BF06
:1038000001460020AEF1140EB1FA81F7AEEB0704C9
:1038100001FA07FE0C37C7F1200100FA07F7C8408C
:103820004EEA000E23EA455343F48013A2E733F037
:103830000043B3FA83F704BFB2FA82FE77440B3F2A
:10384000E41BB7F1200E2FBF02FA0EF3BB40C7F105
:10385000200E22FA0EFE38BF43EA0E03BA40641C63
:1038600082E750EA410E14BF52EA430E6FF00001A6
:103870004FF4001717EB430F8ABF194617EB410FA0
:10388000B5E74CEA05510020B0BDD4F10104B4F114
:1038900020070FDAC4F12007520828BF42F00102C6
:1038A00010FA07F501FA07F7E1BF2A43E040384371
:1038B000E1400FE0352C98DCC7F1200452EA4002C9
:1038C00020FA07F218BF42F0010231FA07F0A140D6
:1038D0000A43002172F1004250F1000051EB0C014B
:1038E000B0BD000070B44FF0004591EA030F41F104
:1038F000A5816B40841A71EB030604D26E40001B55
:10390000B141121973414FF4001C1CEB410F34BF3D
:103910007CEB430683E00C0DA4EB1356362E00F32C
:103920007C80012E45EAC32341DC43EA525312BF97
:10393000D20292025B08240545EAC12141EA5051B6
:10394000D2EBC020994125D407D1B0FA80F610FA05
:1039500006F162D00020203608E0B1FA81F6B140CD
:10396000C6F1200220FA02F21143B0404FEAF4748B
:10397000B4EB465434F001064FEA74040AD8D6F585
:103980000016760D04F00044F04061FA06F2504053
:10399000F1404840C00A40EA415021F0004128BFB0
:1039A0005FEA500550F1000044EBD12135E0DB0A1D
:1039B00045EAC121C90AB6F120050EDD42EA0242FC
:1039C000120CC5F1200603FA06F6EB4042EA0605A2
:1039D0006D42984161F100010DE062FA06F5F24096
:1039E000554063FA06FC82EA0C02F3405A406D42ED
:1039F000904161EB030111F4801F05D1641E620543
:103A000002D06D004041494121F48011430875F115
:103A1000004350F1000041EB045170BC70471CEBB7
:103A2000410F15D223F0004352EA43060BD04FEA70
:103A30004C0CBCEB410F04D80C0D661E342EB7DDC8
:103A4000EBE7801A994150EA410608BF0021E4E7FC
:103A500008BF1CEB430F28BF6FF00001DDE700003B
:103A6000C0F3C75181B1FF2906D0C110400721F032
:103A7000E04101F16051704741020CBF40F4E001A8
:103A80006FF000410020704700F0004100020AD0B2
:103A9000B0FA80FC00FA0CF001F16051A1EB0C517E
:103AA00001EBD0214005704701F000428B1AA3F1D1
:103AB0006051B1F5801F0ADBB1F17F6F1FD242EA7E
:103AC000C102C10071F1004142EB507070470B150B
:103AD000C3F10903212B10D2890241EA90518002DF
:103AE0000128494141F0004121FA03F0C3F12003CC
:103AF000994071F1004150417047100070476FF0DC
:103B0000000013EB103F5CBF000E42EAC05070474C
:103B1000F8B5030000250868E840002800F0DB80C5
:103B200001260F6816FA05F007403A00002A00F057
:103B3000D0804868022802D0486812281ED1280088
:103B4000C00803EB8000076A5FF00F0C15F0070058
:103B5000C0B280001CFA00FC37EA0C07D1F810C094
:103B600015F00700C0B280001CFA00FC5CEA0707F1
:103B70003C002800C00803EB800004621F685FF06F
:103B8000030C2800C0B240001CFA00F0874391F8F3
:103B900004E01EF0030E2800C0B240001EFA00FE32
:103BA0005EEA07071F604868012808D048680228B5
:103BB00005D04868112802D0486812281AD19C689C
:103BC0002800C0B240001CFA00F08443D1F80CE099
:103BD0002800C0B240001EFA00FE5EEA04049C60A9
:103BE0005868AE40B0434E68C6F30016AE4030434E
:103BF00007005F60DC682800C0B240001CFA00FCCF
:103C000034EA0C048E682800C0B240008640344379
:103C1000DC604868C0005CD53C48066856F0010688
:103C20000660006810F0010000900098384F2800EE
:103C3000800857F820605FF00F0C15F00300C0B249
:103C400080001CFA00FC36EA0C06B3F1904F01D15B
:103C5000002414E02F48834201D101240FE02E48B4
:103C6000834201D102240AE02C48834201D103247B
:103C700005E02B48834201D1042400E0052415F01F
:103C80000300C0B28000844026432800800847F823
:103C90002060244C206890434F68FF0300D51043F8
:103CA0002060214E346894434F68BF0300D514430D
:103CB00034601E4E306890434F68FF0200D51043B9
:103CC00030601B4E346894434F68BF0200D51443E4
:103CD00034606D1C1FE7F1BD1300DBB2002B03D075
:103CE0000B009BB2836102E00B009BB283627047C2
:103CF00042690B009BB21A4204D00A0092B212042D
:103D0000826102E00A0092B282617047181002409C
:103D1000080001400004004800080048000C00486A
:103D20000010004800040140040401400804014060
:103D30000C04014010B50400002C01D1012014E056
:103D400094F83D00002805D1002084F83C002000B4
:103D500002F0A4FF022084F83D00211D206800F03D
:103D6000FDFA012084F83D00002010BD0100022072
:103D700081F83D000868826812F00702062A05D023
:103D80000868006850F001000B681860012081F895
:103D90003D000020704701000868C06850F0010035
:103DA0000A68D0600868826812F00702062A05D007
:103DB0000868006850F001000B6818600020704728
:103DC00010B50400002C01D1012014E094F83D004E
:103DD000002805D1002084F83C00200003F080F882
:103DE000022084F83D00211D206800F0B7FA012070
:103DF00084F83D00002010BD38B504000D000122FC
:103E00002900206800F0E3FB2068DFF8DC1088421E
:103E100009D02068DFF8D410884204D02068DFF889
:103E2000D010884201D1012000E00020C0B200285B
:103E300005D02068406C50F4004021684864206838
:103E4000816811F00701062905D02068006850F04C
:103E5000010022681060002032BD38B504000D005A
:103E600000222900206800F0B2FB2068DFF87810FB
:103E7000884209D02068DFF87410884204D0206896
:103E8000DFF86C10884201D1012000E00020C0B2B0
:103E9000002811D02068006A41F2111108420BD1AC
:103EA0002068006A40F24441084205D12068406C15
:103EB00030F40040216848642068006A41F2111122
:103EC00008420BD12068006A40F24441084205D103
:103ED000206800684008400021680860012084F8DC
:103EE0003D00002032BD0000004001400044014080
:103EF0000048014070B504000D00002C01D10120E4
:103F00004BE094F83D00002805D1002084F83C00E7
:103F1000200002F028FF022084F83D00206881681C
:103F2000DFF83C03014020688160211D206800F01B
:103F300015FA20688168206882692068036A286809
:103F40000143DFF820030240A868AE6950EA06206A
:103F50000243DFF814030240DFF810030240E86870
:103F6000EE6950EA0620024328692E6A360356EAB3
:103F70000016324333F0220333F0880368686E6919
:103F800050EA06100343206881602068826120683F
:103F90000362012084F83D00002070BD38B50400A4
:103FA0000D002800002802D0042806D00BE00122D2
:103FB0000021206800F00BFB0FE0012204212068A3
:103FC00000F005FB09E001220021206800F0FFFA63
:103FD00001220421206800F0FAFA2068006850F0FD
:103FE000010021680860002032BD10B5040020687F
:103FF000006980071AD52068C068800716D57FF051
:10400000020021680861012020772068806910F093
:10401000030F03D0200002F064FF05E0200002F04F
:1040200061FF200002F05FFF002020772068006918
:1040300040071AD52068C068400716D57FF00400F5
:1040400021680861022020772068806910F4407F91
:1040500003D0200002F045FF05E0200002F042FFFF
:10406000200002F040FF0020207720680069000750
:104070001AD52068C068000716D57FF008002168AF
:104080000861042020772068C06910F0030F03D076
:10409000200002F026FF05E0200002F023FF2000B0
:1040A00002F021FF0020207720680069C0061AD5A1
:1040B0002068C068C00616D57FF01000216808612E
:1040C000082020772068C06910F4407F03D02000CA
:1040D00002F007FF05E0200002F004FF200002F0DC
:1040E00002FF0020207720680069C0070AD52068F9
:1040F000C068C00706D57FF0010021680861200074
:1041000003F0BDFB2068006900060AD52068C0687E
:10411000000606D57FF0800021680861200003F0CA
:104120005DFC2068006940060AD52068C06840062A
:1041300006D57FF0400021680861200003F04FFCA5
:104140002068006980060AD52068C068800606D508
:104150007FF0200021680861200003F041FC10BDC1
:1041600070B504000D00160094F83C00012801D140
:10417000022074E0012084F83C00022084F83D0015
:104180003000002806D004281BD0082831D00C2885
:1041900046D05DE02900206800F032F9206880698F
:1041A00050F00800216888612068806930F00400C0
:1041B00021688861206881692869014320688161DC
:1041C00046E02900206800F053F92068806950F427
:1041D0000060216888612068806930F4806021680F
:1041E000886120688069296950EA01202168886116
:1041F0002EE02900206800F067F92068C06950F0BF
:1042000008002168C8612068C06930F00400216896
:10421000C8612068C169286901432068C16117E04D
:104220002900206800F06AF92068C06950F4006035
:104230002168C8612068C06930F480602168C86165
:104240002068C069296950EA01202168C861FFE738
:10425000012084F83D00002084F83C00002070BD5F
:10426000F8BFFFFFFCFCFFFFF3F3FFFF0F0FFFFFA3
:1042700070B504000D0094F83C00012801D1022023
:104280006BE0012084F83C00022084F83D002068A7
:10429000866836F0770636F47F46206886602868A0
:1042A00000284ED010284CD020284AD0302848D0A2
:1042B00040283CD0502826D060282ED0702807D027
:1042C000B0F5805F03D0B0F5005F0FD03EE03DE079
:1042D000EB686A68A968206800F06DF9206880685A
:1042E00050F077000600206886602FE0EB686A686F
:1042F000A968206800F05FF92068806850F4804069
:104300002168886022E0EA686968206800F026F980
:104310005021206800F047F918E0EA6869682068D1
:1043200000F02EF96021206800F03DF90EE0EA6807
:104330006968206800F012F94021206800F033F924
:1043400004E02968206800F02EF9FFE7012084F8D6
:104350003D00002084F83C00002070BD0368B0F1EF
:10436000804F0DD0DFF8CC21904209D0DFF8C82172
:10437000904205D0714A904202D0714A904203D1D6
:1043800033F070034A681343B0F1804F1DD0694A7F
:1043900090421AD0684A904217D0684A904214D08E
:1043A000684A904211D0684A90420ED0674A9042C3
:1043B0000BD0674A904208D0664A904205D0664AC0
:1043C000904202D05E4A904203D133F44073CA68EF
:1043D000134333F080034A69134303608A68C2625F
:1043E0000A6882625A4A904205D05A4A904202D0E4
:1043F000594A904201D10A69026301224261704721
:1044000070B4026A520852000262056A4368846905
:1044100034F07004A408A4000A68144335F00205BF
:104420008A6815434A4EB04205D04A4A904202D0AB
:10443000494A904205D135F00805CA68154335F060
:104440000405B04205D0434A904202D0424A90420D
:1044500007D133F4807333F400734A6913438A69D4
:104460001343436084614A684263056270BC7047CD
:1044700030B4026A32F010020262036A4468826950
:1044800032F4E04232F440720D6852EA052233F011
:1044900020038D6853EA05132D4DA84205D02D4DFC
:1044A000A84202D02C4DA84207D134F480644D6953
:1044B00054EA85048D6954EA8504446082614D683C
:1044C0008563036230BC704730B4026A32F4807294
:1044D0000262046A4568C36933F070039B089B005D
:1044E0000A68134334F400748A6854EA022445606D
:1044F000C3614A68C263046230BC704730B4026A68
:1045000032F480520262036A4468C26932F4E042C3
:1045100032F440720D6852EA052233F400538D687C
:1045200053EA05334460C2614D680564036230BCE0
:10453000704700000004004000080040000C0040EC
:10454000005C014000180040001C004000200040BA
:1045500000400140004401400048014010B4046A9A
:10456000036A5B085B000362836933F0F00353EA7C
:10457000021334F00A040C438361046210BC7047D8
:1045800010B4036A33F0100303628369046A33F4DE
:10459000704353EA023334F0A00454EA01148361F7
:1045A000046210BC7047836833F0700351F0070257
:1045B00013438360704730B4846834F47F4452EA14
:1045C000010555EA03252C43846030BC704730B4A4
:1045D000012411F01F0314FA03F3046A9C430462DC
:1045E000046A11F01F0512FA05F52C43046230BC71
:1045F00070470000613807E005E0A0F161011A2969
:1046000001D20120704741381A288041C00F7047FD
:10461000A0F10901052901D3202801D1012070470B
:1046200000207047A0F141011A2938BF203070479F
:104630002F48704770B45368D418042B09DA41B17D
:10464000057804F8015B10F8016B16B15B1C491E7C
:10465000F3E7536070BC704738B514461D4661B12E
:10466000FFF7E8FF61686A6B204690476FF0010230
:10467000811A02D0491E01D001E024E026E0002189
:10468000616032BD38B50446084611001D4615D09C
:104690002A46FFF7CFFF6968049B1CB95A6B28466E
:1046A000904704E00A469B6B2946204698476FF0E6
:1046B0000102811A02D0491E01D001E003E005E0A9
:1046C0000021696032BD6FF0010032BD4FF0FF3054
:1046D00032BDDA6B1047064BBEE71CB5044C0094A4
:1046E000FFF7D0FF16BD024BF3E70248704700000A
:1046F000B40100207C0100200278C9B28A421AB1BC
:104700001CBF10F8012FF9E718BF00207047000008
:1047100080B500B906A005490B681BB12222002113
:10472000984701E003F05DF9222002BD947A002051
:10473000636F6E73747261696E742068616E646C0D
:1047400065723A20626164206D657373616765000C
:10475000C9B2830706D0521E22D310F8013B9942FA
:10476000F7D11FE0083A13D302F1040241EA012114
:1047700041EA014150F8043B121F21BF4B40A3F115
:10478000013C2CEA030C1CF0803FF3D0C9B2001F9F
:10479000083210F8013B521E28BF91EA030FF8D8E7
:1047A00018BF0120401E704780B5FFF741FF006C25
:1047B00002BD0000BBBBE1B1B2F5803F80F07E805E
:1047C000022A1ED98C46B1FBF2F102FB11C31B0475
:1047D00043EA1043B3FBF2FC02FB1C3380B240EA15
:1047E0000343B3FBF2F002FB103240EA0C4000231B
:1047F0007047022A05D98446B0FBF2F002FB10C2D2
:1048000070474AB105D100F0010249085FEA300063
:10481000704700220023704703F0E6B80B00020047
:10482000002100207047904271EB030CF6D3B3F5E2
:10483000803F2FD2F0B5B3FA83F7B1FA81F4A7F134
:104840000F0E3D1B5340CEF1200602FA0EF2F3414B
:104850005340B5F10F0746D80F3C2C444140C4F1FA
:104860002006A040F1414140B1FBF3F603FB1611D5
:10487000A2FB0645001BA94102D2761E80185941B1
:1048800080EA010221FA0EF362FA0EF200215A4088
:104890003046F0BD30B4B1FBF3FC03FB1C11A2FBAE
:1048A0000C45001BA94103D2ACF1010C8018594101
:1048B00030BC02460B46604600217047B2F1807F53
:1048C00065D3F0B5B2FA82F7B1FA81F4C7F10F06F9
:1048D0003D1B22FA06F307F1110EF24120355A4032
:1048E000B5F10F07B8D94140C4F12006A040F1410D
:1048F0004140B1FBF3FC03FB1C11A2FB0C45001B68
:10490000A94103D2BCF1010C801859410F2F12D3D9
:104910000F3FC90341EA5041B1FBF3F603FB161107
:10492000A2FB0645D4EBC030A94102D2761E801806
:10493000594146EACC3C07B34140C7F12006B84094
:10494000F1414140B1FBF3F603FB1611A2FB064512
:10495000001BA94102D2761E8018594180EA01024B
:1049600021FA0EF3C7F1200462FA0EF20CFA07F0F6
:104970005A402CFA04F13043F0BD80EA010221FADA
:104980000EF3002162FA0EF260465A40F0BD8C46EA
:10499000B1FBF2F102FB11C31B0243EA1063B3FB4C
:1049A000F2FC02FB1C331B024CEA002043EA1063BA
:1049B000B3FBF2FC02FB1C331B024CEA002043EA6F
:1049C0001063B3FBF2FC02FB1C331B024CEA002019
:1049D00043EA1063B3FBF2FC02FB1C324CEA0020FA
:1049E0000023704710B5144600F002F8226010BD95
:1049F000C1F30A5343B14A0012F5001F28D2A3F2B3
:104A0000FE32A1EB0251704750EA410C20D001F078
:104A1000004C31EA0C01B1FA81F204BFB0FA80F324
:104A2000D2180B3AB2F120032CBF00FA03F19140E7
:104A300041EA0C013EBFC2F1200C20FA0CF31943ED
:104A40009040524240F2FD33D21A01EB03517047BD
:104A5000002270474FF4001C1CEB410F94BF1CEB6D
:104A6000430F09E041EA030C50EA4C0C52EA0C0CEB
:104A700003D2994208BF9042704714BF8B428242D2
:104A8000704700004FF4001C1CEB410F94BF1CEB5F
:104A9000430F09E041EA030C50EA4C0C52EA0C0CBB
:104AA00003D28B4208BF8242704714BF99429042A2
:104AB00070470000124254D440F2FF7C1CEA1153AC
:104AC0000FD0634531D09B1863453CBF01EB0251C9
:104AD000704701F0004141EA0C510020AFF3008023
:104AE000704750EA410320D001F0004C91EA0C01DC
:104AF0001CD0B1FA81F30B3B9A420DD9D21A9940DE
:104B000051EA0C01C3F1200C20FA0CFC61449840DE
:104B1000531C40F2FF7CD7E7914041EA0C01C2F1FF
:104B2000200C20FA0CF3194390407047B0FA80F340
:104B30001533202BE0D3202AEED3203A203B9A4293
:104B400009D9D21A00FA03F141EA0C010020531CE2
:104B500040F2FF7CB8E700FA02F141EA0C010020C4
:104B60007047524240F2FF7C1CEA11530DD063455E
:104B7000DBD0B2EB030C3CBFA1EB025170470CF150
:104B8000010221EA035141F4801150EA410CCCD0DA
:104B900001F0004C352A27DC30B481EA0C01B2F177
:104BA000200309DAC2F12003044601FA03F5D040DC
:104BB0002843D1409C400CE0C3F12002450020FA7C
:104BC00003F418BF44F0010421FA03F091400C43B0
:104BD000002174F1004550F1000051EB0C0124421A
:104BE00030BC7FF47BAF70476146002076E7000061
:104BF000C1F30A5340F2FE329B1A14DDD3F12003B5
:104C00004FEAE17208DDC90241EA505141F000402B
:104C1000D84080185040704703F2E13010B1D243C1
:104C200082F00040704700207047000070B44FF0E1
:104C3000004591EA030F7EF55DAE6B40841A71EB7F
:104C4000030603D2001BB141121973414FF4001C3B
:104C50001CEB410F34BF7CEB430442E00C0DA4EB92
:104C60001356352E4FDC45EAC323DB0A45EAC12142
:104C7000C912B6F120050DDD63FA05F6EB4086EAB0
:104C80000305124218BF45F00105C01851F100019B
:104C90000CD213E062FA06F5F2405540F3415A4057
:104CA000B340F3405A408018594107D349085FEA9E
:104CB00030005FEA350528BF45F0010501F5801198
:104CC000420875F1004250F1000041EB04514E00E2
:104CD00016F5001F70BC38BF70470020090D09058C
:104CE00070471CEB410F10D252EA43060BD0BCEBCD
:104CF000410F05D80C0DAB43661E342EB6DD02E025
:104D0000AB438018594170BC704770BC70470000BD
:104D1000F0B540F2FF7581EA030C0CF0004C15EA87
:104D200011541DBF15EA1357AC42AF42E5E0BC4138
:104D3000C1F31301C3F31303801A994143F48013A1
:104D400004D2641E4000494180185941C90241EA19
:104D50005051B1FBF3F603FB1611A2FB0675D7EB1E
:104D6000C020A94102D2761E80185941C90241EAE9
:104D70005051B1FBF3FE03FB1E11A2FB0E75D7EBE6
:104D8000C020A94103D2AEF1010E80185941890219
:104D900041EA9051760546EA8E2EB1FBF3F603FB0D
:104DA0001611A2FB0675D7EB8020A94102D2761E10
:104DB00080185941C90241EA50514EEA060EB1FB32
:104DC000F3F603FB1611A2FB0675D7EBC020A94131
:104DD00002D2761E80185941C90241EA5051B1FBF6
:104DE000F3F703FB1711A2FB0735D3EBC020A94152
:104DF00067F100070CBF004247F0010766F3D527B3
:104E00004FEA1E31B80814F5806412DDBD0775F154
:104E1000004250EB0E5051EB045111F5801F5CBF66
:104E200041EA0C01F0BD4CF07F6141F0E04100200F
:104E3000F0BDBD076D0840EA0E5041F48011D4F179
:104E40000104B4F120060ADAC4F120060200E040B1
:104E500001FA06F3E1401843B24015430EE0342C4A
:104E600013DCC6F1200445EA40056D0820FA06F27D
:104E7000154321FA06F0A1400D43002175F10042CF
:104E800050F1000051EB0C01F0BD00205FEA0C0175
:104E9000F0BDCFB992185B41B3FA83F704BFB2FA01
:104EA00082F6BF190B3FB7F120062FBF02FA06F3B7
:104EB000BB40C7F1200622FA06F638BF3343BA409A
:104EC0001CB1E419641E33E77F4231F00041B1FAAE
:104ED00081F404BFB0FA80F6A4190B3CB4F12006AB
:104EE0002FBF00FA06F1A140C4F1200620FA06F611
:104EF00038BF3143A0403C1B1AE7AC421ABF05EA59
:104F00001357AF4212E050EA41061CBF52EA430673
:104F1000BFE750EA4107304661461CBF41EA0551F0
:104F2000F0BD52EA430C08BFC143F0BD00204FF46E
:104F3000001616EB410F98BF16EB430F08BF16EB98
:104F4000410F24BFC14305E016EB430F0CBF614680
:104F50004CEA0551F0BD0000400D491840EA81209F
:104F60000CD2490DA1F58061491C40F0004005DBE1
:104F7000D1F11F0154BFC840C017704700207047CF
:104F8000014648B1B0FA80F18840C91CC1F584617E
:104F9000090501EBD0214005704710B50400200041
:104FA00002F023FD10BD10B50400200002F034FD16
:104FB00010BD10B50400200002F048FD10BD000037
:104FC000F8B505000E000027287C002813D14FF407
:104FD000007302228121280002F021FE0120E862F4
:104FE0004FF4007302220121280002F018FE012074
:104FF000C5F86C0110E0402302228121280002F054
:105000000EFE0120E862402302220121280002F066
:1050100006FE0120C5F86C01082303228221280026
:1050200002F0FDFD012028644FF4077002F0BEFE7F
:10503000C5F8B802D5F8B802002802D1012007004F
:105040001FE0D5F8B8020400D5F8BC02006880471C
:105050000020C4F814020020C4F81802287C00289C
:1050600008D14FF40073D4F804220121280002F083
:1050700078FE06E04023D4F804220121280002F043
:1050800070FE3800C0B2F2BD70B504000D000026FD
:105090008121200002F0DFFD0020E06201212000DC
:1050A00002F0D9FD0020C4F86C018221200002F03A
:1050B000D2FD00202064D4F8B80200280AD0D4F829
:1050C000BC0240688047D4F8B80202F07FFE00209E
:1050D000C4F8B8023000C0B270BDF8B504000D00CD
:1050E000D4F8B86200208DF800000020ADF802006E
:1050F0000027287810F06000002828D0202863D1ED
:10510000E88800281BD0287800060CD5EA883100F2
:105110006878D4F8BC329B689847EA883100200050
:1051200002F06DFE12E0687886F80002E88886F8E2
:105130000102EA883100200002F084FE06E000222D
:1051400029006878D4F8BC329B68984742E06878B8
:10515000002804D00A2814D00B2823D02DE094F87E
:105160009C02032806D102220DF10201200002F068
:1051700046FE05E02900200003F08FFA0220070018
:1051800021E094F89C02032805D101226946200001
:1051900002F035FE05E02900200003F07EFA02202F
:1051A000070010E094F89C02032805D02900200095
:1051B00003F073FA0220070005E02900200003F045
:1051C0006CFA0220070005E02900200003F065FAD0
:1051D000022007003800C0B2F2BDF8B504000D008F
:1051E000D4F8B862D4F8C072D4F8B80200282CD031
:1051F00014212800C0B248432044C06900281FD0B1
:105200002800C0B248432044C0692A00D2B25201EB
:105210003A44926BB0FBF2F302FB130000280FD16B
:105220002800C0B201FB00F104EB01000021C161C4
:10523000002300222900C9B2200002F077FD02E01D
:105240000020C6F81402002000E00220F2BD70B574
:1052500004000D00D4F8B8622900C9B2200002F0A1
:105260009BFDC6F80C02D4F8B802002809D016F548
:105270000371D6F80402D4F8BC22D268904700200B
:1052800000E0022070BD38B50400D4F8B852D4F85C
:10529000BC02002810D095F80002FF280CD095F829
:1052A000012292B2290095F80002D4F8BC329B6822
:1052B0009847FF2085F80002002032BD01004320FE
:1052C000088008487047010043200880064870475E
:1052D0000100432008800548704701000A2008802B
:1052E000034870479400002050000020D8000020A0
:1052F0000C00002002000220002903D0C2F8BC12DA
:1053000000231800C0B2704710B40300D3F8B842AD
:10531000C4F80812100080B2C4F81002002010BCBB
:1053200070470200D2F8B832C3F804120020704768
:1053300038B50400D4F8B852D4F8B802002816D012
:10534000D5F81402002810D10120C5F81402D5F8B0
:1053500010022063D5F810329BB2D5F808228121C3
:10536000200002F0E3FC002002E0012000E0022027
:1053700032BD38B50400D4F8B852D4F8B8020028C9
:1053800014D0207C002808D14FF40073D5F80422F3
:105390000121200002F0E5FC06E04023D5F80422BC
:1053A0000121200002F0DDFC002000E0022032BDDF
:1053B00003460846C1680269491C521E002A026160
:1053C000C16003D400680122002118474FF0FF306C
:1053D0007047034608461146C268521E11F1010F7C
:1053E000C26002D000680022184770472DE9F04FD4
:1053F0000FF2E41E8BB0DEE90067CDE9016703918F
:105400004FF0FF381C68149DDFF8C89104948DF8A4
:105410002B500024069405920446464609E0002ECF
:105420009DF82A0048BF002600B1761C05994A1C49
:1054300005920021009101AB059942466846FFF7AD
:105440004CF90028074605DC059801784F1EBF413E
:10545000FF43FF0F009803F05DF903F079F928B3DB
:105460000698401C0690012203980021A04782461E
:1054700003F06EF90028F3D10699491E1AF1010FC5
:1054800000F0A2800691002203985146A04705989B
:105490000099C0192529059027D100782A282AD1FA
:1054A0000598401C059010F8011D25E00098DDF8D6
:1054B00014A025280CBFA7F1010BBB46BBF1010BC3
:1054C000E5D40698401C0690012203980021A047CD
:1054D0001AF8011B8842F1D0024603A92046FFF7C3
:1054E00078FF0020B0426EDA6CE000980028A0D16E
:1054F000B04268DA66E000218DF82810002108919A
:105500000AE00898484505DA00EB800301EB430107
:1055100030390891501C0590059A1178A1F130009E
:105520000A28EED3CDF824802DA01178FFF7E4F8F7
:1055300020B10598401C0590401E00788DF8290088
:105540009DF82900682805D10599087868280CD1AC
:10555000622206E06C2802BF059908786C2804D105
:105560007122491C8DF829200591059801780FF6C4
:105570001840FFF7C1F8A8B90698401C0690012210
:1055800003980021A047074603F0E2F80028F3D172
:105590000698401E17F1010F069003D003980022D1
:1055A0003946A04703A9204600F021F800283FF71C
:1055B00036AF25B110F1230F01D1404614E0002E83
:1055C00048BF064630460FE0304600280691FAD51F
:1055D000F3E70000CBCCCC0C000000000000000082
:1055E000686A6C747A4C00000BB0BDE8F08F70B53F
:1055F00005460C460020A368A0771E78253E6ED095
:105600001C3E25D0361F022E22D90E3E63D0761FB7
:105610001AD0F61E7CD0B61F1AD0B61E12D0761E37
:1056200012D0761E022E13D9361F0DD0761F13D03E
:10563000761E012E08D9361F4FD0B61E04D0F61E96
:1056400002D070BD002265E02846BDE87040E5E16B
:105650002846BDE87040F3E2207F002849D1607FF2
:10566000622808D068281CD06A280ED06C2821D067
:1056700071280AD01EE06168616051F8040B616016
:1056800000281DD0E168017033E06168616051F865
:10569000040B6160002813D0E268D317C0E900232F
:1056A00027E06168616051F8040B616040B1E16816
:1056B00001801EE06168616051F8040B616038B9D7
:1056C0000FF6CC20FFF724F84FF0FF34201A70BDFE
:1056D000E16801600DE06C20607701221AE0E0686B
:1056E000401CE060012220680021A8470646252EC4
:1056F00001D1012070BD324621462846FFF769FEE0
:1057000016F1010F02D14FF0FF3070BD002070BDC7
:105710004FF0FF322846BDE8704021E0C9B208E0F2
:1057200003789942A4BF90F802C08C4514DAC01CDB
:10573000D21E032A09D343782D2BF1D010F801CBC8
:105740008C4518BF521EF4D106E03AB110F8013B67
:105750008B4218BF521EF8D10120704700207047BD
:105760002DE9F84F8AB00D46002607968246697FDC
:1057700005926C290CBF4FF0010BB3460FF62C229B
:10578000D2E90001059ACDE90301002A29D5A868CC
:10579000411CA960084601785E2903BF401CA8602F
:1057A00010F8014D0024D5F8088098F800005D2815
:1057B0000CBF08F1010040465D21FEF79DFF002867
:1057C00000F01581A0EB08010091A8600098032863
:1057D00007DB821E2D2108F10100FEF7B9FF00B1A1
:1057E00001266869002805DC0598002814BF6FF0C1
:1057F000004001202861287FB8B968686860BBF163
:10580000000F016808D0001D6860019169B94FF070
:10581000FF340FF6A01018E0001D6860029121B956
:105820004FF0FF340FF6B4100FE0287FB0B9E87FD7
:10583000A0B16968696051F8040B6960B0F1004F6C
:1058400007D34FF0FF340FF6B810FEF761FF201AB0
:10585000CAE6A969884288BF0846A86108940996E3
:105860000027DDF81490029C079ECDF814B0CDF807
:105870001880DDF804B007E004F8018B0120A87758
:10588000A969491EA96102262969491E2961E8689A
:10589000401C002900F1B780E8600122286800213F
:1058A000D047804618F1010F19D15346DDF814A0F6
:1058B000424629461846FFF78CFDB9F1000F03D088
:1058C000F0B2022800F08F80F0B2022800F0998038
:1058D000F0075AD418F1010F40F0898055E0B9F172
:1058E000000F02DD02F034FF10E01FD509980028F8
:1058F00008980ED10028009A0698414604D1FEF778
:1059000027FF0028D1D011E0FEF722FF0028CCD1DC
:105910000CE00028009A0698414603D1FFF7FEFEEE
:1059200020B9C2E7FFF7FAFE0028BED1059850B9AA
:10593000287F0028A7D1A86900289DD15346DDF80B
:1059400014A00126B4E702A80146079001F80780D9
:105950007F1C03AB3A4601A8FEF7BFFE811C02295B
:105960001CD8DFE801F002061500042F46F00106FE
:105970008AD3002F4EDD0798EA687F1E521EC15D54
:10598000EA6000222868D047F3E74FF0FF302BE6AB
:10599000019919B902A8FBF765FF401C10F1030F2C
:1059A00008BF0020064608E00798EA687F1E521EDE
:1059B000C15DEA6000222868D047BE42F4DB287F40
:1059C00058B9A86908B901265EE701984BF8040B9D
:1059D0000121A977A869401EA86102266869401EB6
:1059E0006861002750E7287F58B9A86908B90020E6
:1059F000FAE5BAF1000F19BF0020CBF80000002132
:105A000021700120F0E55346DDF814A0E8604FF066
:105A1000FF384DE7F6B2002EB7D0E8E72DE9F8459C
:105A20000D4688B0804668690028D8BF6FF00040F6
:105A30002861EA464046FFF7BBFC2B2818BF2D28FB
:105A400007D18DF8000029464046FFF7B1FC0DF163
:105A5000010AA96809780022642914BF75290A245B
:105A60000DD0692908BF002409D06F2908BF082478
:105A700005D070291ABF41F0200178291024302860
:105A800017D129464046FFF793FC40F0200101263C
:105A9000C9B278290AD1002C18BF102C13D129467D
:105AA0004046FFF785FC102400260CE05CB9082472
:105AB00009E004B90A24564601461AE02868012282
:105AC0000021C0470126302840F0AB80E8682969F2
:105AD000401C491E00292961E860EFD54FF0FF30D6
