:020000040800F2
:10000000087F0020C5F4000899ED00089BED00086A
:100010009DED00089FED0008A1ED00080000000024
:10002000000000000000000000000000D11F0008D8
:10003000A3ED000800000000791F0008DD1600088D
:100040001DF7000821F7000825F7000829F7000828
:100050002DF7000831F7000835F7000839F70008D8
:100060003DF7000841F7000845F7000849F7000888
:100070004DF7000851F7000855F7000859F7000838
:100080005DF7000861F7000865F7000869F70008E8
:10009000A5ED00086DF7000871F7000875F7000876
:1000A00079F700087DF70008AFED0008B9ED00080A
:1000B00081F7000885F7000889F700088DF7000828
:1000C00091F7000895F7000899F700089DF70008D8
:1000D000A1F70008A5F70008A9F70008ADF7000888
:1000E000B1F70008B5F70008B9F70008BDF7000838
:1000F000C1F70008C5F7000800000000000000007C
:100100000000000000000000C9F70008CDF700085B
:100110000000000000000000C3ED0008CDED000865
:10012000D1F70008D5F70008D7ED0008D9F7000887
:10013000E1ED0008DDF70008E1F70008E5F7000849
:10014000E9F70008000000000000000000000000C7
:10015000000000000000000000000000000000009F
:100160000000000000000000EDF70008EBED0008C3
:10017000F1F7000800000000F5F70008000000009B
:1001800000000000F9F700082DE9F04F85B00600E7
:100190000F0090469946DDF838A00F9C109D002C6A
:1001A00007D1502080F31188BFF34F8FBFF36F8FBB
:1001B000FEE7002D07D1502080F31188BFF34F8F49
:1001C000BFF36F8FFEE7602000900098602807D093
:1001D000502080F31188BFF34F8FBFF36F8FFEE77E
:1001E000002D19D0002C17D0AB46CBF830400220A0
:1001F0008BF85D0000200390CDF808B004A80190B2
:10020000CDF800A04B4642463900300000F047F8D8
:10021000584600F0B7F801E000200490049805B0BB
:10022000BDE8F08F2DE9F84F84B006000F0090462E
:100230009946DDF838A0DDF83CB0404680B2800039
:1002400000F0D2FF0500002D0BD0602000F0CCFFA5
:100250000400002C01D0256304E0280001F054F8CC
:1002600000E00024002C15D0002084F85D00002060
:1002700003900294CDF804B0CDF800A04B4642465E
:1002800092B23900300000F00AF8200000F07AF84D
:10029000012001E05FF0FF3005B0BDE8F08F2DE9EF
:1002A000F14F82B00D0016001F00DDF830800D9C6C
:1002B000DDF83890B00000905FF0A50BD9F830A0C1
:1002C0005A460099504601F0C9F8D9F8300000EBC1
:1002D0008600B0F1040A5FEADA0A5FEACA0A1AF095
:1002E0000700002807D0502080F31188BFF34F8FFC
:1002F000BFF36F8FFEE75FF0000BBBF1100F0CD266
:1003000015F80B0009EB0B0181F8340015F80B0010
:10031000002802D01BF1010BEFE7002089F8430011
:10032000B8F1070F01D306208046C9F82C80C9F820
:100330004C800020C9F8500019F1040001F0D0F8F9
:1003400019F1180001F0CCF8C9F81090D8F10700A5
:10035000C9F81800C9F824900020C9F854000020FA
:10036000C9F85800002089F85C003A00029950460C
:1003700001F0F4F8C9F80000002C01D0C4F8009096
:10038000BDE8F78F38B5040001F078F9DFF868159B
:100390000868401C0860DFF864552868002806D10A
:1003A0002C60086801280DD100F066FB0AE0DFF838
:1003B00050050068002805D1E06A2968C96A8842AA
:1003C00000D32C60DFF83C050168491C016000681F
:1003D0006064DFF834150A680123E06A83401A4339
:1003E0000A60211DDFF8A425E36A1420434302EBD1
:1003F000030001F078F801F05BF9DFF8040500680C
:1004000000280DD02868C06AE16A884208D25FF0EF
:100410008050DFF858160860BFF34F8FBFF36F8F1F
:1004200031BD38B505000024002D15D0DFF8780562
:100430000068002807D0502080F31188BFF34F8F49
:10044000BFF36F8FFEE700F099F80021280000F05D
:1004500065FE00F099F80400002C08D15FF0805090
:10046000DFF808160860BFF34F8FBFF36F8F31BD01
:1004700070B506003500002D07D1502080F311889B
:10048000BFF34F8FBFF36F8FFEE7DFF87004006894
:10049000854201D1002025E001F0F0F868690400F0
:1004A00001F006F9DFF89C050068844204D0DFF80B
:1004B000C0050068844201D1022013E0DFF8B405D2
:1004C000844206D1A86A002801D103200AE0022054
:1004D00008E0DFF8BC04844201D0002C01D10420E4
:1004E00000E00120C0B270BD10B586B000200490BD
:1004F0000020039005AA03A904A801F06EF9DFF813
:100500003049049802900398019000200090002345
:10051000059ADFF820190FF23150FFF735FE206001
:100520002068002801D0012400E00024012C18D10B
:10053000502080F31188BFF34F8FBFF36F8F5FF0B0
:10054000FF30DFF8F41808600120DFF8B41308600A
:100550000020DFF8D41A086001F064FC01F027F8ED
:100560000AE014F1010F07D1502080F31188BFF386
:100570004F8FBFF36F8FFEE706B010BDDFF8280482
:100580000168491C01607047F8B500250026DFF8B6
:1005900018442068002807D1502080F31188BFF349
:1005A0004F8FBFF36F8FFEE701F068F82068401EA1
:1005B00020602068002857D1DFF83C03006800283D
:1005C00052D0DFF868180868002827D0C868C068CB
:1005D000050015F1180000F0ADFF281D00F0AAFF7E
:1005E000DFF824130A680123E86A83401A430A608B
:1005F000291DDFF89823EB6A1420434302EB030024
:1006000000F071FFE86ADFF8F4120968C96A8842ED
:10061000D7D30120DFF8E01A0860D2E7002D01D01F
:1006200000F029FBDFF804793C68002C0CD000F0C6
:1006300077F8002803D00120DFF8BC1A0860641E98
:10064000002CF4D100203860DFF8AC0A00680028E4
:100650000AD0012006005FF08050DFF81014086017
:10066000BFF34F8FBFF36F8F01F022F83000F2BD60
:100670002DE9F24F0600150000270724FFF77EFF43
:1006800000989D490968884245D3641E5FF024089C
:100690000122BE48142101FB04F1014408FB07F0CC
:1006A000304400F081FAC0190700002CEDD102227D
:1006B000DFF89003016808FB07F0304400F074FA9B
:1006C000814619EB07090222DFF8A403016808FB41
:1006D00009F0304400F068FA82461AEB090A042255
:1006E000DFF8AC1208FB0AF0304400F05DFA8346F4
:1006F0001BEB0A0B0322DFF87C1308FB0BF806EB5D
:10070000080000F051FA10EB0B000700002D02D09A
:1007100001F08EFB2860FFF737FF3800BDE8F28F4D
:100720002DE9F0410027DFF88002006800286ED133
:10073000DFF8F4080468641C0460002C1CD1DFF8A6
:10074000041308680068002807D0502080F311883F
:10075000BFF34F8FBFF36F8FFEE7D1F80080DFF854
:10076000100302680A60C0F80080DFF8940901688D
:10077000491C016000F07FFADFF8BC86D8F8000061
:10078000844238D3DFF8BC1208680068002804D11E
:100790005FF0FF30C8F800002DE00868C068C0684E
:1007A000050068680600B44202D2C8F8006022E082
:1007B000281D00F0BFFEA86A002803D015F118001C
:1007C00000F0B8FE50490A680123E86A83401A43E2
:1007D0000A60291D6D4AEB6A1420434302EB0300B3
:1007E00000F081FEE86A45490968C96A8842C9D3B0
:1007F00001200700C6E7414800686449C26A142026
:1008000042438858022807D30120070004E0DFF89C
:100810001C070168491C0160DFF8DC08006800283B
:1008200001D0012007003800BDE8F08110B55E4816
:100830000068002804D00120DFF8BC18086040E000
:100840000020DFF8B4180860DFF8B84801F0F0FACB
:100850002060DFF8B41808682268904207D2274861
:100860000268536D2068C31808681B1A5365206816
:10087000086025480068B0FA80F1D1F11F01142208
:10088000424B02FB01F01858002807D1502080F39A
:100890001188BFF34F8FBFF36F8FFEE702FB01F2AA
:1008A00003EB0200426852684260426810F108039C
:1008B0009A4202D14268526842604068C0680F4A5A
:1008C000106010BD38B504000D00002C07D1502079
:1008D00080F31188BFF34F8FBFF36F8FFEE7DFF810
:1008E0003008006810F11801200000F008FE012116
:1008F000280000F013FC31BDCC7A0020BC7A002027
:10090000D87A0020E87A0020D47A002038B5050093
:10091000E868C468002C07D1502080F31188BFF329
:100920004F8FBFF36F8FFEE714F1180000F002FE47
:100930001D480068002814D1201D00F0FBFDDFF8E1
:10094000D4170A680123E06A83401A430A60211D14
:100950000E4AE36A1420434302EB030000F0C3FD98
:1009600005E014F11801DFF8C40400F0BCFDDFF865
:10097000A0070068C06AE16A884205D2012001210F
:10098000DFF88827116000E0002032BDC07400202D
:10099000207A0020DFF8681709680160DFF85C172B
:1009A0000968416070470000F47A00202DE9F041A9
:1009B00004000D00002C07D1502080F31188BFF3F4
:1009C0004F8FBFF36F8FFEE7002D07D1502080F3CC
:1009D0001188BFF34F8FBFF36F8FFEE700F04EFE1D
:1009E000DFF8440606686768F71B286810F1010FF6
:1009F00002D15FF000081BE0DFF8040700682168FF
:100A0000884205D06068864202D35FF001080FE09B
:100A10002868874208D22868C01B28602000FFF79A
:100A2000B9FF5FF0000803E0002028605FF00108D4
:100A300000F03EFE4046BDE8F0810120DFF8CC1614
:100A400008607047C07A002010B5040000F03FF83D
:100A5000DFF8C40600680228F8D35FF080508F49A1
:100A60000860BFF34F8FBFF36F8FEFE704ED00E037
:100A7000C47A0020347A002070B50024072C09D2F3
:100A8000DFF89406142101FB04F1084400F019FD7D
:100A9000641CF3E7DFF80857280000F012FDDFF8C8
:100AA0000467300000F00DFDDFF8800300F009FD61
:100AB000DFF8F40600F005FDDFF8F00600F001FDB8
:100AC000DFF8EC060560DFF8EC06066070BD38B5AF
:100AD000DFF8E4562868002817D000F0CFFDDFF8D3
:100AE000C806C068C0680400201D00F023FDDFF8C0
:100AF000CC060168491E01602868401E286000F08D
:100B0000D7FD200000F095F8E2E731BD2DE9F04176
:100B100004000E0015001F00002C04D1DFF8A00611
:100B2000D0F8008000E0A046C6F8008018F134003C
:100B30007060D8F82C003061D8F83000F061D8F837
:100B40004400B060D8F84C007061D8F85400B0612F
:100B50003800C0B2052817D0DFF864060068804569
:100B600002D10020307313E037733800C0B203287D
:100B70000ED1FFF703FDD8F82800002801D002208D
:100B80003073FFF701FD03E04046FFF771FC30735F
:100B9000002D05D0D8F8300000F040F8308401E096
:100BA00000203084BDE8F0812DE9F84304000D00F9
:100BB00016005FF00009286800282CD02800416842
:100BC00049684160416810F10802914202D14168D0
:100BD000496841604068C0688046280041684968AB
:100BE0004160416810F10802914202D141684968B0
:100BF00041604068C06807003300DBB20122242056
:100C000000FB09F004EB00013800FFF77FFF19F14A
:100C100001094745E1D14846BDE8F28301000020C3
:100C20000A78A52A02D1491C401CF9E7800880B245
:100C3000704710B5040094F85D00002806D1206BC1
:100C400000F062FB200000F05FFB13E094F85D0011
:100C5000012803D1200000F057FB0BE094F85D0061
:100C6000022807D0502080F31188BFF34F8FBFF3C5
:100C70006F8FFEE710BDDFF8382510680068002888
:100C800004D15FF0FF306C4A106006E01068C06865
:100C9000C06801004868684A1060704704ED00E0D1
:100CA000DFF820050068002801D1012007E0DFF807
:100CB00018050068002801D1022000E000207047DC
:100CC0002DE9F843040025000026002C52D0DFF85F
:100CD0004094E86AD9F80010C96A884242D2A869EB
:100CE000002805D4D9F80000C06AD0F10700A86137
:100CF000DFF824745FF014086869E96A08FB01F101
:100D00003944884227D1281D00F014FC00280DD159
:100D1000E86A08FB00F03858002807D1DFF8AC1467
:100D20000A680123E86A83409A430A60D9F8000000
:100D3000C06AE862DFF894140A680123E86A834015
:100D40001A430A60291DE86A08FB00F807EB08004F
:100D500000F0C9FB03E0D9F80000C06AE862012096
:100D6000060007E0E86CD9F80010C96A884201D291
:100D7000012006003000BDE8F28370B504002500B4
:100D80000026002C50D0DFF888030068854207D089
:100D9000502080F31188BFF34F8FBFF36F8FFEE7B2
:100DA000286D002807D1502080F31188BFF34F8FA2
:100DB000BFF36F8FFEE7286D401E2865E86AE96C77
:100DC000884231D0286D00282ED1281D00F0B2FBBA
:100DD00000280FD1DFF8F813EA6A1420424388583C
:100DE000002807D1DFF82C130A680123E86A834042
:100DF0009A430A60E86CE862E86AD0F10700A861EB
:100E0000DFF810130A680123E86A83401A430A6076
:100E1000291DDFF8BC23EB6A1420434302EB0300D7
:100E200000F061FB01200600300070BD0C7A00204C
:100E3000F07A0020B4F60008EC7A00202DE9F84F93
:100E400004000F00A0465FF00109002C6BD0D8F819
:100E50005000002807D1502080F31188BFF34F8F36
:100E6000BFF36F8FFEE7D8F84C00B84201D23E00C6
:100E700002E0D8F84C000600D8F82C00B04252D05E
:100E8000D8F8500048454ED1DFF88402006880450C
:100E900007D1502080F31188BFF34F8FBFF36F8FBE
:100EA000FEE7D8F82C000500C8F82C60D8F8180028
:100EB000002803D4D6F10700C8F81800DFF858A2BC
:100EC0005FF0140BD8F814000BFB05F15144884275
:100ED00029D118F1040000F02DFB002810D1D8F81A
:100EE0002C000BFB00F05AF80000002808D1DFF8B6
:100EF000DC120A680123D8F82C0083409A430A6068
:100F0000DFF8C8120A680123D8F82C0083401A437E
:100F10000A6018F10401D8F82C000BFB00FB0AEB67
:100F20000B0000F0E0FABDE8F18F0000DC7A002051
:100F300038B504000D002900200000F07FFF2000DC
:100F400000F0A2FF0F2803D220212154401CF9E712
:100F500000212154204432BD2DE9FF41050000202D
:100F60002870DFF85802016803912427006878434D
:100F700000F03AF90400002C53D00022039920001D
:100F8000FFF776FB039000200290029803998842B5
:100F900044D2029878432044007B002806D00228DF
:100FA0000AD006D304280DD009D30EE0582006003D
:100FB0000DE0522006000AE04220060007E0532020
:100FC000060004E04420060001E00020060002982C
:100FD0007843204441682800FFF7AAFF8046029822
:100FE00002997843204480680190794304EB010022
:100FF000008C009002987843204403693200D2B2FA
:10100000DFF8D011404600F097FF404600F03CFF6B
:10101000404405000298401C0290B6E7200000F012
:1010200073F9BDE8FF810000D07A00202DE9FF416F
:10103000060000203070DFF8840101680291242747
:101040000068784300F0D0F80500002D45D001AAD3
:1010500002992800FFF70CFB029001986421B0FB75
:10106000F1F001900198002834D000200090009801
:10107000029988422ED200987843284480690199C9
:10108000B0FBF1F004000098784328444168300038
:10109000FFF74EFF8046002C0AD0230000987843CB
:1010A00028448269DFF83011404600F045FF08E02F
:1010B0000098784328448269DFF82011404600F008
:1010C0003BFF404600F0E0FE08EB00060098401CA5
:1010D0000090CCE7280000F017F9BDE8FF81DFF8A9
:1010E000E0100868002803D00868026D521C0265F1
:1010F0000868704700000000E07A0020D07A0020E5
:10110000E47A0020FC7A0020F87A0020E07A0020BF
:10111000BC7A0020D47A0020C07400202DE9F04170
:1011200005000C002E480768DFF89480D8F800000E
:10113000001D00F0FFF9002808D1D8F8000023496D
:101140000A680123C06A83409A430A6015F1010FBF
:1011500008D1002C06D0D8F80000011D134800F07B
:10116000C2F91AE0E8190600D8F800004660BE424D
:1011700007D2D8F80000011D0E48006800F0BFF942
:101180000BE0D8F80000011D0948006800F0B7F92D
:10119000144801688E4200D20660BDE8F08100006C
:1011A000BC780020F8790020207A0020347A0020D2
:1011B000C07A0020C47A0020C87A0020CC7A0020AF
:1011C000BC7A0020D87A0020F47A0020D47A00205B
:1011D000C0740020A4F400087CF5000888F500081D
:1011E000D07A0020EC7A00202DE9F84F04005FF05F
:1011F0000008FFF7C3F9DFF84892D9F8000000288B
:1012000001D100F0BBF8DFF83CA2DAF8000004429C
:1012100069D1002C15D08C480068041914F0070F10
:101220000FD014F1080014F00704041B14F0070F8A
:1012300007D0502080F31188BFF34F8FBFF36F8F1B
:10124000FEE7002C4FD0DFF804B2DBF80000A0422C
:1012500049D37F480600006805006868A04205D2AF
:101260002868002802D02E002D68F6E7D9F8000083
:10127000854238D07448316802681144884629682C
:101280003160006840006968091B884215D205EB8F
:101290000400070017F00700002807D0502080F353
:1012A0001188BFF34F8FBFF36F8FFEE76868001B95
:1012B00078606C60380000F092F8DBF80010686825
:1012C000091ACBF800106348DBF80010026891425D
:1012D00002D2DBF8001001606968DAF8000001430F
:1012E000696000202860FFF74FF918F00700002818
:1012F00007D0502080F31188BFF34F8FBFF36F8F5B
:10130000FEE74046BDE8F28F70B504002600002CD1
:1013100033D04D480068404206443500494968686A
:101320000A68104207D1502080F31188BFF34F8F15
:10133000BFF36F8FFEE72868002807D0502080F3A6
:101340001188BFF34F8FBFF36F8FFEE768680A689D
:10135000104212D0286800280FD16A6808688243BA
:101360006A60FFF70BF939490A68686882180A60F1
:10137000280000F034F8FFF707F970BD70B44FF49F
:10138000A0423548010011F0070F04D0C91DC9085B
:10139000C900521A82180B002D48036000244460D3
:1013A000D41829480068241AE408E400244D2C606D
:1013B00000202E68706000202E6830601800261A09
:1013C00046602D6805604568224E356045681F4EB1
:1013D00035605FF000451B4E356070BC704730B41F
:1013E0001B4A1168814201D21268FAE71400516861
:1013F0002144814204D153684168CB1853601000E6
:101400000300416819441568A94210D10C491468B9
:101410000D68AC4208D04468116849680C194460F2
:1014200011680968016004E00968016001E0116861
:101430000160824200D0106030BC704700000000A4
:10144000887A0020947A002014F700088C7A002013
:10145000787A0020907A00200002002062F30F22A8
:1014600062F31F42401810F0030308D0C91A1FD3BB
:10147000DB0748BF00F8012D28BF20F8022D13001C
:1014800030B414461546103928BF20E93C00FAD87C
:10149000490728BF20E90C0048BF40F8042D890007
:1014A00028BF20F8022D48BF00F8012D30BC70473E
:1014B000C91818BF00F8012DCB0728BF00F8012D6F
:1014C000704710F1080141605FF0FF31816010F159
:1014D0000801C16010F1080101610021016070473D
:1014E00000210161704742684A6093688B6093688D
:1014F00059609160086103685B1C0360704710B419
:101500000B6813F1010F01D1026907E010F1080225
:1015100054682468A34201D35268F9E754684C60C8
:101520004C68A1608A60516008610468641C0460B2
:1015300010BC7047010008698A684B689A604A6865
:101540008B685A6042688A4201D18A6842600022F0
:101550000A610268521E026000687047001F5FF057
:1015600080730360001F4B085B000360001F0FF2D5
:101570001503036014380260001F7FF0020303604C
:10158000203870477348006810F1010F07D05020D1
:1015900080F31188BFF34F8FBFF36F8FFEE75020AA
:1015A00080F31188BFF34F8FBFF36F8FFEE7E0B575
:1015B00069480168694A914207D1502080F3118837
:1015C000BFF34F8FBFF36F8FFEE700686449884217
:1015D00007D1502080F31188BFF34F8FBFF36F8F77
:1015E000FEE7604801780191FF21017001788DF8D4
:1015F00000109DF8001011F050015B4A11705B491A
:1016000007220A609DF80020120608D50A68521EBB
:101610000A609DF8002052008DF80020F2E70A6869
:10162000D2F10702042A07D0502181F31188BFF3B9
:101630004F8FBFF36F8FFEE70A6812020A600A68D5
:1016400012F4E0620A60019901704948016851F49E
:1016500070010160016851F07041016000F092F882
:1016600000203C49086000F0D1FC4248016851F07C
:101670004041016000F0BAFC00200EBD502080F314
:101680001188BFF34F8FBFF36F8F32490A68521C26
:101690000A60096801290AD137490968090606D094
:1016A00080F31188BFF34F8FBFF36F8FFEE7704752
:1016B00028490868002807D1502080F31188BFF31B
:1016C0004F8FBFF36F8FFEE70868401E0860086801
:1016D000002802D1002080F31188704780B5502087
:1016E00080F31188BFF34F8FBFF36F8FFFF718F8A8
:1016F000002803D05FF080501F490860002080F36D
:10170000118801BDEFF30580102811D31B4A126820
:10171000125C11000A00144B1B78D2B29A4207D215
:10172000502282F31188BFF34F8FBFF36F8FFEE714
:101730000E4A1268124B1B6813F4E0639A4207D2F8
:10174000502282F31188BFF34F8FBFF36F8FFEE7F4
:10175000704700000000002000ED00E071C20F4162
:1017600070C20F4100E400E0057B0020B47A002045
:1017700020ED00E034EF00E004ED00E018F7000891
:101780000CED00E00848002101600021074A1160CB
:10179000074909684FF47A72B1FBF2F1491E054A14
:1017A000116007210160704710E000E018E000E0E0
:1017B0000800002014E000E00100B5EE400AF1EE60
:1017C00010FA05DBF1EEC00AC1ED000A002003E0CB
:1017D000002008605FF0FF307047DFF8F0350360ED
:1017E000DFF8EC350B6080231360704710B5040000
:1017F00000F01AFC00220821082000F08BFCDFF822
:10180000D41508604FF4FA70FEF70BFEFAE710B536
:101810000400012000F0D8FCDFF8BC15086001F0DE
:101820005FF90A20FEF7FDFDF9E770B50400DFF867
:10183000AC55B5F92C00002801D1012100E00021B0
:10184000B5F92A00002801D1012200E00022DFF8CA
:101850009065B6F92C00002801D1012300E0002397
:10186000B6F92A00002801D1012000E00020C9B209
:10187000D2B21143DBB21943C0B20143002903D0F5
:101880000320DFF860150870DFF85805007801289C
:1018900004D04CD303283FD02BD348E0FFF7EEFE13
:1018A000DFF8440501F038F9F084300001F054F914
:1018B000DFF8380596F834100176316B416101F09C
:1018C000D9F9FFF7F5FEFFF7D9FEDFF8240501F09F
:1018D00023F9E884280001F03FF9DFF8180595F8AE
:1018E00034100176296B416101F0C4F9FFF7E0FE85
:1018F00027E0DFF8F40401F00FF9F084DFF8F004DA
:1019000001F00AF9E884DFF8E40401F08BFADFF86B
:10191000E40401F087FA14E0DFF8CC0401F0FCF8ED
:10192000F084DFF8CC0401F0F7F8E88409E0DFF890
:10193000B80401F0F1F8F084DFF8B40401F0ECF839
:10194000E8840A20FEF76DFD71E72DE9F0438BB0C6
:101950000400082009900020059000200890002035
:10196000079000208DF82800DFF8683418680028F8
:1019700000F08A8000226946186800F078FD9DF822
:101980000000052808D007281BD008282CD00928DB
:1019900045D00A285AD06FE002250DF10106DFF884
:1019A00058742A003100380001F04CFA02270DF17A
:1019B0000308DFF848943A004146484601F042FAED
:1019C00062E00220DFF81C140870FFF757FE0720C2
:1019D0008DF80C0002AB03AA05A9DFF8240401F07E
:1019E0000AFCFFF765FE4FE0DFF8FC0301F0A5F805
:1019F000DFF8FC0301F0A1F80120DFF8E81308701C
:101A000008208DF80C00FFF739FE02AB03AA05A9E8
:101A1000DFF8EC0301F0EFFBFFF74AFE34E00225AC
:101A20000DF10106DFF8B87317F12A082A0031001A
:101A3000404601F007FA5FF002080DF103092C3768
:101A400042464946380001F0FDF91DE002250DF13E
:101A50000106E24F17F12A082A003100404601F042
:101A6000F1F95FF002080DF103092C3742464946AF
:101A7000380001F0E7F907E0082500266F4632003C
:101A800029003800FFF7EAFC082500266F463200DF
:101A900029003800FFF7E2FC0120FEF7C2FC63E7F3
:101AA00038B58AB004000020009001AB03AA0021E1
:101AB000200001F03CFC002809D1C64D2868002810
:101AC00005D000236A4601A9286800F060FC0BB02D
:101AD00030BD2DE9F0478AB0040000200390C948CA
:101AE00001F010FE8DED030A0520089000200490FF
:101AF000002007900020069000208DF8240005208B
:101B00008DF80000DFF8D8826E46B8F826007070B5
:101B1000B8F926000012B070B04FF88CF070B7F929
:101B2000260000123071FFF7A9FDB54D02AB6A46E1
:101B300004A9280001F05FFBFFF7BAFD0A20FEF7B9
:101B400070FC09208DF80000B8F82A007070B8F910
:101B50002A000012B070B8F82C00F070B8F92C0010
:101B600000123071FFF78AFD02AB6A4604A9280013
:101B700001F041FBFFF79CFD0A20FEF752FC0A2012
:101B80008DF80000788D7070B7F92A000012B070DF
:101B9000B88DF070B7F92C0000123071FFF76EFDB0
:101BA00002AB6A4604A9280001F025FBFFF780FD7F
:101BB0000A20FEF736FC06208DF80000042603AF4D
:101BC0000DF1010832003900404601F03BF9FFF702
:101BD00055FD02AB6A4604A9280001F00CFBFFF793
:101BE00067FD0A20FEF71DFC0B208DF800005FF05A
:101BF0000408DFF814920DF1010A424649465046A6
:101C000001F020F9FFF73AFD02AB6A4604A928006B
:101C100001F0F1FAFFF74CFD0A20FEF702FC5EE747
:101C20002DE9F8432DED028BC0B0814668464FF494
:101C3000807101F085FDDFF8D4810021404601F07C
:101C4000C7FE4FF4FA71404601F0F2FE8022694669
:101C5000404601F071FF0520FEF7E3FB404601F02E
:101C6000C4FF00240025614F387E00284BD1002698
:101C70003000C0B281280FDA68463100C9B230F9AD
:101C800011103200D2B230F9120011FB00F0C1176E
:101C900024184D41B61CEBE702220023A2FB0401ED
:101CA00002FB051103FB041102F0AEF800EE100A6E
:101CB000DFED420A80EE200AB0EE408A17F11C00E8
:101CC000B0EE480AFFF778FD97ED070ADFED3C0A12
:101CD000B4EE600AF1EE10FA12DB97ED070ADFEDC1
:101CE000390A30EE200A87ED070AF86902F0B0F8E9
:101CF000474A484B02F0D0F802F0A4F9F86157E0E7
:101D00000020F86154E001263000C0B280280FDACC
:101D100068463100C9B230F911103200D2B230F940
:101D2000120011FB00F0C11724184D41B61CEBE75F
:101D300002220023A2FB040102FB051103FB041194
:101D400002F062F800EE100ADFED1C0A80EE200AB5
:101D5000B0EE408A17F11C00B0EE480AFFF72CFDE8
:101D600097ED070ADFED160AB4EE600AF1EE10FAFD
:101D70001CDB97ED070ADFED140A30EE200A87ED31
:101D8000070AF86902F064F8234A244B02F084F849
:101D900002F058F9F861F86902F05AF80022204B75
:101DA00002F07AF802F04EF9F86101E00020F861E3
:101DB00080226946404601F0BFFE4CE70000004328
:101DC00001004843003027C50080FEC44C75002048
:101DD000C0700020847A0020807A002010790020D2
:101DE000D0780020FC010020587A0020D87900200B
:101DF000487A0020B8790020F8780020387900204F
:101E000090790020687A0020F4790020AC750020D9
:101E1000FA7E6ABC7493683F24EF1CCA5015733F66
:101E20000000F0BF0020014908607047B07A002030
:101E300001480068704700BFB07A00205FEA000CDC
:101E400080EA01039B0715D1830706D011F8013BF7
:101E500000F8013BB3B18307F8D10A68B2F101334E
:101E600023EA020313F0803F02BF40F8042B51F82D
:101E7000042FF3E711F8013B00F8013B13B111F80F
:101E8000013BF9E76046704700F10103810704D088
:101E900010F8011B820781B1FAD10268A2F1013169
:101EA000914311F0803104BF50F8042FF6E709BACE
:101EB000B1FA81F100EBD100401CC01A7047F0B4B8
:101EC0000246106895681318506803EB5004C00769
:101ED0001DD54D441BE013F8017B05F8017B491E1D
:101EE000F9D1A0B1B60813F8011B06F00306032EC2
:101EF00008BF13F8016B01EB06214942801C2944FD
:101F000005D011F8016B05F8016B401EF9D1A34211
:101F10000ED013F8016B16F0030104BF13F8011B78
:101F2000C91C30090F28DAD113F8010B0F30D6E79E
:101F3000F0BC02F10C0070470CB430B583B00A4617
:101F400006A90291044600250194009502AB01A95F
:101F5000084878441E3002F0A9F8019A157000284C
:101F60004EBF04460198041B204603B030BC5DF808
:101F70000CFB00BFC7200000EFF30980BFF36F8F99
:101F8000264B1A681EF0100F08BF20ED108A20E9BA
:101F9000F04F106009B44FF0500080F31188BFF388
:101FA0004F8FBFF36F8FFEF741FC4FF0000080F3BF
:101FB000118809BC19680868B0E8F04F1EF0100FCE
:101FC00008BFB0EC108A80F30988BFF36F8F7047A9
:101FD000124B19680868B0E8F04F80F30988BFF326
:101FE0006F8F4FF0000080F3118870470C48006835
:101FF000006880F308884FF0000080F3148862B610
:1020000061B6BFF34F8FBFF36F8F00DFDFF81400AF
:10201000016841F47001016070470000BC7A002043
:1020200008ED00E088ED00E010B5114C00221149E8
:10203000200002F0F8FF002801D003F00DFF0E4948
:10204000200003F00CF8002801D003F005FF0B4935
:10205000200004F09DF8002801D003F0FDFE2000D0
:1020600003F008F8002801D003F0F6FE10BD00BF11
:10207000706900202C010020180000201C010020A5
:1020800070B506000C003500002D07D1502080F3FC
:102090001188BFF34F8FBFF36F8FFEE7FFF7EEFAA4
:1020A0002968EA6B286C424301EB0200686000205B
:1020B000A8632868A8602968EA6B521E286C42430E
:1020C00001EB0200E8605FF0FF3085F8440085F81E
:1020D0004500002C12D12869002817D015F11000F6
:1020E000FEF714FC002811D05FF08050DFF88C164A
:1020F0000860BFF34F8FBFF36F8F07E015F110003B
:10210000FFF7DFF915F12400FFF7DBF9FFF7D0FA4D
:10211000012070BD2DE9F84304000D001700002CCC
:1021200007D1502080F31188BFF34F8FBFF36F8F1B
:10213000FEE7002D02D15FF0000901E005FB04F984
:1021400019F15000FFF750F80600002E0DD016F1DF
:1021500050008046002086F8460000963B00DBB227
:1021600042462900200000F003F83000BDE8F28369
:102170002DE9F04105000C0016001F00DDF8188065
:10218000002C02D1C8F8008001E0C8F80060C8F84F
:102190003C50C8F8404001214046FFF771FF88F8E5
:1021A0004C70BDE8F08110B50400002C0BD000206D
:1021B0006060002020600020E060002300220021F9
:1021C000200000F011F810BDF8B50400012600272A
:1021D0002200D2B239003000FFF79CFF0500280032
:1021E000FFF7E1FF2800F2BD2DE9F74380460D001F
:1021F000994600244646002E07D1502080F31188CE
:10220000BFF34F8FBFF36F8FFEE7002D02D1306C0D
:10221000002801D1012000E00020C0B2002807D131
:10222000502080F31188BFF34F8FBFF36F8FFEE70D
:10223000B9F1020F02D1F06B012801D1012000E0B9
:102240000020C0B2002807D1502080F31188BFF3CE
:102250004F8FBFF36F8FFEE7FEF722FD002802D1FC
:102260000298002801D1012000E00020C0B200281F
:1022700007D1502080F31188BFF34F8FBFF36F8FCA
:10228000FEE7FFF7FBF9B06BF16B884202D3B9F1BF
:10229000020F27D14A462900300000F07CFA0700DF
:1022A000706A00280FD016F12400FEF72FFB0028DB
:1022B00014D05FF08050DFF8C4140860BFF34F8F74
:1022C000BFF36F8F0AE0002F08D05FF08050DFF877
:1022D000AC140860BFF34F8FBFF36F8FFFF7E8F9BF
:1022E000012052E00298002803D1FFF7E1F9002015
:1022F0004BE0002C04D16846FEF74CFB01200400A3
:10230000FFF7D6F9FEF73AF9FFF7B8F996F9440066
:1023100010F1010F02D1002086F8440096F9450023
:1023200010F1010F02D1002086F84500FFF7C0F937
:1023300002A96846FEF73AFB002820D1300000F0E1
:10234000D8FA002815D0029916F11000FEF7BAFA53
:10235000300000F089FAFEF717F9002891D15FF0FC
:102360008050DFF818140860BFF34F8FBFF36F8FF2
:1023700087E7300000F078FAFEF706F981E73000D1
:1023800000F072FAFEF700F90020BDE8FE832DE9A7
:10239000F04707000C00150098463E00002E07D1BC
:1023A000502080F31188BFF34F8FBFF36F8FFEE78C
:1023B000002C02D1306C002801D1012000E0002067
:1023C000C0B2002807D1502080F31188BFF34F8F8F
:1023D000BFF36F8FFEE7B8F1020F02D1F06B012857
:1023E00001D1012000E00020C0B2002807D1502018
:1023F00080F31188BFF34F8FBFF36F8FFEE7FFF7B6
:1024000081F9EFF31189502080F31188BFF34F8FCA
:10241000BFF36F8FB06BF16B884202D3B8F1020F3C
:1024200020D196F945A042462100300000F0B3F9D2
:1024300050465FF0FF3140B288420DD1706A0028EB
:102440000ED016F12400FEF761FA002808D0002D06
:1024500006D00120286003E01AF1010086F845004B
:10246000012000E0002089F31188BDE8F0872DE904
:10247000F64182B080460E0000244746002F07D167
:10248000502080F31188BFF34F8FBFF36F8FFEE7AB
:10249000002E02D1386C002801D1012000E000207C
:1024A000C0B2002807D1502080F31188BFF34F8FAE
:1024B000BFF36F8FFEE7FEF7F3FB002802D103980E
:1024C000002801D1012000E00020C0B2002807D17F
:1024D000502080F31188BFF34F8FBFF36F8FFEE75B
:1024E000FFF7CCF8BD6B002D1BD03100380000F099
:1024F000A0F9681EB863386900280ED017F11000E3
:10250000FEF704FA002808D05FF08050DFF86C1264
:102510000860BFF34F8FBFF36F8FFFF7C9F801203B
:1025200057E00398002803D1FFF7C2F8002050E0DD
:10253000002C04D16846FEF72DFA01200400FFF7B5
:10254000B7F8FEF71BF8FFF799F897F9440010F178
:10255000010F02D1002087F8440097F9450010F1DF
:10256000010F02D1002087F84500FFF7A1F803A969
:102570006846FEF71BFA002820D1380000F0ABF9BE
:10258000002815D0039917F12400FEF79BF93800B5
:1025900000F06AF9FDF7F8FF0028A1D15FF0805044
:1025A000DFF8D8110860BFF34F8FBFF36F8F97E745
:1025B000380000F059F9FDF7E7FF91E7380000F027
:1025C00053F9FDF7E1FF380000F085F9002887D0C6
:1025D000002004B0BDE8F0812DE9F34182B08046CF
:1025E000002447460025002F07D1502080F3118892
:1025F000BFF34F8FBFF36F8FFEE7386C002807D013
:10260000502080F31188BFF34F8FBFF36F8FFEE729
:10261000FEF746FB002802D10398002801D10120D3
:1026200000E00020C0B2002807D1502080F31188BC
:10263000BFF34F8FBFF36F8FFEE7FFF71FF8BE6B3F
:10264000002E1CD0701EB8633868002802D1FEF737
:1026500046FD7860386900280DD017F11000FEF7AC
:1026600055F9002807D05FF0805044490860BFF357
:102670004F8FBFF36F8FFFF71BF801207AE00398AD
:1026800000280DD1002D07D0502080F31188BFF312
:102690004F8FBFF36F8FFEE7FFF70AF8002069E066
:1026A000002C04D16846FEF775F901200400FEF7FE
:1026B000FFFFFDF763FFFEF7E1FF97F9440010F11C
:1026C000010F02D1002087F8440097F9450010F16E
:1026D000010F02D1002087F84500FEF7E9FF03A9AA
:1026E0006846FEF763F900282AD1380000F0F3F8B5
:1026F00000281FD03868002807D1FEF7BFFF786890
:10270000FEF7DEFA0500FEF7D3FF039917F1240068
:10271000FEF7D8F8380000F0A7F8FDF735FF0028DD
:102720008BD15FF0805015490860BFF34F8FBFF326
:102730006F8F82E7380000F097F8FDF725FF7CE700
:10274000380000F091F8FDF71FFF380000F0C3F8E3
:1027500000283FF472AF002D0BD0FEF78FFF38003A
:1027600000F00EF8060031007868FEF767FBFEF710
:102770009FFF002004B0BDE8F081000004ED00E000
:102780000100486A002804D0086B0068D0F10700F7
:1027900000E0002070472DE9F84F06000F001400FC
:1027A0005FF00008B56B306C002809D13068002854
:1027B0003AD17068FEF7E1FA80460020706033E09D
:1027C000002C14D1D6F84090BA46D6F808B04A4644
:1027D0005146584600F036FBB068316C0844B06092
:1027E000B068716888421FD33068B0601CE0D6F8CA
:1027F0004090BA46D6F80CB04A465146584600F0CA
:1028000021FBF068316C49420844F060F06831689F
:10281000884204D27068316C49420844F060022C4E
:1028200002D1002D00D06D1E681CB0634046BDE88B
:10283000F28F2DE9F04104000D00206C002811D02A
:10284000E068216C0844E060E0686168884201D378
:102850002068E060266CE768A846320039004046F0
:1028600000F0F0FABDE8F081F8B50400FEF706FFCD
:1028700094F94550280040B201280CDB606A00281A
:1028800009D014F12400FEF741F8002801D0FEF72A
:10289000D4F86D1EEEE75FF0FF3684F84560FEF772
:1028A00007FFFEF7EBFE94F94470380040B20128B0
:1028B0000CDB2069002809D014F11000FEF726F87F
:1028C000002801D0FEF7B9F87F1EEEE784F84460D7
:1028D000FEF7EEFEF1BD38B50400FEF7CFFEA06BAB
:1028E000002801D1012500E00025FEF7E1FE2800C7
:1028F00032BD38B50400FEF7C1FEA06BE16B884223
:1029000001D1012500E00025FEF7D2FE280032BDEE
:1029100070B5764C764D774E33002A00210076480C
:1029200003F094FC33002A002100744803F08EFC6D
:1029300070BD10B50400002C07D014F1010F01D1B7
:10294000002004002000FDF76CFD10BD38B5040028
:1029500000258DF8004000208DF801006846FFF743
:1029600093FA010089B2684603F0C7FC050028000D
:10297000C0B2002800D0F1E731BD0EB42DE9F0431C
:1029800004005F4D64212868FFF726FE07AEDFF8DC
:10299000748132002100404603F0D0FC0700002F74
:1029A00006D5DFF864810421404603F0A6FC1CE054
:1029B00040F20140874206D3DFF8508104214046AF
:1029C00003F09BFC11E05FF00009B9450DDA18F83F
:1029D00009000A2802D10D20FFF7B8FF18F80900F6
:1029E000FFF7B4FF19F10109EFE7002300220021EE
:1029F0002868FFF7F9FB3800BDE8F0035DF810FB2D
:102A0000F0B402000024002304258C421AD2404E68
:102A1000180080B2305C002809D0180080B2305C09
:102A2000107000201F00BFB2F05501200BE05B1CAE
:102A3000641C18002E0080B2B6B2B042E5D100206E
:102A40000300E2E70020F0BC70470EB42DE9F84126
:102A500005002B4E64213068FFF7BEFD00245FF0B7
:102A6000FF316846FFF7CCFF9DF800000D2803D02A
:102A70009DF800000A2817D10023002200213068A9
:102A8000FFF7B2FB2348002101550DF11C08424617
:102A9000290003F06DFC07000023002200213068AC
:102AA000FFF7A2FB380017E09DF80000FFF74EFF8C
:102AB0009DF80000082809D1002C06D0641E2020B3
:102AC000FFF744FF0820FFF741FFC8E79DF800002B
:102AD00010490855641CC2E7BDE8F2015DF810FB1F
:102AE00080B5054803F054FCFBE7000044F40008FF
:102AF000A0F100086DDA000800520020D057002035
:102B0000807A0020A05D002098EF00081CEF0008EC
:102B1000A0610020BC76002002007FF00E03106848
:102B200000680068000910F0010010731068006868
:102B3000406A9168401A00B27047010088680A68CC
:102B40001268506208680068406A8A68904201D141
:102B5000002000E00120704770B52DED028B0600CB
:102B6000B06B0068406AB084B08C002878D0B6F9A9
:102B70002C00B6F92810884201DAB08D3085B6F9FC
:102B80002800B6F92A10884201DA708D3085B6F92E
:102B90002810B6F92600091AB161316AB28CB06901
:102BA00000FB02113162B169F069091A00EE101AD6
:102BB000B8EEC00AB08C00EE900AF8EE600A80EE23
:102BC000208A002086F83400B06903F0FDFBD6E9C6
:102BD000002301F061F904000D00306A03F0F4FBFA
:102BE0000022224B03F002FCD6E9022301F054F943
:102BF00022002B0003F01EFD04000D0018EE100A49
:102C000001F026F9D6E9042301F046F922002B0051
:102C100003F010FD01F016FA306396ED0C0AB5EEE4
:102C2000400AF1EE10FA0AD5012086F8340096ED3C
:102C30000C0AFFEE000A20EE200A86ED0C0A96ED43
:102C40000C0ADFED090AB4EE600AF1EE10FA01DBBE
:102C500007483063B069F0610020B16B09684862D1
:102C6000BDEC028B70BD00BF0100C84200408F4028
:102C70000000C84210B52DED028B040094ED050A4A
:102C8000DFED650AB4EE600AF1EE10FA01DB012017
:102C900000E0002094ED050AB5EE400AF1EE10FACE
:102CA00001D5012100E00021C0B2C9B208430028CB
:102CB00040F0AE8094ED050AF7EE000AB4EE600A2B
:102CC000F1EE10FA01D50020606194ED050ADFED08
:102CD000530AB4EE600AF1EE10FA01DB504860616D
:102CE000A06890ED030AB8EE400AD4ED050A20EE84
:102CF000200ADFED4B0A80EE200ABCEEC08A207E5F
:102D000000283CD0E068002805D118EE100AA16820
:102D10000968486316E0E068042805D118EE100A37
:102D2000A168096888630DE0E068082805D118EEFD
:102D3000100AA1680968C86304E018EE100AA168C7
:102D4000096808642069002804D10020A168096886
:102D5000486350E02069042804D10020A168096874
:102D6000886348E02069082804D10020A168096828
:102D7000C86340E00020A168096808643BE0E0689F
:102D8000002804D10020A1680968486313E0E068C6
:102D9000042804D10020A168096888630BE0E0687A
:102DA000082804D10020A1680968C86303E0002056
:102DB000A168096808642069002805D118EE100A86
:102DC000A1680968486316E02069042805D118EE57
:102DD000100AA168096888630DE02069082805D1F8
:102DE00018EE100AA1680968C86304E018EE100A1A
:102DF000A168096808640122A188206803F0BCFD6D
:102E0000E168A06803F048FE2169A06803F044FE71
:102E1000BDEC028B10BD00000100C8420100C6429B
:102E20000000C84210B504000022A188206803F009
:102E3000A3FDE168A06803F060FE2169A06803F0CB
:102E40005CFE10BD62B38B0708D0521E11F8013B27
:102E500000F8013B00F024808B07F6D1830740F097
:102E6000208000BF103A07D330B4B1E83810103AD0
:102E7000A0E83810F9D230BC530724BFB1E80810DD
:102E8000A0E8081044BF51F8043B40F8043BD207C7
:102E900024BF31F8022B20F8022B44BF0B780370BB
:102EA0007047121F17D35B0009D151F8043B20F87B
:102EB000023B1B0C121F20F8023BF6D20BE051F82C
:102EC000043B00F8013B1B0A20F8023B1B0C121FBD
:102ED00000F8013BF3D238BF121D521E24BF11F877
:102EE000013B00F8013BF8D8704730B4002513E0EF
:102EF00050F8042BD30744BFA9F101039A18091F06
:102F0000042942F8045BFAD213468C0744BF1580AB
:102F10009B1CC90748BF1D7050F8041B0029E7D14E
:102F200030BC704770B50400002C01D10120AEE028
:102F300094F82000002802D1200004F0C9F920688C
:102F4000006830F002002168086004F0C9FB050049
:102F50002068406880070DD504F0C2FB401B0B2899
:102F6000F6D3606A50F400306062052084F82000D7
:102F700001208CE02068006850F0010021680860A2
:102F800004F0AEFB060020684068C0070DD404F0D2
:102F9000A7FB801B0B28F6D3606A50F400306062F8
:102FA000052084F82000012071E0207E012806D150
:102FB0002068006850F080002168086005E0206803
:102FC000006830F0800021680860607E012806D12A
:102FD0002068006850F040002168086005E0206823
:102FE000006830F0400021680860A07E012806D10A
:102FF0002068006850F020002168086005E0206823
:10300000006830F0200021680860E07E012806D1C9
:103010002068006830F010002168086005E0206832
:10302000006850F0100021680860207F012806D158
:103030002068006850F008002168086005E02068FA
:10304000006830F0080021680860607F012806D120
:103050002068006850F004002168086005E02068DE
:10306000006830F0040021680860A168E06801434E
:1030700020690143606901436068401E0143206884
:10308000C16100206062012084F82000002070BD32
:10309000F0B40200136892F820402000C0B201286A
:1030A00003D02000C0B2022870D1D3F8000250F043
:1030B0000100C3F8000201200D7D15F01F0510FA74
:1030C00005F5D3F81C02A843C3F81C02C869002800
:1030D00016D1D3F80C02A843C3F80C02486903EBDD
:1030E000C000CE684F68C7EA0646C0F8406248692B
:1030F00003EBC0008E680F68C7EA0646C0F844625A
:10310000C869012816D1D3F80C022843C3F80C0271
:10311000486903EBC0000E684F68C7EA0646C0F86E
:103120004062486903EBC0008E68CF68C7EA064674
:10313000C0F844628869002805D1D3F80402A84386
:10314000C3F8040204E0D3F804022843C3F80402DD
:103150000869002805D1D3F81402A843C3F8140263
:1031600004E0D3F814022843C3F81402086A0128C3
:1031700004D1D3F81C022843C3F81C02D3F8000280
:1031800040084000C3F80002002004E0506A50F4F8
:10319000802050620120F0BC704738B5040094F8DC
:1031A0002000012821D1022084F820002068006836
:1031B000400840002168086004F092FA0500206889
:1031C0004068C0070DD504F08BFA401B0B28F6D3DE
:1031D000606A50F400306062052084F8200001200D
:1031E00008E000206062002004E0606A50F40020E3
:1031F0006062012032BDF0B5040094F820502068D0
:10320000866888680028FFD02800C0B2012804D052
:103210002800C0B2022840F0848016F0E05F7AD027
:10322000C6F30167032F05D3606A50F400006062A3
:1032300001207BE00120B8401860886800280BD18D
:103240000868D1F80CC05CEA405C20685FEA071EA1
:103250007044C0F880C10DE04868D1F808C05CEA4D
:10326000C00CC86850EA0C0C20685FEA071E704466
:10327000C0F880C10869D4F800C05FEA071EF444B2
:10328000CCF88401087D01280ED120685FEA071C74
:103290006044D0F8840150F48070D4F800C05FEA34
:1032A000071EF444CCF88401D07992F806C05FEA96
:1032B0000C4C5CEA006C50795CEA002C107950EA06
:1032C0000C0C20685FEA071E7044C0F88CC1D078EF
:1032D00092F802C05FEA0C4C5CEA006C50785CEA41
:1032E000002C107850EA0C0C20685FEA071E70442E
:1032F000C0F888C120685FEA071C6044D0F88001EC
:1033000050F00100D4F800C05FEA071EF444CCF886
:10331000800100200AE0606A50F400106062012021
:1033200004E0606A50F4802060620120F0BD70B457
:10333000040094F820502800C0B2012804D02800CE
:10334000C0B2022840F0988000290AD12068C068E5
:1033500010F0030F10D1606A50F400106062012079
:103360008FE02068006910F0030F05D1606A50F407
:1033700000106062012084E020680E013044D0F823
:10338000B00110F0040090609068002807D1206818
:103390000E013044D0F8B001400D106006E0206806
:1033A0000E013044D0F8B001C008506020680E0112
:1033B0003044D0F8B00110F00200D06020680E0157
:1033C0003044D0F8B40110F00F00106120680E01F5
:1033D0003044D0F8B401C0F30720906120680E019A
:1033E0003044D0F8B401000C506120680E01304424
:1033F000D0F8B801187020680E013044D0F8B80138
:10340000000A587020680E013044D0F8B801000C52
:10341000987020680E013044D0F8B801000ED870C2
:1034200020680E013044D0F8BC01187120680E01EC
:103430003044D0F8BC01000A587120680E013044B5
:10344000D0F8BC01000C987120680E013044D0F80F
:10345000BC01000ED871002906D12068C06850F068
:1034600020002668F06005E02068006950F0200028
:1034700026683061002004E0606A50F480206062B9
:10348000012070BC704710B4020092F82030180080
:10349000C0B2012803D01800C0B2022806D11068BB
:1034A0004069084314686061002004E0506A50F4E9
:1034B00080205062012010BC70472DE9F84F0500B4
:1034C000002428684669286847682868D0F808807A
:1034D0002868D0F80C902868D0F810A02868D0F898
:1034E00018B0F00755D55FEAC87018D501202968D3
:1034F00088605FEA887003D5280004F0F7F80EE0D2
:103500005FEA487002D554F4006408E05FEA08708E
:1035100002D554F4805402E0280004F0E8F85FEA91
:10352000C85019D54FF48070296888605FEA8850C8
:1035300003D5280004F0DCF80EE05FEA485002D51D
:1035400054F4005408E05FEA085002D554F4804473
:1035500002E0280004F0CDF85FEAC83019D55FF426
:103560008030296888605FEA883003D5280004F03D
:10357000C1F80EE05FEA483002D554F4004408E098
:103580005FEA083002D554F4803402E0280004F0E9
:10359000B2F8300707D55FEAC96004D554F4007467
:1035A00010202968C860700708D55FEA097005D542
:1035B00008202968C860280004F09EF8B00707D5E5
:1035C0002868C06810F0030F02D02800FEF768FAE0
:1035D000700607D55FEACA6004D554F480641020F1
:1035E00029680861B00608D55FEA0A7005D5082089
:1035F00029680861280004F080F8F00607D52868DB
:10360000006910F0030F02D0280004F077F8B0032F
:1036100007D5F80605D5102029684860280004F071
:103620006EF8F00307D5380705D5082029684860EB
:10363000280004F065F8300447D5780742D5F00536
:1036400006D51BF00100C0B2002801D054F00104DF
:10365000B00504D55FEA8B7001D554F00204700503
:1036600004D55FEA4B7001D554F00404300529D528
:103670001BF0700F26D01BF0700010280AD02028F5
:103680000BD030280CD040280DD050280ED0602808
:103690000FD011E054F008040EE054F010040BE0D9
:1036A00054F0200408E054F0400405E054F0800495
:1036B00002E054F48074FFE72868806930F07000FD
:1036C00029688861042029684860002C05D0686A50
:1036D00020436862280004F014F8BDE8F18FB1F5CA
:1036E000807F02D34FF0FF30704701700120704798
:1036F0000A780260087800E00078401E8041C043EC
:10370000C00F704710B504004FF47A71206800F0C4
:10371000C7F9002802D09FED090A0DE0211D20689D
:1037200000F084FA00EE100AF8EE400A94ED021A56
:1037300094ED030A00EE810A10BD00BF9A99B140D2
:10374000002203F0DFBF03681AB95A1E0260084660
:103750007047197811B94FF0FF307047591C01605C
:103760001878704710B50400002C01D1012052E0F8
:103770000020A0610020E061012020620120606241
:103780000020A0620020E0624FF40050206300207F
:1037900060630020A06300202064200003F0D4FDBB
:1037A0002068006830F4E0502168086020680168F3
:1037B0006268E06802431143206801602068406845
:1037C00030F080702168486020684168A06801433B
:1037D00020684160DFF86414086810F440702269C2
:1037E00090420AD0086830F4407008600A68206986
:1037F00002430A60022003F09FFF2068406850F0F7
:10380000010021684860206880680004FBD4012022
:1038100084F83C00002010BD2DE9F04105000E00A9
:1038200017005FF0000895F83C00012802D0012045
:1038300080461AE0280000F01EFA002805D0FF207C
:1038400085F83C00032080460FE0286810EB8600D6
:1038500020300400396878680143B8680143F8688B
:1038600001432160280000F01EFA4046C0B2BDE8C6
:10387000F0812DE9F04105000E0017005FF000080F
:1038800095F83C00012802D0012080462BE028005A
:1038900000F0F1F9002805D0FF2085F83C00032056
:1038A000804620E0DFF89803864217D03000000CF5
:1038B00004002868006C0321A20012F01F0291404E
:1038C0008843296808642868006CA10011F01F0172
:1038D00017FA01F108432968086401E02868476481
:1038E000280000F0E0F94046C0B2BDE8F081F8B52C
:1038F00004000D001600002794F83C0000281BD09F
:1039000094F83C00FF2817D0A8B221684861012E26
:1039100006D12068406850F020002168486005E02A
:103920002068406830F0200021684860E661280087
:1039300000F0C0F9206201E0012007003800C0B2A9
:10394000F2BD10B4020000201368DFF8F042A34279
:1039500004D1012902D1012318000FE092F83C3074
:10396000012B07D092F83C30022B03D092F83C3068
:10397000032B01D1D16201E001231800C0B210BCB9
:10398000704770B504000D00002694F83C00012833
:1039900019D1200000F06FF9002805D0FF2084F82D
:1039A0003C000320060010E02068406830F0400032
:1039B00021684860206840682843216848602000EA
:1039C00000F071F901E0012006003000C0B270BDC6
:1039D00070B504000D00002694F83C00012822D1A7
:1039E000200000F048F9002805D0FF2084F83C00B2
:1039F0000320060019E02068406830F006002168C6
:103A0000486020684068284321684860200000F032
:103A10004AF92068406850F0100021684860022090
:103A200084F83C0001E0012006003000C0B270BD07
:103A300070B505000C0095F83C00022801D001206B
:103A40001CE003F04DFE060028688068C0070BD418
:103A500014F1010FF8D003F043FE801B844201D320
:103A6000002CF1D1032009E02868C06850F0010063
:103A70002968C860012085F83C00002070BD10B5A1
:103A8000040094F83C00012803D094F83C0003287B
:103A900003D1200000F01DF900E00120C0B210BDEC
:103AA00070B505000C0095F83C00042805D095F889
:103AB0003C00052801D001203DE003F011FE060086
:103AC0002868806880070BD414F1010FF8D003F048
:103AD00007FE801B844201D3002CF1D103202AE091
:103AE0002868806840070AD502202864280003F06F
:103AF00037FE2868C06850F004002968C860686A0A
:103B0000401E6862686A002801D1286A6862E86914
:103B100000280FD1E86A00280CD1686A296A884217
:103B200008D195F83C00042801D1012000E00320D1
:103B300085F83C00002070BD70B504000D00160033
:103B400020680068800301D501204CE0E06A00286D
:103B50000BD1E069002808D160698069002804D190
:103B6000206AB04201D201203DE0E06A002808D17D
:103B7000E069002805D160698069202801D1012011
:103B800031E094F83C00012803D094F83C0003286D
:103B900028D10FF2C100616988620FF2C900616922
:103BA000086360698069202803D10FF29900616978
:103BB000C8622068006850F48030216808603300D3
:103BC0002A00206810F16001606903F0F6FD00280A
:103BD00004D0FF2084F83C00012004E0200000F025
:103BE00078F800E00120C0B270BD10B5040094F870
:103BF0003C00042805D094F83C00052801D00120A1
:103C000012E02068006830F4803021680860606944
:103C100003F01FFE002804D0FF2084F83C000120A0
:103C200002E0200000F092F8C0B210BD020010685F
:103C3000006EC0F303630B6080B270470060014008
:103C40000001080038B50400656A280003F0C8FECA
:103C500031BD000038B50400656A280003F0C1FEDC
:103C600031BD000038B50400656A032028642800CF
:103C700003F076FD31BD38B504002068006850F0CF
:103C800000402168086003F02BFD05002068806873
:103C9000002806D403F024FD401BC928F6D30320D6
:103CA00000E0002032BD0168096821F0004102688F
:103CB0001160704710B4010000208AB20023092B64
:103CC00005D2D40700D5401C52085B1CF7E710BC96
:103CD000704738B504000025206A6062E06A002859
:103CE00006D12068406850F40040216848601DE01B
:103CF0002000FFF7C0FF002805D0FF2084F83C001B
:103D00000320050012E0E06A012806D1206800685F
:103D100050F480402168086005E020684168206B0D
:103D20000143206841602000FFF7BDFF2800C0B2BA
:103D3000002808D194F83C00012801D1042000E0BB
:103D4000052084F83C002800C0B232BD38B504001C
:103D5000E069012809D12068006E00900098206871
:103D6000406830F020002168486003F0B9FC05008D
:103D700020688068800409D503F0B2FC401BC92884
:103D8000F6D3FF2084F83C0003203CE0E06A0028E2
:103D90001CD02000FFF76FFF002804D0FF2084F81C
:103DA0003C0003202FE0E06A012806D1206800686B
:103DB00030F480402168086005E02068406830F4F5
:103DC000C040216848602000FFF76DFFE0690128CE
:103DD00005D12068406850F02000216848602068C4
:103DE000006E009000982068C06850F004002168C0
:103DF000C86094F83C00042801D1012000E00320B1
:103E000084F83C00002032BDA9B1B1FA81F24140F2
:103E10009040C2F1200261FA02F181EA000018BF6D
:103E200040F0010002F19D01C905020672F1004255
:103E300041EB1020704750B1B0FA80F29040C2F1CF
:103E40009D02D205010671F1004142EB102070473E
:103E5000C0F3C75181B1FF2906D0C110400721F03E
:103E6000E04101F16051704741020CBF40F4E001B4
:103E70006FF000410020704700F0004100020AD0BE
:103E8000B0FA80FC00FA0CF001F16051A1EB0C518A
:103E900001EBD02140057047B0B581EA030C0CF06E
:103EA000004C40F2FF7515EA11541DBF15EA135777
:103EB000AC42AF4239E0E41923EA455343F480139E
:103EC000C90241F0004141EA505EC7021100A7FB60
:103ED000020200284FF00000EEFB01204FF000012D
:103EE000E3FB072118BF42F00102401800214941BD
:103EF000E3FB0E01A4F580640F0302D2520040419F
:103F0000494154F101046CDD470872F1004250F15F
:103F1000000051EB0451A1F580115CBF41EA0C0196
:103F2000B0BD4CEA05510020B0BD05EA1357AC42C4
:103F300014BFAF4241E050EA410E1CBF52EA430EAB
:103F400002E061460020B0BD24423C441BD15FEA40
:103F5000070EF6D0090302BF01460020AEF1140E91
:103F6000B1FA81F7AEEB070401FA07FE0C37C7F18F
:103F7000200100FA07F7C8404EEA000E23EA455335
:103F800043F48013A2E733F00043B3FA83F704BF8E
:103F9000B2FA82FE77440B3FE41BB7F1200E2FBF2D
:103FA00002FA0EF3BB40C7F1200E22FA0EFE38BF14
:103FB00043EA0E03BA40641C82E750EA410E14BF84
:103FC00052EA430E6FF000014FF4001717EB430F56
:103FD0008ABF194617EB410FB5E74CEA055100209F
:103FE000B0BDD4F10104B4F120070FDAC4F1200709
:103FF000520828BF42F0010210FA07F501FA07F74C
:10400000E1BF2A43E0403843E1400FE0352C98DC23
:10401000C7F1200452EA400220FA07F218BF42F02A
:10402000010231FA07F0A1400A43002172F1004277
:1040300050F1000051EB0C01B0BD0268531C03604D
:104040001170704701F000428B1AA3F16051B1F575
:10405000801F0ADBB1F17F6F1FD242EAC102C100AB
:1040600071F1004142EB507070470B15C3F1090329
:10407000212B10D2890241EA905180020128494146
:1040800041F0004121FA03F0C3F12003994071F19E
:10409000004150417047100070476FF0000013EB73
:1040A000103F5CBF000E42EAC05070472DE9F04F50
:1040B0000FF2A41CA1B0DCE90089CDE900892A9D9A
:1040C000DFF8109C049100248DF843500D944FF0BC
:1040D000FF38824616461F460FE0B3462C461BF8B3
:1040E000011B0498D0470028049000F0A2800D988E
:1040F000401C641E0D90F2D176193078252808D125
:10410000002100220791089209910A920B910C92CA
:104110000DE06A464146304603F0D5FC050001D16A
:104120000D98A1E0D9D50125E6E741F0010116F887
:10413000010F2028F9D023280CD02B2804D02D28BB
:1041400005D0302809D076E041F00201EFE741F0D8
:104150000401ECE741F00801E9E741F01001E6E76E
:104160000F9209E00F98484505DA00EB800402EB56
:104170004402303A0F92761C3278A2F130000A28BD
:10418000F0D330782E2818BFCDF8388022D116F819
:10419000010F2A2807D138683860761C50F8042BA4
:1041A00038600E9216E02D280CBF761C00200022ED
:1041B0000E920AE040B90E9A4A4505DA02EB8204F3
:1041C00003EB4403303B0E93761C3378A3F13002AB
:1041D0000A2AEFD3ADF8401021A0317803F084FC17
:1041E00008B116F8010B8DF842009DF842006828CE
:1041F00004D1307868280AD1622105E06C2804BF18
:1042000030786C2803D171218DF84210761C12A8E9
:1042100006903A4616F8013B02A9504600F064F8B1
:1042200038B912AA02A9504600F0CAF900287FF551
:1042300064AF404618E02A2892D13A683A6052F8B2
:10424000040B3A6000280F9003D540420F9041F0D4
:104250000401761C95E7000000000000000000004B
:10426000686A6C747A4C000021B0BDE8F08F622857
:1042700020D0682811D06A2803D06C2827D0712854
:1042800025D10868C01D20F007000860D0E9002390
:1042900008300860194610467047002A0A680A600C
:1042A000106803D0121D0A6000B217E0121D0A60E8
:1042B00080B217E0002A0A680A60106803D0121D55
:1042C0000A6040B20AE0121D0A60C0B20AE0002A89
:1042D0000A680A60106803D0121D0A60C11770478F
:1042E000121D0A60002170477CB50D4611461C4620
:1042F0002E69B4F1250200F051811C3A00F086804D
:10430000121F022A40F282800E3A00F00B81521FE7
:104310005AD0093A7AD0921E16D0521E35D0521E6B
:10432000022A73D9121F30D0521F00F09A80521EF9
:104330004AD0521E00F0E480D21E00F00181921E8D
:1043400042D0D21E40D02FE195F83A406C2C09D0D3
:104350006869421C6A610A680A6052F8043B0A6094
:1043600033542BE10A680A6052F8043B0A60009358
:10437000002201924FF0FF332B636A46294600F07A
:104380009AF9002840F11A8105E195F83A000122D6
:10439000FFF76DFFC5E900010023994204DA68695F
:1043A000411C69612D220DE0288F810704D56869C1
:1043B000411C69612B2205E0C00722D56869411CB8
:1043C0006961202232541CE095F83A000022FFF780
:1043D0004EFFC5E9000195F83800010711D5D5E970
:1043E00000230020834208BF82420AD044F020000C
:1043F000782806D1686930213154401C421C6A611A
:104400003454214668693044E86087E00868C01D7C
:1044100020F007000860D0E9002308300860C5E9F3
:104420000023D5E90001C80F04D06869411C696107
:104430002D220DE0288F810704D56869411C696130
:104440002B2205E0C00704D56869411C6961202260
:10445000325468693044E8602146284600F03AFA50
:10446000ACE005F13A02507820B14FF0FF340FF67E
:10447000343074E01078622808D0682824D06A2884
:1044800012D06C282ED071280ED02BE00A680A605A
:1044900052F8040B0A6020B94FF0FF340FF61C30BD
:1044A0005DE0E96A017089E00A680A6052F8040B6D
:1044B0000A6020B94FF0FF340FF600304FE0EA6A8F
:1044C000D317C0E9002379E00A680A6052F8040BA8
:1044D0000A6020B94FF0FF340FF6E0203FE0E96AB0
:1044E00001806BE00A680A6052F8040B0A6020B988
:1044F0004FF0FF340FF6C42031E0E96A01605DE05F
:104500000A680A6052F8040B0A60002120F00002D9
:1045100021F0FF33C5E90023EE607821284600F042
:104520002DF94BE06C2285F83A200B680B6053F8AC
:10453000042B0B6052BB4FF0FF340FF6B4200EE09B
:1045400095F83A206C2AF0D00868086050F8044BBF
:104550000860EC603CB94FF0FF340FF6782003F0B0
:10456000CFFA201A76BD2E6B002E04D52046FDF71B
:104570008BFC044608E032460021204603F0E0FAB6
:10458000002814BF041B3446AC6117E0294600F034
:1045900092F8002812D54FF0FF3076BD6869411CB3
:1045A00069612522325409E06969481C6861252245
:1045B0007254210002D0431C6B613454002076BD3C
:1045C0002DE9F0410E4605469046726B7069316ADE
:1045D000B46A121AB069521A716A121AF069521A40
:1045E000121A96F83800141B41070DD4002C0BDD6D
:1045F0002746B0682021A8470028B06057D0F06A4D
:10460000401C7F1EF062F4D1736942463146284651
:1046100000F0B0FC00284AD1376A002F0ADDB068EC
:104620003021A8470028B06041D0F06A401C7F1EAE
:10463000F062F4D1B369F2683146284600F09AFC82
:10464000A8BB776A002F09DDB0683021A847B060A9
:1046500068B3F06A401C7F1EF062F5D1F068B16962
:10466000F36942183146284600F084FCF8B9B76A6D
:10467000002F09DDB0683021A847B060B8B1F06AFA
:10468000401C7F1EF062F5D196F8380041070BD52B
:10469000002C09DDB0682021A847B06038B1F06A6D
:1046A000401C641EF062F5D10020BDE8F0814FF09F
:1046B000FF30BDE8F0812DE9F8470D46A3B02F6B20
:1046C000002F0646904648BF6FF000470FF63C1497
:1046D00003F062FAD4E90023696B4018CDE90123A5
:1046E000812828BF4FF0FF3042D20024002F33DD55
:1046F000D8F8001001AA684603F0EDF98146B9F137
:10470000000F38D4D8F8000010B9B9F1010932D43B
:104710004F4521DB6869484481280AD30021696339
:1047200003AA29463046FFF74BFF040014D40020AB
:10473000686103ABD5F814A04A46694603EB0A004A
:10474000FEF780FBCA44C5F814A058F8040B0028F3
:1047500018BFA7EB0907C9D14CB903AA29463046AF
:10476000FFF72EFF044614B90020686168632046F5
:1047700024B0BDE8F0874FF0FF34F8E72DE9FC479F
:1047800007468C463E69BCF16F0F08BF082405D070
:104790004CF02000782814BF0A2410243C25D7E9C7
:1047A0000023BCF1640F18BFBCF1690F9046994615
:1047B00006D100218B4203DAD8F1000869EB4909E0
:1047C0004FF0000AD14508BFD0451FD1386BE8B97A
:1047D000082C4BD197F83800010747D530203B25EE
:1047E00086F83B0042E000280ED597F8380000F02C
:1047F0001400102808D17B6B7969386A5B1A1B1A80
:104800009A1A002AC8BF3A62BDE8F3878DF800C043
:10481000404649462246E31703F0C4F93032D0B28D
:104820006D1E3A28019504DB9DF80000A0F15101AE
:104830008A187255404649462246E31703F0B2F9FA
:1048400089468046D14508BFD04503D0F868711924
:104850008842DDD3082C09D197F83800010705D527
:10486000705D302802D06D1E30207055C5F13C02BD
:10487000BA617119F960386B8242B4DA821A3A620D
:104880004FF6EF70398F01403987BDE8F3872DE986
:10489000D04306460F4614464FF00008DFF8389420
:1048A00012E0E00707D542464B4630463946FFF74F
:1048B000F3FA06460F464046494642464B46FFF746
:1048C000EBFA641080468946002CEAD1304639461E
:1048D000BDE8D0832DE9F34F054641F020048DB0AB
:1048E000D5E90089612C02AE09D0286B002848BFA9
:1048F000062003D408BF672C01D101202863D5E925
:10490000002358004015401C0ED119030CD0032081
:10491000A8619DF8381061391A2902D20FF2F461AA
:1049200011E00FF2F4610EE059004915491C0FD156
:1049300018030DD10320A8619DF8381061391A2998
:1049400014D30FF2DC61E8680322FEF77BFAD3E1AF
:10495000194621F00043B3F5801F10460DD2002701
:10496000BB4208BFBA42019703D111E00FF2AC611C
:10497000E9E701AA03F02EFA0AE0DFF8607307EB1B
:104980001352DFF85C3301921940DFF858331943B2
:10499000C5E90001612C0ED1E86830210170821C4C
:1049A000EA609DF8381061290CBF782158214170C8
:1049B0006869801C6861D5E900AB2BF000430020DA
:1049C0002AF00002834204BF8242002300F05B8190
:1049D000612C40F0AA80286B002847BF212100915C
:1049E000401C0090009F7F1C404649460022002347
:1049F00003F028FAD94601998DF8082038BF89F0CC
:104A00000049091F002FD04601910DF1090040F324
:104A10004981B349DFF8D0B20C9106464046494679
:104A20000022002303F026FA80F03B814800400D6D
:104A300000F11C0211D0002A0FDD40F2FF7082420B
:104A400005DB09F0004040EA0B01002013E00C9860
:104A5000014041EA025140460DE029F000430020A8
:104A600028F00002834208BF82420FBF40461C224A
:104A7000404603F017FA8046894603F0B1FAFF1F5B
:104A8000002F044609DD01F09FFC02460B4640461C
:104A9000494603F0C3FA80468946F01D072104E029
:104AA00004F00F0200F8012D2411002C01DD491E35
:104AB000F6D5491E5CBF002200F8012DF9D5ECE0C7
:104AC0000020194602AA0A4400E05B1E12F80149C0
:104AD000491E8442F9D00F2804D10DF10900425C2F
:104AE000521C4254002904D50198001D02AE5B1CE3
:104AF0000190591E12D49DF838007218A0F13A079F
:104B0000147804F130085FFA88F43A2CA8BFB8444E
:104B1000491E02F80189F3D58DF83800286B00286A
:104B200040F1B080591E2963ACE04046494600225E
:104B3000002303F087F9019938BF89F0004947F253
:104B400097504143694A91FBF2F20192D2F1070278
:104B500004DD40464946FFF79AFE0AE05242002033
:104B60006349FFF794FE02460B464046494601F072
:104B70003DFC8046662C286BDFF878B106BF019FAC
:104B80000A3706273F18142FC8BF142730208DF886
:104B9000080089460DF1090000E03046002F34DDA1
:104BA00006464046494603F0ABFA01460A4606F17E
:104BB000080304200A26B2FBF6F606EB860EA2EBEB
:104BC0004E02303203F8012C0A22B6FBF2F202EB5D
:104BD000820EA6EB4E063036401E03F8026DE9D178
:104BE000083F002F03F10806D7DD084603F09CFAC2
:104BF00002460B464046494603F010FA00225B4647
:104C0000FFF74AF980468946CBE70DF10901401AC2
:104C10000DF1090604E00199491E401E0191761C20
:104C200031783029F7D0662C02D10199491C03E074
:104C3000652C0CBF012100212B6BCB189842B8BF0B
:104C4000431E002B1ED4834204DAF05C3528A8BF33
:104C5000392000DA30201946721E02EB010800E00C
:104C60005B1E18F80199491E8145F9D0392802D1F7
:104C7000705C401C7054002904D50198401C1646F5
:104C80005B1C0190019800B200901BB29DF8381097
:104C90003246284600F034F82EE0C61D002F3FF7BC
:104CA000BDAE30460DF10901401A00990346884215
:104CB000C8BF0B46002B0DF109063FF52FAF83420D
:104CC000BFF6FEAE0DF10900C15C07297FF7F8AE13
:104CD0000F20F6E6CBCCCC0C0000244002FCFFFFFA
:104CE000FFFF0F800000E03F0000F07FA086010082
:104CF0000000F03F84D797410FB0BDE8F08F00006F
:104D00002DE9F84783B006468A461746984602F0D2
:104D1000E4FEB8F1000F406A356B90F8009002DCB9
:104D20004FF00108BFA74AF02000BDF930406628C7
:104D300008BF641C15D0672840F0848014F1040F6C
:104D4000C0F28680AC4280F2838096F83800641C02
:104D5000010702D4A845B8BF454620B22D1A48BF66
:104D600000250FFA84FAF068B169BAF1000F25DC6A
:104D70004A1C30234354002D03DC96F83800010709
:104D800003D5F06800F80290521C15EB0A0FB8BF6B
:104D90006C4220B2441941424445B8BFA046B261BA
:104DA00071620FFA88F5F561F068B3692A463946F1
:104DB0001844FEF747F8641BB462C4E022B2904581
:104DC000084417DA42463946FEF73CF8B0694044D9
:104DD000B061AAEB0801002D716203DC96F838106F
:104DE0000A0705D5F16801F80090F069401CF061F0
:104DF000B562A8E03946FEF725F8B069002D5044A9
:104E0000A8EB040803DC96F838100A0703D5F1680C
:104E100001F80090401CB0610FFA88F08542F368F9
:104E2000B069B8BFA8460FFA88F207EB0A01184428
:104E3000FEF708F8B1690FFA88F00144B161281A49
:104E4000706280E0BAF1610F14D14FF0700A16E081
:104E5000A84504DA96F838100A0758BF45466D1E73
:104E600048BF0025BAF1670F14BF4FF0450A4FF055
:104E7000650A04E0BAF1410F08BF4FF0500AB1696A
:104E8000F368481CB061002D17F8012B5A5403DC5D
:104E900096F838100A071BD5F168431CB36101F876
:104EA0000090002D14DDA8F101080FFA88F03946B2
:104EB0008542F768B8BFA8460FFA88F2F818FDF7E0
:104EC000C1FFB0690FFA88F108446D1AB0617562CC
:104ED000F068B1690844002C80F800A003D42B22AC
:104EE0004270811C03E02D2141706442811C00202E
:104EF0006A460AE023460A2493FBF4F404EB840593
:104F0000A3EB450302F8013B401C24B2002CF1DC6A
:104F1000012806DC4AF02002652A04BF302201F88D
:104F2000012B48B9302001F8010B07E0401E1DF8A5
:104F30000030303301F8013B0028F7DCF268B0693B
:104F40001044091AF16196F8380000F01400102896
:104F50000DD17269B169706A8A18F1698218B06AF4
:104F60008A188218706B8242BCBF821A326204B007
:104F7000BDE8F087F8B505460E4617461C460020EA
:104F800074B117F8011BB068A847B06030B1F06A7F
:104F9000401CF0620020641EF3D1F2BD4FF0FF30E0
:104FA000F2BD00007072696E74665F733A20256E00
:104FB00020646973616C6C6F776564007072696EF0
:104FC00074663A2062616420256E20617267756D97
:104FD000656E74007072696E74665F733A20626108
:104FE0006420257320617267756D656E7400000022
:104FF0007072696E74665F733A2062616420256C1A
:105000007320617267756D656E74000000000000AA
:10501000000000006E616E004E414E00696E660039
:10502000494E4600300070B505000C001600002DFA
:1050300001D1022012E0D5F8B402002802D00020ED
:10504000C5F8B402002C01D0C5F8B042012085F8A3
:105050009C022E70280003F009F9002070BD0200A8
:105060000023002903D0C2F8B412002000E002207F
:10507000C0B2704710B50400200003F037F90020DB
:1050800010BD01000020704770B504000D0002261D
:10509000D4F8B40200280AD02900C9B22000D4F8FC
:1050A000B42212689047002801D100200600300089
:1050B000C0B270BD38B504000D002900C9B220008F
:1050C000D4F8B42252689047002032BD38B50400AD
:1050D0000D00290014F52A7003F0DFFD0120C4F84B
:1050E0009402B4F8AE02C4F8980294F8A80210F042
:1050F0001F00002803D002280DD006D311E014F5BC
:105100002A71200003F0F2F912E014F52A71200050
:1051100003F03FFA0CE014F52A71200003F070FA56
:1051200006E094F8A81211F08001200003F01EF9A7
:10513000002032BDF8B504000F0015003800C0B2E1
:10514000002839D114F5AA700600D4F89402032877
:1051500026D13069F168884210D2F1683069091AA5
:10516000F160F0683169884201D2F26800E032698A
:1051700092B22900200003F01CFE30E0D4F8B40203
:105180000069002808D094F89C02032804D120006C
:10519000D4F8B41209698847200003F017FE1EE016
:1051A000D4F8940205281AD10020C4F894020021F2
:1051B000200003F0DBF812E0D4F8B4028069002884
:1051C0000BD094F89C02032807D13900C9B2200003
:1051D000D4F8B4229269904701E0022000E0002058
:1051E000F2BDF8B504000D0016002800C0B200287A
:1051F00068D114F114000700D4F8940202284AD1AF
:105200003869F968884210D2F9683869091AF96072
:10521000FA6892B23100200003F0A6FD00230022BC
:105220000021200003F013F941E0B8683969B0FBB0
:10523000F1F201FB1200002817D1B86839698842E1
:1052400013D3B868D4F8981288420ED200220021F5
:10525000200003F089FD0020C4F8980200230022FA
:105260000021200003F0F3F821E0D4F8B402C06874
:10527000002808D094F89C02032804D12000D4F818
:10528000B412C96888478021200003F06FF820001D
:1052900003F0A9FD0BE0D4F89402042803D0D4F85D
:1052A0009402002803D18021200003F05FF894F8D5
:1052B000A002012819D12000FFF7E3FE002084F8A6
:1052C000A00212E0D4F8B402406900280BD094F890
:1052D0009C02032807D12900C9B22000D4F8B422C7
:1052E0005269904701E0022000E00020F2BD10B5B5
:1052F0000400402300220021200003F006F80120D2
:10530000C4F858014020C4F86401402300228021E1
:10531000200002F0FAFF0120A0614020606201201D
:1053200084F89C020020C4F89402002060600020F1
:10533000C4F8A402D4F8B802002806D06168C9B243
:105340002000D4F8B42252689047002010BD02001B
:10535000117400207047010091F89C0281F89D02B1
:10536000042081F89C0200207047010091F89C0203
:10537000042803D191F89D0281F89C020020704717
:1053800010B5040094F89C02032809D1D4F8B402A3
:10539000C069002804D02000D4F8B412C969884735
:1053A000002010BD10B5AAB003F02AFD00F097F858
:1053B00000F0BAFB00F09CFB00F0E1F800F02DF9E2
:1053C00000F087F900F0DAF900F03CFA00F07EFA1C
:1053D00000F0C0FA00F022FB00F063FB00F046FB97
:1053E00000F0F5FB00F013FC00F031FC00F04EFC87
:1053F000DFF87C0901F01FFB23A8DFF878191C22D5
:10540000FDF730FD002123A803F01CFDDFF868192B
:1054100008601CA8DFF864191C22FDF723FD002199
:105420001CA803F00FFDDFF85819086015A8DFF875
:1054300054191C22FDF716FD002115A803F002FDEA
:10544000DFF8441908600EA8DFF840191C22FDF7A8
:1054500009FD00210EA803F0F5FCDFF834190860FF
:1054600007A8DFF830191C22FDF7FCFC002107A873
:1054700003F0E8FCDFF8201908606846DFF81C1923
:105480001C22FDF7EFFC0021684603F0DBFCDFF88F
:1054900010190860DFF80C494FF40051200001F0AA
:1054A00077FA642002F048F94FF40051200001F02F
:1054B0006FFA642002F040F94FF40051200001F02F
:1054C00067FA642002F038F94FF40051200001F02F
:1054D0005FFA642002F030F903F0AFFCFEE780B51C
:1054E0009AB005A82821FEF72BF968461421FEF78B
:1054F00027F90FA82C21FEF723F9012005905FF46E
:1055000080300690002107910121099102210C9120
:105510000D905FF4E0100E9005A803F0C3FC002886
:1055200001D000F099FC0F20009002200190002093
:1055300002904FF48060039000200490022168469E
:1055400003F0F9FF002801D000F086FC5FF4023080
:105550000F90002019905FF0284017900FA804F0DA
:1055600055F9002801D000F077FC4FF4007004F0EA
:1055700059FA4FF4006004F055FA1BB000BD10B5A5
:105580008AB0DFF82448DFF8240820600920606032
:105590000020A0605FF08070E0605FF44020206138
:1055A0005FF480106061002020760020607600208B
:1055B000A0760120E0760020207700206077200090
:1055C000FDF7B0FC002801D000F046FC002005905B
:1055D00000200690012007900020029000200390F8
:1055E000002004900120089069462000FDF750FD3E
:1055F000002801D000F030FC2000FDF7CEFD00288F
:1056000001D000F029FC02212000FDF73CFF00281A
:1056100001D000F021FC0AB010BD1FB56846102172
:10562000FEF78EF8DFF88847DFF888072060002053
:1056300060600020A0600020E06000202061002069
:10564000E0622000FEF78EF8002801D000F004FC94
:1056500000212000FEF795F9002801D000F0FCFBA6
:1056600000212000FEF76DF9002801D000F0F4FBC6
:105670000122DFF844172000FEF739F9002801D095
:1056800000F0EAFB5FF080600090002001900020B5
:105690000290002003906A4600212000FEF7BCF82B
:1056A000002801D000F0D8FB0022DFF810172000FE
:1056B000FEF7DFF8002801D000F0CEFB0022DFF873
:1056C00000172000FEF7D5F8002801D000F0C4FB39
:1056D0001FBD38B584B068461021FEF731F8DFF8F9
:1056E000E446DFF8E4062060002060600020A0604F
:1056F0000020E060002020610020E0622000FEF732
:1057000031F8002801D000F0A7FB00212000FEF7AF
:1057100038F9002801D000F09FFB00212000FEF79F
:1057200010F9002801D000F097FBDFF89456012211
:1057300029002000FEF7DBF8002801D000F08CFBE8
:105740005FF0806000905FF4E00001900020029024
:10575000002003906A4600212000FEF75DF8002833
:1057600001D000F079FB002229002000FEF781F82B
:10577000002801D000F070FB05B030BD18B58DB029
:1057800009A81021FDF7DCFFDFF84006D0E900236F
:10579000CDE9002302A81C21FDF7D2FFDFF8304637
:1057A0005FF080402060002060600020A060DFF893
:1057B0002406E060002020610020A061200001F0AC
:1057C00009F9002801D000F047FB4FF48050099000
:1057D00009A9200001F09CFB002801D000F03CFB4F
:1057E000200001F03DF9002801D000F035FB002039
:1057F0000090002001906946200004F029F900285B
:1058000001D000F029FB60200290002003900220CC
:10581000049004200690082202A9200001F0F0FA6A
:10582000002801D000F018FB0C2202A9200001F092
:10583000E7FA002801D000F00FFB200001F0E5FEA0
:105840000EB010BD18B58BB002A82421FDF778FF6B
:10585000DFF88405D0E90023CDE90023DFF87C459B
:10586000DFF87C052060002060600020A0604FF41D
:10587000FA40E060002020610020A0610120029039
:105880000020039001200490002005900020069045
:1058900000200790012008900020099000200A9025
:1058A00002A9200001F076F9002801D000F0D4FA16
:1058B00000200090002001906946200004F0C8F804
:1058C000002801D000F0C8FA0CB010BD18B58BB09C
:1058D00002A82421FDF734FFDFF80805D0E90023F2
:1058E000CDE90023DFF80045DFF800052060012046
:1058F00060600020A0604FF6FF70E0600020206133
:105900000020A0610120029000200390012004905B
:1059100000200590052006900020079001200890A7
:105920000020099005200A9002A9200001F032F918
:10593000002801D000F090FA002000900020019093
:105940006946200004F084F8002801D000F084FAB1
:105950000CB010BD18B58DB009A81021FDF7F0FEF0
:10596000DFF88C04D0E90023CDE9002302A81C2134
:10597000FDF7E6FEDFF87C44DFF87C0420600020C1
:1059800060600020A060DFF84C04E060002020612F
:105990000020A061200001F01DF8002801D000F0D7
:1059A0005BFA4FF48050099009A9200001F0B0FA89
:1059B000002801D000F050FA200001F051F8002832
:1059C00001D000F049FA00200090002001906946C3
:1059D000200004F03DF8002801D000F03DFA6020DE
:1059E00002900020039002200490042006900022E0
:1059F00002A9200001F004FA002801D000F02CFADE
:105A0000042202A9200001F0FBF9002801D000F0D7
:105A100023FA200001F0F9FD0EB010BD1CB5DFF82F
:105A2000DC03D0E90023CDE90023D14CDFF8D0031B
:105A3000206040F2671060600020A0600A20E060F3
:105A40000020A061200000F0C5FF002801D000F078
:105A500003FA00200090002001906946200003F026
:105A6000F7FF002801D000F0F7F913BD80B5DFF88B
:105A70009403DFF89413016040F2CF2141600021CC
:105A800081604FF6DC71C16000210161002141613C
:105A90000021816100F09EFF002801D000F0DCF9B8
:105AA00001BD1CB5D948D0E90023CDE90023D84C6D
:105AB000D848206040F2CF2060600020A0604FF600
:105AC000DC70E0600020A061200000F083FF00286F
:105AD00001D000F0C1F9002000900020019069463B
