:020000040800F2
:10000000F0310020F54E00088D4E00088F4E00089C
:10001000914E0008934E0008954E00080000000025
:100020000000000000000000000000009D12000819
:10003000974E00080000000045120008A10C0008BF
:10004000254F0008294F00082D4F0008314F0008A8
:10005000354F0008394F00083D4F0008414F000858
:10006000454F0008494F00084D4F0008514F000808
:10007000554F0008594F00085D4F0008614F0008B8
:10008000654F0008694F00086D4F0008714F000868
:10009000754F0008794F00087D4F0008814F000818
:1000A000854F0008894F00088D4F0008914F0008C8
:1000B000954F0008994F00089D4F0008A14F000878
:1000C000A54F0008A94F0008AD4F0008B14F000828
:1000D000B54F0008B94F0008BD4F0008C14F0008D8
:1000E000C54F0008C94F0008CD4F0008D14F000888
:1000F000D54F0008D94F00080000000000000000A4
:100100000000000000000000DD4F0008E14F000883
:100110000000000000000000994E0008E54F0008B4
:10012000E94F0008ED4F0008F14F0008F54F0008B7
:10013000F94F0008FD4F0008015000080550000865
:10014000095000080000000000000000000000004E
:10015000000000000000000000000000000000009F
:1001600000000000000000000D5000089F4E000835
:1001700011500008000000001550000800000000A9
:100180000000000019500008F0B585B050260B9D06
:1001900025B986F3118800F03DFAFEE70C9C24B9DE
:1001A00086F3118800F036FAFEE75C270097009F7F
:1001B0005C2F04D086F3118800F02CFAFEE70A9E2B
:1001C00025630027022584F859500397029404AD53
:1001D0000195009600F034F8204600F077F8049876
:1001E00005B0F0BD2DE9F8430646174684B08846B1
:1001F0009946B80000F076FB05001CD05C2000F0AA
:1002000071FB040014D00D990C982563002284F82A
:10021000592003920191009002944B463A46414680
:10022000304600F00DF8204600F050F8012004E0C0
:10023000284600F0E0FB4FF0FF3005B0BDE8F0834A
:100240002DE9F0470A9D81460C461746286B9846D3
:10025000A522B90000F020FC296B01EB8702171FD3
:10026000FF08FF000021625C6B1883F83420605C9B
:1002700010B1491C1029F6D3089E002085F84300D0
:10028000372E099C88BF372605F14C0AEE62CAF862
:100290000400CAF80060281D00F028FC05F11800D1
:1002A00000F024FC2D61C6F13806AE616D620020BD
:1002B000CAF808008AF80C0042464946384600F061
:1002C00051FC286004B12560BDE8F0872DE9F041BC
:1002D00000F06BF8DFF86855DFF86885E86C401CC3
:1002E000E8641426A86A28BBAC62E86C012829D10E
:1002F000002706FB07F0404400F0EBFB7F1C382F83
:10030000F7D305F1740000F0E4FB05F188073846E7
:1003100000F0DFFB284600F0DCFB05F1140000F0E4
:10032000D8FB05F1380000F0D4FB05F17400E86259
:100330002F6307E0A86D28B9E06AA96ACA6A9042EB
:1003400028BFAC62A86E401CA8666064E06A696D54
:10035000814238BF68654643211D08EB060000F066
:10036000C8FB00F08CFCA86D30B100F0A0F903D2FE
:1003700000F077FA00F04EF9BDE8F08180B588B161
:10038000DFF8BC24116F21B100F02BF900F042F925
:10039000FEE7116F491C1167002100F06DFA00F0B3
:1003A00044F808B900F031F901BD044600F04EBC34
:1003B00080B586B000210591049103AA04A905A87F
:1003C00000F089FD059804990290002200920191A5
:1003D0000023039A0FF204510FF25D30FFF7D4FEB1
:1003E00098B100F08FFD5021012810D181F31188C0
:1003F00000F010F9DFF8D0044FF0FF31C1660122A0
:1004000082650021016500F0CFFB07B000BD10F14F
:10041000010FFAD181F3118800F0FCF8FEE7DFF854
:10042000A804016F491C0167704770B5DFF81064BC
:10043000306F0024002520B900F042F800F0EAF8FF
:10044000FEE700F003FC306F401E3067306F00287D
:1004500035D1F06CD0B932E0F068C46800F034F8FF
:1004600000F0BAF9E06A716DDFF86024814238BFAC
:10047000706514235843211D104400F03AFBE06AD4
:10048000B16ACA6A904224BF0121316630680028EF
:10049000E2D10CB100F087F9F46D3CB100F01CF82A
:1004A00008B101203066641EF8D1F565306E30B1B8
:1004B000DFF81C144FF08050012500F0AAF8C9E1C4
:1004C000502181F31188704704F1180000F037BB08
:1004D000DFF8F403006D70472DE9F843DFF860732F
:1004E000386F002600284DD13C6D641C3C6510D14E
:1004F000F86A006820B1FFF7E3FF00F08BF8FEE731
:10050000F86A396BF9623863786E401C786600F0DF
:100510004AF9F86EDFF8B49384424FF0140824D3FC
:1005200019E0281D00F00BFBA86A18B105F11800AE
:1005300000F005FBE86A796D814238BF786508FBF9
:1005400000F0291D484400F0D4FAE86AB96ACA6A82
:10055000904228BF0126F86A006880B1F86AC16835
:10056000CD6868688442DCD2F866B86AC06A08FB65
:1005700000F059F80010022907D3012605E04FF0DA
:10058000FF30F1E7F86D401CF865386E00B10126C8
:1005900064E110B5DFF8A822106F10B101211166D7
:1005A00010BD1066516DDFF8243300E0491E14249D
:1005B0004C43185930B90029F8D100F012F800F076
:1005C00029F8FEE7181900F1080443685B684360E6
:1005D000A34204BF5B6843604068C368936251658F
:1005E00010BD502080F31188704710B50C4620B91B
:1005F000FFF7F7FF00F00EF8FEE700F027F800F035
:1006000085FA2046BDE8104009E0DFF8C4124FF03B
:1006100080500860BFF34F8FBFF36F8F7047012189
:100620002AE138B50D46144620B9FFF7DAFFFFF787
:10063000F1FFFEE700F00AF800F05BFA0CB14FF0B2
:10064000FF3521462846BDE8344015E1DFF8782221
:10065000936A03F11801704738B5C068C46824B9BB
:10066000FFF7BFFFFFF7D6FFFEE7FFF72DFFDFF82D
:100670005852286F40B900F0AFF800F012F838BFB8
:100680006A6500F0F4F802E004F11801284600F071
:1006900030FA00F00CF802D20120286632BD0020AA
:1006A00032BDE26A686DDFF8243290427047A86A72
:1006B000C16AE06A81427047DFF80C124A6E02603C
:1006C000096D41607047F8B504460D46502024B9C5
:1006D00080F31188FFF79EFFFEE725B980F31188AC
:1006E000FFF798FFFEE700F0B1FADFF8DC01016DDB
:1006F00062682E688B1A16F1010F0ED0476ED4F87F
:1007000000C0674501D091420BD2B34207D2F31A21
:100710002B60416E2160006D6060002402E00020CB
:100720002860012400F0ABFA2046F2BDDFF89811F2
:10073000012008667047000070B5424CDFF8885110
:1007400011E000F083FA286AC668301D00F0F7F95E
:10075000E86C401EE864686B401E686300F08FFA26
:10076000304600F009F8686B0028EAD121680229B8
:10077000F9D3FFF74AFFF6E710B5044694F859009D
:1007800040B9206B00F037F92046BDE8104000F07A
:1007900032B910BD0128F7D00228FAD0FFF721FFA7
:1007A000FFF738FFFEE72649C86A006810B94FF026
:1007B000FF3203E0C86AC268D0684268CA66704700
:1007C000DFF80411886D08B901207047086F08B977
:1007D0000220704700207047201D00F0B0B938B5E6
:1007E0000446002144B3164DA86A5022844204D026
:1007F00082F31188FFF70EFFFEE7206D20B982F328
:100800001188FFF707FFFEE7E26AE36C401E9A4299
:10081000206511D080B9FFF7DFFFE06CDFF8AC3066
:10082000E062C0F13800A061E26A686D904238BFB2
:100830006A6500F009F80121084632BD0000000099
:10084000CC2C00207415002014204243211D981840
:1008500000F04FB900F013FA284670BD3046BDE8ED
:10086000F2831B4A4FF08051116070470000142042
:100870004243211D98187047F8B5134D2F6D0C4653
:10088000A96A0646081D00F05AF916F1010F05D1B4
:1008900024B1A86A011D05F138001BE0A86AF61909
:1008A0004660BE42A86A05D2011D286BBDE8F4402F
:1008B00000F02CB9011DE86A00F028F9E86E8642C4
:1008C00038BFEE66F1BD0000CC2C0020741500206E
:1008D00004ED00E0BDE8F44000F00BB949444C459C
:1008E000000000002DE9F8430446FFF798FD694F2A
:1008F000B8684FF00009002508BB07F1180307F19D
:10090000180113F0070F4FF440600A4605D0CA1DC6
:10091000D208D200C2F54060081880180838C00814
:10092000C0003A607D60B86045600560831A53601E
:10093000106050683861F8604FF0004078614FF007
:1009400050087869044233D194B3083414F0070F87
:100950001FBF04F1080004F00704041B14F0070F84
:1009600002D000F041F8FEE714B3F868A0421FD3AC
:100970003E6839467068A04223D2306800281CBF08
:1009800031460646F6D11CE0301D0251746008461F
:1009900000F05BF87168F8683A69401AF8609042B4
:1009A00038BF3861786901437160356009F0070527
:1009B000FFF73BFD15B100F017F8FEE74846BDE82C
:1009C000F283B8688642F3D00A683068086002F1A2
:1009D00008097268121B112ADCD3311911F00700C3
:1009E000D2D000F001F8FEE788F31188BFF34F8FF3
:1009F000BFF36F8F7047002800D1704738B5A0F162
:100A00000804244D61686A695023114202D100F044
:100A100015F8FEE7206810B100F010F8FEE79143EA
:100A20006160FFF7FCFCE96860684118E9602046F6
:100A300000F00BF8BDE83140FFF7F7BC83F31188F5
:100A4000BFF34F8FBFF36F8F704730B511490A4620
:100A500000E01A4613688342FBD35368D4188442DB
:100A600003D14068C3185360104643681468C51822
:100A7000A54208D189688C4204D06168CB184360D4
:100A8000246800E00C460460824218BF106030BD4C
:100A9000000000008C01002062F30F2262F31F426D
:100AA00000B500BF130096469446103928BFA0E851
:100AB0000C50FAD85FEA417C28BF0CC048BF40F810
:100AC000042BC90728BF20F8022B48BF00F8012BD0
:100AD00000BD4FF0FF3200F1080182604160C1604B
:100AE00000F10802026100210160704700210161EC
:100AF000704710B542684A6093688B609468616083
:100B0000916008610168491C016010BD30B50A6838
:100B100012F1010F08BF036907D000F1080300E0DC
:100B200023465C682568AA42FAD25A684A609160F6
:100B30008B60596008610168491C016030BD4368E1
:100B4000016982689A60836842685A604A68824292
:100B500004BF83684B60002202610868401E086081
:100B600008687047490810B54900A0F120034FF00C
:100B7000807499611A60DC616FF002020FF20D015E
:100B8000596140F8242D203810BD00005B494A68A7
:100B9000502012F1010F80F31188BFF34F8FBFF384
:100BA0006F8F00D0FEE7FEE77CB5554A554B1068C5
:100BB0005021984202D100F0B3F8FEE71068524B82
:100BC000984202D100F0ACF8FEE7504B1C7801943B
:100BD000FF251D7007251E78484C8DF800609DF894
:100BE0000000A56000F05000207006E0401EA060EC
:100BF0009DF8000040008DF80000A0689DF80050AE
:100C00002E06F3D4C0F10705042D02D000F088F8B9
:100C1000FEE7000200F4E060A06001981870116A1D
:100C200041F470011162106A40F07040106200F0EF
:100C30007FF80020606000F04FFB3548016841F00C
:100C40004041016000F038FB002076BD502080F369
:100C50001188BFF34F8FBFF36F8F28494A68521C2A
:100C6000012A4A600AD12B490A68130606D080F38C
:100C70001188BFF34F8FBFF36F8FFEE770471F4997
:100C8000486838B9502080F31188BFF34F8FBFF305
:100C90006F8FFEE7401E486008BF80F311887047E1
:100CA00080B5502080F31188BFF34F8FBFF36F8F53
:100CB000FFF712FC18B117494FF08050086000226E
:100CC00082F3118801BD000010B5EFF305805021BB
:100CD00010280A4A07D3104B185C1478A04202D29D
:100CE00000F01EF8FEE790680C4A136803F4E06316
:100CF000984202D200F014F8FEE710BD0000002078
:100D000000ED00E071C20F4170C20F4100E400E04D
:100D100034EF00E004ED00E0F0E300E00CED00E073
:100D200081F31188BFF34F8FBFF36F8F70470000BF
:100D30000748084B0021016081604FF47A721968FE
:100D4000B1FBF2F2521E426007210160704700BF02
:100D500010E000E018000020EFF30580002804BF39
:100D6000EFF31080002807D1DFF85C110868022833
:100D700003D1EFF3118000B182E0086810B90122BD
:100D80000A6070474FF0FF307047000080B500F0F8
:100D90009EF804BFEFF31080002807D1DFF8281178
:100DA0000868022803D1EFF3118000B109E0086858
:100DB000012805D102220A60FFF7FAFA002002BDDD
:100DC00002E06FF0050002BD4FF0FF3002BDF0B54C
:100DD00085B000230493EFF30583002B04BFEFF3EA
:100DE0001083002B49D1DFF8E0301C68022C03D1BE
:100DF000EFF31183002B40D103003ED00023802568
:100E000018268DF80C3003AC5AB3136803B11C4696
:100E100093691BB11E0004D0392E02D21379DF076B
:100E200001D500202AE0536903B19D08D2F80CC017
:100E3000976887B1BCF15C0F1FD31269002A18BFF5
:100E4000002B1AD001920B46029700962A462146A3
:100E5000FFF79AF910E0BCF1000F04BF1269002AF5
:100E60000BD104AB019300960B46AAB22146FFF7C3
:100E7000B9F9012801D000200490049805B0F0BD14
:100E80006FF00500704710B500F015F804BFEFF3E0
:100E90001081002905D100F012F805D1EFF311817E
:100EA00011B16FF0050403E0002408B1FFF766FA02
:100EB000204610BD0025EFF3058100297047024947
:100EC0000A68022A70470000E82D00200446EFF36C
:100ED000058000287047094B036003F15C0008603F
:100EE000802111607047064B036003F15C000860CD
:100EF0004FF48071116070470000000060230020F3
:100F0000D419002010B586B000F068F9DFF81C4352
:100F1000A068D0B100210591049103AA04A905A8F5
:100F2000FFF7E1FF059804990290022200920191D7
:100F30000023039A0FF2FC210FF27100FFF724F94E
:100F4000E06010B1012006B010BD00F03EF9FEE7F0
:100F500085F31188BFF34F8FBFF36F8F7047F8B5DC
:100F6000044684B01E46002014B900F02EF9FEE7B6
:100F7000DFF8B872BD68BDB10629009101920294F4
:100F80000CDAFFF71DFC0228B86807BF0A9A002395
:100F900000230022694600F02EFA05E000233246C5
:100FA0006946284600F0BFFA05B0F0BD80B59F49FC
:100FB0000A68106800281DBF0021D0680068012160
:100FC00000F003F800F0A2F8F1E7FEB506460C4683
:100FD000FFF725FA01A800F042F80546019800281D
:100FE0003AD1924F24BBB54227D3FFF71EFA386897
:100FF000C168CC68201DFFF7A2FDE069012813D16C
:10100000A16933462A468919204600F064F858B190
:10101000002000900023324600212046FFF79FFF6A
:1010200010B900F0D2F8FEE7616A20468847F7BDA4
:10103000786801684C1EA441E40FB8682246711B11
:1010400000F0F8FBFFF7F1F940B979494FF0805013
:101050000860FFF77FFFF7BDFFF7E7F9F7BD2DE960
:10106000FC410446FFF734FA704E0546306985426C
:101070000BD30021216035612846BDE8F6817860F8
:101080003F61391D3068FFF741FD31680868E8B1FC
:10109000C868D0F80080C768381DFFF750FD796A2E
:1010A00038468847F8690128EFD1B869404480453F
:1010B000E5D3002000900023424600213846FFF788
:1010C0004EFF0028E1D100F080F8FEE77068716003
:1010D00030600121CEE738B500248A4241600061CA
:1010E000524D06D38169D21A8A4206D2011D686820
:1010F00007E09A4203D2994201D3012403E0011D83
:101100002868FFF703FD204632BD000038B586B0E1
:10111000464C05E00B460A4641182846FFF7DBFF20
:10112000A068002202A900F04DFA00284BD00298D6
:10113000002803D505990498039A9047029800283F
:10114000EED4049D686910B1281DFFF7F8FC01A8D2
:10115000FFF785FF014602980928E1D8DFE800F093
:1011600006060605242B06060524D9E70A46039839
:10117000A969034609182846FFF7ADFF0028CFD01C
:10118000696A28468847E8690128C9D10021009189
:10119000039AA869821800232846FFF7E0FE00287A
:1011A000BED100F012F8FEE70398A8610028B1D183
:1011B00000F00BF8FEE795F82C000028B0D1284687
:1011C000FFF719FCACE707B030BD502080F3118861
:1011D000BFF34F8FBFF36F8F704700001CB5FFF751
:1011E00035FD124CA068E0B904F11400FFF771FC62
:1011F00004F12800FFF76DFC04F1140004F128014C
:10120000002220606160009204F13C0304F18C0232
:1012100010210A2000F0AAF8A06010B107A100F088
:10122000F4FABDE81340FFF72ABD0000A02B002010
:1012300004ED00E0546D722053766300546D7251DA
:1012400000000000EFF30980BFF36F8F264B1A6890
:101250001EF0100F08BF20ED108A20E9F04F10603B
:1012600009B44FF0500080F31188BFF34F8FBFF3E4
:101270006F8FFFF78EF94FF0000080F3118809BCE3
:1012800019680868B0E8F04F1EF0100F08BFB0EC06
:10129000108A80F30988BFF36F8F7047124B19686B
:1012A0000868B0E8F04F80F30988BFF36F8F4FF004
:1012B000000080F3118870470C480068006880F3D4
:1012C00008884FF0000080F3148862B661B6BFF35F
:1012D0004F8FBFF36F8F00DFDFF81400016841F418
:1012E0007001016070470000F42C002008ED00E060
:1012F00088ED00E038B504000D4602D100F073F827
:10130000FEE7FFF7A3FCE26B206C216842438818DC
:1013100060600021A1632068E26BA060521E206C17
:10132000216842438818E0604FF0FF3104F1440027
:101330000170417075B92069A0B104F11000FFF788
:101340008BF978B1DFF8E4144FF08050086000F0BA
:10135000D2F907E004F11000FFF7BBFB04F1240011
:10136000FFF7B7FBFFF78BFC012032BD7CB51C46B5
:10137000502320B983F3118800F0BDF9FEE724B9AA
:1013800083F3118800F0B7F9FEE72AB129B983F396
:10139000118800F0B0F9FEE761B90093009E502E6D
:1013A0000DD1069B012584F84650009400F00CF8FE
:1013B000204676BD83F3118800F09DF9FEE783F3A4
:1013C000118800F098F9FEE738B5049D1C4601B974
:1013D0002A462A60E863296428460121FFF78AFF2C
:1013E00085F84C4031BD502080F31188BFF34F8FFA
:1013F000BFF36F8F70472DE9F64782B004461E4653
:10140000502714B900F075F9FEE75FEA010A01D12F
:10141000206C70B9022E02D1E06B01280CD1FFF7CD
:10142000CFF900285ED1039800285BD000F061F965
:10143000FEE700F05EF9FEE700F05BF9FEE70399D6
:1014400007F11000FFF7D1F8384600F0A1F9FEF7D8
:10145000ECFF18B9C8F8009000F04DF9FFF7F6FB63
:10146000B86BF96B884242D3022E40D00398002813
:1014700035D014B900F029F90124FFF700FCFEF77C
:10148000CEFFFFF7E3FB07F1440000F021F904BFB2
:101490000022027000F021F904BF00224270FFF721
:1014A000EEFB00F03CF888BBFFF7D0FBB86BF96BA4
:1014B000884214BF00250125FFF7E1FB002DBED1B6
:1014C000384600F065F9FEF7B0FFC7E718B1C8F875
:1014D000009000F010F9FFF7D2FB01201CE0FFF7AD
:1014E000CEFB18E02746002400F0EAF8B6E73246C3
:1014F0005146384600F004F9796A0029E6D007F130
:101500002400FFF7A9F80028E1D1E4E7384600F00D
:101510003FF9FEF78AFF002004B0BDE8F08703A979
:101520006846FFF7D0B82DE9F843044688461546CB
:101530001E46502714B900F0DCF8FEE7B8F1000FA2
:1015400001D1206C20BB022E02D1E06B012822D1F8
:10155000FFF7BAFBEFF3118900F02AF801D3022E4E
:1015600021D194F9457032464146204600F0C8F832
:1015700017F1010F12D1606A98B104F12400FFF74E
:101580006BF8002818BF002D0BD00120286008E060
:1015900000F0AFF8FEE700F0ACF8FEE77F1C84F83F
:1015A0004570012000E0002089F31188BDE8F28336
:1015B00087F31188BFF34F8FBFF36F8FA06BE16B81
:1015C000884270472DE9F74306460F460024502510
:1015D00026B985F3118800F08EF8FEE70FB9306C5C
:1015E00048B9FFF7EDF878B9029868B185F311882A
:1015F00000F081F8FEE785F3118800F07CF8FEE743
:1016000000F075F8FEF711FFFFF720FBB56B00F057
:1016100057F825B90298B8B9FFF731FB4DE03946C4
:10162000304600F0A1F86D1EB563306940B106F197
:101630001000FFF711F818B1C8F8009000F05BF83F
:10164000FFF71DFB012039E014B900F03EF801243A
:10165000FFF715FBFEF7E3FEFFF7F8FA06F144008B
:10166000415711F1010F04BF0022027000F035F85C
:1016700004BF00224270FFF702FB02A9FFF750FFF0
:101680000028304610D100F0B5F80028B8D000F09E
:1016900029F800F02CF8FEF7C8FE0028B4D1C8F8ED
:1016A000009000F028F8AFE700F072F8FEF7BDFEFA
:1016B000304600F09FF80028A6D00020BDE8FE8349
:1016C000DFF868814FF0805970476846FEF7F4BF35
:1016D00090F9001011F1010F704790F9011011F10C
:1016E000010F7047029906F12400FEF77EBF3046D5
:1016F0004EE087F31188BFF34F8FBFF36F8F7047B2
:10170000F8B506461546B46B326C002742B930680E
:1017100030BB7068FFF763F80021074671601FE077
:1017200065B9B06800F0AAF8B068316C7268084416
:101730009042B06014D33068B06011E0F06800F0FF
:101740009DF8306CF16840420144F160326891428A
:1017500002D271680844F060022D01D104B1641E08
:10176000641CB4633846F2BD026C002A0B4600D1FB
:10177000704710B5C16844681144C160A14224BFDC
:101780000168C160C168BDE81040184600F076B835
:10179000F8B50546FFF75AFA05F1440494F90160DB
:1017A00070B2012815DB686A98B105F12400FEF7D4
:1017B00053FF08B1FEF7BAFF761EF1E72869A0B122
:1017C00005F11000FEF748FF08B1FEF7AFFF7F1EDE
:1017D00008E04FF0FF366670FFF751FAFFF736FA70
:1017E00094F9007078B20128E8DA2670BDE8F1407B
:1017F000FFF745BA10B50446FFF728FAA06B441E60
:10180000A441FFF73CFAE00F10BD10B50023084CCF
:1018100054F833201AB15B1C082BF9D310BD44F8DF
:10182000331004EBC301486010BD000004ED00E07C
:10183000682D0020F8B504460D461646FFF706FA57
:1018400004F1380797F90C0010F1010F04BF0021D3
:10185000397397F90D0010F1010F04BF002179735E
:10186000FFF70DFA386828B93246294604F12400FA
:10187000FEF7D7FE2046BDE8F24089E762B38B074A
:1018800008D0521E11F8013B00F8013B00F0248003
:101890008B07F6D1830740F0208000BF103A07D3B2
:1018A00030B4B1E83810103AA0E83810F9D230BCA2
:1018B000530724BFB1E80810A0E8081044BF51F84E
:1018C000043B40F8043BD20724BF31F8022B20F838
:1018D000022B44BF0B7803707047121F17D35B00B5
:1018E00009D151F8043B20F8023B1B0C121F20F8D1
:1018F000023BF6D20BE051F8043B00F8013B1B0A17
:1019000020F8023B1B0C121F00F8013BF3D238BF3A
:10191000121D521E24BF11F8013B00F8013BF8D8FC
:101920007047F0B40246106895681318506803EBCE
:101930005004C0071DD54D441BE013F8017B05F88A
:10194000017B491EF9D1A0B1B60813F8011B06F0BE
:101950000306032E08BF13F8016B01EB0621494271
:10196000801C294405D011F8016B05F8016B401E5D
:10197000F9D1A3420ED013F8016B16F0030104BF96
:1019800013F8011BC91C30090F28DAD113F8010B19
:101990000F30D6E7F0BC02F10C007047B0F84010F1
:1019A00041F43F41F0E2B0F8402044F2FF01EFE2A1
:1019B0000EB4012120F8401F002202808280002105
:1019C0000182028842F43F420280002003B0704747
:1019D0002DE9F0470B4602461C7832F82460DD788A
:1019E00048F68F1100200E40032D0CD8DFE805F0DB
:1019F00002080C0546F4007606E046F4C06603E0F3
:101A000046F4806600E0012048F280052E4322F86B
:101A1000246048F68F7619780C4632F824703740E7
:101A20003943294322F824104BF68F77197B93F81A
:101A300000A000294CF2800C48F6BF7E48F2C00896
:101A400066D1D9884FF6FE740C4059780029B2F857
:101A50005010114401EB0A111BD001F580610C807C
:101A6000197832F82140640606D532F82140264024
:101A700048EA060622F821601978DB78012B32F853
:101A800021300EEA03030EBF1D4383F020031D43E4
:101A9000C6E001F581610C80B2F850105418197835
:101AA00004EB0114196904F20C4431B9B4F800E0F4
:101AB00048F2FF3101EA0E0113E03F2908D24FEA54
:101AC000510EC90748BF0EF1010E4FEA8E2E0AE0F3
:101AD0004FEA511E11F01F0F08BFAEF1010E4FEA81
:101AE0008E2141F4004EA4F800E0197832F821402C
:101AF000640406D532F8214026404CEA060622F856
:101B00002160197832F821301F4087F4405786E071
:101B100032F82A10314041F4014141F0800122F8AD
:101B20002A10B2F85010B3F808A05418197804EB32
:101B3000011404F580644FF6FE7101EA0A01218068
:101B4000B2F850101C78511801EB041101F58169AD
:101B500059894FF6FE742140A9F8001059781C7875
:101B6000002932F824102CD1490406D532F824106B
:101B700031404CEA010122F82410197832F8214052
:101B8000640606D532F82140344048EA040422F8BD
:101B90002140197832F82140264048EA060622F80A
:101BA0002160197832F82140274087F440572F43AD
:101BB00022F82170197832F821300EEA03031D4310
:101BC0002EE0490406D532F8241031404CEA0101D8
:101BD00022F82410197832F82140640606D532F82C
:101BE0002140344048EA040422F82140197832F8B0
:101BF000214026404CEA060622F82160DC7819785C
:101C0000012C32F821400EEA040418BF84F02004AD
:101C10002C4322F82140197832F821301F403D43EF
:101C200022F82150BDE8F0872DE9F041024691F8F5
:101C300000C048780B7B4BF68F7E4CF2800448F254
:101C4000800848F6BF7548F2C00648F68F77ABB9F2
:101C5000002832F82C0008D0400636D532F82C0087
:101C600007403E4322F82C602FE0400456D532F85E
:101C70002C0007403C4322F82C404FE0002832F86B
:101C80002C0029D1400405D532F82C0038400443FB
:101C900022F82C40087832F820305B0605D532F85F
:101CA00020303B40334322F82030087832F820308F
:101CB0001F403E4322F82060087832F820300EEAB8
:101CC000030348EA030322F82030087832F8201092
:101CD0000D4048EA050128E0400405D532F82C0003
:101CE0003840204322F82C00087832F820305B0678
:101CF00005D532F820303B401E4322F8206008789A
:101D000032F820301F403C4322F82040087832F857
:101D100020301D4048EA050522F82050087832F8A6
:101D200020100EEA010148EA010122F820100020EB
:101D3000BDE8F081F8B50D4604466B782869A969BD
:101D4000012B48F280064DD1884239BF0746C91B96
:101D50000F460021287BA96160B9EA8800F0ADF840
:101D6000B4F850002978201800EB011000F204406C
:101D700007802EE02878010134F820004206B4F8EC
:101D80005000204405D5091801F20C410F806A89E2
:101D900004E0091801F204410F802A8900F08DF84F
:101DA000687848F68F7140B9287834F820201140BF
:101DB00041F4004141F0C00109E0012809D128782F
:101DC00034F82020114041F4404141F0800124F8D2
:101DD0002010297834F8212048F6BF70024082F0A4
:101DE000300265E0884232BF091A084600212A7B8A
:101DF000A961002A4FEA501C00F001014FEA500E81
:101E000021D0F3B9B4F850202B78A21802EB0312BA
:101E100002F2044228B91788202363F38F27178022
:101E20000FE03F2804D2734601B15B1C9B0207E020
:101E3000634610F01F0F08BF5B1E9B0243F4004374
:101E400013806A780ABBB4F850202B78A21802EBF2
:101E5000031202F20C4228B91188202060F38F216E
:101E600011801DE03F2805D209B10EF1010E4FEAA5
:101E70008E2008E010F01F0F08BFACF1010C4FEAF4
:101E80008C2040F4004010800AE0012A08D1B4F808
:101E900050102A78611801EB021101F20C41088000
:101EA0004BF68F70297834F82120024082F440529A
:101EB000164324F821600020F2BD6969BBB22046B8
:101EC0006BE010B50A78497830F82240002948F2D2
:101ED000800305D048F6BF710C4084F0100404E084
:101EE0004BF68F710C4084F48054234320F8223049
:101EF000002010BD30B50A7B002A36D14A780C7814
:101F0000002A30F8242048F2800348F68F7516D056
:101F1000520608D530F82420154045F4004545F018
:101F2000C00520F82450CA78012A1ED00A7830F85B
:101F3000224048F6BF710C4084F0200412E05204A5
:101F400008D530F82420154045F4404545F080057B
:101F500020F824500A7830F822404BF68F710C405C
:101F600084F44054234320F82230002030BD11B9BE
:101F70008021A0F84C100020704700207047B0F876
:101F80004400704700207047A0F8401000207047C0
:101F90000A40A0F840200020704710B500EB420036
:101FA0005B1C00F580605B0807E00A784C7842EA29
:101FB0000422891C20F8042B5B1EF6D110BD10B53D
:101FC00000EB420000F580605A0806E030F8044B50
:101FD0000C70240A4C70891C521EF7D1DA0744BFDA
:101FE0000088087010BD30B4002513E050F8042BB1
:101FF000D30744BFA9F101039A18091F042942F825
:10200000045BFAD213468C0744BF15809B1CC9079A
:1020100048BF1D7050F8041B0029E7D130BC704741
:1020200038B5040001D1012032BD00F031F818B9F3
:1020300000F02AF800F0BFFB0FE00068C16841F033
:102040000101C160816801F00701062903D0016820
:1020500041F0010101600020704702206870211DDD
:10206000206800F0E0F901206870002032BD38B52A
:10207000040001D1012032BD00F00AF818B900F0C7
:1020800003F800F043FCE8E7002129702046704780
:1020900004F13C0568787047F8B504000E4601D19C
:1020A0000120F2BDFFF7F4FF18B9FFF7EDFF00F0D4
:1020B0009EFB022068702168DFF834038A680240C2
:1020C0008A60211D206800F0AEF92268DFF8241331
:1020D00093689069176A0140B0680843B16940EAA3
:1020E0000120DFF814130140F0680843F16940EA69
:1020F0000121306941EA0010316A40EA013C706810
:10210000716927F0AA0707433068034347EA0117BC
:1021100093602168C1F818C00121206807626970C6
:102120000020F2BD000010B50446206801698A074E
:1021300015D5C1688A0712D56FF00201016101222D
:102140002277806910F0030F204602D000F0DFFBF9
:1021500003E000F0DDFB00F087F800202077206826
:1021600001694A0715D5C1684A0712D56FF0040105
:10217000016102222277806910F4407F204602D05C
:1021800000F0C5FB03E000F0C3FB00F06DF8002099
:102190002077206801690A0715D5C1680A0712D59A
:1021A0006FF00801016104222277C06910F0030F6B
:1021B000204602D000F0ABFB03E000F0A9FB00F0EA
:1021C00053F80020207720680169CA0615D5C16838
:1021D000CA0612D56FF01001016108222277C0698A
:1021E00010F4407F204602D000F091FB03E000F0A5
:1021F0008FFB00F039F80020207720680169CA07BA
:1022000008D5C168CA0705D56FF0010101612046F4
:1022100000F059FD206801690A0608D5C1680A0660
:1022200005D56FF080010161204600F08FFD206828
:1022300001694A0608D5C1684A0605D56FF0400114
:102240000161204600F083FD206801698A060AD5F5
:10225000C1688A0607D56FF0200101612046BDE8FC
:10226000104000F075BD10BD204600F072BD70B585
:1022700000F063F801D1022070BD00F06BF832B1BC
:10228000042A17D0082A28D00C2A39D04AE030680E
:10229000294600F014F93068816941F0080100F026
:1022A00048F821F00401816131688A692869024394
:1022B0008A6137E03068294600F032F93068816978
:1022C00041F4006100F035F821F4806100F031F84C
:1022D0002A6941EA0221816124E03068294600F040
:1022E00046F93068C16941F0080100F01EF821F09C
:1022F0000401C1613168CA6928690243CA6111E0F9
:102300003068294600F04AF93068C16941F400613B
:1023100000F00BF821F4806100F007F82A6941EA27
:102320000221C16100F010F870BDC1613068C1695F
:1023300070478161306881697047064606F13C0448
:102340000D4620780128704701206070002121701F
:10235000002070470120207002216170704738B55D
:1023600000F055F801D1022032BD01202070022278
:102370006270DFF858022A68936803409360086827
:10238000020018BF10282DD0202818BF302829D0CF
:10239000402823D0502816D0602818D0702803D0A9
:1023A000B0F5005F07D021E000F02CF828688168C4
:1023B00041F0770105E000F025F82868816841F4D4
:1023C0008041816012E000F019F850210BE0CA68EA
:1023D0004968286800F01FF9602104E000F00EF859
:1023E000402100E00146286800F027F915E00000D0
:1023F000F8BFFFFFFCFCFFFF0303FFFFCA6849684B
:102400002868F9E0CB684A68896828681DE10546B4
:1024100005F13C04207801287047012060700021FC
:102420002170002032BD2DE9F041DFF8A48106685B
:10243000684B694C694D6A4FDFF8A8C1DFF8A8E125
:10244000B0F1804F18BF404504D070451CBF6045B7
:10245000B8420CD14A6826F070061643B0F1804F9E
:1024600018BF404513D0704518BF60450FD05F4A74
:1024700090421CBF5E4A904209D05E4A904218BF0B
:10248000A84204D0A0421CBF9842B84203D1CA68F7
:1024900026F4407616434A6926F080061643066005
:1024A000A8428E68C6621CBFA04298420A68826237
:1024B00001D10969016301224261BDE8F081F0B5F3
:1024C000026ADFF818C1444F520852000262066ADD
:1024D000446885690B688A6825F0730526F0020652
:1024E0001D4316433B4B60451CBFB842984209D17F
:1024F000CA6826F008061643604518BFB84226F0A1
:10250000040601D0984205D14B698A6924F44074CD
:102510001C43144344608561496841630662F0BD11
:1025200070B5026A2D4E22F010020262B042056AB6
:10253000436884690A6824F4E64444EA02248A6809
:1025400025F0200545EA02151FBF234A9042214E7F
:10255000B04206D14E698A6923F48063164343EA88
:1025600086034360846149688163056270BD70B50C
:10257000026A22F480720262036A4468C5690A68CA
:102580008E68446025F073051543C56123F400731C
:102590004968C16343EA0623036270BD30B5026A2D
:1025A00022F480520262026A4368C4690D6824F40E
:1025B000E64444EA05248D684360C46122F4005275
:1025C0004968016442EA0532026230BD8800FFFFBB
:1025D0000004004000480140004401400040014028
:1025E000005C0140000C0040000800400018004062
:1025F000001C00400020004010B5036A046A640813
:102600006400046223F00A03846924F0F00444EABD
:102610000214846123E010B5036A23F010030362FF
:102620008369046A23F4704343EA023324F0A0046C
:10263000836144EA0114046210BD826822F07002D2
:10264000114341F007018160704710B5846824F49C
:102650007F442143114341EA0321816010BD1943A6
:10266000016210BD9D4882B0016841F00101016026
:10267000026802F0010200920099426842F0805222
:1026800042600022406800F0805000900F210098C6
:102690006FF0010002B000F077BB38B586B0044699
:1026A00001A8142100F0A2FB24688D4DAC4221D179
:1026B0008C48816841F000718160816801F000718F
:1026C00000910099026842F4802202604FF4407148
:1026D000006800F480200090022200988248019156
:1026E000029200210391032209210591049201A97C
:1026F00000F080FB07B030BD10B586B000F0B6F832
:1027000022687B4B784877499A4217D14A6842F051
:1027100080724A604A6802F0807200F03FF843F429
:1027200000130B600722096801F4001100F02CF877
:102730004FF4407000F021F86E481AE06E4B9A4258
:1027400019D14A6842F080624A604A6802F08062A9
:1027500000F024F843F480130B604FF44042096802
:1027600001F4801100F010F84FF4807000F005F8CB
:10277000624800F03FFB06B010BD032100900191BC
:102780000022029269467047059103230599009241
:10279000019300220292694600F02CBB0592059A33
:1027A0000B6843F480230B600C6804F480240594C8
:1027B000059A0B68704781B000684C49B0F1804FB2
:1027C00007D1086840F001000860096801F00101C4
:1027D00009E04B4A904208D1086840F008000860C0
:1027E000096801F008010091009801B0704710B528
:1027F00086B000F03BF82068424C3A49A04214D120
:10280000886840F002008860886800F00200059047
:1028100005980A6842F400320A6000F051F850212D
:1028200000F054F84FF0904019E0374A90421BD125
:10283000886840F004008860886800F00400059013
:1028400005980A6842F480220A600222096801F4AD
:1028500080210591C0210598234800F038F8022115
:102860000491694600F0C6FA06B010BD04466846F9
:10287000142100F0BBBA10B586B0FFF7F7FF20684F
:102880001849B0F1804F06D100F016F80C2100F085
:102890001DF8012108E01A4A90420BD100F00CF813
:1028A000032100F013F8022104914FF09040694693
:1028B00000F0A0FA06B010BD086840F400300860CF
:1028C0000222096801F400310591704705980091D2
:1028D00001920021029103917047000018100240FC
:1028E0000064004014100240000400481C10024024
:1028F000006001400010004800680140000C0048E2
:10290000000C004000040040000800407047704781
:1029100070470000F0B58DB000F048FB00F027F9DB
:1029200000F069F9EB4CEC48206010210022616056
:10293000A260E26022616261A261A283204600F08F
:1029400047FB04F5D875E5482860002140F6FF7084
:10295000E860A8606960284600F0C4FB00F0FAF85F
:1029600004F59476DE48306000217160B160F1605A
:102970003161304600F0DEFB00F0F0F800F0EAF8DC
:10298000D84870640021B164F1643165716504F563
:10299000B676304600F0CEFB00F0E0F809A800F073
:1029A000DAF80FF264301C2100F0CBF802A800F036
:1029B0001DFA4FF08040A0620021E1622163616353
:1029C000A163216404F12800FFF72AFB4FF480562D
:1029D000099609A904F12800FFF7C1FC04F12800B9
:1029E000FFF745FB00F0B2F804F1280000F0A6F86C
:1029F00060210022029103920492069202A9082209
:102A000004F12800FFF733FC0C2202A904F128008E
:102A1000FFF72DFC04F12800FFF72DFF02A8242169
:102A200000F0E4F90FF2E820AF4900F08AF8A1665F
:102A300000200121E06620676067A067C4F880007D
:102A400002910390049105900690079008910990D7
:102A50000A9002A904F16800FFF71EFB00F076F867
:102A600004F1680000F06AF802A8242100F0BEF921
:102A7000A9A004F1A80700F064F89C483860002180
:102A800079603961002001210022F860B86102916B
:102A90000491069008910A90BA60039205920792F9
:102AA000099202A93846FFF7F7FA00F04FF83846C6
:102AB00000F044F809A800F04EF800BF98A2E834EE
:102AC000D2E90001CDE9000102A81C2100F08EF935
:102AD0008748386400217964B964F9643965B96557
:102AE0002046FFF79DFA099609A92046FFF737FC13
:102AF0002046FFF7BCFA00F029F8204600F01EF847
:102B000060210291002203920492069202A92046BB
:102B1000FFF7ADFB042202A92046FFF7A8FB2046E1
:102B2000FFF7A9FEFEF718F97FA20FF28D10002122
:102B3000FEF74DF92861FEF729F9FEE7694600F036
:102B400085BBD0E90023CDE9002370470021009127
:102B5000019170476846102100F048B900210091AA
:102B60000191029103916A46304600F02FBB80B577
:102B70009AB005A8282100F039F96846142100F020
:102B800035F90FA82C2100F031F909210591012315
:102B90004FF48031069109930B930D91002202238B
:102BA0004FF4E01107920C930E9105A800F08EFBF4
:102BB000022101910F204FF48061009000220391C7
:102BC000029204920221684600F007FD4FF40230A1
:102BD0000F9000214FF02842199117920FA800F092
:102BE000EDFD4FF4007000F09FFE4FF4006000F028
:102BF0009BFE1BB000BD38B586B001A8142100F0C3
:102C0000F5F83C483C4D046844F400240460016835
:102C10003A4C01F4002100910099026842F48002CC
:102C20000260036803F4800300F03AF842F40032D3
:102C30000260036803F4003300F032F842F48022AB
:102C40000260036803F4802300F02AF842F40012C3
:102C50000260036803F4001300F022F842F48012CB
:102C600002600022006800F4801000904FF40051D0
:102C70000098284600F087F900223021204600F015
:102C800082F94FF4005100F00FF8284600F0B2F836
:102C9000302100F009F8204600F0ACF807B030BD54
:102CA000009300990268704701910122002103916D
:102CB0000491029201A9704780B500F04BFE0120FB
:102CC000FEF7E1F8FBE700680D49884208BF00F015
:102CD0006BBE7047DC2900200064004000300040DB
:102CE000006001400068014000040040000800400E
:102CF000000C004014100240000800480004004886
:102D000000100040704700000000000000000000BC
:102D100000000000000000000000000000000000B3
:102D20000000000000000000044F00080000000048
:102D30000000000000000000000000000002000091
:102D400018000000000000000000000070477047FD
:102D5000704770470901020002D41F488154704730
:102D60001E4B02F00F021A4402F8041C70471C4B61
:102D700019684FF6FF020002114000F4E0600843BA
:102D8000184908431860704738B5154B1C68C4F3E0
:102D90000223C3F10704052C28BF04241D1D072DA1
:102DA00034BF0023DB1E012505FA04F4641E214014
:102DB000994005FA03F35B1E1A401143BDE8344005
:102DC000C8E7010007D4012200F01F01064B8A402A
:102DD000400943F82020704700E400E018ED00E0CF
:102DE0000CED00E00000FA0500E100E00022FDF734
:102DF00057BE00002DE9F84F4FF00009644A0F2339
:102E00004FF0010805460E4635E0624FBD4214BF43
:102E1000052704278F4027434EF82C706FEA000CDB
:102E20005D490C680CEA040E7468E70348BF40EA89
:102E30000E0EC1F800E04C680CEA040E7468A7039B
:102E400048BF40EA0E0EC1F804E08C680CEA040E9C
:102E50007468E70248BF40EA0E0EC1F808E0CC688B
:102E60000CEA040E7468A40248BF40EA0E0EC1F8D2
:102E70000CE009F10109316831FA09F000F08180B4
:102E800008FA09FC1CEA0100F3D07468022C18BF90
:102E9000122C4FEA890112D14FEAD90405EB840EB6
:102EA00001F01C07DEF82040D6F810B003FA07FA4C
:102EB00024EA0A040BFA07F73C43CEF820404FEA15
:102EC000490E03242F6896F804A004FA0EF4E44394
:102ED0000AF0030A27400AFA0EFA4AEA07072F60A7
:102EE0007768012F18BF022F03D0112F18BF122FA0
:102EF00013D1AF68D6F80CA027400AFA0EFA4AEAB6
:102F00000707AF606F6827EA0C0C7768C7F30017F4
:102F100007FA09F747EA0C076F60EF683C40B768AB
:102F200007FA0EF73C43EC607468E400A1D514681E
:102F3000DFF868E044F0010414604FEA990C14686B
:102F400004F00104009401F00C01009C5EF82C7068
:102F500003FA01F427EA0404B5F1904F08BF0027F3
:102F60000ED00F4FBD4208BF012709D00D4FBD4203
:102F700008BF022704D00C4FBD427FF446AF0327A1
:102F800048E7BDE8F18F0AB18161704781627047FF
:102F900018100240001000480004014008000140E1
:102FA0000004004800080048000C004880B50748AD
:102FB000016841F0100101600320FFF7D8FE0020F6
:102FC00000F0FAFCFFF74EFB002002BD002002409B
:102FD00038B504001ED094F8200010B92046FFF741
:102FE0005CFB2068016821F00201016000F020FD17
:102FF0000546206841688A074ED500F019FD401B40
:103000000B28F6D304E000F013FD401B0B2846D339
:1030100000F055F8012032BD016821F08001016007
:10302000607E00F048F80CBF41F0400121F0400103
:103030000160A07E00F03FF80CBF41F0200121F0BC
:1030400020010160E07E00F036F80CBF21F0100195
:1030500041F010010160207F00F02DF80CBF41F01D
:10306000080121F008010160607F00F024F80CBF26
:1030700041F0040121F004010160A268E0682169C7
:10308000024360690A43616802432068491E0A439B
:10309000C261002161621AE000F01EF80546206856
:1030A0004168CA07AFD5217E0129B5D1026842F037
:1030B00080020260B4E70128206801687047606AF6
:1030C00040F400306062052184F820107047012030
:1030D00084F82000002032BD016841F00101016048
:1030E00000F0A6BC38B5040001D1012032BD206833
:1030F0004CF6CC41016045F2555202606368436072
:10310000A168816000F094FC05462168C86840B160
:1031100000F08EFC401B3128F7D3032032BD002085
:1031200032BDE0680A69824212BF08614AF6AA20ED
:103130000860F4E738B5040001D1012032BD002059
:10314000A061E061002101202062606204F13C0581
:103150000020A062E1624FF4005020636163A1632C
:1031600069602046FFF7C8FA2168086820F4E0503B
:1031700008600A686368E06803431A430A604A68A3
:1031800022F080724A604A68A06802434A60DFF811
:1031900088100A68206902F4407282420AD00A68E4
:1031A00022F440720A600B68206903430B6002201E
:1031B00000F044FC2068416841F0010141608168F1
:1031C0000A04FCD401202870002032BDF8B507465F
:1031D000002597F83C0001280C46164618BF01252B
:1031E00018D1384600F01AF820B1FF2087F83C00CB
:1031F00003250FE0336870683A68B1680343F068EC
:103200000B4302EB8404034344F8203F116821F090
:10321000004111602846F2BD0060014038B5044607
:103220002068016841F00041016000F001FC0546A2
:1032300020688168002906D400F0FAFB401BC928E9
:10324000F6D3032032BD002032BD000070B500F17E
:103250003C031A78012A01D1022070BD01221A70A4
:1032600002245C7005686E68AC680A6826F0700617
:1032700016436E600268B2F1804F1CBF0D48824257
:103280000DD00D4DAA421CBF0C48824207D00C4DF8
:10329000AA421FBF0B4882420B4DAA4204D1486884
:1032A00024F08004044394600121597000201870B8
:1032B00070BD00000004004000080040000C004009
:1032C0000018004000400140005C01402DE9F84337
:1032D000040019D02078DFF89454C10716D5686827
:1032E00000F00C0004280AD0686800F00C000828E0
:1032F00002BF686800F48030B0F5803F3FD100F035
:10330000E7F918B16068002800F0FE802078DFF847
:103310006C64810719D5686810F00C0F07D06868D5
:1033200000F00C0008286AD16868C10367D400F077
:10333000D3F91CBF2069012840F0E6802968606944
:1033400021F0F80141EAC00129602178080740F125
:10335000DD80A069DFF8281400286ED001220A6001
:1033600000F066FB0746686A00F0B7F940F0CE80CF
:1033700000F05EFBC01B0228F5D9032022E1606843
:10338000B0F5803F04D1286840F48030286014E014
:1033900008B928680AE0B0F5A02F286806D140F4E3
:1033A00080202860296841F4803105E020F48030D5
:1033B0002860296821F480212960E86AA168000951
:1033C00041EA0010E862606860B100F031FB064637
:1033D00000F07EF9002899D100F02AFB801B6528B7
:1033E000F6D3CAE700F024FB064600F071F9002886
:1033F0008CD000F01DFB801B6528F6D3BDE720694B
:1034000070B10121316000F013FB074600F064F950
:1034100040F0A78000F00CFBC01B0228F6D9ACE7F7
:10342000306000F005FB074600F056F98DD000F043
:10343000FFFAC01B0228F7D99FE7086000F0F8FAEE
:103440000746686A00F049F960D000F0F1FAC01B45
:103450000228F6D991E708B9286A09E00528286A00
:1034600006D140F004002862286A40F0010005E01F
:10347000400840002862286A20F00400286241F2D7
:103480008938E06868B100F0D3FA8146286A00F014
:1034900024F973D100F0CCFAA0EB09004045F5D334
:1034A0006BE700F0C5FA8146286A00F016F965D08E
:1034B00000F0BEFAA0EB09004045F5D35DE700F04F
:1034C000B7FAC01B02286AD957E700F0B1FA001B0F
:1034D000022873D951E700F07CF8044600F074F834
:1034E0006FD000F0A5FA001B0228F7D945E70128A4
:1034F0000AD06868226A00F48031914202BF00F469
:103500007010616A88425CD001205BE0207841073E
:1035100039D5E8690027C10009D4E86940F0805036
:10352000E8610127E86900F0805000900098DFF81A
:103530005482D8F80000C1051BD4D8F8000040F42C
:103540008070C8F8000000F073FA8146D8F80000D7
:10355000C1050ED400F06CFAA0EB09006528F5D384
:103560000BE72868616920F0F80040EAC100286094
:10357000EBE6E06801287FF46EAF75E71FB1E869FC
:1035800020F08050E861E069D8B1696801F00C0171
:103590000829ACD002289ED100F01BF8074600F0A5
:1035A00013F88CD16A68606A216A22F474120243AB
:1035B0000A436A60012000F00DF8044600F004F8A8
:1035C00083D00020BDE8F2832868C0F34060002863
:1035D00070470020306600F02BBA2DE9F04104005E
:1035E000884669D0684E306800F00700404502D236
:1035F00000F064F860D120785C4D810705D56A68D9
:10360000A06822F0F00202436A602178C8074BD517
:103610006168012902D100F05BF804E00229286802
:1036200003D1C0F3406018B946E000F056F843D02B
:103630006868800841EA8001696000F0F9F907468E
:103640006868616800F00C00B0EB810F2CD000F0CE
:10365000EFF9C01B41F289318842F1D3032021E008
:103660002078410705D56A68E06822F4E0620243E9
:103670006A602178080706D56968206921F46051DD
:1036800041EAC001696000F02DF86A683F49384B93
:10369000C2F30312895CC84018603748006800F024
:1036A0008BF90020BDE8F081306800F0070080450C
:1036B000D6D200F003F8D3D00120F3E73168C9086F
:1036C00048EAC1013160306800F0070040457047AA
:1036D0002868C0F3404070472868C0F340000028C5
:1036E0007047000010B52A490A6802F00C0008284B
:1036F00014D100BF29A3C2F38340D203185C896AA6
:1037000009D500BF29A41B4B01F00F01625CB3FB7C
:10371000F2F2504310BD1F49484310BD154810BD7B
:1037200013481B4A006813681B49C3F30222FFE7D2
:10373000895CC840704710B50F220260144A1368B4
:1037400003F003034360146804F0F004846013681A
:1037500003F4E063C3601268D20802F4E06202611D
:103760000948026802F007020A6010BD001002401A
:103770001800002000127A001400002000004242CD
:10378000800442420070004000200240104E0008B9
:103790000410024000093D001C4F0008020304050C
:1037A000060708090A0B0C0D0E0F10100102030486
:1037B00005060708090A0B0C0D0E0F102DE9FC4138
:1037C0000546DFF858612868C10353D5B069002465
:1037D000C10009D4B06940F08050B0610124B069E3
:1037E00000F0805000900098DFF834713868C1050F
:1037F00019D4386840F48070386000F019F98046B8
:103800003868C1050FD400F013F9A0EB0800652853
:10381000F6D3032080E000F00BF9C01B41F28931A0
:10382000884217D3F5E7F06910F440701EBF69684D
:1038300001F44071884212D03A49F06901220A60CD
:10384000002320F440700B60F061C00707D500F042
:10385000EFF80746F069C0F340000028DBD0F169BB
:10386000686821F440710143F1611CB1B06920F036
:103870008050B0612878C10705D5F26AA86892081F
:1038800040EA8202F2622978880705D5F16AE86881
:1038900021F440310143F1622978480705D5F16AE6
:1038A000286921F440210143F1622978880605D571
:1038B000F16A686921F010010143F1622968880307
:1038C00005D53168A86A21F4800101433160297867
:1038D000480605D5F16AA86921F020010143F1628B
:1038E0002978080605D53168E86921F4404101438B
:1038F00031602968080505D53168286A21F07841CA
:10390000014331602968480505D5F16A686A21F0EC
:1039100040010143F1620020BDE8F681041002403D
:103920000070004040044242094981B00A6842F0F8
:1039300080520A60096801F08051009100990349A2
:103940000A681043086001B0704700000070004032
:103950001C10024010B5104C10490022204600F007
:1039600081F808B1FFF7CEF90D49204600F08DF837
:1039700008B1FFF7C7F90B49204600F0D3FA08B1A8
:10398000FFF7C0F9204600F088F818B1BDE81040F4
:10399000FFF7B8B910BD00BF301E00203C01002069
:1039A000280000202C0100200248416802788A1873
:1039B000426070470C00002018B5014687B0002215
:1039C0003620FFF7E1F93620FFF7FBF91448154CD4
:1039D000016841F01001016001A9006800F01000C9
:1039E0000090009802A8FFF7A6FEFFF799FE0E4987
:1039F000216040F2E73240000C49E260B0FBF1F098
:103A0000401E606000222261A2602046FEF708FB93
:103A100018B92046FEF711FB00E0012008B010BDE8
:103A20001C100240A82D00200010004040420F0052
:103A300001484068704700BF0C00002038B50446BC
:103A4000FFF7F6FF14F1010F054602D00448017894
:103A50006418FFF7EDFF401BA042FAD331BD00BF51
:103A60000C00002038B508B9022032BD00F52774DB
:103A7000A3690BB10025A56101B16161012121702C
:103A8000027000F0ECFA002032BD0246002011B1B5
:103A9000C2F8B41270470220704780B500F01CFBDA
:103AA000002002BD10B5D0F8B42202241AB1126869
:103AB000904700B90024204610BD80B5D0F8B4224C
:103AC00053680AE138B5044604F52A75284600F023
:103AD00053FD04F5257001210160428B017D426098
:103AE00011F01F0003D002280BD005D30EE02946A9
:103AF000204600F053FB0DE02946204600F0F8FB7D
:103B000008E02946204600F01AFC03E001F080019D
:103B100000F040F8002032BD38B5044610460A00D7
:103B200004F5257329D1196803291ED104F5B07154
:103B30004A680D68AA420BD2AD1A0D60954238BF93
:103B40002A46014692B2204600F073FD002032BDA5
:103B5000196A086928B1187A032802D10969204630
:103B60008847204600F06DFDF0E70529EED10020E2
:103B70001860002100F00EF8E8E71A6A906930B189
:103B8000187A032803D1926920469047DEE7022085
:103B900032BD8021204600F0B8BA38B5044608008E
:103BA000134604F5257543D12868022833D1226ACB
:103BB000616A914207D2521A2262194692B2204695
:103BC00000F025FD11E0E269B2FBF1F001FB1020ED
:103BD00090B98A4210D3686882420DD20022002137
:103BE000204600F014FD0020686000230022002120
:103BF000204600F0B0FA14E0296AC86828B1287A93
:103C0000032802D1C96820468847FFF7C2FF204633
:103C100000F01EFD05E0042818BF002801D1FFF7C1
:103C2000B8FF287B012804BF00212973002032BD82
:103C30002A6A506930B1287A032803D15269204694
:103C40009047F3E7022032BD38B5044640230022F6
:103C5000002100F049FA04F5AC7001214022016016
:103C6000C260402300228021204600F03DFA01205E
:103C7000402104F52572A06161621072002111607B
:103C800061600025506A156128B1126A6168536845
:103C9000C9B220469847002032BD01740020704709
:103CA00000F52770042201784170027000207047EF
:103CB00000F527700178042904BF417801700020C5
:103CC000704780B500F527710A78032A03D1896906
:103CD000C96901B18847002002BD9847002002BD94
:103CE00070B505460026287C40B94FF4007300F0FB
:103CF0003AF80122EA624FF4007305E0402300F035
:103D000032F80120E862402302220121284600F017
:103D1000EBF90120C5F86C01082303228221284613
:103D200000F0E2F9012028644FF4077000F01DFA5A
:103D3000040005F52E7008BF0126046011D040680C
:103D40000168884704F50170066146610268287CB5
:103D500000280CBF4FF4007340230121284600F0D7
:103D6000FAF9304670BD02228121284600F0BCB924
:103D700010B50446812100F0C2F90022E26201215F
:103D8000204600F0BCF90020C4F86C0182212046D6
:103D900000F0B5F90021216404F52E74206838B1D3
:103DA000606841688847206800F0ECF900202060D6
:103DB000002010BDF8B5044604F527730D46DE69F2
:103DC00000218DF80010ADF802100027297811F0BD
:103DD000600022D020283AD1EA88C2B1687809066A
:103DE0000AD51B6AD3F808C03146E047EA88314655
:103DF000204600F004FC2FE006F500710870E8880A
:103E000048703146EA88204600F009FC24E01B6A2D
:103E100068789C682946A0471EE0687820B10A2887
:103E200009D00B2810D012E0197803290FD10222F3
:103E30000DF1020104E01878032808D10122694637
:103E4000204600F0DCFB07E01878032804D0294660
:103E5000204600F0A6FB02273846F2BDF8B504461E
:103E600004F52E7002688368D2B1142010FB01F0B3
:103E70002618F06978B103EB41139B6BB0FBF3F5A7
:103E800003FB150038B90027F76100230022204604
:103E900000F05BF902E00023C2F814320020F2BD0A
:103EA0000220F2BD70B500F52E74256805F5017687
:103EB00000F057F9B060206838B162683068D368A4
:103EC00005F503719847002070BD022070BD10B544
:103ED00000F52E7043680168002B1EBF01F50074C9
:103EE0002078FF2804D062789B689847FF202070D4
:103EF000002010BD43210180064870474321018006
:103F00000548704743210180044870470A21018019
:103F100003487047A400002060000020E800002053
:103F20001C0000200246022011B1C2F8BC12002081
:103F30007047D0F8B80200F502700160826000207E
:103F40007047D0F8B802C0F804120020704780B55E
:103F5000D0F8B81261B1D1F80422017C00290CBF5D
:103F60004FF400734023012100F0F5F8002002BD5A
:103F7000022002BD38B586B0044601A81421FEF720
:103F800035FF24687A4DAC422AD17A4C206840F43F
:103F9000003020600222216801F4003100914FF4CA
:103FA000C0510098019102920021039103220E2139
:103FB0000591049201A94FF09040FEF71BFFA06805
:103FC00040F40000A0600022A06800F4000000900F
:103FD000052100984B20FEF7D7FE4B20FEF7F1FE9F
:103FE00007B030BD00F50C71D0F86802FFF76ABD6C
:103FF00000EB4112D0F86802D2F83C21FFF78CBDEB
:1040000000EB4112D0F86802D26BFFF7C6BDD0F8C2
:104010006802FFF756BE10B50446A068022818BF14
:10402000FEF770FED4F868020121FFF736FED4F8DF
:104030006802BDE81040FFF707BE10B50446D4F88B
:104040006802FFF72DFEA06920B14B48016841F0DE
:104050000601016010BDD0F86802FFF729BE10B557
:10406000044646484249C0F868420822C4F8C002E3
:104070004260022300220160836003618261026268
:1040800000F0EDFA08B1FEF73DFED4F8C0021823A7
:104090000022002100F0F2FDD4F8C00258230022D3
:1040A000802100F0EBFDD4F8C002C0230022812162
:1040B00000F0E4FDD4F8C0024FF48873002201211F
:1040C00000F0DCFDD4F8C0024FF48073002282219E
:1040D00000F0D4FD002010BD80B5D0F8C00200F083
:1040E00009FBBDE802404FE010B51C461346D0F86E
:1040F000C002224600F0B4FBBDE8104044E080B5A9
:10410000D0F8C00200F0D6FBEBE780B5D0F8C002D3
:1041100000F009FCE5E780B5D0F8C00200F036FCFD
:10412000DFE7D0F8C00201F07F02090600EB421081
:1041300002D590F82A00704790F82A01704780B5A0
:10414000D0F8C00200F07DFBCBE780B5D0F8C0020C
:1041500000F0D4FBC5E780B5D0F8C00200F0B8FB92
:10416000BFE7D0F8C00200F0C2BB054870470000AE
:10417000005C00401410024010ED00E0F42000202C
:10418000BC250020704770470146002021B102295C
:1041900001D101207047022070470000F8B500F0FF
:1041A000C8F804F5277608D0202818BF402850D139
:1041B000B26993682046984795E06878092848D8FE
:1041C000DFE800F06E864780470905475C252046FA
:1041D00000F04AF987E0A888002804BFE888002892
:1041E00037D16F88802F34D23078032807F07F07CB
:1041F0002FD0B77039462046FFF7A1FF00F031F904
:10420000002F07BF01213170022030706BE0374F63
:10421000688838703978084602281AD23278022A1B
:104220001AD0032A23D131B90220307061602046B0
:10423000FFF743FC55E06168884252D0C9B220467E
:10424000FFF73BFC397861602046FFF72BFC022822
:1042500047D100F08EF946E0002942D0606003208B
:1042600030702046FFF71EFC0228F2D039E000F043
:1042700080F939782046FFF720FC34E0E8880128EF
:10428000E7D13178491E012904D9891EE1D10122E3
:10429000211D13E00020A060012204F108010DE0BF
:1042A0003078401E0228D4D8EA88022AD1D1B068DA
:1042B000012100B10321E16004F10C01204600F06E
:1042C0009EF910E0688801280DD10121B16008E055
:1042D0003078401E0228BCD86A88012A03D1002009
:1042E000B06000F0BEF80020F2BD0000EC2D002010
:1042F00038B500F01EF81CBF2028402815D104F561
:1043000027721078401E02280FD82B79022B0CD26E
:1043100092699368204698470146E888002808BFBC
:10432000002904D100F09DF801E000F023F90020FD
:1043300032BD0D460446287810F060007047F8B58D
:104340000446084604F527730278017912F06005E7
:1043500009D0202D18BF402D6AD19A699368014673
:104360002046984767E002F06002202A06D19A6949
:10437000936801462046BDE8F440184742788AB366
:10438000012A12D0032A53D11B78022B13D0032BFE
:104390004ED142881ABB002918BF80291FD0C0887F
:1043A000E8B92046FFF7B1FE19E01A78022A02D0D8
:1043B000032A0CD03CE0002918BF802938D02046C1
:1043C000FFF7A3FE80212046FFF79FFE33E04088E1
:1043D00088BB11F07F0F1CBF2046FFF79CFE00F04A
:1043E00040F828E0142201F07F051B785543661938
:1043F000022B06F5AA7502D0032B10D018E0002975
:1044000018BF802914D1080648BF06F11405002002
:10441000286002222946204600F0F1F80BE001F066
:104420000F0312FB03F20F06224406D5926972B9FC
:10443000014600F09FF80020F2BDD2F85821002A72
:10444000F6D0002918BF802904D10020E0E706F14A
:104450001405F6E72046FFF764FE0028D8D00120B7
:10446000D6E7204600F0EDB838B5044600200D46EA
:10447000ADF8000004F52C726888030A012B08D0FF
:10448000022B23D0032B2ED0062B5FD0072B64D01A
:104490006CE01268207C136869469847BDF80010EC
:1044A00079B1E98879B1BDF80010EA88914288BFF6
:1044B0001146ADF800100146BDF80020204600F07E
:1044C0009EF8E88808B9FFF7CCFF31BD207C516821
:1044D0000028684604D1896A884702224270DDE7D5
:1044E000C96A8847F9E7C0B205283FD8DFE800F07D
:1044F000030B1219202710684268002A36D0207C4E
:1045000069469047CAE7106882687AB3207C69469A
:104510009047C3E71068C26842B3207C6946904761
:10452000BCE7106802690AB3207C69469047B5E78A
:1045300010684269D2B1207C69469047AEE71068A6
:1045400082699AB1207C69469047A7E7207C68B9C8
:1045500051684A6B68469047A0E7207C30B95168A3
:104560000A6B684690470721417097E700F002F810
:1045700031BD2946204614E010B50A7802704B7808
:1045800043708A78CB7802EB032444800A794B7914
:1045900002EB032484808A79C97902EB0123C3806A
:1045A00010BD10B504468021FFF7AFFD2046BDE8E1
:1045B00010400021FFF7A9BD00280B4600D170472D
:1045C00070B50146002400E0641C11F8015B002D69
:1045D000FAD12406E40DA41C14801178197003226A
:1045E0005A70022207E010F8011BD4B2521C195570
:1045F000D6B2521C9D5501780029F4D170BD80B50A
:1046000013460222C0F89422C361036201E080B520
:1046100013460A460021FFF798FD002002BD80B531
:1046200013460322C0F8942200F5AE721360536063
:1046300001E080B513460A460021FFF78CFD0020FB
:1046400002BD80B50421C0F8941200230022E1E7E6
:1046500080B50521C0F8941200230022ECE778B55C
:10466000040085B008BF012042D004F50A756878BF
:1046700020B9002129702046FFF77CFC03206870D8
:104680002068FDF790F900200DE004EB401128317F
:104690000870C88101220023401C4A70CB700B6156
:1046A0004B618B61C0B261688842EED3002000226A
:1046B0000CE004EB401101F59471002308704A707E
:1046C000401CCB700A614B618A61C0B26668B0421F
:1046D000EFD383B0211D68462022FDF7DFF80EBC22
:1046E0002068FDF765F9002084F824000121697035
:1046F00006B070BD10B500F09FF801D1022010BDCA
:1047000000F093F82068FDF738FC2068FDF746F9C3
:10471000FFE7002084F8280210BD38B5044600F0F9
:1047200081F8000444BF204600F063F900F07AF8F5
:1047300040050CD500F072F84FF6FF3000F06AF833
:104740002046FFF768FC0021204600F07AF800F0D0
:1047500069F8400405D500F061F84BF6FF7000F0F1
:1047600059F800F05FF8800405D500F057F84DF6D1
:10477000FF7000F04FF800F055F8C00417D521681D
:10478000B1F840204FF6FB700240A1F840204FF6F0
:10479000F770B1F840200240A1F840202046FFF712
:1047A0005AFC00F03BF84EF6FF7000F033F800F0D2
:1047B00039F8000516D5206800F14002118841F053
:1047C000080111804FF2FF7193880B409380158888
:1047D00045F004051580FDF7D2FBC0045CBF204600
:1047E000FFF72BFC00F01EF8800508D500F016F846
:1047F0004FF6FF5000F00EF82046FFF708FC00F0DF
:1048000011F8C00505D500F009F84FF6FF6000F07B
:1048100001F831BD0240A1F8442070472168B1F889
:10482000442070472068FDF7AABB012084F82802C5
:1048300001212046FFF7A7BC044694F8280201286E
:10484000704710B5FFF7F8FF01D1022010BD01201D
:1048500084F8280284F824102068FDF788FB58E7C4
:1048600038B5054601F0070005EB40100C0647BFC0
:1048700000F12804012000F59474002001F00701E4
:10488000607021702261E370607808B12178E18165
:10489000022B04BF0020207195F82802012801D1C5
:1048A000022032BD012085F8280221462868FDF744
:1048B0008FF867E010B5044600F086F800F07DF848
:1048C00001D1022010BD00F08EF8FDF7ADF920E710
:1048D00010B501F0070400EB441404F5947401F0E2
:1048E00007016261A3610022E261627014E001F0DD
:1048F000070100EB4110D0F84401704710B501F0FA
:10490000070400EB441428346261A36100220123F0
:1049100001F00701E2616370217021460068FDF734
:1049200009FA002010BD38B505460C46696804F048
:104930000700814201D2012032BD210605D505EBD9
:10494000401000F12801012204E005EB441000F5BD
:10495000947100224A700120887004F007040C70E2
:1049600095F82802012801D1022032BD012085F8E6
:1049700028022868FDF7A5FA24B9286805F50C7106
:10498000FDF700FB002085F8280232BD10B5044673
:1049900001F00F0362689A4201D2012010BD00F0BD
:1049A00013F80023837000F008F801D1022010BD35
:1049B00000F019F8FDF79EFAABE601F0070101706F
:1049C00094F828120129704701F007000A0604EB49
:1049D000401003D5283001234370704700F59470D0
:1049E000002242707047012284F828220146206884
:1049F00070472DE9F84F00F5947500F1240607463D
:104A000027E0018848F60F72114041F4004101800F
:104A10003868B0F85010327901EBC20300EB430064
:104A200000F204400088B269C0F309003062024419
:104A3000B26100213846FFF7E3FA32784AB1F069F3
:104A400038B93178386841F08001A0F84C10002165
:104A50003170386800F144010A88130440F1EF8096
:104A60000A8812F00F0A5DD1D206CAD50288130552
:104A700011D5898900F0EEF8EA88C3F30903EB61E8
:104A800007F50C71FDF79BFA386800F0DBF8384643
:104A9000FFF7A8FADDE71104DBD500F0D3F838689A
:104AA000B0F8501000F0D6F8C3F30903002BEB6107
:104AB0001CBF696900290AD0EA88FDF780FA686995
:104AC000E9690144696138460021FFF791FA3868C5
:104AD000B0F850104118286901F20C4120B908883B
:104AE00048F2FF3210400DE03F2805D24208C007CF
:104AF00048BF521C900207E0420910F01F0F08BF88
:104B0000521E900240F4004008804BF68F723868C5
:104B10000188114081F4405141F4004141F080018D
:104B2000018096E730F82A805FEA084207EB4A19CD
:104B30005BD530F82A1040F68F72114041F08001A9
:104B400020F82A1009F594743868217B69B9B0F807
:104B50005010237801EBC30100F086F831D0E288D1
:104B600061695B46FDF72BFA2BE021780B4630F8A4
:104B7000232053040CD5B0F8502002EBC10100EB08
:104B8000410202F2044200F073F80DD0228907E0DE
:104B9000B0F8503003EBC10100F066F804D0628930
:104BA0005B466169FDF70BFA3968207831F82020FF
:104BB00048F68F731A4042F4004242F0C00221F8D6
:104BC0002020E1695944E16162695A446261A36944
:104BD00013B121698B4504D221783846FFF708FAD2
:104BE00003E021783846FFF773FE5FEA086022D5BC
:104BF000396831F82A2048F60F731A4042F400420F
:104C000009F1280021F82A203A680178B2F85030DA
:104C100003EBC10302EB430202F204421288436930
:104C2000C2F30902C2611A4483694261002B38460B
:104C300002D1FFF7E5F90CE7FFF760FE09E7002076
:104C4000BDE8F28F018840F68F72114041F080017B
:104C5000018070472A7801EBC20300EB430A0AF295
:104C60000C4ABAF80030704700EB410202F20C42E5
:104C70001188C1F3090BBBF1000F704710B50C068A
:104C800005D501F0070100EB4110283003E000EBEF
:104C9000411101F594701AB900210173C38004E039
:104CA000038101211B0C01734381002010BD000012
:104CB000122008801A48704704200880194870475D
:104CC0002DE9104000F028F827A004E02DE910405D
:104CD00000F022F82AA02146FFF76EFC204610BD06
:104CE00038B51A20088010494C68086889680F4D4B
:104CF000081809D00822A91C00F022F8042205F1A6
:104D00001201204600F01CF8284632BD2DE9104063
:104D100000F002F81FA0DEE70A46054C70470000CD
:104D2000580100206C010020ACF7FF1F700100202B
:104D3000DC2700202DE91040FFF7EEFF18A0CAE79E
:104D400030B5002393420DDA040F0A2C2CBF373400
:104D5000303401F8134001EB4305002400016C706E
:104D60005B1CEFE730BD000053544D3332205669D1
:104D7000727475616C20436F6D506F727400000027
:104D800053544D6963726F656C656374726F6E69BD
:104D90006373000043444320436F6E6669670000FD
:104DA00043444320496E7465726661636500000088
:104DB00038B50E4C0E4D002205F57A712046FFF7EE
:104DC000B8F829462046FFF7BCF8002032BD002085
:104DD00070470020704710B50146044C2046FFF78D
:104DE000B0F82046FFF7B3F8002010BD301E0020B9
:104DF000A40D00200448054A016841F470010160D7
:104E00004FF000601060704788ED00E008ED00E0B2
:104E1000000000000000000001020304060708096A
:104E200010B5074979441831064C7C44163404E027
:104E30000A68081D114488470146A142F8D110BDF7
:104E40002C000000480000004EF68851CEF2000110
:104E5000086840F470000860BFF34F8FBFF36F8F96
:104E60004FF00070E1EE100A704700007BD1FFFFA9
:104E7000642C00008C01002000000000A7CAFFFF86
:104E80009C010000BA010000000000207047FEE70E
:104E9000FEE7FEE7FEE770470248FDF744B9024827
:104EA000FFF73BBCA82D0020F420002000F00DF8F7
:104EB000002801D0FFF7B4FFAFF300800020AFF36C
:104EC0000080FDF727FD00F002F80120704700F098
:104ED00001B800000746384600F002F8FBE7000082
:104EE00080B5AFF30080024A11001820ABBEFBE78B
:104EF000260002000148804701480047F54D0008A0
:104F0000114F000864656661756C745461736B00C1
:104F1000AFF30080FFF798FFFFF7C8FF0000000025
:104F200001020304FFF7FEBFFFF7FEBFFFF7FEBF5E
:104F3000FFF7FEBFFFF7FEBFFFF7FEBFFFF7FEBFA5
:104F4000FFF7FEBFFFF7FEBFFFF7FEBFFFF7FEBF95
:104F5000FFF7FEBFFFF7FEBFFFF7FEBFFFF7FEBF85
:104F6000FFF7FEBFFFF7FEBFFFF7FEBFFFF7FEBF75
:104F7000FFF7FEBFFFF7FEBFFFF7FEBFFFF7FEBF65
:104F8000FFF7FEBFFFF7FEBFFFF7FEBFFFF7FEBF55
:104F9000FFF7FEBFFFF7FEBFFFF7FEBFFFF7FEBF45
:104FA000FFF7FEBFFFF7FEBFFFF7FEBFFFF7FEBF35
:104FB000FFF7FEBFFFF7FEBFFFF7FEBFFFF7FEBF25
:104FC000FFF7FEBFFFF7FEBFFFF7FEBFFFF7FEBF15
:104FD000FFF7FEBFFFF7FEBFFFF7FEBFFFF7FEBF05
:104FE000FFF7FEBFFFF7FEBFFFF7FEBFFFF7FEBFF5
:104FF000FFF7FEBFFFF7FEBFFFF7FEBFFFF7FEBFE5
:10500000FFF7FEBFFFF7FEBFFFF7FEBFFFF7FEBFD4
:10501000FFF7FEBFFFF7FEBFFFF7FEBF1200011252
:10502000AA012108430100012210081005127A008C
:105030000A0600020B2240181007E13C0008713DEF
:105040000008B504211F1003CF3E00085D0443A5EE
:105050003E10610112FD1012F5041003053F000817
:105060000D04100909024300020100C03209046165
:1050700012020B101E05240010010524010001047A
:105080002402020524060001070582030800100916
:10509000040100020A4E1002070501027B200107ED
:1050A000058107F2280044224007228107200100E1
:1050B000090744F22C04441003B14D0008CF041238
:1050C000D30412D7041003B14C0008B90412CD0464
:1050D00012C10412E104120D181235041212431009
:1050E0000602020040830440577917020345F00589
:0950F00008040309041A0300017D
:0400000508004F118F
:00000001FF
