:020000040800F2
:10000000A87E0020CDED000865E7000867E700083E
:1000100069E700086BE700086DE7000800000000D2
:10002000000000000000000000000000D11B0008DC
:100030006FE7000800000000791B0008DD160008CB
:1000400025F0000829F000082DF0000831F0000824
:1000500035F0000839F000083DF0000841F00008D4
:1000600045F0000849F000084DF0000851F0000884
:1000700055F0000859F000085DF0000861F0000834
:1000800065F0000869F000086DF0000871F00008E4
:1000900071E7000875F0000879F000087DF00008AD
:1000A00081F0000885F000087BE7000885E700087C
:1000B00089F000088DF0000891F0000895F0000824
:1000C00099F000089DF00008A1F00008A5F00008D4
:1000D000A9F00008ADF00008B1F00008B5F0000884
:1000E000B9F00008BDF00008C1F00008C5F0000834
:1000F000C9F00008CDF0000800000000000000007A
:100100000000000000000000D1F00008D5F0000859
:1001100000000000000000008FE7000899E70008D9
:10012000D9F00008DDF00008A3E70008E1F00008BE
:10013000E5F00008E9F00008EDF00008F1F0000833
:10014000F5F00008000000000000000000000000C2
:10015000000000000000000000000000000000009F
:100160000000000000000000F9F00008ADE7000802
:10017000FDF000080000000001F100080000000090
:100180000000000005F100082DE9F04F85B00600E1
:100190000F0090469946DDF838A00F9C109D002C6A
:1001A00007D1502080F31188BFF34F8FBFF36F8FBB
:1001B000FEE7002D07D1502080F31188BFF34F8F49
:1001C000BFF36F8FFEE7602000900098602807D093
:1001D000502080F31188BFF34F8FBFF36F8FFEE77E
:1001E000002D19D0002C17D0AB46CBF830400220A0
:1001F0008BF85D0000200390CDF808B004A80190B2
:10020000CDF800A04B4642463900300000F047F8D8
:10021000584600F0B7F801E000200490049805B0BB
:10022000BDE8F08F2DE9F84F84B006000F0090462E
:100230009946DDF838A0DDF83CB0404680B2800039
:1002400000F0D2FF0500002D0BD0602000F0CCFFA5
:100250000400002C01D0256304E0280001F054F8CC
:1002600000E00024002C15D0002084F85D00002060
:1002700003900294CDF804B0CDF800A04B4642465E
:1002800092B23900300000F00AF8200000F07AF84D
:10029000012001E05FF0FF3005B0BDE8F08F2DE9EF
:1002A000F14F82B00D0016001F00DDF830800D9C6C
:1002B000DDF83890B00000905FF0A50BD9F830A0C1
:1002C0005A460099504601F0C9F8D9F8300000EBC1
:1002D0008600B0F1040A5FEADA0A5FEACA0A1AF095
:1002E0000700002807D0502080F31188BFF34F8FFC
:1002F000BFF36F8FFEE75FF0000BBBF1100F0CD266
:1003000015F80B0009EB0B0181F8340015F80B0010
:10031000002802D01BF1010BEFE7002089F8430011
:10032000B8F1070F01D306208046C9F82C80C9F820
:100330004C800020C9F8500019F1040001F0D0F8F9
:1003400019F1180001F0CCF8C9F81090D8F10700A5
:10035000C9F81800C9F824900020C9F854000020FA
:10036000C9F85800002089F85C003A00029950460C
:1003700001F0F4F8C9F80000002C01D0C4F8009096
:10038000BDE8F78F38B5040001F078F9DFF868159B
:100390000868401C0860DFF864552868002806D10A
:1003A0002C60086801280DD100F066FB0AE0DFF838
:1003B00050050068002805D1E06A2968C96A8842AA
:1003C00000D32C60DFF83C050168491C016000681F
:1003D0006064DFF834150A680123E06A83401A4339
:1003E0000A60211DDFF8A425E36A1420434302EBD1
:1003F000030001F078F801F05BF9DFF8040500680C
:1004000000280DD02868C06AE16A884208D25FF0EF
:100410008050DFF858160860BFF34F8FBFF36F8F1F
:1004200031BD38B505000024002D15D0DFF8780562
:100430000068002807D0502080F31188BFF34F8F49
:10044000BFF36F8FFEE700F099F80021280000F05D
:1004500065FE00F099F80400002C08D15FF0805090
:10046000DFF808160860BFF34F8FBFF36F8F31BD01
:1004700070B506003500002D07D1502080F311889B
:10048000BFF34F8FBFF36F8FFEE7DFF87004006894
:10049000854201D1002025E001F0F0F868690400F0
:1004A00001F006F9DFF89C050068844204D0DFF80B
:1004B000C0050068844201D1022013E0DFF8B405D2
:1004C000844206D1A86A002801D103200AE0022054
:1004D00008E0DFF8BC04844201D0002C01D10420E4
:1004E00000E00120C0B270BD10B586B000200490BD
:1004F0000020039005AA03A904A801F05DF9DFF824
:100500003049049802900398019000200090002345
:10051000059ADFF820190FF23150FFF735FE206001
:100520002068002801D0012400E00024012C18D10B
:10053000502080F31188BFF34F8FBFF36F8F5FF0B0
:10054000FF30DFF8F41808600120DFF8B41308600A
:100550000020DFF8D41A086001F064FA01F027F8EF
:100560000AE014F1010F07D1502080F31188BFF386
:100570004F8FBFF36F8FFEE706B010BDDFF8280482
:100580000168491C01607047F8B500250026DFF8B6
:1005900018442068002807D1502080F31188BFF349
:1005A0004F8FBFF36F8FFEE701F068F82068401EA1
:1005B00020602068002857D1DFF83C03006800283D
:1005C00052D0DFF868180868002827D0C868C068CB
:1005D000050015F1180000F0ADFF281D00F0AAFF7E
:1005E000DFF824130A680123E86A83401A430A608B
:1005F000291DDFF89823EB6A1420434302EB030024
:1006000000F071FFE86ADFF8F4120968C96A8842ED
:10061000D7D30120DFF8E01A0860D2E7002D01D01F
:1006200000F029FBDFF804793C68002C0CD000F0C6
:1006300077F8002803D00120DFF8BC1A0860641E98
:10064000002CF4D100203860DFF8AC0A00680028E4
:100650000AD0012006005FF08050DFF81014086017
:10066000BFF34F8FBFF36F8F01F022F83000F2BD60
:100670002DE9F24F0600150000270724FFF77EFF43
:1006800000989D490968884245D3641E5FF024089C
:100690000122BE48142101FB04F1014408FB07F0CC
:1006A000304400F081FAC0190700002CEDD102227D
:1006B000DFF89003016808FB07F0304400F074FA9B
:1006C000814619EB07090222DFF8A403016808FB41
:1006D00009F0304400F068FA82461AEB090A042255
:1006E000DFF8AC1208FB0AF0304400F05DFA8346F4
:1006F0001BEB0A0B0322DFF87C1308FB0BF806EB5D
:10070000080000F051FA10EB0B000700002D02D09A
:1007100001F08EF92860FFF737FF3800BDE8F28F4F
:100720002DE9F0410027DFF88002006800286ED133
:10073000DFF8F4080468641C0460002C1CD1DFF8A6
:10074000041308680068002807D0502080F311883F
:10075000BFF34F8FBFF36F8FFEE7D1F80080DFF854
:10076000100302680A60C0F80080DFF8940901688D
:10077000491C016000F07FFADFF8BC86D8F8000061
:10078000844238D3DFF8BC1208680068002804D11E
:100790005FF0FF30C8F800002DE00868C068C0684E
:1007A000050068680600B44202D2C8F8006022E082
:1007B000281D00F0BFFEA86A002803D015F118001C
:1007C00000F0B8FE50490A680123E86A83401A43E2
:1007D0000A60291D6D4AEB6A1420434302EB0300B3
:1007E00000F081FEE86A45490968C96A8842C9D3B0
:1007F00001200700C6E7414800686449C26A142026
:1008000042438858022807D30120070004E0DFF89C
:100810001C070168491C0160DFF8DC08006800283B
:1008200001D0012007003800BDE8F08110B55E4816
:100830000068002804D00120DFF8BC18086040E000
:100840000020DFF8B4180860DFF8B84801F0F0F8CD
:100850002060DFF8B41808682268904207D2274861
:100860000268536D2068C31808681B1A5365206816
:10087000086025480068B0FA80F1D1F11F01142208
:10088000424B02FB01F01858002807D1502080F39A
:100890001188BFF34F8FBFF36F8FFEE702FB01F2AA
:1008A00003EB0200426852684260426810F108039C
:1008B0009A4202D14268526842604068C0680F4A5A
:1008C000106010BD38B504000D00002C07D1502079
:1008D00080F31188BFF34F8FBFF36F8FFEE7DFF810
:1008E0003008006810F11801200000F008FE012116
:1008F000280000F013FC31BD6C7A00205C7A0020E7
:10090000787A0020887A0020747A002038B50500B3
:10091000E868C468002C07D1502080F31188BFF329
:100920004F8FBFF36F8FFEE714F1180000F002FE47
:100930001D480068002814D1201D00F0FBFDDFF8E1
:10094000D4170A680123E06A83401A430A60211D14
:100950000E4AE36A1420434302EB030000F0C3FD98
:1009600005E014F11801DFF8C40400F0BCFDDFF865
:10097000A0070068C06AE16A884205D2012001210F
:10098000DFF88827116000E0002032BDC07400202D
:10099000C4790020DFF8681709680160DFF85C1788
:1009A0000968416070470000947A00202DE9F04109
:1009B00004000D00002C07D1502080F31188BFF3F4
:1009C0004F8FBFF36F8FFEE7002D07D1502080F3CC
:1009D0001188BFF34F8FBFF36F8FFEE700F04EFE1D
:1009E000DFF8440606686768F71B286810F1010FF6
:1009F00002D15FF000081BE0DFF8040700682168FF
:100A0000884205D06068864202D35FF001080FE09B
:100A10002868874208D22868C01B28602000FFF79A
:100A2000B9FF5FF0000803E0002028605FF00108D4
:100A300000F03EFE4046BDE8F0810120DFF8CC1614
:100A400008607047607A002010B5040000F03FF89D
:100A5000DFF8C40600680228F8D35FF080508F49A1
:100A60000860BFF34F8FBFF36F8FEFE704ED00E037
:100A7000647A0020D879002070B50024072C09D2B0
:100A8000DFF89406142101FB04F1084400F019FD7D
:100A9000641CF3E7DFF80857280000F012FDDFF8C8
:100AA0000467300000F00DFDDFF8800300F009FD61
:100AB000DFF8F40600F005FDDFF8F00600F001FDB8
:100AC000DFF8EC060560DFF8EC06066070BD38B5AF
:100AD000DFF8E4562868002817D000F0CFFDDFF8D3
:100AE000C806C068C0680400201D00F023FDDFF8C0
:100AF000CC060168491E01602868401E286000F08D
:100B0000D7FD200000F095F8E2E731BD2DE9F04176
:100B100004000E0015001F00002C04D1DFF8A00611
:100B2000D0F8008000E0A046C6F8008018F134003C
:100B30007060D8F82C003061D8F83000F061D8F837
:100B40004400B060D8F84C007061D8F85400B0612F
:100B50003800C0B2052817D0DFF864060068804569
:100B600002D10020307313E037733800C0B203287D
:100B70000ED1FFF703FDD8F82800002801D002208D
:100B80003073FFF701FD03E04046FFF771FC30735F
:100B9000002D05D0D8F8300000F040F8308401E096
:100BA00000203084BDE8F0812DE9F84304000D00F9
:100BB00016005FF00009286800282CD02800416842
:100BC00049684160416810F10802914202D14168D0
:100BD000496841604068C0688046280041684968AB
:100BE0004160416810F10802914202D141684968B0
:100BF00041604068C06807003300DBB20122242056
:100C000000FB09F004EB00013800FFF77FFF19F14A
:100C100001094745E1D14846BDE8F28301000020C3
:100C20000A78A52A02D1491C401CF9E7800880B245
:100C3000704710B5040094F85D00002806D1206BC1
:100C400000F062FB200000F05FFB13E094F85D0011
:100C5000012803D1200000F057FB0BE094F85D0061
:100C6000022807D0502080F31188BFF34F8FBFF3C5
:100C70006F8FFEE710BDDFF8382510680068002888
:100C800004D15FF0FF306C4A106006E01068C06865
:100C9000C06801004868684A1060704704ED00E0D1
:100CA000DFF820050068002801D1012007E0DFF807
:100CB00018050068002801D1022000E000207047DC
:100CC0002DE9F843040025000026002C52D0DFF85F
:100CD0004094E86AD9F80010C96A884242D2A869EB
:100CE000002805D4D9F80000C06AD0F10700A86137
:100CF000DFF824745FF014086869E96A08FB01F101
:100D00003944884227D1281D00F014FC00280DD159
:100D1000E86A08FB00F03858002807D1DFF8AC1467
:100D20000A680123E86A83409A430A60D9F8000000
:100D3000C06AE862DFF894140A680123E86A834015
:100D40001A430A60291DE86A08FB00F807EB08004F
:100D500000F0C9FB03E0D9F80000C06AE862012096
:100D6000060007E0E86CD9F80010C96A884201D291
:100D7000012006003000BDE8F28370B504002500B4
:100D80000026002C50D0DFF888030068854207D089
:100D9000502080F31188BFF34F8FBFF36F8FFEE7B2
:100DA000286D002807D1502080F31188BFF34F8FA2
:100DB000BFF36F8FFEE7286D401E2865E86AE96C77
:100DC000884231D0286D00282ED1281D00F0B2FBBA
:100DD00000280FD1DFF8F813EA6A1420424388583C
:100DE000002807D1DFF82C130A680123E86A834042
:100DF0009A430A60E86CE862E86AD0F10700A861EB
:100E0000DFF810130A680123E86A83401A430A6076
:100E1000291DDFF8BC23EB6A1420434302EB0300D7
:100E200000F061FB01200600300070BDB0790020A9
:100E3000907A0020BCEF00088C7A00202DE9F84F52
:100E400004000F00A0465FF00109002C6BD0D8F819
:100E50005000002807D1502080F31188BFF34F8F36
:100E6000BFF36F8FFEE7D8F84C00B84201D23E00C6
:100E700002E0D8F84C000600D8F82C00B04252D05E
:100E8000D8F8500048454ED1DFF88402006880450C
:100E900007D1502080F31188BFF34F8FBFF36F8FBE
:100EA000FEE7D8F82C000500C8F82C60D8F8180028
:100EB000002803D4D6F10700C8F81800DFF858A2BC
:100EC0005FF0140BD8F814000BFB05F15144884275
:100ED00029D118F1040000F02DFB002810D1D8F81A
:100EE0002C000BFB00F05AF80000002808D1DFF8B6
:100EF000DC120A680123D8F82C0083409A430A6068
:100F0000DFF8C8120A680123D8F82C0083401A437E
:100F10000A6018F10401D8F82C000BFB00FB0AEB67
:100F20000B0000F0E0FABDE8F18F00007C7A0020B1
:100F300038B504000D002900200000F07FFD2000DE
:100F400000F0A2FD0F2803D220212154401CF9E714
:100F500000212154204432BD2DE9FF41050000202D
:100F60002870DFF85802016803912427006878434D
:100F700000F03AF90400002C53D00022039920001D
:100F8000FFF776FB039000200290029803998842B5
:100F900044D2029878432044007B002806D00228DF
:100FA0000AD006D304280DD009D30EE0582006003D
:100FB0000DE0522006000AE04220060007E0532020
:100FC000060004E04420060001E00020060002982C
:100FD0007843204441682800FFF7AAFF8046029822
:100FE00002997843204480680190794304EB010022
:100FF000008C009002987843204403693200D2B2FA
:10100000DFF8D011404600F097FD404600F03CFD6F
:10101000404405000298401C0290B6E7200000F012
:1010200073F9BDE8FF810000707A00202DE9FF41CF
:10103000060000203070DFF8840101680291242747
:101040000068784300F0D0F80500002D45D001AAD3
:1010500002992800FFF70CFB029001986421B0FB75
:10106000F1F001900198002834D000200090009801
:10107000029988422ED200987843284480690199C9
:10108000B0FBF1F004000098784328444168300038
:10109000FFF74EFF8046002C0AD0230000987843CB
:1010A00028448269DFF83011404600F045FD08E031
:1010B0000098784328448269DFF82011404600F008
:1010C0003BFD404600F0E0FC08EB00060098401CA9
:1010D0000090CCE7280000F017F9BDE8FF81DFF8A9
:1010E000E0100868002803D00868026D521C0265F1
:1010F0000868704700000000807A0020707A0020A5
:10110000847A00209C7A0020987A0020807A00203F
:101110005C7A0020747A0020C07400202DE9F04130
:1011200005000C002E480768DFF89480D8F800000E
:10113000001D00F0FFF9002808D1D8F8000023496D
:101140000A680123C06A83409A430A6015F1010FBF
:1011500008D1002C06D0D8F80000011D134800F07B
:10116000C2F91AE0E8190600D8F800004660BE424D
:1011700007D2D8F80000011D0E48006800F0BFF942
:101180000BE0D8F80000011D0948006800F0B7F92D
:10119000144801688E4200D20660BDE8F08100006C
:1011A000887900209C790020C4790020D87900201B
:1011B000607A0020647A0020687A00206C7A00202F
:1011C0005C7A0020787A0020947A0020747A0020DB
:1011D000C0740020ACED000884EE000890EE00081A
:1011E000707A00208C7A00202DE9F84F04005FF01F
:1011F0000008FFF7C3F9DFF84892D9F8000000288B
:1012000001D100F0BBF8DFF83CA2DAF8000004429C
:1012100069D1002C15D08C480068041914F0070F10
:101220000FD014F1080014F00704041B14F0070F8A
:1012300007D0502080F31188BFF34F8FBFF36F8F1B
:10124000FEE7002C4FD0DFF804B2DBF80000A0422C
:1012500049D37F480600006805006868A04205D2AF
:101260002868002802D02E002D68F6E7D9F8000083
:10127000854238D07448316802681144884629682C
:101280003160006840006968091B884215D205EB8F
:101290000400070017F00700002807D0502080F353
:1012A0001188BFF34F8FBFF36F8FFEE76868001B95
:1012B00078606C60380000F092F8DBF80010686825
:1012C000091ACBF800106348DBF80010026891425D
:1012D00002D2DBF8001001606968DAF8000001430F
:1012E000696000202860FFF74FF918F00700002818
:1012F00007D0502080F31188BFF34F8FBFF36F8F5B
:10130000FEE74046BDE8F28F70B504002600002CD1
:1013100033D04D480068404206443500494968686A
:101320000A68104207D1502080F31188BFF34F8F15
:10133000BFF36F8FFEE72868002807D0502080F3A6
:101340001188BFF34F8FBFF36F8FFEE768680A689D
:10135000104212D0286800280FD16A6808688243BA
:101360006A60FFF70BF939490A68686882180A60F1
:10137000280000F034F8FFF707F970BD70B44FF49F
:10138000A0423548010011F0070F04D0C91DC9085B
:10139000C900521A82180B002D48036000244460D3
:1013A000D41829480068241AE408E400244D2C606D
:1013B00000202E68706000202E6830601800261A09
:1013C00046602D6805604568224E356045681F4EB1
:1013D00035605FF000451B4E356070BC704730B41F
:1013E0001B4A1168814201D21268FAE71400516861
:1013F0002144814204D153684168CB1853601000E6
:101400000300416819441568A94210D10C491468B9
:101410000D68AC4208D04468116849680C194460F2
:1014200011680968016004E00968016001E0116861
:101430000160824200D0106030BC704700000000A4
:101440002C7A0020387A00201CF00008307A002026
:101450001C7A0020347A00200002002062F30F2260
:1014600062F31F42401810F0030308D0C91A1FD3BB
:10147000DB0748BF00F8012D28BF20F8022D13001C
:1014800030B414461546103928BF20E93C00FAD87C
:10149000490728BF20E90C0048BF40F8042D890007
:1014A00028BF20F8022D48BF00F8012D30BC70473E
:1014B000C91818BF00F8012DCB0728BF00F8012D6F
:1014C000704710F1080141605FF0FF31816010F159
:1014D0000801C16010F1080101610021016070473D
:1014E00000210161704742684A6093688B6093688D
:1014F00059609160086103685B1C0360704710B419
:101500000B6813F1010F01D1026907E010F1080225
:1015100054682468A34201D35268F9E754684C60C8
:101520004C68A1608A60516008610468641C0460B2
:1015300010BC7047010008698A684B689A604A6865
:101540008B685A6042688A4201D18A6842600022F0
:101550000A610268521E026000687047001F5FF057
:1015600080730360001F4B085B000360001F0FF2D5
:101570001503036014380260001F7FF0020303604C
:10158000203870477348006810F1010F07D05020D1
:1015900080F31188BFF34F8FBFF36F8FFEE75020AA
:1015A00080F31188BFF34F8FBFF36F8FFEE7E0B575
:1015B00069480168694A914207D1502080F3118837
:1015C000BFF34F8FBFF36F8FFEE700686449884217
:1015D00007D1502080F31188BFF34F8FBFF36F8F77
:1015E000FEE7604801780191FF21017001788DF8D4
:1015F00000109DF8001011F050015B4A11705B491A
:1016000007220A609DF80020120608D50A68521EBB
:101610000A609DF8002052008DF80020F2E70A6869
:10162000D2F10702042A07D0502181F31188BFF3B9
:101630004F8FBFF36F8FFEE70A6812020A600A68D5
:1016400012F4E0620A60019901704948016851F49E
:1016500070010160016851F07041016000F092F882
:1016600000203C49086000F0D1FA4248016851F07E
:101670004041016000F0BAFA00200EBD502080F316
:101680001188BFF34F8FBFF36F8F32490A68521C26
:101690000A60096801290AD137490968090606D094
:1016A00080F31188BFF34F8FBFF36F8FFEE7704752
:1016B00028490868002807D1502080F31188BFF31B
:1016C0004F8FBFF36F8FFEE70868401E0860086801
:1016D000002802D1002080F31188704780B5502087
:1016E00080F31188BFF34F8FBFF36F8FFFF718F8A8
:1016F000002803D05FF080501F490860002080F36D
:10170000118801BDEFF30580102811D31B4A126820
:10171000125C11000A00144B1B78D2B29A4207D215
:10172000502282F31188BFF34F8FBFF36F8FFEE714
:101730000E4A1268124B1B6813F4E0639A4207D2F8
:10174000502282F31188BFF34F8FBFF36F8FFEE7F4
:10175000704700000000002000ED00E071C20F4162
:1017600070C20F4100E400E0A57A0020547A002006
:1017700020ED00E034EF00E004ED00E020F0000890
:101780000CED00E00848002101600021074A1160CB
:10179000074909684FF47A72B1FBF2F1491E054A14
:1017A000116007210160704710E000E018E000E0E0
:1017B0000800002014E000E08C4B03608C4B0B60B1
:1017C00080231360704710B5040000F02DFA00224A
:1017D0000821082000F09EFA864908604FF49670B0
:1017E000FEF71FFEFAE710B50400012000F0ECFA46
:1017F0008149086000F074FF0A20FEF712FEF9E745
:1018000038B504007D480078012802D0022829D08C
:101810002EE0FFF733FF7A4D7A4800F07DFFE88431
:10182000280000F099FF784895F830100176E96AB1
:10183000416101F00FF8FFF73BFFFFF71FFF734D0A
:10184000734800F069FFE884280000F085FF7148C4
:1018500095F830100176E96A416100F0FBFFFFF76F
:1018600027FF05E0684801F0CDF86A4801F0CAF8A2
:101870000A20FEF7D6FDC5E72DE9F0438BB0040042
:101880000820099000200590002008900020079073
:1018900000208DF82800574B186800284FD00022F0
:1018A0006946186800F0E3FB9DF80000052804D0A5
:1018B000072816D0082825D039E002250DF10106A9
:1018C000554F2A003100380001F0ACF802270DF125
:1018D0000308DFF848913A004146484601F0A2F873
:1018E0002DE0022045490870FFF7C8FE07208DF85B
:1018F0000C0002AB03AA05A9494801F06CFAFFF7F6
:10190000D7FE1CE03F4800F018FF414800F015FFEB
:1019100001203A49087008208DF80C0002AB03AA98
:1019200005A93F4801F057FAFFF7C2FE07E0082576
:1019300000266F46320029003800FFF78FFD08258A
:1019400000266F46320029003800FFF787FD01208E
:10195000FEF767FD9FE738B58AB0040000200090CD
:1019600001AB03AA0021200001F0D1FA002809D11F
:10197000204D2868002805D000236A4601A9286860
:1019800000F005FB0BB030BD18B589B00400052090
:101990000790002003900020069000200590002072
:1019A0008DF8200005208DF800001548C18C8DF8B9
:1019B0000110B0F9260000128DF802001348C18C06
:1019C0008DF80310B0F9260000128DF80400FFF71F
:1019D00055FE02AB6A4603A9114801F0FCF9FFF776
:1019E00067FE1920FEF71DFDD1E700004C750020B1
:1019F000C0700020287A0020247A0020FC010020FA
:101A0000B8780020FC7900206C790020F078002064
:101A1000EC79002050790020E0780020187900202F
:101A2000287900200020014908607047507A002082
:101A300001480068704700BF507A00205FEA000C40
:101A400080EA01039B0715D1830706D011F8013BFB
:101A500000F8013BB3B18307F8D10A68B2F1013352
:101A600023EA020313F0803F02BF40F8042B51F831
:101A7000042FF3E711F8013B00F8013B13B111F813
:101A8000013BF9E76046704700F10103810704D08C
:101A900010F8011B820781B1FAD10268A2F101316D
:101AA000914311F0803104BF50F8042FF6E709BAD2
:101AB000B1FA81F100EBD100401CC01A7047F0B4BC
:101AC0000246106895681318506803EB5004C0076D
:101AD0001DD54D441BE013F8017B05F8017B491E21
:101AE000F9D1A0B1B60813F8011B06F00306032EC6
:101AF00008BF13F8016B01EB06214942801C294401
:101B000005D011F8016B05F8016B401EF9D1A34215
:101B10000ED013F8016B16F0030104BF13F8011B7C
:101B2000C91C30090F28DAD113F8010B0F30D6E7A2
:101B3000F0BC02F10C0070470CB430B583B00A461B
:101B400006A90291044600250194009502AB01A963
:101B5000084878441E3001F0C5FB019A1570002832
:101B60004EBF04460198041B204603B030BC5DF80C
:101B70000CFB00BF573A0000EFF30980BFF36F8FF3
:101B8000264B1A681EF0100F08BF20ED108A20E9BE
:101B9000F04F106009B44FF0500080F31188BFF38C
:101BA0004F8FBFF36F8FFEF741FE4FF0000080F3C1
:101BB000118809BC19680868B0E8F04F1EF0100FD2
:101BC00008BFB0EC108A80F30988BFF36F8F7047AD
:101BD000124B19680868B0E8F04F80F30988BFF32A
:101BE0006F8F4FF0000080F3118870470C48006839
:101BF000006880F308884FF0000080F3148862B614
:101C000061B6BFF34F8FBFF36F8F00DFDFF81400B3
:101C1000016841F470010160704700005C7A0020A7
:101C200008ED00E088ED00E010B5114C00221149EC
:101C3000200002F014FB002801D003F001FA0E4945
:101C4000200002F028FB002801D003F0F9F90B492D
:101C5000200003F09FFB002801D003F0F1F92000E1
:101C600002F024FB002801D003F0EAF910BD00BF08
:101C7000706900202C010020180000201C010020A9
:101C800070B506000C003500002D07D1502080F300
:101C90001188BFF34F8FBFF36F8FFEE7FFF7EEFCA6
:101CA0002968EA6B286C424301EB0200686000205F
:101CB000A8632868A8602968EA6B521E286C424312
:101CC00001EB0200E8605FF0FF3085F8440085F822
:101CD0004500002C12D12869002817D015F11000FA
:101CE000FEF714FE002811D05FF08050DFF88C164C
:101CF0000860BFF34F8FBFF36F8F07E015F110003F
:101D0000FFF7DFFB15F12400FFF7DBFBFFF7D0FC4B
:101D1000012070BD2DE9F84304000D001700002CD0
:101D200007D1502080F31188BFF34F8FBFF36F8F1F
:101D3000FEE7002D02D15FF0000901E005FB04F988
:101D400019F15000FFF750FA0600002E0DD016F1E1
:101D500050008046002086F8460000963B00DBB22B
:101D600042462900200000F003F83000BDE8F2836D
:101D70002DE9F04105000C0016001F00DDF8188069
:101D8000002C02D1C8F8008001E0C8F80060C8F853
:101D90003C50C8F8404001214046FFF771FF88F8E9
:101DA0004C70BDE8F08110B50400002C0BD0002071
:101DB0006060002020600020E060002300220021FD
:101DC000200000F011F810BDF8B50400012600272E
:101DD0002200D2B239003000FFF79CFF0500280036
:101DE000FFF7E1FF2800F2BD2DE9F74380460D0023
:101DF000994600244646002E07D1502080F31188D2
:101E0000BFF34F8FBFF36F8FFEE7002D02D1306C11
:101E1000002801D1012000E00020C0B2002807D135
:101E2000502080F31188BFF34F8FBFF36F8FFEE711
:101E3000B9F1020F02D1F06B012801D1012000E0BD
:101E40000020C0B2002807D1502080F31188BFF3D2
:101E50004F8FBFF36F8FFEE7FEF722FF002802D1FE
:101E60000298002801D1012000E00020C0B2002823
:101E700007D1502080F31188BFF34F8FBFF36F8FCE
:101E8000FEE7FFF7FBFBB06BF16B884202D3B9F1C1
:101E9000020F27D14A462900300000F07CFA0700E3
:101EA000706A00280FD016F12400FEF72FFD0028DD
:101EB00014D05FF08050DFF8C4140860BFF34F8F78
:101EC000BFF36F8F0AE0002F08D05FF08050DFF87B
:101ED000AC140860BFF34F8FBFF36F8FFFF7E8FBC1
:101EE000012052E00298002803D1FFF7E1FB002017
:101EF0004BE0002C04D16846FEF74CFD01200400A5
:101F0000FFF7D6FBFEF73AFBFFF7B8FB96F9440064
:101F100010F1010F02D1002086F8440096F9450027
:101F200010F1010F02D1002086F84500FFF7C0FB39
:101F300002A96846FEF73AFD002820D1300000F0E3
:101F4000D8FA002815D0029916F11000FEF7BAFC55
:101F5000300000F089FAFEF717FB002891D15FF0FE
:101F60008050DFF818140860BFF34F8FBFF36F8FF6
:101F700087E7300000F078FAFEF706FB81E73000D3
:101F800000F072FAFEF700FB0020BDE8FE832DE9A9
:101F9000F04707000C00150098463E00002E07D1C0
:101FA000502080F31188BFF34F8FBFF36F8FFEE790
:101FB000002C02D1306C002801D1012000E000206B
:101FC000C0B2002807D1502080F31188BFF34F8F93
:101FD000BFF36F8FFEE7B8F1020F02D1F06B01285B
:101FE00001D1012000E00020C0B2002807D150201C
:101FF00080F31188BFF34F8FBFF36F8FFEE7FFF7BA
:1020000081FBEFF31189502080F31188BFF34F8FCC
:10201000BFF36F8FB06BF16B884202D3B8F1020F40
:1020200020D196F945A042462100300000F0B3F9D6
:1020300050465FF0FF3140B288420DD1706A0028EF
:102040000ED016F12400FEF761FC002808D0002D08
:1020500006D00120286003E01AF1010086F845004F
:10206000012000E0002089F31188BDE8F0872DE908
:10207000F64182B080460E0000244746002F07D16B
:10208000502080F31188BFF34F8FBFF36F8FFEE7AF
:10209000002E02D1386C002801D1012000E0002080
:1020A000C0B2002807D1502080F31188BFF34F8FB2
:1020B000BFF36F8FFEE7FEF7F3FD002802D1039810
:1020C000002801D1012000E00020C0B2002807D183
:1020D000502080F31188BFF34F8FBFF36F8FFEE75F
:1020E000FFF7CCFABD6B002D1BD03100380000F09B
:1020F000A0F9681EB863386900280ED017F11000E7
:10210000FEF704FC002808D05FF08050DFF86C1266
:102110000860BFF34F8FBFF36F8FFFF7C9FA01203D
:1021200057E00398002803D1FFF7C2FA002050E0DF
:10213000002C04D16846FEF72DFC01200400FFF7B7
:10214000B7FAFEF71BFAFFF799FA97F9440010F176
:10215000010F02D1002087F8440097F9450010F1E3
:10216000010F02D1002087F84500FFF7A1FA03A96B
:102170006846FEF71BFC002820D1380000F0ABF9C0
:10218000002815D0039917F12400FEF79BFB3800B7
:1021900000F06AF9FEF7F8F90028A1D15FF080504D
:1021A000DFF8D8110860BFF34F8FBFF36F8F97E749
:1021B000380000F059F9FEF7E7F991E7380000F030
:1021C00053F9FEF7E1F9380000F085F9002887D0CF
:1021D000002004B0BDE8F0812DE9F34182B08046D3
:1021E000002447460025002F07D1502080F3118896
:1021F000BFF34F8FBFF36F8FFEE7386C002807D017
:10220000502080F31188BFF34F8FBFF36F8FFEE72D
:10221000FEF746FD002802D10398002801D10120D5
:1022200000E00020C0B2002807D1502080F31188C0
:10223000BFF34F8FBFF36F8FFEE7FFF71FFABE6B41
:10224000002E1CD0701EB8633868002802D1FEF73B
:1022500046FF7860386900280DD017F11000FEF7AE
:1022600055FB002807D05FF0805044490860BFF359
:102270004F8FBFF36F8FFFF71BFA01207AE00398AF
:1022800000280DD1002D07D0502080F31188BFF316
:102290004F8FBFF36F8FFEE7FFF70AFA002069E068
:1022A000002C04D16846FEF775FB01200400FFF7FF
:1022B000FFF9FEF763F9FFF7E1F997F9440010F130
:1022C000010F02D1002087F8440097F9450010F172
:1022D000010F02D1002087F84500FFF7E9F903A9B3
:1022E0006846FEF763FB00282AD1380000F0F3F8B7
:1022F00000281FD03868002807D1FFF7BFF9786899
:10230000FEF7DEFC0500FFF7D3F9039917F124006F
:10231000FEF7D8FA380000F0A7F8FEF735F90028E4
:102320008BD15FF0805015490860BFF34F8FBFF32A
:102330006F8F82E7380000F097F8FEF725F97CE709
:10234000380000F091F8FEF71FF9380000F0C3F8EC
:1023500000283FF472AF002D0BD0FFF78FF9380043
:1023600000F00EF8060031007868FEF767FDFFF711
:102370009FF9002004B0BDE8F081000004ED00E00A
:102380000100486A002804D0086B0068D0F10700FB
:1023900000E0002070472DE9F84F06000F00140000
:1023A0005FF00008B56B306C002809D13068002858
:1023B0003AD17068FEF7E1FC80460020706033E09F
:1023C000002C14D1D6F84090BA46D6F808B04A4648
:1023D0005146584600F026FBB068316C0844B060A6
:1023E000B068716888421FD33068B0601CE0D6F8CE
:1023F0004090BA46D6F80CB04A465146584600F0CE
:1024000011FBF068316C49420844F060F0683168B3
:10241000884204D27068316C49420844F060022C52
:1024200002D1002D00D06D1E681CB0634046BDE88F
:10243000F28F2DE9F04104000D00206C002811D02E
:10244000E068216C0844E060E0686168884201D37C
:102450002068E060266CE768A846320039004046F4
:1024600000F0E0FABDE8F081F8B50400FFF706F9E6
:1024700094F94550280040B201280CDB606A00281E
:1024800009D014F12400FEF741FA002801D0FEF72C
:10249000D4FA6D1EEEE75FF0FF3684F84560FFF773
:1024A00007F9FFF7EBF894F94470380040B20128BF
:1024B0000CDB2069002809D014F11000FEF726FA81
:1024C000002801D0FEF7B9FA7F1EEEE784F84460D9
:1024D000FFF7EEF8F1BD38B50400FFF7CFF8A06BB9
:1024E000002801D1012500E00025FFF7E1F82800D0
:1024F00032BD38B50400FFF7C1F8A06BE16B88422C
:1025000001D1012500E00025FFF7D2F8280032BDF7
:1025100070B5764C764D774E33002A002100764810
:1025200002F096FF33002A002100744802F090FF69
:1025300070BD10B50400002C07D014F1010F01D1BB
:10254000002004002000FDF76CFF10BD38B504002A
:1025500000258DF8004000208DF801006846FFF747
:1025600093FA010089B2684602F0C9FF050028000D
:10257000C0B2002800D0F1E731BD0EB42DE9F04320
:1025800004005F4D64212868FFF726FE07AEDFF8E0
:10259000748132002100404602F0D2FF0700002F74
:1025A00006D5DFF864810421404602F0A8FF1CE054
:1025B00040F20140874206D3DFF8508104214046B3
:1025C00002F09DFF11E05FF00009B9450DDA18F83F
:1025D00009000A2802D10D20FFF7B8FF18F80900FA
:1025E000FFF7B4FF19F10109EFE7002300220021F2
:1025F0002868FFF7F9FB3800BDE8F0035DF810FB31
:10260000F0B402000024002304258C421AD2404E6C
:10261000180080B2305C002809D0180080B2305C0D
:10262000107000201F00BFB2F05501200BE05B1CB2
:10263000641C18002E0080B2B6B2B042E5D1002072
:102640000300E2E70020F0BC70470EB42DE9F8412A
:1026500005002B4E64213068FFF7BEFD00245FF0BB
:10266000FF316846FFF7CCFF9DF800000D2803D02E
:102670009DF800000A2817D10023002200213068AD
:10268000FFF7B2FB2348002101550DF11C0842461B
:10269000290002F06FFF07000023002200213068AC
:1026A000FFF7A2FB380017E09DF80000FFF74EFF90
:1026B0009DF80000082809D1002C06D0641E2020B7
:1026C000FFF744FF0820FFF741FFC8E79DF800002F
:1026D00010490855641CC2E7BDE8F2015DF810FB23
:1026E00080B5054802F056FFFBE700005CED0008EE
:1026F000B4EA0008B5D2000800520020D0570020EC
:10270000247A0020A05D0020ACE8000864E80008FE
:10271000A06100207876002002007FF00E03106890
:1027200000680068000910F001001073106800686C
:10273000406A9168401A00B27047010088680A68D0
:102740001268506208680068406A8A68904201D145
:10275000002000E00120704770B52DED028B0600CF
:10276000706B0068406AB084B08C002868D0B6F9FD
:102770002810B6F92600091AB161316AB28CB06925
:1027800000FB02113162B169F069091A00EE101AFA
:10279000B8EEC00AB08C00EE900AF8EE600A80EE47
:1027A000208A002086F83000B06902F013FFD6E9D5
:1027B000002302F021FF04000D00306A02F00AFF3E
:1027C0000022224B02F0EAFFD6E9022302F014FFB6
:1027D00022002B0003F006F904000D0018EE100A89
:1027E00003F0BEF9D6E9042302F006FF22002B0015
:1027F00003F0F8F803F0D8F9F06296ED0B0AB5EEA5
:10280000400AF1EE10FA0AD5012086F8300096ED64
:102810000B0AFFEE000A20EE200A86ED0B0A96ED69
:102820000B0ADFED090AB4EE600AF1EE10FA01DBE3
:102830000748F062B069F0610020716B0968486276
:10284000BDEC028B70BD00BF0100C84200408F404C
:102850000000C84210B52DED028B040094ED050A6E
:10286000DFED650AB4EE600AF1EE10FA01DB01203B
:1028700000E0002094ED050AB5EE400AF1EE10FAF2
:1028800001D5012100E00021C0B2C9B208430028EF
:1028900040F0AE80B0EE080AD4ED050AF4EE400A2E
:1028A000F1EE10FA01D584ED050A94ED050ADFED8D
:1028B000530AB4EE600AF1EE10FA01DB5048606191
:1028C000A06890ED030AB8EE400AD4ED050A20EEA8
:1028D000200ADFED4B0A80EE200ABCEEC08A207E83
:1028E00000283CD0E068002805D118EE100AA16845
:1028F0000968486316E0E068042805D118EE100A5C
:10290000A168096888630DE0E068082805D118EE21
:10291000100AA1680968C86304E018EE100AA168EB
:10292000096808642069002804D10020A1680968AA
:10293000486350E02069042804D10020A168096898
:10294000886348E02069082804D10020A16809684C
:10295000C86340E00020A168096808643BE0E068C3
:10296000002804D10020A1680968486313E0E068EA
:10297000042804D10020A168096888630BE0E0689E
:10298000082804D10020A1680968C86303E000207A
:10299000A168096808642069002805D118EE100AAA
:1029A000A1680968486316E02069042805D118EE7B
:1029B000100AA168096888630DE02069082805D11C
:1029C00018EE100AA1680968C86304E018EE100A3E
:1029D000A168096808640122A188206803F0FCF955
:1029E000E168A06803F088FA2169A06803F084FA1E
:1029F000BDEC028B10BD00000100C8420100C242C4
:102A00000000C84210B504000022A188206803F02D
:102A1000E3F9E168A06803F0A0FA2169A06803F077
:102A20009CFA10BD62B38B0708D0521E11F8013B0F
:102A300000F8013B00F024808B07F6D1830740F0BB
:102A4000208000BF103A07D330B4B1E83810103AF4
:102A5000A0E83810F9D230BC530724BFB1E8081001
:102A6000A0E8081044BF51F8043B40F8043BD207EB
:102A700024BF31F8022B20F8022B44BF0B780370DF
:102A80007047121F17D35B0009D151F8043B20F89F
:102A9000023B1B0C121F20F8023BF6D20BE051F850
:102AA000043B00F8013B1B0A20F8023B1B0C121FE1
:102AB00000F8013BF3D238BF121D521E24BF11F89B
:102AC000013B00F8013BF8D8704730B4002513E013
:102AD00050F8042BD30744BFA9F101039A18091F2A
:102AE000042942F8045BFAD213468C0744BF1580D0
:102AF0009B1CC90748BF1D7050F8041B0029E7D173
:102B000030BC704770B50400002C01D10120AEE04C
:102B100094F82000002802D1200003F009FE20686C
:102B2000006830F002002168086003F0E7FF05004C
:102B30002068406880070DD503F0E0FF401B0B289C
:102B4000F6D3606A50F400306062052084F82000FB
:102B500001208CE02068006850F0010021680860C6
:102B600003F0CCFF060020684068C0070DD403F0D6
:102B7000C5FF801B0B28F6D3606A50F400306062FA
:102B8000052084F82000012071E0207E012806D174
:102B90002068006850F080002168086005E0206827
:102BA000006830F0800021680860607E012806D14E
:102BB0002068006850F040002168086005E0206847
:102BC000006830F0400021680860A07E012806D12E
:102BD0002068006850F020002168086005E0206847
:102BE000006830F0200021680860E07E012806D1EE
:102BF0002068006830F010002168086005E0206857
:102C0000006850F0100021680860207F012806D17C
:102C10002068006850F008002168086005E020681E
:102C2000006830F0080021680860607F012806D144
:102C30002068006850F004002168086005E0206802
:102C4000006830F0040021680860A168E068014372
:102C500020690143606901436068401E01432068A8
:102C6000C16100206062012084F82000002070BD56
:102C7000F0B40200136892F820402000C0B201288E
:102C800003D02000C0B2022870D1D3F8000250F067
:102C90000100C3F8000201200D7D15F01F0510FA98
:102CA00005F5D3F81C02A843C3F81C02C869002824
:102CB00016D1D3F80C02A843C3F80C02486903EB01
:102CC000C000CE684F68C7EA0646C0F8406248694F
:102CD00003EBC0008E680F68C7EA0646C0F844627E
:102CE000C869012816D1D3F80C022843C3F80C0296
:102CF000486903EBC0000E684F68C7EA0646C0F893
:102D00004062486903EBC0008E68CF68C7EA064698
:102D1000C0F844628869002805D1D3F80402A843AA
:102D2000C3F8040204E0D3F804022843C3F8040201
:102D30000869002805D1D3F81402A843C3F8140287
:102D400004E0D3F814022843C3F81402086A0128E7
:102D500004D1D3F81C022843C3F81C02D3F80002A4
:102D600040084000C3F80002002004E0506A50F41C
:102D7000802050620120F0BC704738B5040094F800
:102D80002000012821D1022084F82000206800685A
:102D9000400840002168086003F0B0FE050020688C
:102DA0004068C0070DD503F0A9FE401B0B28F6D3E1
:102DB000606A50F400306062052084F82000012031
:102DC00008E000206062002004E0606A50F4002007
:102DD0006062012032BDF0B5040094F820502068F4
:102DE000866888680028FFD02800C0B2012804D077
:102DF0002800C0B2022840F0848016F0E05F7AD04C
:102E0000C6F30167032F05D3606A50F400006062C7
:102E100001207BE00120B8401860886800280BD1B1
:102E20000868D1F80CC05CEA405C20685FEA071EC5
:102E30007044C0F880C10DE04868D1F808C05CEA71
:102E4000C00CC86850EA0C0C20685FEA071E70448A
:102E5000C0F880C10869D4F800C05FEA071EF444D6
:102E6000CCF88401087D01280ED120685FEA071C98
:102E70006044D0F8840150F48070D4F800C05FEA58
:102E8000071EF444CCF88401D07992F806C05FEABA
:102E90000C4C5CEA006C50795CEA002C107950EA2A
:102EA0000C0C20685FEA071E7044C0F88CC1D07813
:102EB00092F802C05FEA0C4C5CEA006C50785CEA65
:102EC000002C107850EA0C0C20685FEA071E704452
:102ED000C0F888C120685FEA071C6044D0F8800110
:102EE00050F00100D4F800C05FEA071EF444CCF8AB
:102EF000800100200AE0606A50F400106062012046
:102F000004E0606A50F4802060620120F0BD70B47B
:102F1000040094F820502800C0B2012804D02800F2
:102F2000C0B2022840F0988000290AD12068C06809
:102F300010F0030F10D1606A50F40010606201209D
:102F40008FE02068006910F0030F05D1606A50F42B
:102F500000106062012084E020680E013044D0F847
:102F6000B00110F0040090609068002807D120683C
:102F70000E013044D0F8B001400D106006E020682A
:102F80000E013044D0F8B001C008506020680E0136
:102F90003044D0F8B00110F00200D06020680E017B
:102FA0003044D0F8B40110F00F00106120680E0119
:102FB0003044D0F8B401C0F30720906120680E01BE
:102FC0003044D0F8B401000C506120680E01304448
:102FD000D0F8B801187020680E013044D0F8B8015C
:102FE000000A587020680E013044D0F8B801000C77
:102FF000987020680E013044D0F8B801000ED870E7
:1030000020680E013044D0F8BC01187120680E0110
:103010003044D0F8BC01000A587120680E013044D9
:10302000D0F8BC01000C987120680E013044D0F833
:10303000BC01000ED871002906D12068C06850F08C
:1030400020002668F06005E02068006950F020004C
:1030500026683061002004E0606A50F480206062DD
:10306000012070BC704710B4020092F820301800A4
:10307000C0B2012803D01800C0B2022806D11068DF
:103080004069084314686061002004E0506A50F40D
:1030900080205062012010BC70472DE9F84F0500D8
:1030A000002428684669286847682868D0F808809E
:1030B0002868D0F80C902868D0F810A02868D0F8BC
:1030C00018B0F00755D55FEAC87018D501202968F7
:1030D00088605FEA887003D5280003F015FD0EE0D4
:1030E0005FEA487002D554F4006408E05FEA0870B3
:1030F00002D554F4805402E0280003F006FD5FEA94
:10310000C85019D54FF48070296888605FEA8850EC
:1031100003D5280003F0FAFC0EE05FEA485002D520
:1031200054F4005408E05FEA085002D554F4804497
:1031300002E0280003F0EBFC5FEAC83019D55FF429
:103140008030296888605FEA883003D5280003F062
:10315000DFFC0EE05FEA483002D554F4004408E09A
:103160005FEA083002D554F4803402E0280003F00E
:10317000D0FC300707D55FEAC96004D554F4007469
:1031800010202968C860700708D55FEA097005D566
:1031900008202968C860280003F0BCFCB00707D5E8
:1031A0002868C06810F0030F02D02800FEF7D3FB98
:1031B000700607D55FEACA6004D554F48064102015
:1031C00029680861B00608D55FEA0A7005D50820AD
:1031D00029680861280003F09EFCF00607D52868DE
:1031E000006910F0030F02D0280003F095FCB00333
:1031F00007D5F80605D5102029684860280003F097
:103200008CFCF00307D5380705D5082029684860ED
:10321000280003F083FC300447D5780742D5F00539
:1032200006D51BF00100C0B2002801D054F0010403
:10323000B00504D55FEA8B7001D554F00204700527
:1032400004D55FEA4B7001D554F00404300529D54C
:103250001BF0700F26D01BF0700010280AD0202819
:103260000BD030280CD040280DD050280ED060282C
:103270000FD011E054F008040EE054F010040BE0FD
:1032800054F0200408E054F0400405E054F08004B9
:1032900002E054F48074FFE72868806930F0700021
:1032A00029688861042029684860002C05D0686A74
:1032B00020436862280003F032FCBDE8F18FB1F5CD
:1032C000807F02D34FF0FF307047017001207047BC
:1032D0000A780260087800E00078401E8041C04310
:1032E000C00F70472DE9F04F0FF2A41CA1B0DCE92C
:1032F0000089CDE900892A9DDFF8109C0491002403
:103300008DF843500D944FF0FF38824616461F4605
:103310000FE0B3462C461BF8011B0498D047002849
:10332000049000F0A2800D98401C641E0D90F2D114
:1033300076193078252808D10021002207910892BB
:1033400009910A920B910C920DE06A464146304673
:1033500003F057FC050001D10D98A1E0D9D5012556
:10336000E6E741F0010116F8010F2028F9D02328E3
:103370000CD02B2804D02D2805D0302809D076E099
:1033800041F00201EFE741F00401ECE741F00801F0
:10339000E9E741F01001E6E70F9209E00F98484590
:1033A00005DA00EB800402EB4402303A0F92761CFF
:1033B0003278A2F130000A28F0D330782E2818BFD6
:1033C000CDF8388022D116F8010F2A2807D13868A5
:1033D0003860761C50F8042B38600E9216E02D28C9
:1033E0000CBF761C002000220E920AE040B90E9A13
:1033F0004A4505DA02EB820403EB4403303B0E93AB
:10340000761C3378A3F130020A2AEFD3ADF84010CE
:1034100021A0317803F006FC08B116F8010B8DF8F5
:1034200042009DF84200682804D1307868280AD10B
:10343000622105E06C2804BF30786C2803D171212B
:103440008DF84210761C12A806903A4616F8013BF9
:1034500002A9504600F064F838B912AA02A95046F1
:1034600000F0CAF900287FF564AF404618E02A282A
:1034700092D13A683A6052F8040B3A6000280F90F3
:1034800003D540420F9041F00401761C95E70000FF
:103490000000000000000000686A6C747A4C0000B4
:1034A00021B0BDE8F08F622820D0682811D06A28AA
:1034B00003D06C2827D0712825D10868C01D20F0C2
:1034C00007000860D0E9002308300860194610465C
:1034D0007047002A0A680A60106803D0121D0A604B
:1034E00000B217E0121D0A6080B217E0002A0A68D5
:1034F0000A60106803D0121D0A6040B20AE0121D73
:103500000A60C0B20AE0002A0A680A60106803D0A4
:10351000121D0A60C1177047121D0A600021704712
:103520007CB50D4611461C462E69B4F1250200F00B
:1035300051811C3A00F08680121F022A40F28280DC
:103540000E3A00F00B81521F5AD0093A7AD0921EDF
:1035500016D0521E35D0521E022A73D9121F30D0F7
:10356000521F00F09A80521E4AD0521E00F0E48092
:10357000D21E00F00181921E42D0D21E40D02FE117
:1035800095F83A406C2C09D06869421C6A610A6857
:103590000A6052F8043B0A6033542BE10A680A605F
:1035A00052F8043B0A600093002201924FF0FF336F
:1035B0002B636A46294600F09AF9002840F11A81E7
:1035C00005E195F83A000122FFF76DFFC5E900011A
:1035D0000023994204DA6869411C69612D220DE0DB
:1035E000288F810704D56869411C69612B2205E099
:1035F000C00722D56869411C6961202232541CE051
:1036000095F83A000022FFF74EFFC5E9000195F852
:103610003800010711D5D5E900230020834208BFF7
:1036200082420AD044F02000782806D1686930210F
:103630003154401C421C6A6134542146686930444C
:10364000E86087E00868C01D20F007000860D0E946
:10365000002308300860C5E90023D5E90001C80F40
:1036600004D06869411C69612D220DE0288F810713
:1036700004D56869411C69612B2205E0C00704D5A7
:103680006869411C69612022325468693044E860ED
:103690002146284600F03AFAACE005F13A025078AB
:1036A00020B14FF0FF340FF6343074E01078622808
:1036B00008D0682824D06A2812D06C282ED071280F
:1036C0000ED02BE00A680A6052F8040B0A6020B999
:1036D0004FF0FF340FF61C305DE0E96A017089E0BD
:1036E0000A680A6052F8040B0A6020B94FF0FF34F0
:1036F0000FF600304FE0EA6AD317C0E9002379E003
:103700000A680A6052F8040B0A6020B94FF0FF34CF
:103710000FF6E0203FE0E96A01806BE00A680A608A
:1037200052F8040B0A6020B94FF0FF340FF6C420A2
:1037300031E0E96A01605DE00A680A6052F8040B52
:103740000A60002120F0000221F0FF33C5E90023C8
:10375000EE607821284600F02DF94BE06C2285F8C8
:103760003A200B680B6053F8042B0B6052BB4FF0F0
:10377000FF340FF6B4200EE095F83A206C2AF0D012
:103780000868086050F8044B0860EC603CB94FF0E2
:10379000FF340FF6782003F051FA201A76BD2E6B15
:1037A000002E04D52046FEF76FF9044608E03246A5
:1037B0000021204603F062FA002814BF041B34469F
:1037C000AC6117E0294600F092F8002812D54FF0BE
:1037D000FF3076BD6869411C69612522325409E0D9
:1037E0006969481C686125227254210002D0431C7B
:1037F0006B613454002076BD2DE9F0410E4605463C
:103800009046726B7069316AB46A121AB069521AC2
:10381000716A121AF069521A121A96F83800141BBB
:1038200041070DD4002C0BDD2746B0682021A847A6
:103830000028B06057D0F06A401C7F1EF062F4D1BF
:10384000736942463146284600F0B0FC00284AD150
:10385000376A002F0ADDB0683021A8470028B06021
:1038600041D0F06A401C7F1EF062F4D1B369F26867
:103870003146284600F09AFCA8BB776A002F09DD84
:10388000B0683021A847B06068B3F06A401C7F1E62
:10389000F062F5D1F068B169F36942183146284603
:1038A00000F084FCF8B9B76A002F09DDB068302158
:1038B000A847B060B8B1F06A401C7F1EF062F5D135
:1038C00096F8380041070BD5002C09DDB06820219F
:1038D000A847B06038B1F06A401C641EF062F5D1B0
:1038E0000020BDE8F0814FF0FF30BDE8F0812DE908
:1038F000F8470D46A3B02F6B002F0646904648BFF1
:103900006FF000470FF63C1403F0E4F9D4E900230C
:10391000696B4018CDE90123812828BF4FF0FF30A3
:1039200042D20024002F33DDD8F8001001AA6846E7
:1039300003F06FF98146B9F1000F38D4D8F80000D0
:1039400010B9B9F1010932D44F4521DB6869484407
:1039500081280AD30021696303AA29463046FFF76C
:103960004BFF040014D40020686103ABD5F814A009
:103970004A46694603EB0A00FFF754F8CA44C5F803
:1039800014A058F8040B002818BFA7EB0907C9D1E9
:103990004CB903AA29463046FFF72EFF044614B956
:1039A000002068616863204624B0BDE8F0874FF0CE
:1039B000FF34F8E72DE9FC4707468C463E69BCF129
:1039C0006F0F08BF082405D04CF02000782814BFE2
:1039D0000A2410243C25D7E90023BCF1640F18BF4A
:1039E000BCF1690F9046994606D100218B4203DA5B
:1039F000D8F1000869EB49094FF0000AD14508BF2A
:103A0000D0451FD1386BE8B9082C4BD197F8380056
:103A1000010747D530203B2586F83B0042E00028CF
:103A20000ED597F8380000F01400102808D17B6BF1
:103A30007969386A5B1A1B1A9A1A002AC8BF3A6257
:103A4000BDE8F3878DF800C0404649462246E3179B
:103A500003F046F93032D0B26D1E3A28019504DBEE
:103A60009DF80000A0F151018A1872554046494660
:103A70002246E31703F034F989468046D14508BF52
:103A8000D04503D0F86871198842DDD3082C09D1DC
:103A900097F83800010705D5705D302802D06D1EFB
:103AA00030207055C5F13C02BA617119F960386B6C
:103AB0008242B4DA821A3A624FF6EF70398F0140CF
:103AC0003987BDE8F3872DE9D04306460F461446F3
:103AD0004FF00008DFF8389412E0E00707D54246BF
:103AE0004B463046394601F087FD06460F464046B4
:103AF000494642464B4601F07FFD641080468946A8
:103B0000002CEAD130463946BDE8D0832DE9F34F89
:103B1000054641F020048DB0D5E90089612C02AE44
:103B200009D0286B002848BF062003D408BF672CA3
:103B300001D101202863D5E9002358004015401C1D
:103B40000ED119030CD00320A8619DF838106139FB
:103B50001A2902D20FF2F46111E00FF2F4610EE0C3
:103B600059004915491C0FD118030DD10320A86134
:103B70009DF8381061391A2914D30FF2DC61E86816
:103B80000322FEF74FFFD3E1194621F00043B3F5BE
:103B9000801F10460DD20027BB4208BFBA420197D2
:103BA00003D111E00FF2AC61E9E701AA03F0B0F92B
:103BB0000AE0DFF8607307EB1352DFF85C33019221
:103BC0001940DFF858331943C5E90001612C0ED1C3
:103BD000E86830210170821CEA609DF83810612984
:103BE0000CBF7821582141706869801C6861D5E953
:103BF00000AB2BF0004300202AF00002834204BFF8
:103C00008242002300F05B81612C40F0AA80286B87
:103C1000002847BF21210091401C0090009F7F1C7D
:103C2000404649460022002303F0AAF9D9460199EB
:103C30008DF8082038BF89F00049091F002FD046B1
:103C400001910DF1090040F34981B349DFF8D0B289
:103C50000C910646404649460022002303F0A8F98D
:103C600080F03B814800400D00F11C0211D0002A79
:103C70000FDD40F2FF70824205DB09F0004040EAB0
:103C80000B01002013E00C98014041EA025140462C
:103C90000DE029F00043002028F00002834208BF15
:103CA00082420FBF40461C22404603F099F98046ED
:103CB000894603F033FAFF1F002F044609DD01F0A7
:103CC00089FC02460B464046494603F045FA8046C9
:103CD0008946F01D072104E004F00F0200F8012DD1
:103CE0002411002C01DD491EF6D5491E5CBF0022BF
:103CF00000F8012DF9D5ECE00020194602AA0A448B
:103D000000E05B1E12F80149491E8442F9D00F28D9
:103D100004D10DF10900425C521C4254002904D523
:103D20000198001D02AE5B1C0190591E12D49DF833
:103D300038007218A0F13A07147804F130085FFADD
:103D400088F43A2CA8BFB844491E02F80189F3D57B
:103D50008DF83800286B002840F1B080591E296387
:103D6000ACE0404649460022002303F009F90199DE
:103D700038BF89F0004947F297504143694A91FBA7
:103D8000F2F20192D2F1070204DD40464946FFF704
:103D90009AFE0AE0524200206349FFF794FE024671
:103DA0000B464046494601F0F9FC8046662C286BDC
:103DB000DFF878B106BF019F0A3706273F18142F96
:103DC000C8BF142730208DF8080089460DF109007E
:103DD00000E03046002F34DD06464046494603F0F9
:103DE0002DFA01460A4606F1080304200A26B2FB12
:103DF000F6F606EB860EA2EB4E02303203F8012CEB
:103E00000A22B6FBF2F202EB820EA6EB4E06303629
:103E1000401E03F8026DE9D1083F002F03F10806A8
:103E2000D7DD084603F01EFA02460B4640464946D7
:103E300003F092F900225B4601F0DEFB80468946E2
:103E4000CBE70DF10901401A0DF1090604E00199D3
:103E5000491E401E0191761C31783029F7D0662C1E
:103E600002D10199491C03E0652C0CBF01210021FE
:103E70002B6BCB189842B8BF431E002B1ED4834235
:103E800004DAF05C3528A8BF392000DA3020194662
:103E9000721E02EB010800E05B1E18F80199491E32
:103EA0008145F9D0392802D1705C401C705400293A
:103EB00004D50198401C16465B1C0190019800B285
:103EC00000901BB29DF838103246284600F034F8B6
:103ED0002EE0C61D002F3FF7BDAE30460DF10901A3
:103EE000401A009903468842C8BF0B46002B0DF1CB
:103EF00009063FF52FAF8342BFF6FEAE0DF1090074
:103F0000C15C07297FF7F8AE0F20F6E6CBCCCC0CCE
:103F10000000244002FCFFFFFFFF0F800000E03F95
:103F20000000F07FA08601000000F03F84D7974199
:103F30000FB0BDE8F08F00002DE9F84783B00646CA
:103F40008A461746984602F066FEB8F1000F406AAE
:103F5000356B90F8009002DC4FF00108BFA74AF0E3
:103F60002000BDF93040662808BF641C15D06728C2
:103F700040F0848014F1040FC0F28680AC4280F2DD
:103F8000838096F83800641C010702D4A845B8BFA6
:103F9000454620B22D1A48BF00250FFA84FAF06872
:103FA000B169BAF1000F25DC4A1C30234354002DBF
:103FB00003DC96F83800010703D5F06800F802909A
:103FC000521C15EB0A0FB8BF6C4220B24419414293
:103FD0004445B8BFA046B26171620FFA88F5F56139
:103FE000F068B3692A4639461844FEF71BFD641B86
:103FF000B462C4E022B29045084417DA424639461A
:10400000FEF710FDB0694044B061AAEB0801002D35
:10401000716203DC96F838100A0705D5F16801F8DB
:104020000090F069401CF061B562A8E03946FEF7E7
:10403000F9FCB069002D5044A8EB040803DC96F8A5
:1040400038100A0703D5F16801F80090401CB061F0
:104050000FFA88F08542F368B069B8BFA8460FFA36
:1040600088F207EB0A011844FEF7DCFCB1690FFA8D
:1040700088F00144B161281A706280E0BAF1610FE2
:1040800014D14FF0700A16E0A84504DA96F83810FB
:104090000A0758BF45466D1E48BF0025BAF1670F95
:1040A00014BF4FF0450A4FF0650A04E0BAF1410F22
:1040B00008BF4FF0500AB169F368481CB061002D89
:1040C00017F8012B5A5403DC96F838100A071BD551
:1040D000F168431CB36101F80090002D14DDA8F1D4
:1040E00001080FFA88F039468542F768B8BFA8463C
:1040F0000FFA88F2F818FEF795FCB0690FFA88F10C
:1041000008446D1AB0617562F068B1690844002C0A
:1041100080F800A003D42B224270811C03E02D21E3
:1041200041706442811C00206A460AE023460A244A
:1041300093FBF4F404EB8405A3EB450302F8013B85
:10414000401C24B2002CF1DC012806DC4AF02002DD
:10415000652A04BF302201F8012B48B9302001F84C
:10416000010B07E0401E1DF80030303301F8013B21
:104170000028F7DCF268B0691044091AF16196F87A
:10418000380000F0140010280DD17269B169706A0E
:104190008A18F1698218B06A8A188218706B824294
:1041A000BCBF821A326204B0BDE8F087F8B505469C
:1041B0000E4617461C46002074B117F8011BB06864
:1041C000A847B06030B1F06A401CF0620020641E65
:1041D000F3D1F2BD4FF0FF30F2BD00007072696E96
:1041E00074665F733A20256E20646973616C6C6F2E
:1041F000776564007072696E74663A20626164204B
:10420000256E20617267756D656E74007072696EDF
:1042100074665F733A20626164202573206172675F
:10422000756D656E740000007072696E74665F7300
:104230003A2062616420256C7320617267756D6538
:104240006E74000000000000000000006E616E004F
:104250004E414E00696E6600494E4600300070B512
:1042600005000C001600002D01D1022012E0D5F847
:10427000B402002802D00020C5F8B402002C01D0FE
:10428000C5F8B042012085F89C022E70280003F08A
:104290008BF8002070BD02000023002903D0C2F873
:1042A000B412002000E00220C0B2704710B5040034
:1042B000200003F0B9F8002010BD01000020704775
:1042C00070B504000D000226D4F8B40200280AD00C
:1042D0002900C9B22000D4F8B422126890470028FF
:1042E00001D1002006003000C0B270BD38B5040016
:1042F0000D002900C9B22000D4F8B42252689047BA
:10430000002032BD38B504000D00290014F52A70D4
:1043100003F061FD0120C4F89402B4F8AE02C4F8C1
:10432000980294F8A80210F01F00002803D0022879
:104330000DD006D311E014F52A71200003F074F9B2
:1043400012E014F52A71200003F0C1F90CE014F515
:104350002A71200003F0F2F906E094F8A81211F097
:104360008001200003F0A0F8002032BDF8B5040061
:104370000F0015003800C0B2002839D114F5AA701A
:104380000600D4F89402032826D13069F1688842E7
:1043900010D2F1683069091AF160F0683169884219
:1043A00001D2F26800E0326992B22900200003F0E5
:1043B0009EFD30E0D4F8B4020069002808D094F8DB
:1043C0009C02032804D12000D4F8B412096988475C
:1043D000200003F099FD1EE0D4F8940205281AD1BC
:1043E0000020C4F894020021200003F05DF812E0E0
:1043F000D4F8B402806900280BD094F89C020328FA
:1044000007D13900C9B22000D4F8B422926990478C
:1044100001E0022000E00020F2BDF8B504000D002C
:1044200016002800C0B2002868D114F1140007005B
:10443000D4F8940202284AD13869F968884210D227
:10444000F9683869091AF960FA6892B231002000F7
:1044500003F028FD002300220021200003F095F83E
:1044600041E0B8683969B0FBF1F201FB12000028A5
:1044700017D1B8683969884213D3B868D4F898124C
:1044800088420ED200220021200003F00BFD002004
:10449000C4F89802002300220021200003F075F8E0
:1044A00021E0D4F8B402C068002808D094F89C0237
:1044B000032804D12000D4F8B412C96888478021A9
:1044C000200002F0F1FF200003F02BFD0BE0D4F8F8
:1044D0009402042803D0D4F89402002803D1802148
:1044E000200002F0E1FF94F8A002012819D1200079
:1044F000FFF7E3FE002084F8A00212E0D4F8B40233
:10450000406900280BD094F89C02032807D12900A9
:10451000C9B22000D4F8B4225269904701E00220C9
:1045200000E00020F2BD10B504004023002200216D
:10453000200002F088FF0120C4F858014020C4F890
:104540006401402300228021200002F07CFF012032
:10455000A06140206062012084F89C020020C4F821
:104560009402002060600020C4F8A402D4F8B802CD
:10457000002806D06168C9B22000D4F8B42252687D
:104580009047002010BD0200117400207047010008
:1045900091F89C0281F89D02042081F89C02002081
:1045A0007047010091F89C02042803D191F89D0204
:1045B00081F89C020020704710B5040094F89C021A
:1045C000032809D1D4F8B402C069002804D020001F
:1045D000D4F8B412C9698847002010BD18B5A3B03B
:1045E00003F0ACFC00F08AF800F0A4FB00F08EFBB6
:1045F00000F0D4F800F020F900F07BF900F0CEF9DB
:1046000000F030FA00F072FA00F0B4FA00F016FB95
:1046100000F055FB00F03AFB00F0DFFB00F0FDFB83
:1046200000F01BFC00F038FCDFF8380901F033FC27
:104630001CA8DFF834191C22FEF704FA00211CA87C
:1046400003F09EFCDFF82419086015A8DFF8201994
:104650001C22FEF7F7F9002115A803F091FCDFF802
:10466000141908600EA8DFF810191C22FEF7EAF9E9
:1046700000210EA803F084FCDFF80019086007A8E9
:10468000DFF8FC181C22FEF7DDF9002107A803F073
:1046900077FCDFF8F01808606846DFF8EC181C2299
:1046A000FEF7D0F90021684603F06AFCDFF8DC1859
:1046B0000860DFF8DC484FF40051200001F098FB5F
:1046C000642003F08DFC4FF40051200001F090FBBA
:1046D000642003F085FC4FF40051200001F088FBBA
:1046E000642003F07DFC4FF40051200001F080FBBA
:1046F000642003F075FC03F03EFCFEE780B59AB041
:1047000005A8282103F080FC6846142103F07CFCF6
:104710000FA82C2103F078FC012005905FF4803075
:104720000690002107910121099102210C910D9021
:104730005FF4E0100E9005A803F06AFC002801D099
:1047400000F07EFC0F2000900220019000200290DB
:104750004FF480600390002004900221684603F02B
:10476000A0FF002801D000F06BFC5FF402300F9036
:10477000002019905FF0284017900FA804F0FCF873
:10478000002801D000F05CFC4FF4007004F000FA47
:104790004FF4006004F0FCF91BB000BD10B58AB006
:1047A000DFF8F047DFF8F0072060092060600020A4
:1047B000A0605FF08070E0605FF4402020615FF4F3
:1047C0008010606100202076002060760020A076B6
:1047D0000120E07600202077002060772000FEF79F
:1047E00091F9002801D000F02BFC0020059000205A
:1047F00006900120079000200290002003900020E6
:1048000004900120089069462000FEF731FA002844
:1048100001D000F015FC2000FEF7AFFA002801D00F
:1048200000F00EFC02212000FEF71DFC002801D044
:1048300000F006FC0AB010BD38B584B068461021FF
:1048400003F0E2FBDFF85447DFF854072060002054
:1048500060600020A0600020E06000202061002057
:10486000E062200004F0AAF9002801D000F0E8FB83
:104870000021200004F091FA002801D000F0E0FBB4
:104880000021200004F0C9FA002801D000F0D8FB74
:104890000021200004F0A1FA002801D000F0D0FB94
:1048A000DFF8005700222900200004F04CFA00280D
:1048B00001D000F0C5FB5FF0406000905FF4801015
:1048C000019000200290002003906A460021200001
:1048D00004F0CEF9002801D000F0B2FB002229003C
:1048E000200004F0F2F9002801D000F0A9FB05B087
:1048F00030BD38B584B06846102103F085FBDFF881
:10490000A846DFF8A8062060002060600020A060B4
:104910000020E060002020610020E062200004F020
:104920004DF9002801D000F08BFB0021200004F09D
:1049300074FA002801D000F083FB0021200004F06D
:104940004CFA002801D000F07BFBDFF8645600220F
:104950002900200004F0F7F9002801D000F070FBD6
:104960005FF0806000905FF4E00001900020029012
:10497000002003906A460021200004F079F9002805
:1049800001D000F05DFB00222900200004F09DF919
:10499000002801D000F054FB05B030BD18B58DB033
:1049A00009A8102103F030FBDFF80806D0E9002346
:1049B000CDE9002302A81C2103F026FBDFF8F8450F
:1049C0005FF080402060002060600020A060DFF881
:1049D000EC05E060002020610020A061200001F0D3
:1049E00029FA002801D000F02BFB4FF480500990E9
:1049F00009A9200001F0BCFC002801D000F020FB38
:104A0000200001F05DFA002801D000F019FB002021
:104A10000090002001906946200004F051FB00281E
:104A200001D000F00DFB60200290002003900220D6
:104A3000049004200690082202A9200001F010FC36
:104A4000002801D000F0FCFA0C2202A9200001F09D
:104A500007FC002801D000F0F3FA200001F0E8FF85
:104A60000EB010BD18B58BB002A8242103F0CCFA0B
:104A7000DFF84C05D0E90023CDE90023DFF84445F9
:104A8000DFF844052060002060600020A0604FF443
:104A9000FA40E060002020610020A0610120029027
:104AA0000020039001200490002005900020069033
:104AB00000200790012008900020099000200A9013
:104AC00002A9200001F096FA002801D000F0B8FAFF
:104AD00000200090002001906946200004F0F0FAC8
:104AE000002801D000F0ACFA0CB010BD18B58BB0A6
:104AF00002A8242103F088FADFF8D004D0E90023CB
:104B0000CDE90023DFF8C844DFF8C80420600120A5
:104B100060600020A0604FF6FF70E0600020206120
:104B20000020A06101200290002003900120049049
:104B30000020059005200690002007900120089095
:104B40000020099005200A9002A9200001F052FAE5
:104B5000002801D000F074FA00200090002001909D
:104B60006946200004F0ACFA002801D000F068FA91
:104B70000CB010BD18B58DB009A8102103F044FA8F
:104B8000DFF85404D0E90023CDE9002302A81C215A
:104B900003F03AFADFF84444DFF8440420600020D0
:104BA00060600020A060DFF81404E0600020206155
:104BB0000020A061200001F03DF9002801D000F0A4
:104BC0003FFA4FF48050099009A9200001F0D0FB72
:104BD000002801D000F034FA200001F071F900281B
:104BE00001D000F02DFA00200090002001906946CD
:104BF000200004F065FA002801D000F021FA6020BE
:104C000002900020039002200490042006900022CD
:104C100002A9200001F024FB002801D000F010FAC6
:104C2000042202A9200001F01BFB002801D000F0A3
:104C300007FA200001F0FCFE0EB010BD1CB5DFF835
:104C4000A403D0E90023CDE90023C64CDFF8980384
:104C5000206040F2671060600020A0600A20E060E1
:104C60000020A061200001F0E5F8002801D000F04C
:104C7000E7F900200090002001906946200004F030
:104C80001FFA002801D000F0DBF913BD80B5D7482A
:104C9000D749016040F2CF214160002181604FF689
:104CA000DC71C1600021016100214161002181614D
:104CB00001F0C0F8002801D000F0C2F901BD1CB518
:104CC000CC48D0E90023CDE90023CB4CCB48206071
:104CD00040F2CF2060600020A0604FF6DC70E06002
:104CE0000020A061200001F0A5F8002801D000F00C
:104CF000A7F900200090002001906946200004F0F0
:104D0000DFF9002801D000F09BF913BD80B5BC4845
:104D1000016851F002010160006810F0020000908B
:104D20000098002205213A2004F07CFA3A2004F091
:104D30008EFA01BD10B586B001A8142103F064F904
:104D4000AF48016851F400210160016811F40021AD
:104D500000910099016851F480010160016811F42B
:104D6000800100910099016851F4003101600168EF
:104D700011F4003100910099016851F48021016023
:104D8000016811F4802100910099016851F400112B
:104D90000160016811F4001100910099016851F45B
:104DA00080110160006810F4801000900098784C29
:104DB00000224FF46041200001F00EF84FF46040F3
:104DC000019001200290002003900020049001A98E
:104DD000200000F01DFF06B010BD8A4876498160B2
:104DE0000821C1600C21016100210176002141618F
:104DF000674901604FF4004282808348774A8260AD
:104E00000422C26000220261002202760022426176
:104E100001604FF480418180704710B57B4C694838
:104E200020600020A0804FF47A50A0602000FDF7A1
:104E300084FCA188206801F031F9754C6448206039
:104E40000020A08046F2A810A0602000FDF775FCAD
:104E5000A188206801F022F910BD10B56D4C5248B0
:104E60002060534860606C48A0600020E060002132
:104E7000206803F0F9FF4FF47A71206804F024F8F9
:104E8000002801D000F0DCF8206804F044F8002885
:104E900001D000F0D5F810BD80B560495FF06042E8
:104EA0005F4BC1E900235FF060425E4BC1E9022322
:104EB00000220023C1E90423002008620020886149
:104EC0000020C861002088840020C8840020C862B7
:104ED000002081F830004848486300F0C7FF52497D
:104EE0005FF02042514BC1E900230022504BC1E941
:104EF000022300224F4BC1E9042300200862002056
:104F000088610020C861002088840020C8840020B7
:104F1000C862002081F830003448486300F0A6FFE2
:104F200001BD10B5040020684349884201D104F056
:104F30009FF920682C49884203D140480168491CE8
:104F4000016020683549496B0968884201D1FFF743
:104F5000A3FF20683449496B0968884201D1FFF7F3
:104F60009BFF10BDB8770020D0EA00083C7A0020F3
:104F7000ECEA0008407A002008EB0008447A0020A0
:104F800024EB0008487A002040EB00084C7A00200F
:104F9000000800482879002000640040AC7500201B
:104FA0000060014010000400F0750020006801401E
:104FB0004000060084EF0008B87600203F19010089
:104FC0008CEF0008F87600200004004094EF000801
:104FD00038770020000800409CEF00087877002018
:104FE000000C0040A4EF000800140040F8770020F7
:104FF00000480140ACEF000838780020009C0040D9
:1050000014100240507900206C790020EC790020C7
:10501000FC7900200C7A00203CCE613AB878002060
:1050200051B89E3F9E59123FF07800209999C93F90
:105030002505163F00002F4000100040507A002048
:10504000704703681AB95A1E0260084670471978FB
:1050500011B94FF0FF307047591C01601878704744
:10506000F8B505000E000027287C002813D14FF466
:10507000007302228121280002F0E5F90120E86294
:105080004FF4007302220121280002F0DCF9012014
:10509000C5F86C0110E0402302228121280002F0B3
:1050A000D2F90120E862402302220121280002F007
:1050B000CAF90120C5F86C010823032282212800C7
:1050C00002F0C1F9012028644FF4077002F082FA5F
:1050D000C5F8B802D5F8B802002802D101200700AF
:1050E0001FE0D5F8B8020400D5F8BC02006880477C
:1050F0000020C4F814020020C4F81802287C0028FC
:1051000008D14FF40073D4F804220121280002F0E2
:105110003CFA06E04023D4F804220121280002F0E2
:1051200034FA3800C0B2F2BD70B504000D0000269C
:105130008121200002F0A3F90020E062012120007B
:1051400002F09DF90020C4F86C018221200002F0D9
:1051500096F900202064D4F8B80200280AD0D4F8C8
:10516000BC0240688047D4F8B80202F043FA00203D
:10517000C4F8B8023000C0B270BDF8B504000D002C
:10518000D4F8B86200208DF800000020ADF80200CD
:105190000027287810F06000002828D0202863D14C
:1051A000E88800281BD0287800060CD5EA88310052
:1051B0006878D4F8BC329B689847EA8831002000B0
:1051C00002F05AFE12E0687886F80002E88886F855
:1051D0000102EA883100200002F071FE06E00022A0
:1051E00029006878D4F8BC329B68984742E0687818
:1051F000002804D00A2814D00B2823D02DE094F8DE
:105200009C02032806D102220DF10201200002F0C7
:1052100033FE05E02900200002F0F1FD0220070026
:1052200021E094F89C02032805D101226946200060
:1052300002F022FE05E02900200002F0E0FD02203D
:10524000070010E094F89C02032805D029002000F4
:1052500002F0D5FD0220070005E02900200002F041
:10526000CEFD0220070005E02900200002F0C7FD66
:10527000022007003800C0B2F2BDF8B504000D00EE
:10528000D4F8B862D4F8C072D4F8B80200282CD090
:1052900014212800C0B248432044C06900281FD010
:1052A0002800C0B248432044C0692A00D2B252014B
:1052B0003A44926BB0FBF2F302FB130000280FD1CB
:1052C0002800C0B201FB00F104EB01000021C16124
:1052D000002300222900C9B2200002F03BF902E0BD
:1052E0000020C6F81402002000E00220F2BD70B5D4
:1052F00004000D00D4F8B8622900C9B2200002F001
:105300005FF9C6F80C02D4F8B802002809D016F5E7
:105310000371D6F80402D4F8BC22D268904700206A
:1053200000E0022070BD38B50400D4F8B852D4F8BB
:10533000BC02002810D095F80002FF280CD095F888
:10534000012292B2290095F80002D4F8BC329B6881
:105350009847FF2085F80002002032BD010043205D
:1053600008800848704701004320088006487047BD
:105370000100432008800548704701000A2008808A
:10538000034870479400002050000020D8000020FF
:105390000C00002002000220002903D0C2F8BC1239
:1053A00000231800C0B2704710B40300D3F8B8420D
:1053B000C4F80812100080B2C4F81002002010BC1B
:1053C00070470200D2F8B832C3F8041200207047C8
:1053D00038B50400D4F8B852D4F8B802002816D072
:1053E000D5F81402002810D10120C5F81402D5F810
:1053F00010022063D5F810329BB2D5F80822812123
:10540000200002F0A7F8002002E0012000E00220C6
:1054100032BD38B50400D4F8B852D4F8B802002828
:1054200014D0207C002808D14FF40073D5F8042252
:105430000121200002F0A9F806E04023D5F804225B
:105440000121200002F0A1F8002000E0022032BD7E
:10545000F8B504000D0016001F00200003F014FF33
:10546000290014F5017003F015FF290014F5A76059
:1054700003F016FFC4F8C455C4F8C865C4F8CC7569
:105480002000F2BD10B52B4C00222B492000FFF765
:105490008BFF2A492000FFF794FF002010BD002059
:1054A000704703001800C0B2002810D001280FD0A8
:1054B00002280ED003280DD004280CD020280BD0B1
:1054C00021280AD0222809D0232808D008E007E0A4
:1054D00006E005E004E003E002E001E000E0FFE7B1
:1054E0000020704770B504000D00124E21003000FE
:1054F000FFF767FF3000FFF78CFF002070BD2DE93C
:10550000F04104000D0000260A4FD7F8B882D8F801
:105510001402002801D0012009E02A0092B22100E3
:105520003800FFF741FF3800FFF752FFC0B2BDE877
:10553000F08100007069002088650020A0610020D3
:1055400037B5044600250A460194009502AB01A92F
:10555000074878441A30FDF7C5FE019A15700028F7
:105560004EBF04460198041B204603B030BD00BF67
:105570005B00000005B581B0002000900A4602AB38
:1055800001A903487844083003F0AEFE03B000BD23
:10559000B3FAFFFF38B50500202205F2845115F556
:1055A000A76004F0DFFD0400002C07D105F2845150
:1055B000280004F01BFE0400002C05D0220005F298
:1055C0008451280005F0E6F831BD0268531C0360E1
:1055D00011707047C11768B14840401AB0FA80F2A4
:1055E0009040D21CC907C2F5846241EA025202EB24
:1055F000D021400570473F00B0B581EA030C0CF0A4
:10560000004C40F2FF7515EA11541DBF15EA1357FF
:10561000AC42AF4239E0E41923EA455343F4801326
:10562000C90241F0004141EA505EC7021100A7FBE8
:10563000020200284FF00000EEFB01204FF00001B5
:10564000E3FB072118BF42F0010240180021494145
:10565000E3FB0E01A4F580640F0302D25200404127
:10566000494154F101046CDD470872F1004250F1E8
:10567000000051EB0451A1F580115CBF41EA0C011F
:10568000B0BD4CEA05510020B0BD05EA1357AC424D
:1056900014BFAF4241E050EA410E1CBF52EA430E34
:1056A00002E061460020B0BD24423C441BD15FEAC9
:1056B000070EF6D0090302BF01460020AEF1140E1A
:1056C000B1FA81F7AEEB070401FA07FE0C37C7F118
:1056D000200100FA07F7C8404EEA000E23EA4553BE
:1056E00043F48013A2E733F00043B3FA83F704BF17
:1056F000B2FA82FE77440B3FE41BB7F1200E2FBFB6
:1057000002FA0EF3BB40C7F1200E22FA0EFE38BF9C
:1057100043EA0E03BA40641C82E750EA410E14BF0C
:1057200052EA430E6FF000014FF4001717EB430FDE
:105730008ABF194617EB410FB5E74CEA0551002027
:10574000B0BDD4F10104B4F120070FDAC4F1200791
:10575000520828BF42F0010210FA07F501FA07F7D4
:10576000E1BF2A43E0403843E1400FE0352C98DCAC
:10577000C7F1200452EA400220FA07F218BF42F0B3
:10578000010231FA07F0A1400A43002172F1004200
:1057900050F1000051EB0C01B0BD0000F0B540F23B
:1057A000FF7581EA030C0CF0004C15EA11541DBF83
:1057B00015EA1357AC42AF42E5E0BC41C1F3130117
:1057C000C3F31303801A994143F4801304D2641E77
:1057D0004000494180185941C90241EA5051B1FB8A
:1057E000F3F603FB1611A2FB0675D7EBC020A94107
:1057F00002D2761E80185941C90241EA5051B1FBCC
:10580000F3FE03FB1E11A2FB0E75D7EBC020A941CE
:1058100003D2AEF1010E80185941890241EA90513C
:10582000760546EA8E2EB1FBF3F603FB1611A2FBBA
:105830000675D7EB8020A94102D2761E8018594107
:10584000C90241EA50514EEA060EB1FBF3F603FBE2
:105850001611A2FB0675D7EBC020A94102D2761E15
:1058600080185941C90241EA5051B1FBF3F703FBDB
:105870001711A2FB0735D3EBC020A94167F1000740
:105880000CBF004247F0010766F3D5274FEA1E31EF
:10589000B80814F5806412DDBD0775F1004250EBC5
:1058A0000E5051EB045111F5801F5CBF41EA0C0111
:1058B000F0BD4CF07F6141F0E0410020F0BDBD073C
:1058C0006D0840EA0E5041F48011D4F10104B4F1A6
:1058D00020060ADAC4F120060200E04001FA06F3CD
:1058E000E1401843B24015430EE0342C13DCC6F1FE
:1058F000200445EA40056D0820FA06F2154321FA16
:1059000006F0A1400D43002175F1004250F1000066
:1059100051EB0C01F0BD00205FEA0C01F0BDCFB9E6
:1059200092185B41B3FA83F704BFB2FA82F6BF194B
:105930000B3FB7F120062FBF02FA06F3BB40C7F1B9
:10594000200622FA06F638BF3343BA401CB1E419E8
:10595000641E33E77F4231F00041B1FA81F404BFA5
:10596000B0FA80F6A4190B3CB4F120062FBF00FA60
:1059700006F1A140C4F1200620FA06F638BF3143F3
:10598000A0403C1B1AE7AC421ABF05EA1357AF42CE
:1059900012E050EA41061CBF52EA4306BFE750EA54
:1059A0004107304661461CBF41EA0551F0BD52EA4D
:1059B000430C08BFC143F0BD00204FF4001616EBA6
:1059C000410F98BF16EB430F08BF16EB410F24BFE2
:1059D000C14305E016EB430F0CBF61464CEA05518D
:1059E000F0BD000070B44FF0004591EA030F41F1A3
:1059F000BB836B40841A71EB030604D26E40001B1C
:105A0000B141121973414FF4001C1CEB410F34BF1C
:105A10007CEB430683E00C0DA4EB1356362E00F30B
:105A20007C80012E45EAC32341DC43EA525312BF76
:105A3000D20292025B08240545EAC12141EA505195
:105A4000D2EBC020994125D407D1B0FA80F610FAE4
:105A500006F162D00020203608E0B1FA81F6B140AC
:105A6000C6F1200220FA02F21143B0404FEAF4746A
:105A7000B4EB465434F001064FEA74040AD8D6F564
:105A80000016760D04F00044F04061FA06F2504032
:105A9000F1404840C00A40EA415021F0004128BF8F
:105AA0005FEA500550F1000044EBD12135E0DB0AFC
:105AB00045EAC121C90AB6F120050EDD42EA0242DB
:105AC000120CC5F1200603FA06F6EB4042EA060581
:105AD0006D42984161F100010DE062FA06F5F24075
